:100000000C9443060C9470190C948A060C948A067E
:100010000C948A060C948A060C948A060C948A0620
:100020000C948A060C948A060C941E310C94F031C0
:100030000C9468280C948A060C948A060C948A0600
:100040000C948A060C948A060C948A060C948A06F0
:100050000C948A060C94D0280C948A060C948A0678
:100060000C948A060C948A060C948A060C948A06D0
:100070000C948A060C948A060C948A060C948A06C0
:100080000C948A060C948A060C948A060C948A06B0
:100090000C948A060C948A060C948A060C948A06A0
:1000A0000C948A060C948A060C948A069113941375
:1000B0009913A013A513AA13AF13B413B913BE1346
:1000C000C313C813CB13CB13CB13CB13CB13CB134B
:1000D000CB13CB13051E051E371E371E841EA41E10
:1000E00029202920E61E831F941F941FF51FFE1F41
:1000F00029202220AB20AB20BD20BD20B420BD2074
:10010000BD20BD20AB20AB20B920BD20BD20B92033
:100110005D328432763384327633D032F3327633C2
:10012000493358332B00085D095D0A5D13001C003C
:10013000296104001200080018000C00E1000B5DAA
:1001400014000D000E001B00E000E300E200075168
:1001500004512C000000000001003802E100E20020
:100160002A000F00150006000A00090028001600EA
:10017000110017000B000700E1001D0019001A0014
:1001800010000500E4000951E600065108512C005A
:100190000000000001002A00E100E6002B0034000E
:1001A0003600370013001C0029610400120008000B
:1001B00018000C00E100330014000D000E001B00BD
:1001C000E000E300E200075105512C0000000000B0
:1001D00001002D02E100E2002A000F0015000600D8
:1001E0000A00090028001600110017000B00070084
:1001F000E1001D0019001A0010000500E40009517B
:10020000E600065108512C000000000001002A0001
:10021000E100E6002B0014001A000800150017008A
:10022000296104001600070009000A00E1001D0012
:100230001B00060019000500E000E300E200075182
:1002400005512C000000000001002D02E100E20039
:100250002A00130012000C0018001C0028003300B4
:100260000F000E000D000B00E100340037003600D7
:1002700010001100E4000951E600065108512C005D
:100280000000000001002A00E100E6002B001E0033
:100290001F002000210022002961170014001A000D
:1002A00008001500E1000500040016000700090021
:1002B000E0001D001B000600190005000000000002
:1002C000E300E2002C0010002A0027002600250091
:1002D00024002300280033000F000E000D000B0047
:1002E000E10034003700360010001100E40009512D
:1002F000E600065108512C000000000004512A00BD
:100300000C5DE60001001E021F14200221142202CF
:1003100001002D002702251426142D0201000100E2
:1003200006011B0119013014010001000100010048
:1003300001000100000000000100010001000100B7
:10034000010031022602250223023002010038009A
:100350002714241424022D140100330034002F002C
:1003600064142E02010001000100010001000100DF
:1003700000000000010001000100010001001E0258
:100380001F0220022102220201002E022E002F0055
:10039000300038020100010006011B01190135027D
:1003A0000100010001000100010001000000000047
:1003B00001000100010001000100250227022602C0
:1003C0002402230201002D0030022F0238003100E8
:1003D00001000100010001003102350001000100AF
:1003E0000100010001000100000000000100010007
:1003F0000100010001003A003B003C003D003E00CE
:10040000010050004F005200510044000100010063
:1004100001000100010001000100010001000100D4
:1004200001000100000000000100010001000100C6
:10043000010043004200410040003F0001004C0029
:100440004A004B0046004500010049004D004E00A7
:100450000100010001000100010001000100010094
:1004600000000000010001000100010001004C0536
:100470000100010001000100010049040100010028
:100480000100010001002903010001000100010039
:100490000100010001000100010001000000000056
:1004A0000100010001000100010001000100010044
:1004B0000100010001000100010001000100010034
:1004C0000100010001000100010001000100010024
:1004D0000100010001000100000000000100010016
:1004E0000100010001000100010001000100010004
:1004F00001001E001F002000210022000100010059
:1005000001000100010001000100010001000100E3
:1005100001000100000000000100010001000100D5
:10052000010001000100010001000100010027009D
:100530002600250024002300010001000100010025
:1005400001000100010001000100010001000100A3
:100550000000000001000100010001000100010095
:100560000100010001000100010001000100010083
:100570000100010001000100010001000100010073
:100580000100010001000100010001000000000065
:100590000100010001000100010001000100010053
:1005A0000100010001000100010001000100010043
:1005B00001000F5D0E5D0D5D105D01000100010089
:1005C0000100010001000100000000000100010025
:1005D0000100010044454255473A20646973616255
:1005E0006C65642E0A0044454255473A20656E61A9
:1005F000626C65642E0A000A0025303862003A20D9
:100600000025303258000A722F63203031323334E3
:100610003536370A007267626C69676874207365E3
:100620007420687376205B4E4F454550524F4D5DA8
:100630003A2025752C25752C25750A007267626C89
:10064000696768742073657420687376205B45451C
:1006500050524F4D5D3A2025752C25752C25750A75
:10066000007267626C696768742064697361626CA8
:1006700065205B4E4F454550524F4D5D3A207267A5
:10068000626C696768745F636F6E6669672E656E1A
:1006900061626C65203D2025750A007267626C6995
:1006A0006768742064697361626C65205B454550BE
:1006B000524F4D5D3A207267626C696768745F6380
:1006C0006F6E6669672E656E61626C65203D2025E0
:1006D000750A007267626C6967687420656E616292
:1006E0006C65205B454550524F4D5D3A2072676204
:1006F0006C696768745F636F6E6669672E656E61AB
:10070000626C65203D2025750A007267626C69671E
:10071000687420746F67676C65205B454550524F65
:100720004D5D3A207267626C696768745F636F6ED3
:100730006669672E656E61626C65203D2025750ACD
:10074000007267626C69676874206D6F6465205B16
:100750004E4F454550524F4D5D3A2025750A007267
:1007600067626C69676874206D6F6465205B4545DE
:1007700050524F4D5D3A2025750A007267626C69D0
:100780006768745F696E6974207267626C69676814
:10079000745F636F6E6669672E6D6F6465203D20C0
:1007A000302E2057726974652064656661756C74BB
:1007B0002076616C75657320746F20454550524FEB
:1007C0004D2E0A007267626C696768745F696E69B2
:1007D00074206565636F6E666967206973206E6F4C
:1007E0007420656E61626C65642E0A007267626CCB
:1007F000696768745F696E697420737461727421CB
:100800000A007267626C696768745F696E69742058
:1008100063616C6C65642E0A007267626C6967685C
:10082000745F636F6E6669672E7370656564203DE3
:100830002025640A007267626C696768745F636F81
:100840006E6669672E76616C203D2025640A007211
:1008500067626C696768745F636F6E6669672E7341
:100860006174203D2025640A007267626C696768C4
:10087000745F636F6E6669672E687565203D20251D
:10088000640A007267686C696768745F636F6E669C
:1008900069672E6D6F6465203D2025640A007267CC
:1008A000626C696768745F636F6E6669672E656EF8
:1008B00061626C65203D2025640A007267626C6984
:1008C0006768745F636F6E66696720454550524F75
:1008D0004D3A0A006261636B6C69676874207374D7
:1008E00065703A2025750A006261636B6C69676800
:1008F000742064697361626C650A006261636B6C89
:100900006967687420656E61626C650A0062616384
:100910006B6C6967687420746F67676C653A202533
:10092000750A006261636B6C696768742064656353
:1009300072656173653A2025750A006261636B6CAC
:100940006967687420696E6372656173653A202512
:10095000750A000001010101010101010102020209
:10096000020202020202030303030303030304045B
:100970000404040404050505050506060606060725
:100980000707070708080808090909090A0A0A0BDE
:100990000B0B0C0C0C0D0D0D0E0E0E0F0F0F10107F
:1009A0001111111212131314141515161617171806
:1009B0001819191A1A1B1B1C1D1D1E1E1F20202171
:1009C0002222232424252626272829292A2B2C2DB8
:1009D0002D2E2F30313232333435363738393A3BD9
:1009E0003C3D3E3F404142434445464748494A4CCE
:1009F0004D4E4F50515354555658595A5B5D5E5F9A
:100A0000616264656668696B6C6D6F70727375772F
:100A1000787A7B7D7E8082838587888A8C8E8F9191
:100A2000939596989A9C9EA0A2A3A5A7A9ABADAFBB
:100A3000B1B3B5B7BABCBEC0C2C4C6C9CBCDCFD1A5
:100A4000D4D6D8DBDDDFE2E4E7E9EBEEF0F3F5F84E
:100A5000FAFDFF0A002530325820006B6579626F7D
:100A60006172645F7265706F72743A20000A0025CB
:100A7000303258006B6579626F6172645F736574C0
:100A80005F6C65643A2000290A002575002F002557
:100A900075005D28002564002000256400200025E5
:100AA000640020002564007C0025303258006D6F02
:100AB0007573656B6579205B62746E7C7820792034
:100AC0007620685D287265702F61636C293A205B1F
:100AD000005B735D004B6579626F617264207374B3
:100AE0006172742E0A005B575D005B535D005B52C0
:100AF0005D005B445D005B435D000403300000006B
:100B00001C03490072006900730020004B0065005F
:100B1000790062006F0061007200640000000E0343
:100B20004B0065006500620069006F00000004036F
:100B3000090409025B00030100A0FA090400000196
:100B40000301010009211101000122400007058174
:100B50000308000A09040100010300000009211133
:100B60000100012285000705820320000A09040212
:100B700000020300000009211101000122220007E8
:100B80000583032000010705030320000112011063
:100B9000010000000810CB561200040102030106F8
:100BA00031FF0974A1010975150026FF0095207514
:100BB0000881020976150026FF009520750891022C
:100BC000C005010902A10185020901A10005091959
:100BD000012905150025019505750181029501750D
:100BE0000381010501093009311581257F950275C1
:100BF00008810609381581257F950175088106054C
:100C00000C0A38021581257F950175088106C0C040
:100C100005010980A10185031A81002A83001601BC
:100C200000260300950175108100C0050C0901A183
:100C30000185041A01002A9C02160100269C0295D7
:100C40000175108100C005010906A101050719E021
:100C500029E71500250195087501810295017508A0
:100C600081010507190029FF150026FF009506756B
:100C7000088100050819012905950575019102955E
:100C80000175039101C011241FBECFEFDAE0DEBF72
:100C9000CDBF04B603FE27C08091830290918402E9
:100CA000A0918502B09186028730904BA740B04B4F
:100CB000D1F4109283021092840210928502109255
:100CC000860214BE84B7877F84BF0FB6F894A895B8
:100CD00080916000886180936000109260000FBE78
:100CE000E0E0F8E3099511E0A0E0B1E0E2EFF8E61A
:100CF00002C005900D92A036B107D9F722E0A0E618
:100D0000B1E001C01D92A338B207E1F70E943E2E68
:100D10000C9477340C940000FF93EF93E091600102
:100D2000F0916101309709F00995EF91FF910895D5
:100D3000FC018591803011F0EFDFFBCF0895FF2794
:100D4000E0E230E247FF0CC0419597FF09C0EDE2B9
:100D50006095709580959095611D711D811D911D07
:100D600027FF02C0219530E350E2AA27660F771FC4
:100D7000881F991FAA1FA41710F0A41B63955A95EA
:100D8000A9F7AA3008F0A95FA05DAF93F3956115AC
:100D900071058105910541F7ED3211F4EF93F3955B
:100DA000F21718F43F93F395FBCF8F91B5DFFA95C7
:100DB000E1F70895E991F9918591803021F085322C
:100DC00019F0AADFF9CF089520E0E8945591553243
:100DD000C1F3503311F4689455915A3348F4505389
:100DE00090F3220F022E220F220F200D250FF4CF99
:100DF0000EF4219589919991533619F3533729F1BE
:100E0000533559F1BC0188279927E8945C3621F4C1
:100E10008991999168945591543639F446EF7EF052
:100E200077FF0DC08FEF9FEF0AC055374AE039F0CA
:100E3000583540E121F0523642E009F00895FF9321
:100E4000EF937DDFEF91FF91B7CFFF93EF93FC011D
:100E500081918030B9F360DFFBCFFF93EF9368DFC0
:100E6000F1CFDF93CF93CDB7DEB72596A3DFCF9138
:100E7000DF910895089508950F931F93CF93DF9303
:100E8000EC018B018091630186FF12C0C13ED10548
:100E900021F4FB018281882319F081EE0E942C1C31
:100EA00084E60E944A1D809163018F7B80936301D9
:100EB000CB30FDE5DF0709F4C2C0A0F4C830EDE592
:100EC000DE0751F128F4C13ED10509F413C13DC13B
:100ED000C9308DE5D80709F44FC0CA30DD4509F4A3
:100EE0007EC033C1CE30FDE5DF0709F4EFC050F41A
:100EF000CC30EDE5DE0709F4D3C0CD30DD4509F493
:100F0000DEC023C1CF308DE5D80709F4E5C0C0317C
:100F1000DD4509F4E7C019C1F80182818823A9F0F1
:100F2000E0912501F0912601808181FF07C08FE1CA
:100F30000E942C1C80916301816005C181E30E94A5
:100F40002C1C809163018260FEC08091630180FF50
:100F500008C08FE10E944A1D809163018E7F8093BB
:100F600063018091630181FFF0C081E30E944A1D0B
:100F7000809163018D7FE7C0F80182818823C1F0F1
:100F8000E0912501F0912601808181FF0AC081EE68
:100F90000E944A1D84E60E942C1C8091630180649B
:100FA000D2C086E30E942C1C809163018068CBC074
:100FB0008091630186FF08C084E60E944A1D8091EB
:100FC00063018F7B809363018091630187FFBDC0C4
:100FD00086E30E944A1D809163018F77B4C0F801B7
:100FE00082818823A9F0E0912501F091260180817A
:100FF00081FF07C084E60E942C1C809163018460FD
:10100000A2C087E30E942C1C8091630188609BC072
:101010008091630182FF08C084E60E944A1D80918E
:1010200063018B7F809363018091630183FF8DC097
:1010300087E30E944A1D80916301877F84C0F80185
:1010400082818823C1F0E0912501F0912601808101
:1010500081FF07C087E30E942C1C8091630180619F
:1010600072C081EE0E942C1C86E30E942C1C809191
:101070006301806268C08091630184FF08C087E3D8
:101080000E944A1D809163018F7E8093630180914D
:10109000630185FF5AC086E30E944A1D81EE4EC05F
:1010A000F8018281882359F08091620180FF04C099
:1010B00084EF0E944A1D03C084EF0E942C1CF8019B
:1010C0008281882309F441C080E011C0F801828147
:1010D0008823D9F181E00BC0F80182818823A9F12E
:1010E00082E005C0F8018281882379F183E00E94C3
:1010F000E7082BC0F8018281882321F081EE0E944D
:101100002C1C1BC081EE0E944A1D8FE10E944A1DCB
:10111000809163018E7F8093630184E60E944A1D63
:10112000809163018B7F8093630187E30E944A1D56
:10113000809163018F7E8093630186E30E944A1D44
:10114000809163018F7D8093630181E0DF91CF9176
:101150001F910F91089581E008950C943C071F930F
:10116000CF93DF9300D000D01F92CDB7DEB7498375
:101170005A8320919E0189819A81211112C0662390
:1011800049F00E94D225182F682F89819A810E94E8
:10119000752503C00E94A525182F69817A81812FAA
:1011A00004C00E94D22569817A810F900F900F9020
:1011B0000F900F90DF91CF911F910C94B509FC0116
:1011C000408151816281738184810C94AF08CF93F7
:1011D000DF9361E070E0EB0102C0CC0FDD1F8A9568
:1011E000E2F78C2F0E943027BE0180E090E0DF9173
:1011F000CF910C9476240E941D27811102C00E9479
:10120000CB270E948E150E94D8150C94970C0E9433
:101210003A160C94990C08950C940B0981E00895EA
:101220000C940E09CF93C82F0E940C098C2F0E949A
:101230001009CF91089508950E949B200E941B09D8
:101240002FEF84E39CE0215080409040E1F700C004
:1012500000000C94F6280F931F93CF93DF938C011B
:101260000E94DF08EC01B8010E94AD08882309F450
:1012700071C0B801CE010E944B17882309F46AC0DF
:10128000B801CE010E948C17882309F463C0B8010D
:10129000CE010E947A13882309F45CC0F801828190
:1012A000882339F1C1308CE5D80759F0CE3DECE503
:1012B000DE07E1F0C115FCE5DF07D9F40E941C0947
:1012C00049C080911402C82FC095C170C0FB80F93D
:1012D00080931402CC2329F086EE95E00E949806B4
:1012E00039C084ED95E00E94980635C00E94CB2756
:1012F00031C0C631DC4539F50E945226282FF8014D
:1013000082814091250150912601882379F02A7A23
:1013100091E009F490E090936401911102C069E2B8
:1013200001C065E3CA010E9404280AC080916401DB
:10133000811102C069E201C065E3CA010E9406286A
:101340000E949E2607C0C801DF91CF911F910F9187
:101350000C94AB08C0E08C2FDF91CF911F910F91BF
:10136000089580E090E00895089596E0799FF00157
:1013700011249CE3899FE00DF11D1124E60FF11D5E
:10138000EE0FFF1FEC5DFE4F859194910895880F3D
:10139000991FFC01E950FA4F859194910895CF93DC
:1013A000DF930E94B5090E94C00BEC01811521E575
:1013B000920708F042C0811560E5960708F02FC13A
:1013C000883E910500F5803E910508F0D5C1883A28
:1013D000910570F4853A910508F0A4C0813091051B
:1013E00009F4CAC108F47BC1049708F0C5C177C1EC
:1013F0008F3B910508F4A1C0803C910508F46FC1B2
:10140000805C9109FBC0C11580E3D80780F4C11549
:1014100090E2D90708F0F0C0C03FD10508F45FC1E1
:10142000CF3FD10511F008F0A7C1D065A5C1C11506
:1014300020E4D20708F0F0C0E5C0811569E5960701
:1014400060F5C11588E5D80708F035C1C11594E5E8
:10145000D90778F4C11523E5D20708F011C1C115E9
:1014600062E5D60708F0F6C0DC2FCC27C16FD06A42
:1014700083C1C11585E5D80708F418C1C11596E5E3
:10148000D90708F02CC18C2F0E94540C8F71C82FE3
:10149000D0E0DC2FCC27D0626FC18D3B2CE59207CA
:1014A00009F414C1E0F4CB3B8CE5D80709F408C17A
:1014B00008F009C1C1152AE5D20708F010C18C2F28
:1014C0008F700E94540C94E0D695C7959A95E1F7D9
:1014D000CF70D0E0DC2FCC27D069C82B4DC1803C29
:1014E0009C4509F4F9C0C13C8CE5D80760F4CE3BBB
:1014F0009CE5D90709F4EDC0CF3BDC4509F0EFC00E
:10150000C0E0D2ED39C1CE0190568115904208F06D
:10151000E6C08D2F8F710E94540CDD27D0628F7131
:10152000D82B2AC1853A910509F4DCC0863A910589
:1015300009F0DBC0C2E8D0E41FC1883A910509F484
:10154000D7C0893A910509F4D6C08A3A910509F4C1
:10155000D5C08B3A910509F4D4C08C3A910509F4B1
:10156000D3C08B3B910509F4D2C08C3B910509F4A3
:10157000D1C08D3A910509F4D0C0803B910509F4A2
:10158000CFC08E3A910509F4CEC08F3A910509F487
:10159000CDC0813B910509F4CCC0823B910509F493
:1015A000CBC0833B910509F4CAC0843B910509F483
:1015B000C9C0853B910509F4C8C0863B910509F473
:1015C000C7C0873B910509F4C6C0883B910509F463
:1015D000C5C0893B910509F4C4C08D3B910509F450
:1015E000C3C08E3B910509F4C2C08A3B910509F442
:1015F000C1C0C0E0D4E4C0C0CE019F700E94C70942
:10160000EC01BAC0CE019927D3FF03C0EC01D86C1E
:10161000B3C0EC01D06CB0C0DF70D06AADC08370D5
:1016200021E030E002C0220F331F8A95E2F73C68C8
:10163000CE0174E0969587957A95E1F78370382B03
:10164000CF70C695C69580E2C89FE0011124C22BD9
:10165000D32B92C04C2F4695469590E2499FA0010E
:101660001124C370DD2721E030E0C90102C0880FDA
:10167000991FCA95E2F7EC01C42BD52BDC687CC01E
:101680004C2F4695469580E2489FA0011124C370D7
:10169000DD2721E030E0C90102C0880F991FCA95FB
:1016A000E2F7EC01C42BD52BDA6866C0DC2FCC271F
:1016B000C46FD06A61C0DC2FCC27C06FD06A5CC019
:1016C000C0E0D4ED59C0C0E0D5ED56C0C0E0D1EDCA
:1016D00053C0C0E0D0ED50C0C0E0D3ED4DC0C0E07D
:1016E000D0E04AC0C1E8D0E447C0C3E8D0E444C079
:1016F000C2EED4E441C0C9EED4E43EC0CAEED4E4A4
:101700003BC0C5EBD4E438C0C6EBD4E435C0C3EB72
:10171000D4E432C0C4EBD4E42FC0C7EBD4E42CC073
:10172000CCECD4E429C0CDECD4E426C0C3E8D5E4A5
:1017300023C0CAE8D5E420C0C2E9D5E41DC0C4E98D
:10174000D5E41AC0C1E2D6E417C0C3E2D6E414C09F
:10175000C4E2D6E411C0C5E2D6E40EC0C6E2D6E4C7
:101760000BC0C7E2D6E408C0CFE6D4E405C0C0E7AA
:10177000D4E402C0CAE2D6E4CE01DF91CF9108954D
:101780008238910569F1B0F48133910509F46DC097
:1017900048F48932910509F463C08A32910509F44D
:1017A00069C008958533910509F455C089339105C1
:1017B000B9F00895833E910569F138F4803E9105B2
:1017C000B1F0823E910509F10895863E9105A9F197
:1017D000873E9105B9F1843E910509F064C023C0AC
:1017E0002091740220FD4FC021FD4DC008958091CD
:1017F000740280FD44C08091750280FF44C08091D6
:10180000740284FD42C083EE4DC08091740282FF59
:1018100038C0F5CF8091740282FD33C0809175028B
:1018200080FD31C0ECCF8091750281FF32C0809184
:10183000740284FD2AC087EE35C08091740283FF54
:1018400026C0F5CF8091740283FD21C0809175027E
:1018500081FD1FC0ECCF8091740285FD1CC01DC0AE
:101860008091740285FD19C016C08091740286FDB6
:1018700016C017C08091740286FD13C010C089E3A2
:1018800011C082EE0FC080EE0DC080E00BC086EE6E
:1018900009C084EE07C089E205C085E303C08AE27F
:1018A00001C081E390E008959091740292FF0DC011
:1018B000282F2871283019F4877F846006C0282FCC
:1018C0002471243011F48B7F886093FF0DC0282F82
:1018D0002871283119F4877E846106C0282F24716D
:1018E000243111F48B7E88612091750220FF0DC098
:1018F000382F3871383019F4877F816006C0382F4F
:101900003171313011F48E7F886021FF0DC0282F96
:101910002871283119F4877E816106C0282F217132
:10192000213111F48E7E886194FD877E08950C9498
:101930003A070C943B07E82FF0E0E85CFD4F80810C
:101940000895CF92DF92EF92FF920F931F93CF9360
:10195000DF9386E096E00E94980688E3E82E82E016
:10196000F82EC0E0D0E091E0C92E96E0D92E09EF24
:1019700015E0DF93CF93DF92CF920E9431078EEF75
:1019800095E00E949806F70181917F010E94072748
:101990001F928F931F930F930E94310787EF95E05B
:1019A0000E94980621968DB79EB708960FB6F894B8
:1019B0009EBF0FBE8DBFCA30D105D9F6DF91CF9142
:1019C0001F910F91FF90EF90DF90CF9008950895B1
:1019D000CF93DF93CDB7DEB760970FB6F894DEBF35
:1019E0000FBECDBF0E94BB0E8091100181112CC093
:1019F000FE0131968AE0DF011D928A95E9F781E3C5
:101A0000898382E38A8382E98B8381EF8C8384EFED
:101A10008D83A6E0B1E08AE08E0F91919D938E13A5
:101A2000FCCF86E0E8E3F1E0DE011B9601900D9229
:101A30008A95E1F7A0E0B1E0FE013B9686E08E0FCB
:101A400091919D938E13FCCF80911001811102C062
:101A500095E001C090E09093430285E0891B80935C
:101A60004202A6E0B1E041E050E025E02A0F8D916E
:101A7000E82FE295EF70F0E031A18F70BA0102C05B
:101A8000660F771F8A95E2F7CB01962F90959323E7
:101A900091A392A1892B82A32A13E9CFA0E0B1E000
:101AA00041E050E026E02A0F8D91E82FE295EF709B
:101AB000F0E031A18F70BA0102C0660F771F8A95DE
:101AC000E2F7CB01962F9095932391A392A1892BB6
:101AD00082A32A13E9CFA8E3B2E0EEE2F2E08AE0C3
:101AE0008E0F11921D928E13FCCF85E00E94600E26
:101AF00060960FB6F894DEBF0FBECDBFDF91CF91D9
:101B00000C94FB080E949E0E882321F180914202D2
:101B100090E0885C9D4F0E94F90E811117C0809162
:101B200065018F5F80936501863090F020914202BD
:101B300080E090E030E0FC01E20FF31FE85CFD4F35
:101B40001082019685309105B1F702C010926501AF
:101B50000C9407098091430290E0885C9D4F0E949D
:101B6000260F0E943A160C94E70CCF92DF92EF9268
:101B7000FF920F931F93CF93DF93A6E0B1E0EEE2C5
:101B8000F2E0D12C41E050E085E0C82ECE0ECF012E
:101B9000F08010826C91262F22952F7030E0E901A1
:101BA00019A16F70EA0102C0CC0FDD1F6A95E2F740
:101BB000BE01612BE90169A33C91632F62956F70AF
:101BC00070E0EB011AA13F70EA0102C0CC0FDD1FEB
:101BD0003A95E2F79E0120952123EB012AA3D0EA52
:101BE000DA95F1F700E011E020E030E0E801E9905B
:101BF0008E016E2D62956F7070E0EB0168A170E050
:101C0000DE2DDF7002C075956795DA95E2F760FD0D
:101C100007C0BA01022E01C0660F0A94EAF702C09B
:101C200060E070E07081672B60832F5F3F4F26304C
:101C30003105E1F67C91272F22952F7030E0E901E4
:101C400019A17F70EA0102C0CC0FDD1F7A95E2F77F
:101C5000BE0160956123E90169A36D91262F22954C
:101C60002F7030E0E9011AA16F70EA0102C0CC0FB9
:101C7000DD1F6A95E2F7BE01612BE9016AA3319687
:101C800021E0EC018881F81201C020E0D22ACE12B6
:101C90007ECF6091430270E0685C7D4F2D2D45E062
:101CA0008EE292E00E94610E0E94820D8D2DDF91E6
:101CB000CF911F910F91FF90EF90DF90CF900895FB
:101CC0000895FF920F931F93CF93DF938C01F62E0D
:101CD000D72FC42F222349F081E0809368010E940E
:101CE0009A28909367018093660180916801882308
:101CF000C1F080916601909167010E94A628069725
:101D000080F0EF2DFD2FD8014C2F50E0CD01801B2E
:101D1000910B841795071CF48D918193F7CF109246
:101D20006801DF91CF911F910F91FF900895559811
:101D30005D9889B185FB882780F9089580916901B4
:101D4000811112C08091D80080618093D8008AE10F
:101D50008A95F1F700C08091D90080FD02C082E031
:101D600001C081E08093690181E090916901913027
:101D700009F080E008950E94970E809310018091F1
:101D8000100166E0882311F080E001C086E00E9427
:101D9000DE0F0E949E0E81110C94D00E0C94D60E74
:101DA00062E070E081E191E00C94151962E070E06E
:101DB00081E191E00C941E190E943413882361F094
:101DC00083E791E00E943A1381E090E00E94001ABC
:101DD000892B11F40C943713089580917201883087
:101DE00039F460E083E791E00E944D131092720194
:101DF0000895CF93DF93D82FC92F0E94DC0E80E087
:101E000090E00E94001A892BE9F4ED2FFC2F80E06E
:101E100090E0DC01A459BE4F2C91219301968530AE
:101E20009105B9F70E94D013882319F00E94D413AA
:101E300001C080E080936B0181E791E00E94AB16C6
:101E400081E001C080E0DF91CF910895CF93DF93CF
:101E500000D0CDB7DEB789839A830E94ED0E8981C9
:101E6000E82F9A81F92F80E090E02191DC01A459BC
:101E7000BE4F2C93019685309105B9F780916B0187
:101E80000E94311581E791E00F900F90DF91CF9183
:101E90000C94A216AF92BF92CF92DF92FF920F9353
:101EA0001F93CF93DF93D62E372FE82FF0E07111D9
:101EB00006C0ED5AF64F6491762F862F75C0C72F56
:101EC000D0E0ED5AF64F2491F22E022F10E046E0BA
:101ED000649FC0011124EFEFF0E0BF010E94C53301
:101EE000AB016BEA6403C001659F900D11248D0D59
:101EF000911D8D0D911D982F990F890FDF01AC1B3E
:101F0000BD0B0A9FB0010B9F700D1A9F700D11241D
:101F1000972F839FD0011124AB2FBB276F01CA1AC3
:101F2000DB0A0C9DD0010D9DB00D1C9DB00D112440
:101F30005F01A81AB108AC9E6001AD9ED00CBC9E9A
:101F4000D00C1124CD2DDD27EC1BFD0B0E9FE001E5
:101F50000F9FD00D1E9FD00D1124ED2F4230510543
:101F600091F04CF441155105E1F041305105B9F4BF
:101F7000E22F2B2F16C04430510569F044F0463053
:101F8000510579F00CC0E22F272F9D2F0AC0272F73
:101F90009F2DEB2F06C0E72F922F2D2F02C0E72F8A
:101FA0009B2F6E2F722F892FDF91CF911F910F9151
:101FB000FF90DF90CF90BF90AF90089580937C0109
:101FC000609322010895CF93DF93762FE901682F64
:101FD000842F0E944A0F798368838A83DF91CF918F
:101FE000089580914402982F9695913021F0817048
:101FF000826080934402089588E090E00C94373426
:10200000CF93DF9300D000D0CDB7DEB7AB01BC01DA
:1020100049835A836B837C830E94F10F49815A81E3
:102020006B817C8188E090E00F900F900F900F9073
:10203000DF91CF910C945534E4E4F2E083E08083A7
:1020400011828FEF828383831482AEE7B1E0129610
:102050008C911297836012968C936081718182813A
:1020600093810C9400108091140280FF08C08BEBC8
:1020700098E09F938F930E9431070F900F9080916B
:10208000140280FF0FC08091440281701F928F93D1
:102090008EE998E09F938F930E9431070F900F90E5
:1020A0000F900F908091140280FF0FC08091440226
:1020B00086951F928F9383E898E09F938F930E9459
:1020C00031070F900F900F900F908091140280FFB6
:1020D0000EC0809145021F928F9389E698E09F93EE
:1020E0008F930E9431070F900F900F900F90809167
:1020F000140280FF0EC0809146021F928F938FE4DE
:1021000098E09F938F930E9431070F900F900F904C
:102110000F908091140280FF0EC0809147021F92A1
:102120008F9385E398E09F938F930E9431070F90E0
:102130000F900F900F908091140280FF0EC080913D
:1021400048021F928F9389E198E09F938F930E949A
:1021500031070F900F900F900F90089580914802D3
:10216000833018F48F5F809348026091440270912D
:10217000450280914602909147020C940010809194
:102180004802882319F081508093480260914402EC
:102190007091450280914602909147020C94001084
:1021A0006091220170E08091440280FF0AC080911A
:1021B0007C0123E0829FC0011124875B9D4F0C941A
:1021C000D21580917B0190912101891780F7E82F2A
:1021D000F0E09F01220F331FE20FF31FE75BFD4F7B
:1021E0001182108212828F5FF0CF809144028E7F25
:1021F00080934402609144027091450280914602AE
:10220000909147020E9400108091140280FF0FC03D
:102210008091440281701F928F938BE996E09F9387
:102220008F930E9431070F900F900F900F90809125
:1022300080018160809380012FEF80E792E0215040
:1022400080409040E1F700C000000C94D0108091D5
:1022500044028E7F809344028091140280FF0CC060
:102260001F921F9281E696E09F938F930E94310701
:102270000F900F900F900F9080918001816080935C
:1022800080012FEF80E792E0215080409040E1F7FD
:1022900000C000000C94D0109091440290FF16C032
:1022A00090917B0120912101921770F4E92FF0E0C9
:1022B000DF01AA0FBB1FEA0FFB1FE75BFD4F818306
:1022C000608342839F5FF0CF0C94D0100895EF920B
:1022D000FF920F931F93CF93DF9300D01F92CDB740
:1022E000DEB79091440290FF65C0E22EF42E062FD7
:1022F000182FE92FE695F0E0E25CFE4F8081809395
:102300007E019E7F923059F49E012F5F3F4F812FB7
:102310000E94E30F4B8169818A810E944C11809158
:102320004502811308C080914602801304C0809149
:1023300047028F1529F0809180018260809380018F
:102340001093450200934602F0924702EE20E9F016
:10235000609144027091450280914602909147023B
:102360000E9400108091140280FF24C080914702D7
:102370001F928F93809146021F928F938091450206
:102380001F928F938CE396E00CC08091140280FF23
:1023900011C01F92FF921F920F931F921F9385E10E
:1023A00096E09F938F930E9431070FB6F894DEBF9B
:1023B0000FBECDBF0F900F900F90DF91CF911F9167
:1023C0000F91FF90EF900895E4E4F2E09181282FBF
:1023D0004381628188E0890F0C94671181E00C943D
:1023E000E411E4E4F2E09181282F4381628188EFD7
:1023F000890F0C94671181E00C94F111E4E4F2E090
:10240000628121E1620F08F46FEF282F43818181FF
:102410000C94671181E00C94FE11E4E4F2E0628117
:1024200021E1621B08F460E0282F438181810C9434
:10243000671181E00C940D12E4E4F2E0438121E1A4
:10244000420F08F44FEF282F628181810C946711AD
:1024500081E00C941C12E4E4F2E0438121E1421B90
:1024600008F440E0282F628181810C94671181E09B
:102470000C942B1220E00C9467118091440280FF91
:102480003AC08170826080934402809180018160B3
:10249000809380016623B1F06091440270914502FF
:1024A00080914602909147020E9400108091140290
:1024B00080FF19C08091440286951F928F938FE50B
:1024C00097E009C08091140280FF0DC01F9281E047
:1024D0008F9381E497E09F938F930E9431070F9031
:1024E0000F900F900F9040914702609146028091AB
:1024F00045020C943A120895682F81E00C943D1225
:1025000081E00C947C12682F9091440296958FEF95
:10251000890F09F481E00C943D1281E00C94831240
:1025200061E00C943D1280914402816080934402EA
:102530008091140280FF0DC01F9281E08F9383ED84
:1025400096E09F938F930E9431070F900F900F900A
:102550000F908091440286950C9490128091140201
:1025600080FF10C080914402809581701F928F93EC
:102570008AE097E09F938F930E9431070F900F900E
:102580000F900F908091440280FD0C94F5100C94F4
:10259000931260E00C943D1280917D01811163C023
:1025A0008091140280FF08C082E098E09F938F938F
:1025B0000E9431070F900F908091140280FF08C095
:1025C0008CEE97E09F938F930E9431070F900F90AE
:1025D0000E941D27811110C08091140280FF08C045
:1025E00084EC97E09F938F930E9431070F900F9098
:1025F0000E94CB270E941C100E94FC0F6093440293
:102600007093450280934602909347028091800127
:102610008360809380016E7FC1F48091140280FFFB
:1026200008C08BE797E09F938F930E9431070F902C
:102630000F900E941C100E94FC0F60934402709344
:10264000450280934602909347020E94F10F0E9438
:1026500033108091440280FF03C086950E94C91206
:1026600081E080937D01089580918001089510920A
:102670008001089525E0E4E4F2E0DC0101900D9290
:102680002A95E1F720917E0130917F0140918001F0
:10269000FC0125833683478308951F93CF93DF93EF
:1026A000EC01162F8F8180FF0FC0888180FF0AC048
:1026B00080914402816080934402888186950E94C3
:1026C0003D1202C00E9427118F8181FF09C0212F76
:1026D0004B816A818981DF91CF911F910C946711A1
:1026E000DF91CF911F910895882311F0FA0101C065
:1026F000FB0109941F93CF93DF93FB01128111110A
:102700004AC0EC010E9452268272FE01E25CFC4546
:10271000E431F10520F4EA5AFF4F0C940F3411E034
:102720003AC00E94AE1237C04DE852E160E872E153
:1027300004C040E852E16DE872E10E9474132BC0BE
:102740004BEF51E16EEE71E1F8CF4EEE51E16BEFE0
:1027500071E1F3CF49E152E16AE072E1EECF4AE084
:1027600052E169E172E1E9CF47E352E168E272E1E7
:10277000E4CF48E252E167E372E1DFCF4FEB50E193
:102780006EEA70E1DACF4EEA50E16FEB70E1D5CF3F
:1027900081E00E949012812FDF91CF911F910895C7
:1027A00080916D028170089580916D028695869565
:1027B000869508950E941D27811102C00E94CB2793
:1027C0000E94532780936D02282F269526952695E3
:1027D00030E02630310524F08770886280936D02E6
:1027E00080916D0280FF04C086958695869501C014
:1027F00080E00C94311520916D02822F869586958C
:102800008695482F50E04530510554F48F5F982F3E
:10281000990F990F990F822F8770892B80936D02E2
:1028200080916D02816080936D020E945727809194
:10283000140280FF11C080916D0286958695869561
:102840001F928F938BE399E09F938F930E943107A0
:102850000F900F900F900F9080916D028695869546
:1028600086950C94311580916D02982F96959695CA
:102870009695A1F0915E990F990F990F8770892B0A
:1028800080936D02887F91E009F490E080916D0261
:1028900090FB80F980936D020E945727809114026B
:1028A00080FF11C080916D028695869586951F9256
:1028B0008F9383E299E09F938F930E9431070F904B
:1028C0000F900F900F9080916D028695869586955A
:1028D0000C94311580916D0280FD1FC08160809342
:1028E0006D02813019F489E080936D0280916D0250
:1028F0000E9457278091140280FF08C08BEF98E058
:102900009F938F930E9431070F900F9080916D02DB
:102910008695869586950C943115089580916D0263
:1029200080FF14C08E7F80936D020E945727809194
:10293000140280FF08C088EE98E09F938F930E9456
:1029400031070F900F9080E00C9431150895CF93CC
:10295000C0916D02C1708091140280FF0CC01F9263
:10296000CF938DE099E09F938F930E9431070F9052
:102970000F900F900F90CC2319F0CF910C948E14E0
:10298000CF910C946A1490916D02892F869586954B
:1029900086958F5F8F719770863038F4880F880F17
:1029A000880F892B80936D0202C090936D028091F5
:1029B0006D02887F91E009F490E080916D0290FBB8
:1029C00080F980936D020E9457278091140280FF46
:1029D00011C080916D028695869586951F928F9382
:1029E00084ED98E09F938F930E9431070F900F9092
:1029F0000F900F9080916D028695869586950C9428
:102A00003115863008F085E090916D029770282F7F
:102A1000220F220F220F922B90936D02987F21E0BC
:102A200009F420E090916D0220FB90F990936D02E3
:102A30000C9431150E94011580916D020C9457275A
:102A4000E82FE295EF70F0E032A1282F2F7081E09F
:102A500090E001C0880F2A95EAF78095832382A32E
:102A60000895CF92DF92EF92FF92863030F4811179
:102A700005C0909180009F7704C085E09091800010
:102A8000906890938000282F30E0AFEFBFEF0E9456
:102A9000153425E030E040E050E00E94ED332C3763
:102AA00084E138074105510530F4C90169E070E05F
:102AB0000E94C53329C0DA01C9018A50974DAF4F32
:102AC000BF4F6627782F892F9A2F25EF38E241E0F4
:102AD00050E00E94ED3369017A01CA01B9010E94F8
:102AE000A9339B01AC01C701B6010E94A933BB27E2
:102AF000A92F982F872F009721E0A207B10511F089
:102B0000BC0102C06FEF7FEF709389006093880073
:102B1000FF90EF90DF90CF9008950895259A85E378
:102B20000E94201582E88093800089E180938100D3
:102B30008FEF9FEF90938700809386000C94DA13B9
:102B40002BB1342F309523233BB1432B3FB7F8945F
:102B5000FC01680F791FE617F70789F0819198E06B
:102B60004BB9000000C087FF2BB9880F000000C0E0
:102B700000C000C02BB900C09A9591F7ECCF3FBFC1
:102B800008952AB1242B2AB99B01220F331F620F0B
:102B9000731F0E94A01587EC90E00197F1F700C029
:102BA0000000089540E40C94C11508950C94D515C7
:102BB00080911001882309F448C020912401A22F9C
:102BC000A295AF70B0E091966C9191972F7081E0D3
:102BD00090E0AC01022E01C0440F0A94EAF7342FB2
:102BE0003095362391963C93919792963C9192978B
:102BF000432B92964C93929740912301E42FE295B8
:102C0000EF70F0E031A14F70042E01C0880F0A94DC
:102C1000EAF7982F9095932391A392A1892B82A3F1
:102C200090968C9190E002C0959587952A95E2F751
:102C30008170992720A130E002C0359527954A95EB
:102C4000E2F720FD09C020E008C087EF809324014F
:102C500086EF80932301B1CF22E0822B80938601FF
:102C60009091100181E0982790938201891B8093B5
:102C700081010895CF93E09186015E2F550F550F86
:102C800020912401E22FE295EF70F0E080A190E026
:102C90002F7002C0959587952A95E2F78170992744
:102CA00040912301E42FE295EF70F0E020A130E0A5
:102CB0004F7002C0359527954A95E2F7F901E1700A
:102CC000FF2720FF02C0E2E0F0E0E82BF92BE52B24
:102CD000E0938601C0918201EF70F0E0E05CFE4F6E
:102CE000908180918501890F8093850184306CF0FB
:102CF000EC2F0C2E000CFF0BED57FE4F80818F5FE9
:102D0000808361E08C2F0E94D615809185018D3FD4
:102D10006CF4EC2F0C2E000CFF0BED57FE4F808156
:102D20008150808360E08C2F0E94D61580918501B0
:102D3000837887FF03C081508C6F8F5F80938501FC
:102D4000CF910895E0918201F0E0ED57FE4F208190
:102D5000FC0120830895FF920F931F93CF93DF937D
:102D6000D09181010D2F10E00D571E4FFC01C08145
:102D7000F8018081C81BFC2E1F1454F4FA94F8014A
:102D800080818F5F808361E08D2F0E94D615F4CF04
:102D90008C2FC7FD80E0C81BCC2351F0CF5FF8011A
:102DA00080818150808360E08D2F0E94D615F4CF02
:102DB000DF91CF911F910F91FF9008950F931F9373
:102DC000CF93DF93C62FD42F022FFC01828188235B
:102DD000C9F0609389010E949A289093880180939A
:102DE000870180E28C0F883008F050C0C77081E006
:102DF00001C0880FCA95EAF7DF91CF911F910F911B
:102E00000C94C51D10918901161330C08091870163
:102E1000909188010E94A628883C910538F5C0E26F
:102E2000CD0F1D17B9F080E2810F883040F4177084
:102E300081E001C0880F1A95EAF70E94CC1DC830C6
:102E400048F481E09D2F977001C0880F9A95EAF7AA
:102E50000E94C51D802F0E94B21DC830B8F4D770E3
:102E600081E001C0880FDA95EAF70AC080E28C0F92
:102E7000883060F4C77081E001C0880FCA95EAF716
:102E8000DF91CF911F910F910C94CC1DDF91CF91C9
:102E90001F910F9108959C01CB01233F4CE534070E
:102EA000F9F078F4283DFCE53F07B9F0293D4CE501
:102EB000340711F1273D3C4531F526E241EE61EE44
:102EC0001EC0253FFCE53F0799F070F0263F3C45CA
:102ED000D1F427E245EE66EE12C027E245EE0EC0C1
:102EE00026E241EE60EE0BC027E245EE64EE07C03D
:102EF00026E241EE62EE03C028E241E065EE0E9468
:102F0000DE1680E00895FC018281882319F010927A
:102F10008901089581E00895CF93DF93EC01FB01CF
:102F20008281882309F41FC1C230FCE5DF0708F461
:102F30001BC1C6319CE5D90738F09E012A5F3C458C
:102F40002930310508F010C10E9435279093750291
:102F500080937402C031ECE5DE0709F4C3C008F0C9
:102F600041C0C8308CE5D80709F49AC0F0F4C430E9
:102F7000ECE5DE0709F487C068F4C2308CE5D807B9
:102F800009F477C0C330DC4509F0E3C080917402D6
:102F9000826076C0C630ECE5DE0709F46EC008F04A
:102FA0007BC08091740288606BC0CC308CE5D80700
:102FB00009F485C068F4CA30ECE5DE0709F474C092
:102FC00008F079C00E949B2080917402806858C0EC
:102FD000CE308CE5D80709F476C008F07FC0809128
:102FE00074028BC0CB3FECE5DE0709F44FC018F547
:102FF000C3318CE5D80709F47DC078F4C131ECE524
:10300000DE0709F473C0C231DC4509F0A2C00E949A
:103010009B20809174028F7733C0C5318CE5D8072F
:1030200009F472C008F486C0CA3FDC4509F091C0BB
:10303000809175023EC0CF3FFCE5DF0709F45FC019
:1030400058F4CD3F9CE5D90709F444C008F43FC0CB
:103050008091750282602DC0C130FDE5DF0709F463
:1030600075C008F45DC0C230DD4509F072C080E073
:103070006EC080917402816003C08091740280618F
:103080008093740266C08091740211C080917502B1
:103090008260809375025DC0809174028062F0CF7F
:1030A000809174028064ECCF8091740288608460A7
:1030B000E7CF8160EECF809174028E7FE1CF809167
:1030C00074028D7FDDCF80917402877FD9CF80918C
:1030D000750218C0809175028D7FDBCF80917402DC
:1030E0008F7ECECF809174028F7DCACF8091740283
:1030F0008F7BC6CF80917402877F8B7FC1CF8091F9
:1031000075028D7F8E7FC5CF8091740282FB22274E
:1031100020F991E0922790FB82F990FB83F9B0CFE0
:1031200080917502982F909591708E7F892B90FBDE
:1031300081F9AFCF0E949B208091740287FB2227E8
:1031400020F991E0922790FB87F99ACF81E00E94C5
:10315000CD2780917402909175020E9446270E94AB
:103160009B2080E001C081E0DF91CF9108958EE146
:10317000489B02C08150E1F7489BFECF08955898C4
:1031800080E28A95F1F7589A0895FC013AE03A9561
:10319000F1F720E090E080E031E0961779F040E12F
:1031A0004A95F1F7880F489B02C08160232700C031
:1031B000000040E14A95F1F79F5FEFCF90E19A95CB
:1031C000F1F799B100C0000030E13A95F1F7917044
:1031D00092272081920F90830895EF92FF920F9390
:1031E0001F93CF93DF931F92CDB7DEB7F62E1982D0
:1031F000E82E8C01802F8E198F1558F40E94B71875
:1032000068E0CE0101960E94C518F80181938F01F4
:10321000F1CF81E09981911180E00F90DF91CF9102
:103220001F910F91FF90EF90089590938C018093E0
:103230008B0160938A01509A589A089590938C015B
:1032400080938B0160938A015098589AE89AE9E636
:10325000F0E080818C7F80830895615091E001C00F
:10326000990F6A95EAF720E031E0992361F0492F40
:10327000482319F0589A232701C0589840E24A95EC
:10328000F1F79695F2CF222311F0589A01C0589881
:1032900080E28A95F1F758980895EF92FF920F9384
:1032A0001F93CF93DF931F92CDB7DEB7162F082F52
:1032B0007C018E2D801B811758F4F70181917F01CD
:1032C00089830E94BF1868E089810E942D19F1CF7F
:1032D0000F90DF91CF911F910F91FF90EF90089584
:1032E0001F920F920FB60F9211240F931F932F93DB
:1032F0003F934F935F936F937F938F939F93AF937E
:10330000BF93EF93FF93CF93DF931F92CDB7DEB7B9
:1033100019820E94B71867E0CE0101960E94C51875
:10332000382F369536953695932F96959570232F91
:103330002570920F292F2370969596958770920F7E
:10334000891348C08981811145C080918A01831702
:1033500008F440C080E18A95F1F7589A509AA2E0AB
:10336000AA95F1F700C000918B0110918C01B8E093
:103370003B9F000D111D11245898F80165816623AB
:1033800021F0868197810E944D190E94BF18F0E1BB
:10339000FA95F1F758985098589A80E18A95F1F784
:1033A000D80112966C911297662369F013968D914D
:1033B0009C9114970E94ED18D801ED91FC91811118
:1033C00005C082E004C0D801ED91FC9188E08083C3
:1033D0000E94B7180F90DF91CF91FF91EF91BF91AD
:1033E000AF919F918F917F916F915F914F913F919D
:1033F0002F911F910F910F900FBE0F901F90189556
:103400000F931F93CF93DF9320918A0130E0281709
:1034100039070CF471C09C0193E0220F331F9A9579
:10342000E1F7C0918B01D0918C01C20FD31FF894AA
:10343000509A589845E04A95F1F70000982F9695D4
:1034400095708570890F982F937086958695890F52
:103450008901082B0E94BF1884E08A95F1F700C00B
:1034600067E0802F0E942D1940E14A95F1F75098AE
:10347000589A489902C000C0FCCF87E090E0489B72
:103480000EC0019751F4509A589AE881F98181E071
:103490008083789481E090E031C000C0F0CF6D81EE
:1034A000662381F08E819F810E94ED1881110AC0F0
:1034B000509A589AE881F98182E08083789482E07A
:1034C00090E01CC00E94B71880E28A95F1F75898E6
:1034D000509A40E14A95F1F76A81662321F08B8189
:1034E0009C810E944D190E94BF18E881F9811082C9
:1034F000789480E090E002C084E090E0DF91CF918A
:103500001F910F91089590939201809391010895D6
:10351000E0919101F0919201309721F00190F081BA
:10352000E02D099480E00895EF92FF920F931F938E
:10353000CF93DF93E0919101F09192013097B1F137
:103540008C010280F381E02D09958091140282FFA5
:103550002DC080FF04C08BE59AE00E949806E80128
:1035600018E085E5E82E8AE0F82E8091140280FFAD
:103570000BC088811F928F93FF92EF920E943107B8
:103580000F900F900F900F90115021961111EDCFC9
:103590008091140280FF0AC083E59AE0DF91CF9109
:1035A0001F910F91FF90EF900C949806DF91CF91AF
:1035B0001F910F91FF90EF900895E0919101F0918C
:1035C0009201309739F022E0DC012C930480F581E0
:1035D000E02D0994089520918F0130919001821778
:1035E000930771F09093900180938F01E091910186
:1035F000F0919201309721F00680F781E02D099437
:10360000089520918D0130918E018217930771F0FA
:1036100090938E0180938D01E0919101F091920140
:10362000309721F00084F185E02D0994089585B745
:10363000806885BF85B7806885BF0895089508951F
:103640000C941F1B08950C94221B0E94171B0E94B0
:103650001E1B0C94201B0E9491280E94E80C0E94C3
:103660001A290E94DA130E94CC120C94231BCF93C8
:10367000C82F8091140282FF1EC080FF04C084E71F
:103680009AE00E9498068091140280FF0CC01F925D
:10369000CF938FE69AE09F938F930E9431070F900C
:1036A0000F900F900F908091140280FF04C08DE660
:1036B0009AE00E9498068C2FCF910C941209BF9229
:1036C000CF92DF92EF92FF920F931F93CF93DF93EE
:1036D000CDB7DEB72B970FB6F894DEBF0FBECDBFC8
:1036E0000E94B50D0E949E0E811111C08FEF89833B
:1036F0008A831B820E949A288160782F9D838C8305
:1037000049815A816B818D810E94F81B42C084E9F6
:10371000C82E81E0D82E00E010E0B02E802F0E944D
:103720009B0CF601E1906F01E82631F40F5F1F4F0B
:103730000A30110591F7DACF9091140291FF04C07D
:103740008B870E94A10C8B8590E0FF24F3942F2D92
:103750002E21D1F09E83BF828F2191E009F490E069
:1037600098870E949A288160782F9A8789874E814E
:103770005F8168858A850E94F81BF801EC56FE4F30
:103780008081F826F08205C09F5FFF0C9630F9F625
:10379000CDCF0E948D150E942E2B109193010E9477
:1037A000881A1817A9F00E94881A809393012B9603
:1037B0000FB6F894DEBF0FBECDBFDF91CF911F9142
:1037C0000F91FF90EF90DF90CF90BF900C94371B3C
:1037D0002B960FB6F894DEBF0FBECDBFDF91CF9111
:1037E0001F910F91FF90EF90DF90CF90BF900895C1
:1037F000CF93DF93CDB7DEB72B970FB6F894DEBF2C
:103800000FBECDBF4F83588769877A878B87DE01CC
:10381000119686E0FD0111928A95E9F785E0FE0197
:10382000379601900D928A95E1F749815A816B8113
:103830007C818D819E810E9445232B960FB6F89442
:10384000DEBF0FBECDBFDF91CF910895FC01808117
:1038500091810E9413260895882309F41AC18238A1
:10386000C1F40E94881A81FD14C169E38091250189
:10387000909126010E9404280E949E262FEF81EE3F
:1038800094E0215080409040E1F700C0000069E3DF
:1038900019C08338F9F40E94881A80FDFAC063E5E4
:1038A00080912501909126010E9404280E949E2665
:1038B0002FEF81EE94E0215080409040E1F700C06E
:1038C000000063E580912501909126010E94062861
:1038D0000C949E268438C1F40E94881A82FDD9C0B7
:1038E00067E480912501909126010E9404280E949E
:1038F0009E262FEF81EE94E0215080409040E1F72A
:1039000000C0000067E4DECF9CEF980F913A40F4CE
:10391000682F80912501909126010E940428D8CF1C
:1039200090E2980F983050F4877091E001C0990FA1
:103930008A95EAF7892F0E945526CACF9BE5980FF2
:10394000933070F4853A29F0863A31F083E890E0BC
:1039500005C081E890E002C082E890E00C94EB1A88
:1039600098E5980F973108F08EC0883A09F445C061
:10397000893A09F445C08A3A09F445C08B3A09F4FA
:1039800045C08C3A09F445C08B3B09F445C08C3BDB
:1039900009F445C08D3A09F445C0803B09F445C09F
:1039A0008E3A09F445C08F3A09F445C0813B09F4C9
:1039B00045C0823B09F445C0833B09F445C0843BC4
:1039C00009F445C0853B09F445C0863B09F445C070
:1039D000873B09F445C0883B09F445C0893B09F49D
:1039E00045C08D3B09F445C08E3B09F445C08A3B78
:1039F00009F445C080E090E044C082EE90E041C010
:103A000089EE90E03EC08AEE90E03BC085EB90E00E
:103A100038C086EB90E035C083EB90E032C084EB99
:103A200090E02FC087EB90E02CC08CEC90E029C098
:103A30008DEC90E026C083E891E023C08AE891E015
:103A400020C082E991E01DC084E991E01AC081E2C2
:103A500092E017C083E292E014C084E292E011C0C9
:103A600085E292E00EC086E292E00BC087E292E02F
:103A700008C08FE690E005C080E790E002C08AE2CF
:103A800092E00C94011B803F20F00E94B4290C941A
:103A9000A12A0895882309F464C0823879F40E9429
:103AA000881A81FF5EC069E380912501909126010B
:103AB0000E9404280E949E2669E310C08338B1F456
:103AC0000E94881A80FF4DC063E580912501909186
:103AD00026010E9404280E949E2663E5809125010C
:103AE000909126010E9406280C949E26843879F431
:103AF0000E94881A82FF35C067E480912501909169
:103B000026010E9404280E949E2667E4E7CF9CEFCE
:103B1000980F913A10F4682FE1CF90E2980F983007
:103B200050F4877091E001C0990F8A95EAF7892FC8
:103B30000E945B26D9CF9BE5980F933020F480E05C
:103B400090E00C94EB1A98E5980F973120F480E000
:103B500090E00C94011B803F20F00E941C2A0C94E2
:103B6000A12A0895CF93C82F0E942C1CC93349F471
:103B70002FEF87EE93E0215080409040E1F700C0A6
:103B800000008C2FCF910C944A1D882321F00E94B5
:103B900055260C949E260895882321F00E945B26CA
:103BA0000C949E260895BF92CF92DF92EF92FF92DF
:103BB0000F931F93CF93DF937C01062FC72FFC0138
:103BC000158112951F70D281D1110E9472260E9418
:103BD0004B26882379F0DD2369F080E2800F88305E
:103BE00048F082E00E94E9260E944B2691E0B82E20
:103BF000B92601C0B12CCC2EC2948FE0C822D12CA2
:103C0000F601E659FF4F0C940F348C2F807FCF7054
:103C1000882311F0C295C07FDD2399F0CC2309F4ED
:103C2000CFC180E2800F883010F0011104C08C2FCA
:103C30000E94552603C08C2F0E9465260E949E2656
:103C4000BFC1802F0E944A1DCC2309F402C280E22A
:103C5000800F883010F0011104C08C2F0E945B2669
:103C600003C08C2F0E946B260E949E26F2C18C2FCF
:103C7000807FCF70803211F0C295C07F002319F091
:103C80000130C9F022C0DD2371F0112341F0113061
:103C900031F40E9485268C2B0E948B26DAC10E946B
:103CA00085268C2B1DC0112319F0113009F4D1C1C8
:103CB0000E94942625C0DD2321F0163008F0C9C1EA
:103CC0000EC0153008F0C5C11BC0DD2361F0112303
:103CD00031F0F701858180FF73C18F7085838C2F50
:103CE0000E94C51DB6C1112359F0093309F079C1ED
:103CF000FFEF27EE83E0F15020408040E1F76FC1F5
:103D00008C2F0E94CC1DA5C18C2F86958695837023
:103D100090E0009719F0019761F09BC1DD2321F03D
:103D2000802F9C2F937002C080E090E00E94EB1ADD
:103D30009BC1DD2321F0802F9C2F937002C080E077
:103D400090E00E94011B90C1DD23F9F0053F51F086
:103D5000063F71F0043FA9F480916E0290916F02CA
:103D600081600BC080916E0290916F02826005C0ED
:103D700080916E0290916F02846090936F028093A5
:103D80006E02802F0E94B4291EC0053F51F0063FED
:103D900071F0043FA9F480916E0290916F028E7FC2
:103DA0000BC080916E0290916F028D7F05C0809153
:103DB0006E0290916F028B7F90936F0280936E02E0
:103DC000802F0E941C2A0E94A12A4EC18C2F837032
:103DD00009F049C0D11144C1402F42954695477022
:103DE000440F440F602F6F70862F90E0A0E0B0E08A
:103DF000042E04C0880F991FAA1FBB1F0A94D2F774
:103E000004FF10C00FE010E020E030E004C0000F1D
:103E1000111F221F331F4A95D2F700951095209548
:103E2000309503C000E010E09801C695C695C370B8
:103E3000D0E0BC01CD01602B712B822B932BC230C3
:103E4000D10559F0C330D10559F0219719F00E94DE
:103E50008A2406C10E94782403C10E949C2400C1C8
:103E60000E947624FDC0DD2319F08C2F817001C0E3
:103E70008695882309F4F4C0402F429546954770F3
:103E8000440F440F602F6F70862F90E0A0E0B0E0E9
:103E9000042E04C0880F991FAA1FBB1F0A94D2F7D3
:103EA00004FF10C00FE010E020E030E004C0000F7D
:103EB000111F221F331F4A95D2F7009510952095A8
:103EC000309503C000E010E09801C695C695C37018
:103ED000D0E0BC01CD01602B712B822B932BC23023
:103EE000D10559F0C330D10559F0219719F00E943E
:103EF0005025B6C00E943E25B3C00E946225B0C0C6
:103F00000E94B124ADC0CF70DD2339F08C2F0E9408
:103F1000D724802F0E94C51DA3C0802F0E94CC1DD6
:103F20008C2F0E94F8249CC0023F01F128F4003F2E
:103F300041F0013FA1F040C0033FF9F0043F39F1E7
:103F40003BC0DD2341F0153008F083C08C2F8F710A
:103F50000E941D257EC0163008F07BC0F7CFDD2300
:103F600039F08C2F8F710E94D72473C0DD23C9F3E1
:103F70008C2F8F710E94F8246CC0DD2329F08C2FC8
:103F80008F710E94C22465C00E94BD2462C0DD23DF
:103F900049F0CF718C2F0E94D72463E08C2F0E94B0
:103FA000D42657C081E00E94E926123008F451C09F
:103FB00082E00E94E9264DC0DD2331F0112389F211
:103FC000802F0E942C1C45C0112391F2093349F423
:103FD0009FEFE7EEF3E09150E040F040E1F700C0E2
:103FE0000000802F0E944A1D34C04C2F4F70602F5C
:103FF000C7010E94B1090E94E92336C0D11134C023
:10400000CF70D0E0C230D10599F03CF4209769F030
:104010002197F9F40E94331427C0C430D10571F000
:1040200054F02597B1F480E00AC00E94FB131CC035
:104030000E94A71419C00E94C31416C085E00E94F4
:104040001A1512C04C2F4F70602FC7010E94B4097F
:104050000BC028E0C21AD10884E0C816D10420F4AD
:104060000E94881A0E941209BB20D1F00E944726A4
:1040700080FD16C0F70112820E9441260E94D724BB
:10408000C7010E945A200E944126DF91CF911F91C3
:104090000F91FF90EF90DF90CF90BF900C94F82499
:1040A000DF91CF911F910F91FF90EF90DF90CF9014
:1040B000BF9008950F931F93CF93DF93EC018881F6
:1040C00099812B813C81232BB9F09F3F11F48F3FC5
:1040D00099F0CE010E942B09882371F068817981C3
:1040E0008A810E941E268C010E9474250E947524DC
:1040F000B801CE010E94D31DDF91CF911F910F9186
:1041000008950E9472260E9482260E949E260E9486
:10411000C92B0E94A12A80E090E00E94EB1A80E067
:1041200090E00C94011B80912501909126010E9442
:1041300008280C9481200E9462260C949320E92F79
:10414000E295EF70F0E03297EE30F105B0F4E6580A
:10415000FF4F0C940F34803F91F018F4883E68F4C0
:104160000EC0843F51F40BC0883E48F0813F29F4D3
:1041700006C093FB882780F9089580E0089581E0C8
:1041800008950E9413260E949F200895CF93DF93E5
:1041900000D000D01F92CDB7DEB70F900F900F90D8
:1041A0000F900F90DF91CF910895CF93DF9300D0C0
:1041B00000D000D0CDB7DEB726960FB6F894DEBF9C
:1041C0000FBECDBFDF91CF9108951F93CF93DF93A3
:1041D000C0919F0116E08091A001C81799F0D0E02E
:1041E0001C9FF0011D9FF00D1124EF55FE4F4081E3
:1041F000518162817381848195810E94D5202196AD
:10420000C770E9CFDF91CF911F9108954091D101FF
:104210005091D2016091D3017091D4018091D50168
:104220009091D6010C94D5208091D60182958F7003
:1042300009F054C08091D301882309F44FC08091C4
:104240009F01A091A0016091D1017091D201409194
:10425000D4015091D501B6E08A1709F43FC090E02F
:1042600041155105C1F17F3F11F46F3FA1F1B89F96
:10427000F001B99FF00D1124EF55FE4F218172130B
:104280002AC02081621327C02281211124C02381EA
:1042900034812417350710F421503109241B350BC4
:1042A000283C3105C0F42091D6012F702061209365
:1042B000D60126E0289FF001299FF00D1124EA5530
:1042C000FE4F80818F708061808381ED91E00E943C
:1042D0005A200C94E52001968770BECF0895CF92A6
:1042E000DF92EF92FF920F931F93CF93DF93CDB79F
:1042F000DEB762970FB6F894DEBF0FBECDBF8C015C
:1043000085E0F801DE011D9601900D928A95E1F796
:10431000D8014C9111965C91119712966C9112975D
:104320001396CD90DC9014973091D1017091D20109
:104330008091D4019091D501009709F46BC17F3F22
:1043400019F43F3F09F466C1E090D301EE2009F46F
:10435000C0C02091D601C816D90628F0F601E81B86
:10436000F90BCF0104C0809590958C0D9D1DFF2405
:10437000F394883C910578F0F12C207F09F0C6C0B9
:104380007C2DD98AC88A89890E94C62081ED91E056
:104390000E945A20B1C0822F807F09F046C0751359
:1043A00014C0341312C0611110C02F70206120930B
:1043B000D6010E94062181ED91E00E945A20809151
:1043C000D601D80115968C932EC0CD2819F15F3FE8
:1043D00011F44F3FF9F0F62E61111CC080919F013E
:1043E0002091A00136E0821709F45AC090E0389F6E
:1043F000F001399FF00D1124EF55FE4F71815713D5
:1044000006C07081471303C07281711103C0019609
:104410008770E9CFF62E662309F427C18091D60173
:1044200081608093D601F12C20C1751308C034132C
:1044300006C0611104C08091D601D801C3C04D8768
:104440005E878D859E856A8B0E94C1206A8988233C
:10445000E1F16623D1F12091D601822F82958F70F0
:1044600090E0029774F08091D1019091D2019887E9
:104470008F831986DB86CA862C87CE0107960E9419
:104480005A2086E0F801A1EDB1E001900D928A95E5
:10449000E1F70E9414210E940621FF24F394E5C055
:1044A0004D875E878D859E850E941326292F229534
:1044B0002F7030E0223031050CF0CBC09F7009F036
:1044C000C5C0805E883008F4D0C0C8010E945A2060
:1044D000E4CFC816D90608F453C0F601E81BF90B5F
:1044E000CF01883C910508F450C0F12C7C2DD98A6D
:1044F000C88A89890E94C620E1EDF1E086E0DF01EB
:104500001D928A95E9F70E940621AFC0751314C069
:10451000341312C0611110C08091D601F801858357
:10452000C8010E945A2086E0E1EDF1E0DF011D9212
:104530008A95E9F7FE2C99C04D875E878D859E850B
:104540006A8B0E94C1206A89882309F4BECF662342
:1045500009F4BBCF2091D601822F82958F7090E015
:1045600002970CF48ECF8091D1019091D2019A8361
:1045700089831B82DD82CC822E83CE0101967FCF80
:10458000809590958C0D9D1DACCFF62E662309F479
:104590009CCF75132EC034132CC02091D60120FD62
:1045A0001FC0822F82958F70D9F0D80115962C9359
:1045B00015978F3049F08F5F982F9295907F822FBB
:1045C0008F70892B15968C93C8010E945A2086E023
:1045D000F801A1EDB1E001900D928A95E1F793CF3A
:1045E00086E0F801A1EDB1E001900D928A95E1F726
:1045F0003CC04D875E878D859E850E94C1208111BC
:1046000040CF8091D60181608093D601C8010E947D
:104610005A202BC0662309F458CF4D875E878D85BD
:104620009E850E94C120F82E882309F44ECF86E093
:10463000F801A1EDB1E001900D928A95E1F781EDCD
:1046400091E00E94261C0E9414215DCF811139CF78
:104650000CC0243031050CF038CF9F7009F431CFF5
:10466000F8019581907F09F02CCF8F2D62960FB6BF
:10467000F894DEBF0FBECDBFDF91CF911F910F9198
:10468000FF90EF90DF90CF9008951F93CF93DF932B
:10469000CDB7DEB72C970FB6F894DEBF0FBECDBFF7
:1046A0004F83588769877A878B879C87CE010796C7
:1046B0000E946F21882369F08F8198852A853B8528
:1046C000232BF1F19F3F09F063C08F3F09F060C0D9
:1046D00037C086E0FE013796DE01119601900D92FB
:1046E0008A95E1F76F817885EA85FB85309741F1FE
:1046F0007F3F11F46F3F21F12091A00130E0C9010B
:1047000001968770992740919F0150E08417950783
:1047100009F447C069837A83FD83EC8396E0929F16
:10472000D001939FB00D1124AF55BE4FFE013196BD
:1047300001900D929A95E1F78093A0010E94E520E7
:1047400016E080919F019091A0018917C1F1189FF7
:10475000C00111248F559E4F0E946F21882379F14B
:10476000E0919F011E9FF0011124EF55FE4F408103
:10477000518162817381848195810E94D5208091CD
:104780009F0190E001968770992780939F01D9CF70
:104790004F81588569857A858B859C850E94D520B7
:1047A000CFCF0E949B201092A00110929F01E1EDBB
:1047B000F1E086E0DF011D928A95E9F7C1CF2C96E2
:1047C0000FB6F894DEBF0FBECDBFDF91CF911F9122
:1047D0000895EF92FF920F931F93CF93DF938C0175
:1047E000892B09F46CC0F12CEE24E394E8012196A6
:1047F000F8018491843740F4843008F051C081304E
:1048000081F0823019F15BC0853709F444C0A8F10A
:104810009CE7980F903708F052C08F770E944A1D8E
:1048200041C00E5F1F4FFE01C49180E28C0F8830A3
:1048300048F4C7708E2D01C0880FCA95EAF70E9410
:10484000752614C08C2F0E942C1C2DC00E5F1F4F8C
:10485000FE01C49180E28C0F883058F4C7708E2D11
:1048600001C0880FCA95EAF70E947B260E949E2607
:104870001AC08C2F0E944A1D16C00E5F1F4FFE01EA
:10488000C491CC2381F08FE99FE00197F1F700C03C
:104890000000C150F6CF0E5F1F4FFE01F49003C021
:1048A0000E942C1C8E018F2D882309F49FCFEFE9E5
:1048B000FFE03197F1F700C000008150F5CFDF91A4
:1048C000CF911F910F91FF90EF90089508950C9450
:1048D00066240E946724609303027093040280930D
:1048E0000502909306020C94812008950C9469248B
:1048F0000F931F930091030210910402209105026F
:1049000030910602602B712B822B932B1F910F91FC
:104910000C9469240F931F930091030210910402D9
:104920002091050230910602602371238223932394
:104930001F910F910C9469240F931F930091030210
:104940001091040220910502309106026027712720
:10495000822793271F910F910C94692408950C943A
:10496000AE240E94AF246093FF01709300028093F5
:104970000102909302020C94812060E070E0CB0170
:104980000C94B1240F931F9341E050E060E070E07D
:104990008A019B0104C0000F111F221F331F8A953B
:1049A000D2F7C901B8011F910F910C94B1240F9354
:1049B0001F9341E050E060E070E004C0440F551FD9
:1049C000661F771F8A95D2F78091FF0190910002B0
:1049D000A0910102B09102028A019B01082B192BC0
:1049E0002A2B3B2BC901B8011F910F910C94B124C4
:1049F0000F931F9341E050E060E070E004C0440F6B
:104A0000551F661F771F8A95D2F740955095609580
:104A100070958091FF0190910002A0910102B091E8
:104A200002028A019B01082319232A233B23C9017F
:104A3000B8011F910F910C94B1240F931F9341E083
:104A400050E060E070E004C0440F551F661F771F00
:104A50008A95D2F78091FF0190910002A091010206
:104A6000B09102028A019B01082719272A273B27B8
:104A7000C901B8011F910F910C94B1240F931F939A
:104A80000091FF0110910002209101023091020279
:104A9000602B712B822B932B1F910F910C94B124BF
:104AA0000F931F930091FF011091000220910102CA
:104AB0003091020260237123822393231F910F916F
:104AC0000C94B1240F931F930091FF0110910002E9
:104AD00020910102309102026027712782279327DB
:104AE0001F910F910C94B1240895292F220F920F3A
:104AF000990F890FA82FA695A695A695877051E0C6
:104B000001C0550F8A95EAF785E0A89FD0011124CE
:104B100020E030E070E0F901EA0FFB1FE952FE4FA0
:104B20004081CB01022E02C0969587950A94E2F748
:104B300081709927819584278523842780832F5F1F
:104B40003F4F2530310539F70895292F220F920F55
:104B5000990F890F682F669566956695982F9770BF
:104B600085E0689FB001112440E050E080E0FA0148
:104B7000E60FF71FE952FE4F208130E0092E02C0F8
:104B8000369527950A94E2F721703327042E01C049
:104B9000220F0A94EAF7822B4F5F5F4F4530510591
:104BA00031F70895BF92CF92DF92EF92FF920F9369
:104BB0001F93CF93DF938C01C0900302D090040227
:104BC000E0900502F09006028091FF0190910002B2
:104BD000A0910102B0910202C82AD92AEA2AFB2A2E
:104BE000CFE1D0E0D701C6010C2E04C0B695A79541
:104BF000979587950A94D2F780FF07C0BC2EB8011D
:104C00008C2F0E94CF09019719F4219758F7B12CE6
:104C10008B2DDF91CF911F910F91FF90EF90DF903F
:104C2000CF90BF900895CF93DF93EC010E94D225DF
:104C3000BE010E94CF09DF91CF9108951F93CF93BA
:104C4000DF93EB0190919E01992321F0CB010E940B
:104C5000132613C0882349F0CB010E94D225182FB8
:104C6000682FCE010E94752504C0CB010E94A525A6
:104C7000182FBE01812F0E94CF09DF91CF911F9184
:104C80000895809107028595859585950895809171
:104C900007028770089590910702977081E009F4E8
:104CA00080E0089580911302089590911302892B5A
:104CB0008093130208958095909113028923809325
:104CC0001302089510921302089590911202892BF5
:104CD0008093120208958095909112028923809307
:104CE0001202089510921202089590911102892BD8
:104CF00080931102089580959091110289238093E9
:104D000011020895109211020895809108020895E9
:104D100008950C94882690910802981721F08093AA
:104D200008020C948926089580910802882329F0AE
:104D30001092080280E00C9489260895E0912501E4
:104D4000F0912601809113028083E0912501F0917A
:104D50002601908180911202892B8083E0912501A8
:104D6000F0912601908180911102892B808380919E
:104D70000802882381F0E0912501F09126019081BD
:104D8000892B808380912501909126010E94D22752
:104D900081110E94942680912501909126010C9406
:104DA000941A08950C94D12698E0899F90011124BB
:104DB000262B209307020E94D72480910702859515
:104DC000859585950C94D2261092070280E00C946C
:104DD000D226209107028095822380930702982F84
:104DE000977079F430E0482F082E000C550B2417EB
:104DF000350739F08595859585950E94F8240C94A2
:104E0000E42608959093610180936001089582954E
:104E1000982F9C7C392F36953695282F237344E0A4
:104E2000249FC0011124932F982B292F2A7A26958D
:104E3000892F8575880F822B089580E090E00E946D
:104E40003D3421E08C3E9E4F09F020E0822F0895F2
:104E500082E090E00C942F3483E090E00C942F34A7
:104E6000682F83E090E00C944334CF9384E090E08B
:104E70000E942F34C82F81E290E00E942F342C2F03
:104E800030E0A901582BCA01CF910895CF93C92FC3
:104E9000682F84E090E00E9443346C2F81E290E020
:104EA000CF910C94433486E090E00C942F34682F1B
:104EB00086E090E00C944334AB01BC018FE090E0BD
:104EC0000C945534AB01BC0183E190E00C94553453
:104ED00060E070E0CB010C94622760E070E0CB01F1
:104EE0000E945C270C9468276CEE7EEF80E090E0D7
:104EF0000E94613460E082E090E00E94433460E010
:104F000083E090E00E944334109203021092040266
:104F1000109205021092060260E084E090E00E9488
:104F2000433460E081E290E00E94433460E085E039
:104F300090E00E94433460E086E090E00E944334B9
:104F40006FEF87E090E00E94433440E050E0BA0108
:104F500088E090E00E94553460E08DE090E00E948F
:104F6000433440E050E0BA0188E190E00E945534BB
:104F700060E087E190E00E94433440E050E0BA01F5
:104F80008CE190E00E94553460E080E290E00E9465
:104F900043340C946D270C947427682F8EE090E0B6
:104FA0000C944334FC01329697E080E0915029F054
:104FB00021912223D9F38F5FF9CF08959C01FC0141
:104FC00032969FEF80E04191461789F09F3F19F498
:104FD000411101C0982F8F5F8630A9F79F3F39F0AC
:104FE000F901E90FF11D97FDFA956283089508957F
:104FF000FC01329608962081261301C0108231965A
:10500000E817F907C1F708950C94DE270C94F827E8
:10501000029626E0FC0111922A95E9F70895089579
:105020000C940F280E94102880917A02843061F13C
:105030001092150220E488E190E00FB6F894A8954C
:10504000809360000FBE2093600080E00E943115C5
:1050500080E00E9412090E94102883B7817F84603B
:1050600083BF83B7816083BF7894889583B78E7F31
:1050700083BF0FB6F894A8958091600088618093F3
:105080006000109260000FBE089508950895CF93B8
:105090000E9445280E94B50D0E944628C0E08C2F32
:1050A0000E949B0C811104C0CF5FCA30C1F701C0C0
:1050B00081E0CF91089508950C945B280E949B2075
:1050C0000E94DA130E94881A0E9412090C945C282C
:1050D0001F920F920FB60F9211248F939F93AF934D
:1050E000BF9380911502811113C08091700290913D
:1050F0007102A0917202B09173024196A11DB11D7F
:105100008093700290937102A0937202B093730225
:10511000BF91AF919F918F910F900FBE0F901F90F5
:10512000189582E084BD93E095BD9AEF97BD80937A
:105130006E0008952FB7F8948091700290917102DB
:10514000A0917202B09173022FBF0895CF92DF92A7
:10515000EF92FF920F931F932FB7F8944091700234
:105160005091710260917202709173022FBF6A01B7
:105170007B01EE24FF248C0120E030E0C016D10634
:10518000E206F30610F4415051099A01281B390B2D
:10519000C9011F910F91FF90EF90DF90CF9008957C
:1051A00078941F920F920FB60F9211248F939F93B2
:1051B000AF93BF938091700290917102A09172029F
:1051C000B09173020196A11DB11D8093700290935E
:1051D0007102A0937202B0937302BF91AF919F913D
:1051E0008F910F900FBE0F901F90189581E08093C4
:1051F000E00080E28093D8001092C9008FE19EE425
:105200000197F1F700C0000087E090EBDC0180938C
:10521000830290938402A0938502B09386029CE05F
:1052200088E10FB6F894A895809360000FBE909324
:105230006000FFCF0E941D27811102C00E94CB2772
:105240000E942827809314020E94352790937502AC
:10525000809374020E942C27682F70E080E090E019
:105260000C9476248091190280FF0BC060912A0172
:1052700085E0689FB00111247595679575956795D0
:105280002BC081FF09C060912A0185E0689FB001B1
:1052900011247595679520C082FF07C060912A018F
:1052A00085E0689FB001112417C0909118029923DE
:1052B000D1F060912901961788F720912A0185E0A5
:1052C000289F90011124929FA001939F500D1124BB
:1052D00070E0CA010E94D9336038710540F461154D
:1052E000710539F002C065E070E0862F08958FE700
:1052F000089581E008958091190280FF08C06091AF
:10530000280170E0759567957595679521C081FFB7
:1053100006C06091280170E07595679519C082FFFD
:1053200004C06091280170E010C090911802992388
:10533000C1F0609127019617A0F780912801899FFD
:10534000C001112470E00E94D9336038710528F43F
:105350006115710521F0862F08958FE7089581E08A
:10536000089561E070E0F4CF803F21F40E9432297B
:10537000819504C0813F29F40E94322980931D0247
:105380000895823F21F40E943229819504C0833F11
:1053900029F40E94322980931C020895893F19F450
:1053A0000E947B2905C08A3F31F40E947B298195A8
:1053B00080931E0208958B3F21F40E947B298195E2
:1053C00004C08C3F29F40E947B2980931F0208951A
:1053D000843F21F480911B02816017C0853F21F436
:1053E00080911B02826011C0863F21F480911B02D4
:1053F00084600BC0873F21F480911B02886005C048
:10540000883F31F480911B02806180931B020895D4
:105410008D3F21F48091190281600BC08E3F21F4F1
:1054200080911902826005C08F3F29F48091190292
:105430008460809319020895803F39F480911D02A1
:1054400087FF6CC010921D0269C0813F29F48091D2
:105450001D021816BCF362C090911C02823F29F411
:1054600097FF5CC010921C0259C0833F19F41916B3
:10547000CCF354C0893F41F480911E0218160CF001
:105480004DC010921E024AC08A3F29F480911E022C
:1054900087FF44C0F6CF8B3F39F480911F0287FF0E
:1054A0003DC010921F023AC08C3F29F480911F0228
:1054B0001816BCF333C0843F21F480911B028E7F09
:1054C00017C0853F21F480911B028D7F11C0863F5C
:1054D00021F480911B028B7F0BC0873F21F48091C8
:1054E0001B02877F05C0883F31F480911B028F7EAD
:1054F00080931B0213C08D3F21F4809119028E7F8F
:105500000BC08E3F21F4809119028D7F05C08F3F23
:1055100029F4809119028B7F8093190280911C02DB
:1055200081110EC080911D0281110AC080911E025E
:10553000811106C080911F02811102C010921802D1
:1055400008958091140283FF7EC08EEA9AE00E9443
:10555000980680911B021F928F9389EA9AE09F938D
:105560008F930E94310787EA9AE00E949806809103
:105570001C02282F082E000C330B3F938F9384EAD4
:105580009AE09F938F930E94310782EA9AE00E94EB
:10559000980680911D02282F082E000C330B3F9394
:1055A0008F938FE99AE09F938F930E9431078DE943
:1055B0009AE00E94980680911E02282F082E000C67
:1055C000330B3F938F938AE99AE09F938F930E94C6
:1055D000310788E99AE00E94980680911F02282FDF
:1055E000082E000C330B3F938F9385E99AE09F932D
:1055F0008F930E94310782E99AE00E949806809179
:1056000018021F928F938FE89AE09F938F930E94C6
:1056100031078DE89AE00E949806809119021F9246
:105620008F938AE89AE09F938F930E94310787E8CF
:105630009AE00E9498068DB79EB74C960FB6F894E4
:105640009EBF0FBE8DBF8AE192E00E94DD1A0E94CC
:105650009A28909317028093160208951F93CF9370
:10566000DF9380911602909117020E94A628AC0148
:1056700090911802992321F020912B0130E006C06F
:1056800020912C018AE0289F900111244217530792
:1056900008F47BC080911C02C0911D02D0911E02B3
:1056A00010911F02811107C0C1116BC0D11169C0D7
:1056B000111167C06AC09F3F19F09F5F9093180255
:1056C000181624F40E94322980931C0280911C0237
:1056D00087FF05C00E943229819580931C021C1609
:1056E00024F40E94322980931D0280911D0287FFBD
:1056F00005C00E943229819580931D0230911C02C1
:105700003323E1F020911D022223C1F045EB340345
:10571000C0011124892F990F990B009709F481E09A
:1057200080931C0235EB2303C0011124892F990FAC
:10573000990B009709F481E080931D021D1624F453
:105740000E947B2980931E0280911E0287FF05C064
:105750000E947B29819580931E02111624F40E94D9
:105760007B2980931F0280911F0287FF05C00E9442
:105770007B29819580931F02DF91CF911F910C941B
:10578000A12A9F3F09F099CFA1CFDF91CF911F911F
:105790000895EAE1F2E086E0DF011D928A95E9F7DB
:1057A0001092180210921902089580912B02089508
:1057B0009FB7F894109222029FBF90917A02943082
:1057C00009F057C09091E9009F703091EC00232FB1
:1057D000217030FD20E8922B23E02093E9002091F6
:1057E000EB0020FF43C02091EE0027FF3FC0209137
:1057F0002002222321F02091E80025FF37C01092DB
:10580000200226E03091E80035FD15C030917A0283
:10581000343061F53091EB0035FD28C0215021F482
:1058200081E08093200222C0EFE9FFE03197F1F799
:1058300000C00000E7CF8093F1008091E80085FD73
:105840000AC08091E80080FFFCCF8091E8008E774D
:105850008093E80006C08FB7F89421E020932202DD
:105860008FBF9F709093E90080E008959F709093A0
:10587000E9008FEF08950F931F93CF93DF9300D02C
:105880001F92CDB7DEB78C010E94F12E823011F04D
:10589000843021F584E089831B830A8382E080932E
:1058A000E9008FEF9091E800815095FD06C095EDDD
:1058B0009A95F1F700008111F5CF8091E80085FFFE
:1058C0000DC040E050E063E070E0CE0101960E9420
:1058D0000E2F8091E8008E778093E8000F900F9054
:1058E0000F90DF91CF911F910F910895CF93DF9388
:1058F00000D01F92CDB7DEB720917A02243031F567
:1059000023E02983805891099B838A8382E08093D6
:10591000E9008FEF9091E800815095FD06C095ED6C
:105920009A95F1F700008111F5CF8091E80085FF8D
:105930000DC040E050E063E070E0CE0101960E94AF
:105940000E2F8091E8008E778093E8000F900F90E3
:105950000F90DF91CF910895CF93DF93EC010E94D8
:10596000F12E823011F08430F9F482E08093E90066
:105970009FEF8091E800915085FD06C085ED8A95E6
:10598000F1F700009111F5CF8091E80085FF0CC080
:1059900040E050E066E070E0CE010E940E2F809162
:1059A000E8008E778093E800DF91CF910895CF9340
:1059B000DF93EC010E94F12E823011F0843039F532
:1059C00081E08093E9008FEF9091E800815095FD90
:1059D00006C095ED9A95F1F700008111F5CF809101
:1059E000E80085FF14C040E050E068E070E0CE01C0
:1059F0000E940E2F8091E8008E778093E80088E067
:105A0000FE01A3E2B2E001900D928A95E1F7DF91E9
:105A1000CF91089586EF9AE00E94980680917902CE
:105A2000811109C00E94A3300E9400318091E200E0
:105A300084608093E200089582EF9AE00E949806C5
:105A40001092790208958EEE9AE00C9498068AEEF0
:105A50009AE00C94980686EE9AE00E9498060C94C0
:105A60005E28209121022F5F822F62E30E94B933CA
:105A7000992319F020932102089510922102809118
:105A80002202882371F180917A02843041F580915D
:105A9000E9008F702091EC00922F917020FD90E82A
:105AA000892B93E09093E9009091EB0090FF14C054
:105AB0009091EE0097FF10C09091E80095FF03C011
:105AC0001092F100F9CF9091E80090FF05C09091FD
:105AD000E8009E779093E8008F708093E900109221
