:100000000C949C030C94340F0C94E3030C94E303C2
:100010000C94E3030C94E3030C94E3030C94E303C8
:100020000C94E3030C94E3030C94A7230C947A241C
:100030000C94931D0C94E3030C94E3030C94E303DE
:100040000C94E3030C94E3030C94E3030C94E30398
:100050000C94E3030C94FE1D0C94E3030C94E30353
:100060000C94E3030C94E3030C94E3030C94E30378
:100070000C94E3030C94E3030C94E3030C94E30368
:100080000C94E3030C94E3030C94E3030C94E30358
:100090000C94E3030C94E3030C94E3030C94E30348
:1000A0000C94E3030C94E3030C94E3032B00295D0D
:1000B0002A5D2B5D13001C0029610400120008005A
:1000C00018000C00E1002C5D14000D000E001B0058
:1000D000E000E300010001000451E2000000000024
:1000E000010007512C0004512A000F0015000600E2
:1000F0000A00090028001600110017000B00070075
:10010000E1001D0019001A0010000500E40009516B
:10011000010001000651E600000000000100065148
:10012000E10008512B0034003600370013001C009A
:10013000296104001200080018000C00E1003300DF
:1001400014000D000E001B00E000E30001000100A0
:100150000451E20000000000010007512C0004518E
:100160002A000F00150006000A00090028001600EA
:10017000110017000B000700E1001D0019001A0014
:1001800010000500E4000951010001000651E600DD
:100190000000000001000651E10008512B0014008E
:1001A0001A00080015001700296104001600070056
:1001B00009000A00E1001D001B00060019000500EF
:1001C000E000E300E200075105512C0000000000B0
:1001D00001002D02E100E2002A00130012000C00D1
:1001E00018001C00280033000F000E000D000B004B
:1001F000E10034003700360010001100E40009511E
:10020000E600065108512C000000000001002A0001
:10021000E100E6002B001E001F002000210022004C
:100220002961170014001A0008001500E1001C00E5
:100230000400160007000900E0001D001B00060076
:100240001900050000000000E300E2002C0010008F
:100250002A00270026002500240023002800330060
:100260000F000E000D000B00E100340037003600D7
:1002700010001100E4000951E60006510C000A00CC
:1002800000000000045113001800120001001E02BB
:100290001F0220022102220201002D002702251444
:1002A00026142D020100010006011B011901301462
:1002B0000100010001000100010001000000000038
:1002C00001000100010001000100310226022502A7
:1002D00023023002010038002714241424022D14B4
:1002E0000100330034002F0064142E0201000100CD
:1002F00001000100010001000000000001000100F8
:100300000100010001001E021F0220022102220240
:1003100001002E022E002F003000380201000100E3
:1003200006011B0119013502010001000100010055
:1003300001000100000000000100010001000100B7
:1003400001002502270226022402230201002D00BB
:1003500030022F02380031000100010001000100CD
:10036000310235000100010001000100010001001F
:1003700000000000010001000100010001003A003E
:100380003B003C003D003E00010050004F00520089
:1003900051004400010001000100010001000100C2
:1003A0000100010001000100010001000000000047
:1003B0000100010001000100010043004200410072
:1003C00040003F0001004C004A004B004600450041
:1003D000010049004D004E00010001000100010034
:1003E0000100010001000100000000000100010007
:1003F0000100010001004C05240724034302010011
:100400002903490442014303280301003A0440053B
:10041000160716053E01010001004004010001001D
:1004200001000100000000000100010001000100C6
:10043000010001004F05500501000100010001000D
:10044000010001002C030100010001000100010076
:100450000100010001000100010001000100010094
:100460000000000001000100010001000100010086
:10047000010001000100010001001E001F0020001A
:100480002100220001000100010001000100010023
:100490000100010001000100010001000000000056
:1004A0000100010001000100010001000100010044
:1004B0000100010001002700260025002400230080
:1004C0000100010001000100010001000100010024
:1004D0000100010001000100000000000100010016
:1004E0000100010001000100010001000100010004
:1004F00001000100010001000100010001000100F4
:1005000001000100010001000100010001000100E3
:1005100001000100000000000100010001000100D5
:1005200001000100010001000100010001000100C3
:10053000010001000100010001002F5D2E5D2D5D15
:1005400001000100010001000100010001000100A3
:100550000000000001000100010001004445425577
:10056000473A2064697361626C65642E0A004445F1
:100570004255473A20656E61626C65642E0A000A36
:100580000025303862003A200025303258000A72C7
:100590002F632030313233343536370A000A0025D4
:1005A00030325820006B6579626F6172645F7265EA
:1005B000706F72743A20000A0025303258006B6563
:1005C00079626F6172645F7365745F6C65643A2011
:1005D000005B735D004B6579626F617264207374B8
:1005E0006172742E0A005B575D005B535D005B52C5
:1005F0005D005B445D005B435D0026034B006500CE
:100600006500620069006F00200049007200690007
:10061000730020005200650076002E002000340098
:1006200000000E034B0065006500620069006F006A
:1006300000000403090409025B00030100A0FA0999
:100640000400000103010100092111010001224001
:10065000000705810308000A0904010001030000E6
:100660000009211101000122320007058203200048
:100670000A0904020002030000000921110100011F
:100680002222000705830320000107050303200041
:1006900001120110010000000810CB5642000401B5
:1006A0000200010631FF0974A1010975150026FF3A
:1006B000009520750881020976150026FF00952017
:1006C00075089102C005010980A101850319012A5D
:1006D000B700150126B700950175108100C0050C03
:1006E0000901A101850419012AA002150126A00211
:1006F000950175108100C005010906A101050719C2
:10070000E029E7150025019508750181029501751D
:100710000881010507190029FF150026FF0095062D
:1007200075088100050819012905950575019102D3
:10073000950175039101C00011241FBECFEFDAE0CF
:10074000DEBFCDBF04B603FE27C08091A202909108
:10075000A302A091A402B091A5028730904BA740BC
:10076000B04BD1F41092A2021092A3021092A402F4
:100770001092A50214BE84B7877F84BF0FB6F89489
:10078000A89580916000886180936000109260005D
:100790000FBEE0E0F8E3099511E0A0E0B1E0EAEC7B
:1007A000FDE402C005900D92A43BB107D9F722E009
:1007B000A4EBB1E001C01D92A23AB207E1F70E949A
:1007C000E0200C94A6260C940000FF93EF93E09198
:1007D000B401F091B501309709F00995EF91FF91BF
:1007E0000895FC018591803011F0EFDFFBCF089573
:1007F000FF27E0E230E247FF0CC0419597FF09C0B8
:10080000EDE26095709580959095611D711D811D3B
:10081000911D27FF02C0219530E350E2AA27660F01
:10082000771F881F991FAA1FA41710F0A41B639598
:100830005A95A9F7AA3008F0A95FA05DAF93F39588
:10084000611571058105910541F7ED3211F4EF93C2
:10085000F395F21718F43F93F395FBCF8F91B5DF23
:10086000FA95E1F70895E991F9918591803021F0A9
:10087000853219F0AADFF9CF089520E0E894559168
:100880005532C1F3503311F4689455915A3348F4FA
:10089000505390F3220F022E220F220F200D250F0E
:1008A000F4CF0EF4219589919991533619F353376A
:1008B00029F1533559F1BC0188279927E8945C3612
:1008C00021F48991999168945591543639F446EF01
:1008D0007EF077FF0DC08FEF9FEF0AC055374AE0DB
:1008E00039F0583540E121F0523642E009F00895E0
:1008F000FF93EF937DDFEF91FF91B7CFFF93EF93DE
:10090000FC0181918030B9F360DFFBCFFF93EF935F
:1009100068DFF1CFDF93CF93CDB7DEB72596A3DFA6
:10092000CF91DF91089560E070E0CB010E94731CCD
:100930000C947F1C089508950F931F93CF93DF931A
:10094000EC018B018091B60186FF13C0C13ED10539
:1009500029F4DB0112968C91882319F081EE0E9414
:10096000A11184E60E942A128091B6018F7B8093A8
:10097000B601C13ED10509F4E4C0FE01E952FD45CE
:10098000E730F10508F0CFC0E855F94DD8011296CF
:100990008C910C944A268823B9F0E0911B01F091C8
:1009A0001C01808181FF09C08FE10E94A11180910B
:1009B000B60181608093B601B6C081E30E94A111A7
:1009C0008091B6018260F6CF8091B60180FF08C0A9
:1009D0008FE10E942A128091B6018E7F8093B6012A
:1009E0008091B60181FF9FC081E30E942A1280910D
:1009F000B6018D7FDFCF8823C1F0E0911B01F0911C
:100A00001C01808181FF0AC081EE0E942A1284E6C7
:100A10000E94A1118091B6018064CCCF86E30E9430
:100A2000A1118091B6018068C5CF8091B60186FF83
:100A300008C084E60E942A128091B6018F7B8093C1
:100A4000B6018091B60187FF6EC086E30E942A122C
:100A50008091B6018F77AECF8823A9F0E0911B017A
:100A6000F0911C01808181FF07C084E60E94A111E2
:100A70008091B60184609ECF87E30E94A11180918E
:100A8000B601886097CF8091B60182FF08C084E6E6
:100A90000E942A128091B6018B7F8093B6018091CB
:100AA000B60183FF40C087E30E942A128091B601FD
:100AB000877F80CF8823C1F0E0911B01F0911C015A
:100AC000808181FF07C087E30E94A1118091B60158
:100AD000806170CF81EE0E94A11186E30E94A11176
:100AE0008091B601806266CF8091B60184FF08C014
:100AF00087E30E942A128091B6018F7E8093B6010F
:100B00008091B60185FF0FC086E30E942A1281EE14
:100B10000E942A128091B6018F7D4CCF882319F054
:100B200080E00E94160681E0DF91CF911F910F9126
:100B300008958823C1F381E0F4CF8823A1F382E0F4
:100B4000F0CFF8018281882329F081EE0E94A11163
:100B500086E3DECF81EE0E942A128FE10E942A12E4
:100B60008091B6018E7F8093B60184E60E942A129E
:100B70008091B6018B7F8093B60187E30E942A1291
:100B80008091B6018F7E8093B601E2CF81E0089517
:100B90000C949C0408950C94CA051F93CF93DF9383
:100BA00000D000D00F92CDB7DEB749835A836B8354
:100BB0003091F00189819A8131111DC06623B9F00D
:100BC0002223A9F00E94F11A182F682F89819A8197
:100BD0000E94981A69817A81812F0F900F900F904F
:100BE0000F900F90DF91CF911F910C94CE060E9431
:100BF000C71A182FEFCF0E94F11A69817A81EDCFC1
:100C0000FC01262F408151816281738184810C9483
:100C1000CD05CF93DF93D82FC92F60E00E94000647
:100C20006D2F7C2FDF91CF910C94CB05CF93DF9369
:100C300000D000D0CDB7DEB721E030E002C0220FF7
:100C4000331F8A95E2F73A83298389810E94531CD6
:100C5000A981BA81CD01B0E0A0E089839A83AB83FA
:100C6000BC83BC01CD010F900F900F900F90DF91CE
:100C7000CF910C94D4180E94401C811102C00E9494
:100C8000E21C0C94D0080C94D20808950E944A15D6
:100C90000E9445062FEF84E39CE021508040904065
:100CA000E1F700C000000C94851E0F931F93CF93B3
:100CB000DF93EC0161E00E9400068C01BE010E94FE
:100CC000C805882311F1BE01C8010E94BE0C88230B
:100CD000E1F0BE01C8010E94130D8823B1F0BE01EE
:100CE000C8010E94E60D882381F08A81882341F1A2
:100CF00001308CE5180779F00F3D8CE51807E9F015
:100D000001151C45E9F40E94460680E0DF91CF9171
:100D10001F910F91089590916602892F8E7F90FF09
:100D200081608093660280FF05C08EE695E00E9498
:100D3000F103EBCF8CE595E0FACF0E94E21CE5CF02
:100D4000CE01DF91CF911F910F910C94C605829532
:100D500094E0899F900111242C7C8695869583735D
:100D6000282B30E0C901880F991F8A7A359527957D
:100D70002575822B089508950C94BB0681E0089593
:100D80000C94BE06CF93C82F0E94BC068C2FCF9127
:100D90000C94C00690E080E008950895972F70E0CD
:100DA00026E0929F600D711D1124FB019CE3899F39
:100DB000E00DF11D1124EE0FFF1FE455FF4F85914B
:100DC00094910895FC01EE0FFF1FE158FA4F8591B1
:100DD00094910895CF93DF930E94CE060E94F50769
:100DE000EC01811521E5920708F048C0811530E536
:100DF000930708F0AFC0803E910518F5803C91053F
:100E000008F096C0883A910570F4853A910508F08B
:100E10008CC08130910531F10497813A910510F130
:100E2000D0E0C0E01FC08F3B9105D1F3C85AD0E09D
:100E3000CC0FDD1FCE5CDE4F0990D881C02DD4646D
:100E400011C0811540E3940788F4C11580E2D807EA
:100E500008F074C0C83ED10528F0CE019A958115DE
:100E60009F41F0F6CE01DF91CF910895811530E4D6
:100E7000930708F466C0DF70D06AF4CF81159645F9
:100E800060F5C11585E5D80708F096C0C11594E551
:100E9000D907F0F4C11523E5D20708F079C0C115D0
:100EA00032E5D30708F46FC0CE018370992721E0A3
:100EB00030E002C0220F331F8A95E2F7C695C6952F
:100EC00040E2C49FE0011124C22BD32BDC68CACFBF
:100ED000DC2FCC27C46FD06AC5CFC1158AE5D807EF
:100EE00088F4C11599E5D90708F071C0CE0198556D
:100EF0008F3F910511F008F093CFDC2FCC27C06F06
:100F0000D06AB0CFCE0190568115904208F088CFBC
:100F10008D2F8F710E948D0890E0982F8827882749
:100F20009F719C012C2BE90150C0A497D0649ACFEB
:100F3000805C91090E94E206EC0194CFCE019F7083
:100F4000F9CF9927D3FF03C0EC01D86C8BCFEC010C
:100F5000D06C88CF74E0969587957A95E1F7837089
:100F60002C2F26952695237040E2249F9001112472
:100F7000382B8C2F8370C1E0D0E002C0CC0FDD1F76
:100F80008A95E2F7A1CFDC2FCC27C16FD06A6ACF58
:100F9000CE018370992721E030E002C0220F331F79
:100FA0008A95E2F7C695C69580E2C89FE0011124B4
:100FB000C22BD32BDA6856CF8C2F0E948D08C82FF6
:100FC000D0E0DC2FCC27CC27DF71D0624BCF8C2F29
:100FD0008F700E948D0834E0D695C7953A95E1F759
:100FE000CF70DC2FC82FD0693DCF803E910599F19D
:100FF000C8F48133910509F476C048F4893291052B
:1010000009F46AC08A32910509F474C008958933DD
:101010009105D1F082389105B9F08533910509F435
:1010200054C00895843E910599F138F4823E9105AB
:10103000F9F0833E910509F10895863E910599F1F5
:10104000873E9105B9F10895209193022370A1F094
:1010500080EE90E008952091930220FD52C03091DF
:10106000940230FF09C024FF4FC090E080E004C02C
:101070002091930222FDF7CF08952091930222FD43
:1010800046C03091940230FDE3CF24FFF5CFEDCF81
:101090002091940221FFF0CF8091930284FDE5CF4F
:1010A00087EE90E008952091930223FFE5CF24FD81
:1010B000DCCFF6CF2091930223FD2CC03091940217
:1010C00031FFE3CF84EE90E008952091930225FF55
:1010D000D3CF89E290E008952091930225FFCCCFF1
:1010E00085E390E008952091930226FFC5CF8AE220
:1010F00090E008952091930226FFBECF81E390E017
:10110000089589E390E0089583EE90E0089582EEDB
:1011100090E0089586EE90E008959091930292FFFA
:1011200006C0282F28712830F9F4877F846093FF48
:1011300006C0282F28712831F1F4877E8461209120
:10114000940220FF06C0382F38713830D9F4877FD9
:10115000816021FF06C0282F28712831D1F4877EB5
:10116000816194FD877E0895282F24712430F9F63B
:101170008B7F8860DCCF282F2471243101F78B7E90
:101180008861DDCF382F3171313019F78E7F88605B
:10119000E0CF282F2171213121F78E7E8861E1CFA8
:1011A0000C949A040C949B04E82FF0E0E158FD4F56
:1011B00080810895CF92DF92EF92FF920F931F9359
:1011C000CF93DF938EE895E00E94F1038FE7E82E3E
:1011D00082E0F82ED0E0C0E099E8C92E95E0D92E43
:1011E00001E815E0DF93CF93DF92CF920E948A044B
:1011F00086E895E00E94F103F70181917F010E944A
:10120000A7061F928F931F930F930E948A048FE764
:1012100095E00E94F10321968DB79EB708960FB610
:10122000F8949EBF0FBE8DBFCA30D105D9F6DF91AD
:10123000CF911F910F91FF90EF90DF90CF90089585
:1012400080EA8A95F1F7089500C008950C9420096A
:10125000F894E82FE295EF70A1E2AE0FB0E04C9168
:101260008F7021E030E0B90102C0660F771F8A95C8
:10127000E2F7CB01962F909594239C93EE5DF0E0DE
:101280009081892B8083789408950895EF92FF923E
:101290000F931F93CF93DF93CDB7DEB760970FB651
:1012A000F894DEBF0FBECDBF0E94230B80911001CA
:1012B00081112AC086E0E8E2F1E0DE01119601909A
:1012C0000D928A95E1F7FE01379684E0DF011D92C9
:1012D0008A95E9F78AE03697A6E0B1E001900D9291
:1012E0008A95E1F786E0E0E6F1E0DE011B960190E9
:1012F0000D928A95E1F786E0FE013B96A0E0B1E011
:1013000001900D928A95E1F78091100195E081118D
:1013100090E090938A0285E0891B8093890206E021
:1013200011E09BE0E92E91E0F92EF80181918F0107
:101330000E942809E016F106C1F700E011E086E0FE
:10134000E82E81E0F82ED8018D918D010E942809A8
:10135000E016F106C1F78AE0E5E7F2E0DF01982F39
:101360001D929A95E9F7EFE7F2E0DF011D928A9569
:10137000E9F785E00E94C80A0E943B0660960FB616
:10138000F894DEBF0FBECDBFDF91CF911F910F91BB
:10139000FF90EF900C942D0BEF92FF921F93CF9341
:1013A000DF9300D000D00F92CDB7DEB70E94060BBE
:1013B000182F60918A02882309F455C01A82198275
:1013C000FE01339683E0DF011D928A95E9F7862FAF
:1013D00090E032977F01BF0181589D4F0E941C0E03
:1013E000811124C08091B7018F5F8093B70186304F
:1013F000C0F1E0918902F0E0E158FD4F85E0DF01A6
:10140000282F1D922A95E9F7D7011D928A95E9F7B1
:101410000E944306812F0F900F900F900F900F9016
:10142000DF91CF911F91FF90EF9008951092B70137
:10143000A0918902B0E0A158BD4F9E012A5F3F4FA5
:1014400010E04D91F70191917F01491731F0AD0105
:1014500041505109FA019083182FE216F30689F7DB
:10146000D7CF10E0D5CF70E061587D4F80918902D1
:1014700090E081589D4F0E94540E0E944509CACFAA
:10148000AF92BF92CF92DF92EF92FF920F931F9392
:10149000CF93DF93C6E0D1E005E712E08BE0C82EE2
:1014A00081E0D82EB12CEE24E394F12C8991F894AC
:1014B000E82FE295EF70A1E2AE0FB0E02C918F70B3
:1014C000A70102C0440F551F8A95E2F7CA01922F67
:1014D000982B9C93EE5DF0E090818095892380832A
:1014E00078940E942409E0E0F1E030E020E0A12CB3
:1014F0004191A42FA295AF70A05EB0E08C9190E0D6
:101500004F7002C0959587954A95E2F780FD3CC0E3
:101510008E2D022E01C0880F0A94EAF7A82A2F5FA9
:101520003F4F2630310521F7FE01319780810E941F
:1015300028090E942609F8018081A81639F1A082A5
:1015400081E0B82A0F5F1F4FCC16DD0609F0AECF41
:1015500060918A0270E061587D4F2B2D45E085E750
:1015600092E00E94C90A0E94CC09B11001C0B82EB5
:101570008B2DDF91CF911F910F91FF90EF90DF9016
:10158000CF90BF90AF90089580E0C8CF80E0D9CFD2
:101590000895FF920F931F93CF93DF93F82E092F97
:1015A000162FD72FC42F222349F081E08093BA0150
:1015B0000E94C31D9093B9018093B8018091BA0134
:1015C0008823A1F08091B8019091B9010E94EF1D8C
:1015D000069760F0EF2DF02FA12FBD2FCF018C0FBC
:1015E000911DE817F90741F41092BA01DF91CF91EC
:1015F0001F910F91FF90089521912D93F2CF55984F
:101600005D9889B185FB882780F908958091BB0199
:10161000811110C08091D80080618093D8008AE148
:101620008A95F1F700C08091D90080FD0AC082E060
:101630008093BB0181E09091BB01913009F080E083
:10164000089581E0F5CF0E94FF0A809310010E9467
:10165000060B81110C94100E08950E94060B811147
:1016600002C00C94160E089508950C94340BCF9379
:10167000DF9380911001811106C087EF80931201E2
:1016800086EF8093110120911201A22FA295AF70D5
:10169000E1E2EA0FF0E030812F7081E090E0BC01E0
:1016A000022E01C0660F0A94EAF7462F40954323A5
:1016B0004083E2E2EA0FF0E03081362B3083409144
:1016C0001101E42FE295EF70C1E2CE0FD0E0388136
:1016D0004F70042E01C0880F0A94EAF7982F909556
:1016E00093239883C2E2CE0FD0E09881892B888320
:1016F000A05EB0E08C9190E002C0959587952A9508
:10170000E2F78170E05EF0E0208130E002C03595C4
:1017100027954A95E2F792E020FF90E0892B80938D
:10172000C1019091100181E098279093BD01891B20
:101730008093BC01DF91CF910895CF93E091C101D7
:10174000EE0FEE0F20911201A22FA295AF70A05EB6
:10175000B0E08C9190E02F7002C0959587952A9506
:10176000E2F78170992740911101A42FA295AF70E3
:10177000A05EB0E02C9130E04F7002C03595279507
:101780004A95E2F7A9014170552720FF02C042E0C7
:1017900050E0842BE82BE093C101C091BD01EF70B4
:1017A000F0E0E959FE4F80819091C001890F80934C
:1017B000C00120E0843074F0EC2F0C2E000CFF0BE5
:1017C000E254FE4F80818F5F808360E08C2F0E9407
:1017D000350B21E08091C0018D3F74F4EC2F0C2E6D
:1017E000000CFF0BE254FE4F80818150808361E04A
:1017F0008C2F0E94350B21E08091C001082E000C37
:10180000990B64E070E00E9436268093C001822F1D
:10181000CF910895E091BD01F0E0E254FE4F2081A8
:10182000FC0120830895FF920F931F93CF93DF93C2
:10183000D091BC010D2F10E002541E4FFC01C0815D
:10184000F8018081C81BFC2E80E01F147CF09C2FC7
:10185000C7FD90E0C91BC11114C08823E9F0DF91D6
:10186000CF911F910F91FF900C946D10FA94F80195
:1018700080818F5F808360E08D2F0E94350B81E037
:10188000E4CFCF5FF80180818150808361E08D2FAC
:101890000E94350B81E0DFCFDF91CF911F910F9137
:1018A000FF9008950F931F93CF93DF93C42FD22FF0
:1018B000FC0182818823C9F04093C4010E94C31DAA
:1018C0009093C3018093C20180E28C0F883008F0AE
:1018D00050C0C77081E001C0880FCA95EAF7DF9158
:1018E000CF911F910F910C9498121091C401141371
:1018F00035C08091C2019091C3010E94EF1D883CC8
:10190000910560F5C0E2CD0F1D17B9F080E2810F9F
:10191000883040F4177081E001C0880F1A95EAF70B
:101920000E949F12C83048F481E09D2F977001C03B
:10193000880F9A95EAF70E949812802F0E949012C1
:10194000C830B8F4D77081E001C0880FDA95EAF7A3
:10195000DF91CF911F910F910C949F1280E28C0F19
:10196000883038F4C77081E001C0880FCA95EAF763
:10197000EFCFDF91CF911F910F9108950F939C01AD
:10198000CB01243F4CE53407A1F190F4293DFCE55F
:101990003F0749F12A3D4CE53407E9F1283D3C4534
:1019A000C1F0FC0182818823E1F11092C40119C0C9
:1019B000263FFCE53F0719F1273F4CE5340729F1A5
:1019C000253F3C4571F707E225EE44EE65EF7CE5E7
:1019D00005C006E221EE41EE68ED7CE50E94520C66
:1019E00080E00F91089507E225EE45EE69ED7CE574
:1019F000F5CF06E221EE40EE64EF7CE5EFCF06E2A4
:101A000021EE42EE66EF7CE5E9CF07E225EE46EEF9
:101A100067EF7CE5E3CF08E221E045EE6AED7CE587
:101A2000DDCF81E0DECFCF93DF93EC01FB0182813C
:101A3000882309F4C9C0C631FCE5DF07E0F4C230F1
:101A40009CE5D907F0F00E94581C90939402809373
:101A50009302C631ECE5DE0720F5C230FCE5DF0776
:101A600098F480919302909194020E94661C0E94C7
:101A70004A1580E006C09E012B5F3C4529303105A8
:101A800010F3DF91CF910895FE01E350FC45809162
:101A900093028160E331F10588F4E155F94D0C942E
:101AA0004A26CB5FDC45C930D105D8F6CE53D94D97
:101AB000FE010C944A2680919302826080939302E7
:101AC000D0CF809193028460F9CF80919302886097
:101AD000F5CF80919402816080939402C2CF80916F
:101AE00094028260F9CF809193028061E7CF809168
:101AF00093028062E3CF809193028064DFCF0E94E3
:101B00004A15809193028068D9CF809193028C60AE
:101B1000D5CF809194028360DFCF809193028E7F36
:101B2000CDCF809193028D7FC9CF809193028B7F1F
:101B3000C5CF80919302877FC1CF809194028E7F21
:101B4000CBCF809194028D7FC7CF809193028F7EFF
:101B5000B5CF809193028F7DB1CF809193028F7B1F
:101B6000ADCF0E944A15809193028F77A7CF8091C5
:101B70009302837FA3CF809194028C7FADCF80911D
:101B8000930282FB992790F921E0922790FB82F93A
:101B900090FB83F993CF80919402982F9095917048
:101BA0008E7F892B90FB81F997CF0E944A159091E7
:101BB0009302892F97FB87F9805880CF81E00E949C
:101BC000E41C4FCF80E0FBCF81E05BCFCF93DF936E
:101BD000EB0186319C4511F50E948E1B9A81992359
:101BE00099F08A7A91E009F490E09093C50181110F
:101BF00009C089E20E94691B0E94DD1B80E0DF9121
:101C0000CF91089585E3F6CF8091C501811104C07D
:101C100089E20E94701BF0CF85E3FBCF81E0EFCF1C
:101C200061E070E083E191E00C94E50E61E070E02A
:101C300083E191E00C94EC0ECF93DF9300D000D0C1
:101C40000F92CDB7DEB76D8379830E94860F9C011A
:101C500080E02115310501F5ED81F981D901A55308
:101C6000BE4F8C9181932F5F3F4F25303105B1F7E7
:101C700080ED91E00E94130C0E94541EDC01CB0108
:101C80000296A11DB11D8093C7019093C801A09336
:101C9000C901B093CA0181E00F900F900F900F908F
:101CA0000F90DF91CF910895CF93DF9300D000D0B4
:101CB00000D0CDB7DEB76E837D838091C701909150
:101CC000C801A091C901B091CA0189839A83AB83ED
:101CD000BC83BC01CD010E942B1EEE81FD8190E0F2
:101CE00080E02191DC01A553BE4F2C9301968530F5
:101CF0009105B9F780ED91E026960FB6F894DEBF16
:101D00000FBECDBFDF91CF910C940A0C8EE1489BA2
:101D100002C08150E1F7489BFECF0895589880E2B9
:101D20008A95F1F7589A0895FC013BE03A95F1F74E
:101D300098E020E080E031E040E14A95F1F7880F3B
:101D4000489B02C08160232742E04A95F1F70000DA
:101D500040E14A95F1F7915079F790E19A95F1F7C2
:101D600099B132E03A95F1F7000040E14A95F1F778
:101D7000917092272081920F90830895EF92FF92A5
:101D80000F931F93CF93DF930F92CDB7DEB71982D6
:101D90008C017C01E60EF11C0E151F0561F481E03B
:101DA0009981911180E00F90DF91CF911F910F9158
:101DB000FF90EF9008950E94860ECE0101960E943A
:101DC000940EF80181938F01E7CF9093D201809315
:101DD000D101509A589A08959093D2018093D101DD
:101DE0005098589AE89AE9E6F0E080818C7F8083E9
:101DF00008956150770B91E001C0990F6A95EAF759
:101E000020E031E0911108C0222391F0589A80E23D
:101E10008A95F1F758980895492F482339F0589A30
:101E2000232740E24A95F1F79695ECCF5898F9CFE1
:101E30005898EDCFFF920F931F93CF93DF93EC0150
:101E40008C01060F111DC017D10731F4DF91CF911E
:101E50001F910F91FF900895F9900E948E0E68E0F7
:101E60008F2D0E94F90EEFCF1F920F920FB60F9297
:101E700011242F933F934F935F936F937F938F938F
:101E80009F93AF93BF93CF93DF93EF93FF935898B4
:101E9000509AC091D101D091D2016D81662321F079
:101EA0008E819F810E941A0F0E948E0E80E18A957A
:101EB000F1F758985098589A80E18A95F1F76A811D
:101EC000662309F18B819C810E94BE0EE881F98115
:101ED000882311F088E001C082E080830E94860E92
:101EE000FF91EF91DF91CF91BF91AF919F918F9132
:101EF0007F916F915F914F913F912F910F900FBE06
:101F00000F901F901895E881F981E4CFCF93DF936C
:101F1000C091D101D091D201F894509A589885E09F
:101F20008A95F1F700005098589A80E28A95F1F767
:101F3000489B0CC0509A589AE881F98181E08083CF
:101F4000789481E090E0DF91CF9108956D816623D0
:101F500081F08E819F810E94BE0E81110AC0509A2D
:101F6000589AE881F98182E08083789482E090E059
:101F7000EACF0E94860E80E28A95F1F75898509A2F
:101F800080E18A95F1F76A81662321F08B819C813B
:101F90000E941A0F0E948E0EE881F98110827894B7
:101FA00090E080E0D0CF9093D8018093D70108953E
:101FB000E091D701F091D801309721F00190F081A4
:101FC000E02D099480E00895EF92FF920F931F9304
:101FD000CF93DF938C01E091D701F091D801309736
:101FE000B1F10280F381E02D09958091660282FFB4
:101FF0002EC080FF04C085EA95E00E94F103E8014D
:10200000780188E0E80EF11C0FE915E08091660286
:1020100080FF0BC088811F928F931F930F930E94A4
:102020008A040F900F900F900F902196CE15DF0528
:1020300069F78091660280FF0AC08DE995E0DF9123
:10204000CF911F910F91FF90EF900C94F103DF91CE
:10205000CF911F910F91FF90EF9008952091D5019E
:102060003091D6012817390771F09093D6018093EB
:10207000D501E091D701F091D801309721F0068089
:10208000F781E02D099408952091D3013091D40176
:102090002817390771F09093D4018093D301E09110
:1020A000D701F091D801309721F00084F185E02D1F
:1020B000099408950E94CF1D6093EC017093ED0187
:1020C0008093EE019093EF016093E8017093E90132
:1020D0008093EA019093EB0108950E94CF1D6093D5
:1020E000EC017093ED018093EE019093EF0160930A
:1020F000E4017093E5018093E6019093E701089570
:1021000085B7806885BF85B7806885BF08950895C5
:1021100008950C94871008950C948B100E948010E1
:102120008EE790E20E94A91E0E9488100C948910EC
:102130000C94060B089508950E94BA1D0E94221E59
:102140000E9446090E94AE1E0E94370B0C948C1010
:10215000CF93C82F8091660282FF1EC080FF1CC0F3
:102160008EEB95E00E94F1038091660280FF14C01F
:102170001F92CF9389EB95E09F938F930E948A04DF
:10218000809166020F900F900F900F9080FF04C017
:1021900087EB95E00E94F1038C2FCF910C94C2063F
:1021A000AF92BF92CF92DF92EF92FF920F931F9365
:1021B000CF93DF9300D000D00F92CDB7DEB70E944F
:1021C0009A100E949B100E94400A81110E945A108E
:1021D0008AEDA82E81E0B82E10E000E0C02E802FFE
:1021E0000E94D408F82EF501E1905F01E81609F489
:1021F00050C08091660281FD0E94DA088E2D8F25E5
:10220000D12CEE24E394982F9E2109F43DC00E9426
:102210009810882399F0D982CA82FE2081E009F4BF
:1022200080E08B830E94C31D8160782F9D838C8307
:1022300049815A816B818D810E947011F801E652AB
:10224000FE4F8081E826E0820E949D0B81110E9452
:102250006D100E94D80F9091D901891789F10E94C1
:10226000D80F8093D9010F900F900F900F900F907F
:10227000DF91CF911F910F91FF90EF90DF90CF9062
:10228000BF90AF900C94A810D394EE0CF6E0DF1240
:10229000BACF0F5F1F4F0A30110509F09FCF8FEFA4
:1022A00089838A831B820E94C31D8160782F9D834E
:1022B0008C8349815A816B818D810E947011C4CFBA
:1022C0000F900F900F900F900F90DF91CF911F9173
:1022D0000F91FF90EF90DF90CF90BF90AF90089557
:1022E000CF93DF93CDB7DEB72B970FB6F894DEBF51
:1022F0000FBECDBF4F83588769877A878B8761115F
:102300000E94B01B1E8285E0FE013796DE01119609
:1023100001900D928A95E1F749815A816B817C8108
:102320008D819E812B960FB6F894DEBF0FBECDBF78
:10233000DF91CF910C94AC17FC01808191810C94BA
:10234000331BCF93C82F882309F482C08238C1F48D
:102350000E94D80F81FD7CC089E30E94691B0E9406
:10236000DD1B2FEF31EE84E0215030408040E1F75B
:1023700000C0000089E30E94701BCF910C94DD1B0C
:102380008338A1F40E94D80F80FD62C083E50E94CB
:10239000691B0E94DD1B9FEF21EE34E0915020402D
:1023A0003040E1F700C0000083E5E5CF8438A1F4B8
:1023B0000E94D80F82FD4CC087E40E94691B0E94D6
:1023C000DD1B8FEF91EE24E0815090402040E1F73B
:1023D00000C0000087E4CFCF8CEF8C0F813A90F4DF
:1023E0006C2F80911B0190911C010E94FB1C882383
:1023F00029F08C2F0E94701B0E94DD1B8C2F0E94E5
:10240000691BBBCF80E28C0F883048F4C77081E035
:1024100001C0880FCA95EAF70E94911BAECF8BE5E9
:102420008C0F833038F42C2F2452330BC901CF91F9
:102430000C942E10C85AC73158F4EC2FF0E0EE0F70
:10244000FF1FE958FE4F80819181CF910C94441079
:10245000CF910895882309F44BC0823871F40E940B
:10246000D80F81FF45C089E30E94691B0E94DD1BD4
:1024700089E30E94701B0C94DD1B833859F40E9481
:10248000D80F80FF35C083E50E94691B0E94DD1BC9
:1024900083E5EFCF843859F40E94D80F82FF28C01B
:1024A00087E40E94691B0E94DD1B87E4E2CF9CEF5A
:1024B000980F913AF0F290E2980F983050F48770AC
:1024C00091E001C0990F8A95EAF7892F0E94971B26
:1024D000D2CF9BE5980F933020F490E080E00C94ED
:1024E0002E10885A873120F490E080E00C9444103C
:1024F00008951F93CF93DF93182FEB010E94A11132
:10250000209731F4812FDF91CF911F910C942A12E3
:102510008FE99FE00197F1F700C000002197F0CF0D
:1025200070E060E0893311F460E570E00C9479129A
:10253000882321F00E94911B0C94DD1B08958823B1
:1025400021F00E94971B0C94DD1B0895AF92BF925F
:10255000CF92DF92EF92FF920F931F93CF93DF936F
:1025600000D000D00F92CDB7DEB76C016D837983B8
:10257000FC011281058102950F700E94871BE82ED5
:102580008823A1F0E12E112389F08981807F803496
:1025900029F08D81805EE12C883040F082E00E943D
:1025A000281C0E94871B91E0E82EE926A980A294AE
:1025B0009FE0A922B12CF501E553F94D0C944A2670
:1025C00009810F70F981F07F11F00295007F1123CE
:1025D000B1F0002361F08D81805E883018F02D818C
:1025E000211109C0802F0E94911B0E94DD1B8D814B
:1025F0000E94A11115C0802F0E94A21BF6CF8D81D1
:102600000E942A12002361F08D81805E883018F0CC
:102610004D81411133C0802F0E94971B0E94DD1B0A
:1026200048E0A41AB10854E0A516B10420F40E94B1
:10263000D80F0E94C206EE2009F4CBC10E94831B72
:1026400080FDC7C1F60112820E947D1B0E9488197D
:10265000C6010E9410150E947D1B0F900F900F90D5
:102660000F900F90DF91CF911F910F91FF90EF90FE
:10267000DF90CF90BF90AF900C94B919802F0E943B
:10268000A81BCCCF59815F70F52E6981607F6032C5
:1026900019F0F29480EFF8227D81772369F0713090
:1026A00049F1112391F1002351F1F601858180FF59
:1026B0009ECF8F70858323C0112381F0011106C046
:1026C0000E94C41B8F290E949812AACF0130C1F723
:1026D0000E94C41B8F290E94CA1BA2CF011106C0F1
:1026E0000E94D31B8F2D0E949F129ACF013009F4B4
:1026F00097CFF6CF112329F0063008F091CF8F2D18
:10270000E2CF053008F08CCFEDCF002359F3FD81E7
:10271000F93349F42FEF47EE53E021504040504049
:10272000E1F700C000008D810E942A1279CF8981D3
:1027300086958695837069F0813009F071CF8D811F
:1027400099819370111102C090E080E00E944410C2
:1027500067CF8D8199819370111102C090E080E064
:102760000E942E105DCF8981837009F050C0111135
:1027700057CF4D81429546954770440F440F8D8148
:102780008F7090E0B0E0A0E0042E04C0880F991F85
:10279000AA1FBB1F0A94D2F76D8100E010E09801D8
:1027A00064FF0FC00FE010E020E030E004C0000F35
:1027B000111F221F331F4A95D2F7009510952095BF
:1027C000309579817695769573707D83B901A801EE
:1027D000482B592B6A2B7B2B49835A836B837C8331
:1027E0005D8169817A818B819C81523051F05330B7
:1027F00059F0513019F00E94FE1812CF0E94D618DD
:102800000FCF0E9426190CCF0E94D41809CF112394
:1028100009F445C0698160FF03CF4D81429546951B
:102820004770440F440F8D818F7090E0B0E0A0E0BE
:10283000042E04C0880F991FAA1FBB1F0A94D2F749
:10284000ED8100E010E09801E4FF0FC00FE010E020
:1028500020E030E004C0000F111F221F331F4A95F3
:10286000D2F70095109520953095F981F695F6955B
:10287000F370FD83B901A801482B592B6A2B7B2BE0
:1028800049835A836B837C83F230A1F0F330C9F023
:10289000F13049F0CB01BA010E94471AC1CE7981CB
:1028A00071FFBECEBACF69817A818B819C810E94F3
:1028B0001F1AB6CE69817A818B819C810E946F1A22
:1028C000AFCE69817A818B819C810E945219A8CEFA
:1028D00059815F705983112329F0852F0E9488192F
:1028E0008D81F1CE8D810E949F1289810E94B9193C
:1028F00097CE6D81623F99F160F4603FD9F0613FFE
:1029000039F1112309F444C0011171CE89818F710D
:1029100023C07D81733F41F1743F99F7112371F119
:1029200089818F7189830E94881963E089810E945F
:10293000131C76CE112341F0053008F071CE898149
:102940008F710E94EE196CCE063008F069CEF7CF79
:1029500089818F71112351F20E94881961CE89817A
:102960008F711123C9F3C2CF112329F089818F718F
:102970000E94631955CE0E945E1952CE81E00E94DA
:10298000281C023008F44CCE82E00E94281C48CE5D
:10299000002361F09D81993309F0C5CEEFEFF7EE8A
:1029A00023E0E150F0402040E1F7BBCE89818F71F8
:1029B0009DCF49814F706D81C6010E94CA060E9459
:1029C00046182ECE49814F706D81C6010E94CD06FA
:1029D00027CE0F900F900F900F900F90DF91CF9117
:1029E0001F910F91FF90EF90DF90CF90BF90AF902D
:1029F00008950F931F93CF93DF93EC016881798142
:102A00008A810E943F1B8C010E94971A0E94D31852
:102A1000B801CE01DF91CF911F910F910C94A612B6
:102A2000CF93DF93EC018B819C81892B29F08981E5
:102A3000988189238F3F59F4DF91CF910895CE017A
:102A40000E94F914CE01DF91CF910C940906CE01BA
:102A50000E9455068111F3CF0E94871B882361F3E2
:102A60008A81882349F382E0DF91CF910C94281C5E
:102A700090E080E00E942E1090E080E00E944410E0
:102A80000E94B01B0E94C11B0C94DD1B0E94771B8F
:102A90000C9438150E949F1B0C944615282F892FE3
:102AA00082958F70903C80F48A30B0F4843020F4AA
:102AB000823090F480E008958630E1F781E0283E8E
:102AC00088F0213FB9F70EC08C3011F08F3091F7AC
:102AD00093FB882780F9089581E0203F39F018F4AE
:102AE000283E40F70895243F29F7FCCF08950E941F
:102AF000331B0C944E15CF93DF9300D000D00F9270
:102B0000CDB7DEB70F900F900F900F900F90DF9121
:102B1000CF910895CF93DF9300D000D000D0CDB7F0
:102B2000DEB726960FB6F894DEBF0FBECDBFDF919D
:102B3000CF9108951F93CF93DF93E091F10116E0B9
:102B40008091F2018E1304C0DF91CF911F910895FF
:102B5000CE2FD0E01E9FF0011124ED50FE4F40819A
:102B6000518162817381848195810E948A15FE0161
:102B70003196E770E5CF4091230250912402609195
:102B800025027091260280912702909128020C94D0
:102B90008A151F93CF93DF9380912802807FA9F439
:102BA00080912502882389F08091F101C091F20182
:102BB0007091230260912402A0912602B091270215
:102BC000D62FD72316E0C81304C0DF91CF911F91F1
:102BD000089590E0109711F0DF3F19F40196877087
:102BE000F2CF189F9001199F300D1124F901ED507B
:102BF000FE4F41816413F2CF40814713EFCF4281F2
:102C00004111ECCF438154814A1B5B0B483C510579
:102C100028F7809128028F70806180932802F90143
:102C2000E850FE4F80818F708061808383E292E064
:102C30000E941015DF91CF911F910C949A15AF92BD
:102C4000BF92CF92DF92EF92FF920F931F93CF9399
:102C5000DF93CDB7DEB72B970FB6F894DEBF0FBE6C
:102C6000CDBF8C0185E0F801DE01179601900D9231
:102C70008A95E1F7F80140815181E28083E2A82E34
:102C800082E0B82E609126027091270261157105CD
:102C900049F09091230220912402892F82238F3FB3
:102CA00009F045C1EE2009F453C14F8358878F8145
:102CB00098850E947715F82E882309F449C186E08B
:102CC000F801A3E2B2E001900D928A95E1F783E268
:102CD00092E00E949C110E94C91526C18091280291
:102CE000382F307F683C710508F07CC03111B5C0C9
:102CF000FE2C251324C0941322C0E11020C08F7035
:102D00008061809328020E94BB1583E292E00E94BA
:102D1000101580912802F80185838F2D2B960FB610
:102D2000F894DEBF0FBECDBFDF91CF911F910F9101
:102D3000FF90EF90DF90CF90BF90AF900895CD2897
:102D400029F0842F85238F3F09F084C080E0F82F7D
:102D5000F170DF2EE091F1012091F20136E080FD6B
:102D60001CC0EE20D1F2809128028160809328025D
:102D7000F12CD3CF8E2F90E03E9FF0011124ED5027
:102D8000FE4F6181651306C06081641303C06281D8
:102D90006E11E7CFFC013196E770E213EBCF4F8362
:102DA00058878F8198850E94331B292F22952F7079
:102DB000903260F0225F2F70223078F49F7051F0D3
:102DC000F8019581907F31F4D12C0AC09F7011F0E9
:102DD0008823D1F3805E8830B8F3C8010E941015B3
:102DE000FD2C9BCF31116EC06E2D7A858B850E9494
:102DF0007B1583E292E00E94101586E0F5011192A6
:102E00008A95E9F70E94BB15B3CF86E0F801A3E2EB
:102E1000B2E001900D928A95E1F77FCF4F835887FA
:102E20008F8198850E94771581113DC0809128027D
:102E3000816080932802C8010E9410156ECF6E2D0C
:102E40007A858B850E947B1586E0F50111928A9523
:102E5000E9F76AC081E08E257ACF251306C0941366
:102E600004C0F801EE2009F453C04F8358878F81C6
:102E700098850E947715882309F46AC0EE2009F42A
:102E800067C080912802803270F020912302309137
:102E900024023A8329831B82DD82CC828E83CE0179
:102EA00001960E94101586E0F801A3E2B2E00190BD
:102EB0000D928A95E1F70E94C9150E94BB15FF2467
:102EC000F3942BCF2513D1CF9413CFCFE110CDCFD7
:102ED000F8018583C8010E94101586E0F501119262
:102EE0008A95E9F71ACF251399CF941397CF80913C
:102EF000280280FD8ACF982F907F09F486CFF801B1
:102F00008583903F31F0982F907F905F8F70892B51
:102F10008583C8010E94101586E0F801A3E2B2E0A3
:102F200001900D928A95E1F70E94BB15F6CEC38001
:102F3000D480F0902502F601E61BF70BBF01F110DB
:102F4000CDCE683C710508F07ACFFE2CE110CBCFD6
:102F5000C8010E941015B3CF1F93CF93DF93CDB755
:102F6000DEB72C970FB6F894DEBF0FBECDBF4F83F0
:102F7000588769877A878B879C87CE0107960E943E
:102F80001F16882369F08A859B85892B39F058851F
:102F90004F81852F84238F3F09F071C016E05FC0F9
:102FA00086E0FE013796DE01119601900D928A951A
:102FB000E1F78A859B85892B89F38F819885892301
:102FC0008F3F61F32091F20130E0C90101968770D3
:102FD00099274091F1014817190671F40E944A158A
:102FE0001092F2011092F10186E0E3E2F2E0DF01DB
:102FF0001D928A95E9F7D2CF96E0929FD001939FD8
:10300000B00D1124AD50BE4FFE01319601900D92CE
:103010009A95E1F78093F2010E949A15BFCF819FA4
:10302000C00111248D509E4F0E941F168823E9F085
:10303000E091F1011E9FF0011124ED50FE4F4081FF
:10304000518162817381848195810E948A1580916A
:10305000F10190E00196877099278093F1018091AA
:10306000F1019091F2018913DACF2C960FB6F89402
:10307000DEBF0FBECDBFDF91CF911F91089569854F
:103080007A858B859C850E948A1588CFEF92FF9266
:103090000F931F93CF93DF938C01892B89F0F12C31
:1030A000EE24E394E8012196F8018491843709F431
:1030B00058C0A0F4823009F43FC048F48130D1F008
:1030C000DF91CF911F910F91FF90EF9008959CEFAA
:1030D000980F9037A8F70E94A1110AC0853709F40C
:1030E0004EC09CE7980F903758F78F770E942A12AE
:1030F0008E0116C00E5F1F4FFE01849190E2980F63
:10310000983060F48770FE2D01C0FF0F8A95EAF7B2
:103110008F2F0E94B31B0E94DD1B02C00E94A111D1
:103120008F2D882309F4BECFEFE9FFE03197F1F747
:1031300000C000008150F5CF0E5F1F4FFE0184914B
:1031400090E2980F983050F48770FE2D01C0FF0F69
:103150008A95EAF78F2F0E94B91BDDCF0E942A12B1
:10316000DFCF0E5F1F4FFE01C491CC23C9F28FE960
:103170009FE00197F1F700C00000C150F6CF0E5F4D
:103180001F4FFE01F490CCCF08950C94C4180E94F8
:10319000C51860935502709356028093570290931E
:1031A00058020C94381508950C94C718CF93DF93E8
:1031B00000D000D0CDB7DEB769837A838B839C8340
:1031C0008091550290915602A0915702B0915802F9
:1031D00029813A814B815C81282B392B4A2B5B2B2F
:1031E00029833A834B835C83CA01B9010F900F9006
:1031F0000F900F90DF91CF910C94C718CF93DF936E
:1032000000D000D0CDB7DEB769837A838B839C83EF
:103210008091550290915602A0915702B0915802A8
:1032200029813A814B815C81282339234A235B23FE
:1032300029833A834B835C83CA01B9010F900F90B5
:103240000F900F90DF91CF910C94C718CF93DF931D
:1032500000D000D0CDB7DEB769837A838B839C839F
:103260008091550290915602A0915702B091580258
:1032700029813A814B815C81282739274A275B279E
:1032800029833A834B835C83CA01B9010F900F9065
:103290000F900F90DF91CF910C94C7180C94C41825
:1032A0000C944E190E94501960935102709352026F
:1032B00080935302909354020C94381560E070E0B0
:1032C000CB010C9452190F931F93CF93DF9300D02F
:1032D00000D0CDB7DEB741E050E060E070E08A0199
:1032E0009B0104C0000F111F221F331F8A95D2F7C4
:1032F00009831A832B833C83C901B8010F900F9077
:103300000F900F90DF91CF911F910F910C94521954
:103310000F931F93CF93DF9300D000D0CDB7DEB7CC
:1033200041E050E060E070E004C0440F551F661FAC
:10333000771F8A95D2F78091510290915202A09105
:103340005302B09154028A019B01082B192B2A2B9E
:103350003B2B09831A832B833C83C901B8010F904F
:103360000F900F900F90DF91CF911F910F910C94C0
:1033700052190F931F93CF93DF9300D000D0CDB796
:10338000DEB741E050E060E070E004C0440F551F3C
:10339000661F771F8A95D2F7409550956095709576
:1033A0008091510290915202A0915302B091540227
:1033B0008A019B01082319232A233B2309831A83AB
:1033C0002B833C83C901B8010F900F900F900F9091
:1033D000DF91CF911F910F910C9452190F931F936E
:1033E000CF93DF9300D000D0CDB7DEB741E050E0FF
:1033F00060E070E004C0440F551F661F771F8A9578
:10340000D2F78091510290915202A0915302B09153
:1034100054028A019B01082719272A273B27098381
:103420001A832B833C83C901B8010F900F900F9032
:103430000F90DF91CF911F910F910C945219CF9360
:10344000DF9300D000D0CDB7DEB769837A838B835A
:103450009C838091510290915202A0915302B091AD
:10346000540229813A814B815C81282B392B4A2BCC
:103470005B2B29833A834B835C83CA01B9010F908C
:103480000F900F900F90DF91CF910C945219CF9322
:10349000DF9300D000D0CDB7DEB769837A838B830A
:1034A0009C838091510290915202A0915302B0915D
:1034B000540229813A814B815C81282339234A2394
:1034C0005B2329833A834B835C83CA01B9010F9044
:1034D0000F900F900F90DF91CF910C945219CF93D2
:1034E000DF9300D000D0CDB7DEB769837A838B83BA
:1034F0009C838091510290915202A0915302B0910D
:10350000540229813A814B815C81282739274A2737
:103510005B2729833A834B835C83CA01B9010F90EF
:103520000F900F900F90DF91CF910C945219089546
:10353000292F220FE22FE90FEE0FE80F8E2F877051
:1035400041E001C0440F8A95EAF7E695E695E695D5
:1035500085E0E89FF0011124E75DFD4F30E020E0B9
:1035600070E05191DF011197CB01022E02C09695B8
:1035700087950A94E2F781708195852784238527B2
:103580008C932F5F3F4F2530310559F70895292F30
:10359000220FE22FE90FEE0FE80F9E2F9770E695AE
:1035A000E695E69585E0E89FF0011124E75DFD4F83
:1035B00050E040E080E0219130E0092E02C03695D5
:1035C00027950A94E2F721703327042E01C0220FB9
:1035D0000A94EAF7822B4F5F5F4F4530510559F748
:1035E0000895BF92CF92DF92EF92FF920F931F93B5
:1035F000CF93DF938C01C0905102D0905202E090A3
:103600005302F09054028091550290915602A0917D
:103610005702B0915802C82AD92AEA2AFB2ACFE1D8
:10362000D0E0BC2ED701C6010C2E04C0B695A795DC
:10363000979587950A94D2F780FD0EC0219788F759
:10364000B12C8B2DDF91CF911F910F91FF90EF90B7
:10365000DF90CF90BF900895B8018C2F0E94EA06AA
:10366000019761F3EECFCF93DF93D82FC92F0E943C
:10367000F11A6D2F7C2FDF91CF910C94EA061F93E6
:10368000CF93DF93162FD72F9091F001992339F024
:10369000862F972FDF91CF911F910C94331B882396
:1036A00091F0862F972F0E94F11AC82F682F812F33
:1036B0009D2F0E94981A612F7D2F8C2FDF91CF9123
:1036C0001F910C94EA06862F972F0E94C71AC82FC5
:1036D000F2CF682F80911B0190911C010C94351D35
:1036E000682F80911B0190911C010C94371D8091D3
:1036F0001B0190911C010C94391D809159028595F4
:1037000085958595089580915902877008959091C7
:103710005902977081E009F480E008958091650274
:10372000089590916502982B909365020895982FC3
:103730009095809165028923809365020895109287
:103740006502089590916402982B90936402089505
:10375000982F909580916402892380936402089544
:1037600010926402089590916302982B90936302E3
:103770000895982F90958091630289238093630226
:10378000089510926302089580915A020895089551
:103790000C94C71B90915A02981721F080935A02FB
:1037A0000C94C81B089580915A02882329F0109226
:1037B0005A0280E00C94C81B0895E0911B01F0911F
:1037C0001C01809165028083E0911B01F0911C0136
:1037D000808190916402892B8083E0911B01F0919C
:1037E0001C01808190916302892B808390915A0201
:1037F000992381F0E0911B01F0911C018081892BBC
:10380000808380911B0190911C010E94E91C811111
:103810000E94D31B80911B0190911C010C94E40F1A
:1038200008950C94101C98E0899F90011124622B3C
:10383000609359020E948819809159028595859557
:1038400085950C94111C1092590280E00C94111C67
:10385000909159028095892380935902282F2770CF
:1038600071F4282F082E000C330B9217130639F031
:103870008595859585950E94B9190C94231C08950A
:1038800090E080E00E946C269C0181E02B3E3E4F40
:1038900009F080E0089582E090E00C94642683E0D3
:1038A00090E00C946426682F83E090E00C947226DC
:1038B000CF9384E090E00E946426C82F81E290E0DC
:1038C0000E946426982F8C2FCF910895CF93682F54
:1038D000C92F84E090E00E9472266C2F81E290E074
:1038E000CF910C947226AB01BC018FE090E00C9458
:1038F0008426AB01BC0183E190E00C94842660E057
:1039000070E0CB010C94791C6BEE7EEF90E080E0D0
:103910000E94902660E082E090E00E94722660E0C3
:1039200083E090E00E947226109255021092560297
:10393000109257021092580260E084E090E00E94DA
:10394000722660E081E290E00E94722660E085E0ED
:1039500090E00E94722660E086E090E00E9472266D
:103960006FEF87E090E00E94722640E050E0BA01DD
:1039700088E090E00E94842660E08DE090E00E9464
:10398000722640E050E0BA0188E190E00E9484266F
:1039900060E087E190E00E94722640E050E0BA01CA
:1039A0008CE190E00E94842660E080E290E00E943A
:1039B000722640E050E0BA0188E190E00E9484263F
:1039C0000C9493040C94841C682F8EE090E00C946B
:1039D0007226AC019C012E5F3F4F485F5F4F80E035
:1039E0002417350709F40895F90191919F0199234E
:1039F000B9F38F5FF5CF9C01662351F0FC0132963D
:103A0000285F3F4F8191861729F0E217F307D1F71E
:103A100080E0089581E008959C01FC0132968FEFCB
:103A200090E04191461751F08F3F19F4411101C0C8
:103A3000892F9F5F9630A9F78F3F09F40895280FCB
:103A4000311D87FD3A95F901628308959C01FC01BF
:103A50003296285F3F4F8191861303C0DF01119793
:103A60001C92E217F307B9F708950C940C1D0C94FF
:103A7000261DFC01329686E0DF011D928A95E9F74A
:103A80000895089508950C94421D80919902843000
:103A900049F10E94431D80E00E94C2061092670215
:103AA00088E190E020E40FB6F894A8958093600038
:103AB0000FBE2093600083B7817F846083BF83B78C
:103AC000816083BF7894889583B78E7F83BF0FB65C
:103AD000F894A895809160008861809360001092AE
:103AE00060000FBE08950895CF930E94411D0E946B
:103AF000400A0E94731DC0E08C2F0E94D4088111DF
:103B000005C0CF5FCA30C1F7CF91089581E0FCCFE7
:103B100008950C94881D0E944A150E94D80F0E9497
:103B2000C2060C94891D1F921FB61F9211248F93F9
:103B30009F93AF93BF9380916702811113C08091CF
:103B40008B0290918C02A0918D02B0918E024196D1
:103B5000A11DB11D80938B0290938C02A0938D02C6
:103B6000B0938E02BF91AF919F918F911F901FBE16
:103B70001F90189582E084BD93E095BD9AEF97BDA4
:103B800080936E0008952FB7F89480918B029091E6
:103B90008C02A0918D02B0918E022FBF0895CF9319
:103BA000DF9300D000D0CDB7DEB78FB7F894209167
:103BB0008B0230918C0240918D0250918E022983AC
:103BC0003A834B835C838FBF69817A818B819C812F
:103BD0000F900F900F900F90DF91CF9108959C015F
:103BE0004FB7F89480918B0290918C02A0918D0236
:103BF000B0918E024FBF821B930B089578941F9251
:103C00001FB61F9211248F939F93AF93BF93809100
:103C10008B0290918C02A0918D02B0918E02019640
:103C2000A11DB11D80938B0290938C02A0938D02F5
:103C3000B0938E02BF91AF919F918F911F901FBE45
:103C40001F90189510928F0210929002109291027C
:103C5000109292020895CF92DF92EF92FF92CF934B
:103C6000DF9300D000D0CDB7DEB76B017C010E949E
:103C7000060B81110EC00E94CF1DC61AD70AE80A92
:103C8000F90AC0928F02D0929002E0929102F092D3
:103C900092020F900F900F900F90DF91CF91FF90B5
:103CA000EF90DF90CF900895CF93DF9300D000D0B6
:103CB000CDB7DEB70E94060B882341F00F900F901E
:103CC0000F900F90DF91CF910C94CF1D0E94CF1DCC
:103CD00069837A838B839C8380918F029091900279
:103CE000A0919102B091920229813A814B815C812D
:103CF000280F391F4A1F5B1FCA01B9010F900F908F
:103D00000F900F90DF91CF91089581E08093E000B4
:103D100080E28093D8001092C9008FE19EE4019761
:103D2000F1F700C0000087E090EBDC018093A20275
:103D30009093A302A093A402B093A50288E19CE013
:103D40000FB6F894A895809360000FBE9093600022
:103D5000FFCF9093B5018093B4010895CF93DF9383
:103D600000D000D0CDB7DEB70E94401C811102C048
:103D70000E94E21C0E944B1C809366020E94581C09
:103D800090939402809393020E944F1C282F30E05E
:103D900050E040E0CA01B9010E94D418809151025C
:103DA00090915202A0915302B091540289839A8358
:103DB000AB83BC83BC01CD010F900F900F900F908F
:103DC000DF91CF910C94501980917302089508955A
:103DD000CF93DF9300D00F92CDB7DEB790919902C9
:103DE000943019F589836A837B8382E08093E900AC
:103DF0008FEF9091E800815095FD06C095ED9A9562
:103E0000F1F700008111F5CF8091E80085FF0DC02A
:103E100050E040E063E070E0CE0101960E94A421F2
:103E20008091E8008E778093E8000F900F900F90BC
:103E3000DF91CF910895BC0184E00C94E81EBC0191
:103E400083E00C94E81ECF93DF93D82FC92F81E035
:103E50008093E9008FEF9091E800815095FD06C0B6
:103E600095ED9A95F1F700008111F5CF8091E8006A
:103E700085FF16C050E040E068E070E08D2F9C2F79
:103E80000E94A4218091E8008E778093E80088E06A
:103E9000ED2FFC2FABE6B2E001900D928A95E1F791
:103EA000DF91CF91089586EF95E00E94F103809114
:103EB0009802811109C00E942C230E9489238091BD
:103EC000E20084608093E200089582EF95E00E9412
:103ED000F1031092980208958EEE95E00C94F10390
:103EE0008AEE95E00C94F10386EE95E00C94F103D4
:103EF000209169022F5F822F62E30E942A26992374
:103F000019F02093690208951092690280916A0263
:103F10008823F1F0809199028430C1F49091E900F6
:103F20009F702091EC00822F817020FD80E8892B0A
:103F300093E09093E9009091EB0090FF04C0909182
:103F4000EE0097FD08C08F708093E90010926A021E
:103F500008951092F1009091E80095FDFACF9091AC
:103F6000E80090FFF0CF9091E8009E779093E800F2
:103F7000EACF42E061EC81E00E94A82242E261ECDB
:103F800082E00E94A82242E261EC83E00C94A82225
:103F900080919B02893089F148F4823009F49DC0F8
:103FA000833009F458C0813041F008958A3009F413
:103FB00084C08B3009F46AC0089580919A02813AD6
:103FC00009F048C08091E800877F8093E8008091E5
:103FD0009E0290919F02892B61F468E08BE692E04B
:103FE00070E00E94F3218091E8008B778093E800D5
:103FF000089560E090E080E0F3CF80919A028132F2
:1040000049F580919E0290919F02029718F5809148
:10401000E800877F8093E8008091E80082FF16C067
:104020009091F3008091F200029729F48091F100C1
:104030008B7F813021F48091F10080937302809115
:10404000E8008B778093E8000C94DC228091990241
:104050008111E2CF089580919A02813AD9F7809137
:104060009E0290919F02892BA9F78091E800877F9B
:104070008093E8008091E80080FFFCCF80912701C9
:104080008093F1008091E8008E77DCCF80919A02D6
:10409000813201F780919E0290919F02892BD1F687
:1040A0008091E800877F8093E8000E94DC22809165
:1040B0009C02809327010C944A1580919A028132C8
:1040C00049F68091E800877F8093E8000E94DC2217
:1040D00080919D0280937402089580919A02813AA2
:1040E00009F0B8CF8091E800877F8093E800809145
:1040F000E80080FFFCCF80917402C2CF9FB7F89494
:1041000010926A029FBF90919902943009F048C0C2
:104110002091E9002F703091EC00932F917030FDC9
:1041200090E8922B23E02093E9002091EB0020FF00
:1041300034C02091EE0027FF30C020916802222376
:1041400021F02091E80025FF28C01092680226E0A7
:104150003091E80035FF14C08093F1008091E800B1
:1041600085FD27C08091E80080FFFCCF8091E800AA
:104170008E778093E8009F709093E90080E0089527
:1041800030919902343049F43091EB0035FD05C08F
:10419000215041F481E0809368029F709093E90080
:1041A0008FEF0895EFE9FFE03197F1F700C00000CD
:1041B000CFCF8FB7F89421E020936A028FBFDBCF77
:1041C00084B7877F84BF0FB6F894A895809160006C
:1041D000886180936000109260000FBE80E890E0DC
:1041E0000FB6F89480936100909361000FBE0E9417
:1041F0008E100E942C230E9489238091E20084600B
:104200008093E20078940E940F260E949C108DE11A
:1042100091E00E94D30F85ED95E00E94F10380911B
:104220009902853051F481ED95E00E94F10380916F
:104230009902853049F00E948B1D0E94D0100E9487
:104240009A100E949B10EBCF0E94451D809197020F
:10425000882369F30E94741D882349F30E948E21EC
:104260000E944A15E4CF0C943521FC01CB01DA0100
:104270002F2F332723303105D1F070F42130310551
:1042800009F447C02230310569F48BE590E026E35C
:1042900036E02D933C93089521323105E9F0223226
:1042A000310539F190E080E030E020E0F2CFCF013D
:1042B0009927E13059F08230910559F0E2E3F6E0B8
:1042C000892B81F7849190E09F01E3CFE2E2F6E051
:1042D000F9CFEAEFF5E0F6CF6330710518F7880FF4
:1042E000991FFC01E255FE4F2081318189E090E069
:1042F000D0CF63307105B0F6FB01EE0FFF1FE8551C
:10430000FE4F208131818B559E4FFC01808190E0D2
:10431000C0CF82E190E021E936E0BBCF80E189BDEA
:1043200082E189BD09B400FEFDCF8091D8008F7D68
:104330008093D8008091E00082608093E0008091BB
:10434000E00081FDFCCF0895AF92BF92CF92DF9243
:10435000FF920F931F93CF93DF936C01EB018A01C0
:104360000E94FB22F82E811123C00115110539F09E
:10437000F80180819181C81BD90BC80ED91EB12CC0
:10438000A12C2097A9F08091E80085FD22C08091A2
:10439000E8008E778093E80001151105A1F0F8017F
:1043A00080819181A80EB91EB182A08285E0F82E8D
:1043B0008F2DDF91CF911F910F91FF90DF90CF90C4
:1043C000BF90AF9008950E94FB228823D1F2F82E6F
:1043D000EFCFF60181916F018093F1002197FFEFFC
:1043E000AF1ABF0ACECFFC01CB012091A0023091C1
:1043F000A1022617370790F0009729F42091E800D2
:104400002E772093E80040E0009751F4411108C056
:104410008091E80082FF31C080E00895C901F3CFA8
:10442000209199022223A9F12530A9F12091E800D9
:1044300023FD2DC02091E80022FDEACF2091E80065
:1044400020FFE2CF3091F3002091F200009719F0A5
:104450002830310558F041E02830310509F040E0BE
:104460002091E8002E772093E800CECF4191409331
:10447000F10001972F5F3F4FE9CF80919902882388
:1044800041F0853041F08091E80083FFC1CF81E0A9
:10449000089582E0089583E00895FC01CB01209106
:1044A000A0023091A1022617370790F0009729F457
:1044B0002091E8002E772093E80040E0009751F427
:1044C000411108C08091E80082FF32C080E0089569
:1044D000C901F3CF209199022223B1F12530B1F126
:1044E0002091E80023FD2EC02091E80022FDEACFB4
:1044F0002091E80020FFE2CF3091F3002091F200FC
:10450000009719F02830310558F041E02830310586
:1045100009F040E02091E8002E772093E800CECF0C
:1045200044914093F100319601972F5F3F4FE8CFC0
:1045300080919902882341F0853041F08091E80014
:1045400083FFC0CF81E0089582E0089583E008955D
:10455000982F973028F08F708093E90081E00895BC
:104560009093E900242F762F50E0981731F0709146
:10457000EC002091ED005091F00021FD02C09F5F02
:10458000E8CF3091EB003E7F3093EB003091ED00AF
:104590003D7F3093ED003091EB0031603093EB00C4
:1045A0007093EC002093ED005093F0002091EE000A
:1045B00027FDE5CF80E0089580919A0287FF13C020
:1045C0008091E80082FF06C08091E8008B7780939D
:1045D000E80004C0809199028111F2CF0895809182
:1045E00099028823D9F38091E80080FFF8CF809169
:1045F000E8008E77ECCF2091E4003091E50095E65D
:10460000A9012091EC00822F817020FF06C08091CB
:10461000E80080FF06C080E008952091E80022FDB8
:104620001AC080919902882389F0853089F08091A1
:10463000EB0085FD0FC02091E4003091E5004217AA
:104640005307F9F29150E1F684E0089582E008956D
:1046500083E0089581E008950E949A230E94A22396
:10466000E0EEF0E0808181608083E8EDF0E0808121
:104670008F77808319BCA7EDB0E08C918E7F8C93EF
:1046800080818F7E80831092980208950F931F93EC
:10469000CF93DF930E949A230E94A223C8EDD0E01B
:1046A00088818F77888388818068888388818F7DDF
:1046B000888319BC10929902109295021092970269
:1046C0001092960200EE10E0F80180818B7F8083CB
:1046D00088818160888342E060E080E00E94A822B7
:1046E000E1EEF0E080818E7F8083E2EEF0E0808179
:1046F00081608083808188608083F80180818E7FE3
:104700008083888180618883DF91CF911F910F9191
:104710000895E8EDF0E080818F7E8083E7EDF0E0A2
:1047200080818160808384E082BF81E080939802F1
:104730000C944623E8EDF0E080818E7F8083109218
:10474000E20008951092DA001092E10008951F929D
:104750000F920FB60F9211242F933F934F935F93B5
:104760006F937F938F939F93AF93BF93EF93FF9339
:104770008091E10082FF0BC08091E20082FF07C0C0
:104780008091E1008B7F8093E1000E94781F8091EF
:10479000DA0080FF19C08091D80080FF15C0809199
:1047A000DA008E7F8093DA008091D90080FF94C078
:1047B00080E189BD82E189BD09B400FEFDCF81E0C1
:1047C000809399020E94531F8091E10080FF19C0DD
:1047D0008091E20080FF15C08091E2008E7F80937F
:1047E000E2008091E20080618093E2008091D80035
:1047F00080628093D80019BC85E0809399020E9462
:10480000701F8091E10084FF29C08091E20084FF45
:1048100025C080E189BD82E189BD09B400FEFDCFDC
:104820008091D8008F7D8093D8008091E1008F7EA9
:104830008093E1008091E2008F7E8093E20080917E
:10484000E20081608093E20080919502882309F460
:1048500049C084E0809399020E94741F8091E10016
:1048600083FF29C08091E20083FF25C08091E10091
:10487000877F8093E10082E08093990210929502F5
:104880008091E1008E7F8093E1008091E2008E7F35
:104890008093E2008091E20080618093E20042E038
:1048A00060E080E00E94A8228091F0008860809300
:1048B000F0000E946C1FFF91EF91BF91AF919F910B
:1048C0008F917F916F915F914F913F912F910F90B9
:1048D0000FBE0F901F90189519BC109299020E945C
:1048E000651F72CF8091E30087FD02C081E0B2CFE7
:1048F00083E0B0CF1F920F920FB60F9211242F9327
:104900003F934F935F936F937F938F939F93AF9357
:10491000BF93CF93DF93EF93FF93D091E900DF70C4
:104920008091EC00C82FC17080FDC0E81092E900B2
:104930008091F000877F8093F00078940E94BE24DD
:104940001092E9008091F00088608093F000CD2BF8
:10495000CF70C093E900FF91EF91DF91CF91BF91AC
:10496000AF919F918F917F916F915F914F913F9107
:104970002F910F900FBE0F901F9018951F93CF93FC
:10498000DF93CDB7DEB7AA970FB6F894DEBF0FBEA0
:10499000CDBF8AE992E0FC0101962091F1002083CD
:1049A00022E0823A9207B9F70E94C81F8091E8007E
:1049B00083FF1DC180919A0290919B029A3008F06A
:1049C00016C1E92FF0E0E552F94D0C944A268038E3
:1049D00099F0823809F00BC180919E028F70873068
:1049E00008F005C18093E9008091EB0085FB8827E2
:1049F00080F91092E90006C080919602909197028A
:104A0000911182609091E800977F9093E8008093E5
:104A1000F1001092F1008091E8008E77E4C08823C5
:104A200009F4D2C0823009F0E2C080919C02811169
:104A3000D5C080919E028F702FEF280F263008F08E
:104A4000D6C08093E9002091EB0020FFC7C09330CF
:104A500031F48091EB0080628093EB00BFC09091B5
:104A6000EB0090619093EB0021E030E001C0220F59
:104A70008A95EAF72093EA001092EA008091EB0011
:104A80008860EACF8111B3C010919C021F7780919A
:104A9000E3008078812B8093E3008091E800877F9A
:104AA0008093E8000E94DC228091E80080FFFCCF28
:104AB0008091E30080688093E30082E0111183E03D
:104AC0008093990294C08058823008F090C0809101
:104AD0009C0290919D028C3D23E0920799F583E022
:104AE0008A838AE289834FB7F894DE01139620E027
:104AF0003EE051E2E32FF0E050935700849120FF15
:104B000003C082958F703F5F8F708A30C8F0895CD8
:104B100090E08D939D932F5F243161F74FBF80917B
:104B2000E800877F8093E8006AE270E0CE0101969A
:104B30000E94F3218091E8008B778093E80057C0B2
:104B4000805DE6CF60919E0270919F02AE014F5F43
:104B50005F4F0E943321BC01892B09F448C080912A
:104B6000E800877F8093E80089819A810E944D2226
:104B7000E1CF8038E1F58091E800877F8093E800FD
:104B8000809195028093F10046CF811130C09091C1
:104B90009C02923060F58091E800877F8093E80066
:104BA000909395020E94DC2280919502882311F057
:104BB00084E005C08091E30087FDFACF81E0809317
:104BC00099020E94B91F13C080919C02813079F430
:104BD00081E0933009F080E0809397021092E90021
:104BE0008091E800877F8093E8000E94DC2280911A
:104BF000E80083FF0AC08091E800877F8093E80087
:104C00008091EB0080628093EB00AA960FB6F89437
:104C1000DEBF0FBECDBFDF91CF911F910895CF931F
:104C2000809199028823A1F0C091E900CF70909102
:104C3000EC00892F817090FD80E8C82B1092E9006C
:104C40008091E80083FD0E94BE24CF70C093E900EC
:104C5000CF910895991B79E004C0991F961708F029
:104C6000961B881F7A95C9F78095089597FB072EA4
:104C700016F4009407D077FD09D00E94502607FC57
:104C800005D03EF4909581959F4F0895709561955C
:104C90007F4F0895EE0FFF1F0590F491E02D0994CA
:104CA000AA1BBB1B51E107C0AA1FBB1FA617B70752
:104CB00010F0A61BB70B881F991F5A95A9F780956E
:104CC0009095BC01CD010895F999FECF92BD81BDAB
:104CD000F89A992780B50895A8E1B0E042E050E045
:104CE0000C949826262FF999FECF92BD81BDF89A93
:104CF000019700B4021639F01FBA20BD0FB6F89420
:104D0000FA9AF99A0FBE08950396272F0E947326E8
:104D10000E947226252F0E947326242F0C9473263E
:104D20000196272F0E9473260C947226DC01CB017A
:104D3000FC01F999FECF06C0F2BDE1BDF89A3196AB
:104D400000B40D9241505040B8F70895F894FFCF49
:104D5000CB04FB042C055A058E0599059D055B0DBA
:104D6000610D650D730D770D7B0D7F0D850D8D0D1F
:104D7000910D950D990DA50DA90DAD0DB10DB70DA9
:104D8000D50DBF0D690D6F0D9D0DA10D890DBB0DCD
:104D9000CB0DDE0DE20DE012E01242134213971329
:104DA000101310131013B313681479147914D91451
:104DB00010131013E214E7240F25F7250F25F7250C
:0A4DC00042256325F725B925C52516
:104DCA00F1F49392379431F0F5F6F7000000000001
:104DDA00013332C60104C70106CB015B02E41E237C
:104DEA001FE71E1F1F1B1F01313292F1F400000042
:104DFA000000E200E900EA00B500B600B700CD0005
:104E0A008301CC008A019201940121022302240227
:104E1A002502260227022A02B300B4006F0070009E
:104E2A0094979337F0330000FF0100010000FFFF61
:104E3A000000010001FF00E200E900EA00B500B647
:104E4A0000B700CD008301CC008A019201940121B0
:104E5A0002230224022502260227022A02B300B4F0
:104E6A00006F007000403222F706C506A306480606
:044E7A0061067A064D
:00000001FF
