:100000000C94F7050C94FC180C943E060C943E06D8
:100010000C943E060C943E060C943E060C943E0650
:100020000C943E060C943E060C94772D0C94492EAD
:100030000C948E270C943E060C943E060C943E06BF
:100040000C943E060C943E060C943E060C943E0620
:100050000C943E060C94F6270C943E060C943E0637
:100060000C943E060C943E060C943E060C943E0600
:100070000C943E060C943E060C943E060C943E06F0
:100080000C943E060C943E060C943E060C943E06E0
:100090000C943E060C943E060C943E060C943E06D0
:1000A0000C943E060C943E060C943E061D13201341
:1000B00025132C13311336133B13401345134A13E6
:1000C0004F135413571357135713571357135713EB
:1000D00057135713711D711DA31DA31DF01D531F31
:1000E000531F531F101EAD1EBE1EBE1E1F1F281FF6
:1000F000531F4C1FD11FD11FE31FE31FDA1FE31F44
:10010000E31FE31FD11FD11FDF1FE31FE31FDF1F0B
:10011000B62EDD2ECF2FDD2ECF2F292F4C2FCF2F18
:10012000A22FB12F2B00085D095D0A5D13001C0092
:10013000296104001200080018000C00E1000B5DAA
:1001400014000D000E001B00E000E300E200075168
:1001500004512C000000000001003802E100E20020
:100160002A000F00150006000A00090028001600EA
:10017000110017000B000700E1001D0019001A0014
:1001800010000500E4000951E600065108512C005A
:100190000000000001002A00E100E6002B0034000E
:1001A0003600370013001C0029610400120008000B
:1001B00018000C00E100330014000D000E001B00BD
:1001C000E000E300E200075105512C0000000000B0
:1001D00001002D02E100E2002A000F0015000600D8
:1001E0000A00090028001600110017000B00070084
:1001F000E1001D0019001A0010000500E40009517B
:10020000E600065108512C000000000001002A0001
:10021000E100E6002B0014001A000800150017008A
:10022000296104001600070009000A00E1001D0012
:100230001B00060019000500E000E300E200075182
:1002400005512C000000000001002D02E100E20039
:100250002A00130012000C0018001C0028003300B4
:100260000F000E000D000B00E100340037003600D7
:1002700010001100E4000951E600065108512C005D
:100280000000000001002A00E100E6002B001E0033
:100290001F002000210022002961170014001A000D
:1002A00008001500E1000500040016000700090021
:1002B000E0001D001B000600190005000000000002
:1002C000E300E2002C0010002A0027002600250091
:1002D00024002300280033000F000E000D000B0047
:1002E000E10034003700360010001100E40009512D
:1002F000E600065108512C000000000004512A00BD
:10030000E100E60001001E021F1420022114220257
:1003100001002D002702251426142D0201000100E2
:1003200006011B0119013014010001000100010048
:1003300001000100000000000100010001000100B7
:10034000010031022602250223023002010038009A
:100350002714241424022D140100330034002F002C
:1003600064142E02010001000100010001000100DF
:1003700000000000010001000100010001001E0258
:100380001F0220022102220201002E022E002F0055
:10039000300038020100010006011B01190135027D
:1003A0000100010001000100010001000000000047
:1003B00001000100010001000100250227022602C0
:1003C0002402230201002D0030022F0238003100E8
:1003D00001000100010001003102350001000100AF
:1003E0000100010001000100000000000100010007
:1003F0000100010001003A003B003C003D003E00CE
:10040000010050004F005200510044000100010063
:1004100001000100010001000100010001000100D4
:1004200001000100000000000100010001000100C6
:10043000010043004200410040003F0001004C0029
:100440004A004B0046004500010049004D004E00A7
:100450000100010001000100010001000100010094
:1004600000000000010001000100010001004C0536
:100470000100010001000100010049040100010028
:100480000100010001002903010001000100010039
:100490000100010001000100010001000000000056
:1004A0000100010001000100010001000100010044
:1004B0000100010001000100010001000100010034
:1004C0000100010001000100010001000100010024
:1004D0000100010001000100000000000100010016
:1004E0000100010001000100010001000100010004
:1004F00001001E001F002000210022000100010059
:1005000001000100010001000100010001000100E3
:1005100001000100000000000100010001000100D5
:10052000010001000100010001000100010027009D
:100530002600250024002300010001000100010025
:1005400001000100010001000100010001000100A3
:100550000000000001000100010001000100010095
:100560000100010001000100010001000100010083
:100570000100010001000100010001000100010073
:100580000100010001000100010001000000000065
:100590000100010001000100010001000100010053
:1005A0000100010001000100010001000100010043
:1005B00001000E5D0D5D0C5D0F5D0100010001008D
:1005C0000100010001000100000000000100010025
:1005D0000100010044454255473A20646973616255
:1005E0006C65642E0A0044454255473A20656E61A9
:1005F000626C65642E0A000A0025303862003A20D9
:100600000025303258000A722F63203031323334E3
:100610003536370A007267626C69676874207365E3
:100620007420687376205B4E4F454550524F4D5DA8
:100630003A2025752C25752C25750A007267626C89
:10064000696768742073657420687376205B45451C
:1006500050524F4D5D3A2025752C25752C25750A75
:10066000007267626C696768742064697361626CA8
:1006700065205B4E4F454550524F4D5D3A207267A5
:10068000626C696768745F636F6E6669672E656E1A
:1006900061626C65203D2025750A007267626C6995
:1006A0006768742064697361626C65205B454550BE
:1006B000524F4D5D3A207267626C696768745F6380
:1006C0006F6E6669672E656E61626C65203D2025E0
:1006D000750A007267626C6967687420656E616292
:1006E0006C65205B454550524F4D5D3A2072676204
:1006F0006C696768745F636F6E6669672E656E61AB
:10070000626C65203D2025750A007267626C69671E
:10071000687420746F67676C65205B454550524F65
:100720004D5D3A207267626C696768745F636F6ED3
:100730006669672E656E61626C65203D2025750ACD
:10074000007267626C69676874206D6F6465205B16
:100750004E4F454550524F4D5D3A2025750A007267
:1007600067626C69676874206D6F6465205B4545DE
:1007700050524F4D5D3A2025750A007267626C69D0
:100780006768745F696E6974207267626C69676814
:10079000745F636F6E6669672E6D6F6465203D20C0
:1007A000302E2057726974652064656661756C74BB
:1007B0002076616C75657320746F20454550524FEB
:1007C0004D2E0A007267626C696768745F696E69B2
:1007D00074206565636F6E666967206973206E6F4C
:1007E0007420656E61626C65642E0A007267626CCB
:1007F000696768745F696E697420737461727421CB
:100800000A007267626C696768745F696E69742058
:1008100063616C6C65642E0A007267626C6967685C
:10082000745F636F6E6669672E7370656564203DE3
:100830002025640A007267626C696768745F636F81
:100840006E6669672E76616C203D2025640A007211
:1008500067626C696768745F636F6E6669672E7341
:100860006174203D2025640A007267626C696768C4
:10087000745F636F6E6669672E687565203D20251D
:10088000640A007267686C696768745F636F6E669C
:1008900069672E6D6F6465203D2025640A007267CC
:1008A000626C696768745F636F6E6669672E656EF8
:1008B00061626C65203D2025640A007267626C6984
:1008C0006768745F636F6E66696720454550524F75
:1008D0004D3A0A006261636B6C69676874207374D7
:1008E00065703A2025750A006261636B6C69676800
:1008F000742064697361626C650A006261636B6C89
:100900006967687420656E61626C650A0062616384
:100910006B6C6967687420746F67676C653A202533
:10092000750A006261636B6C696768742064656353
:1009300072656173653A2025750A006261636B6CAC
:100940006967687420696E6372656173653A202512
:10095000750A000001010101010101010102020209
:10096000020202020202030303030303030304045B
:100970000404040404050505050506060606060725
:100980000707070708080808090909090A0A0A0BDE
:100990000B0B0C0C0C0D0D0D0E0E0E0F0F0F10107F
:1009A0001111111212131314141515161617171806
:1009B0001819191A1A1B1B1C1D1D1E1E1F20202171
:1009C0002222232424252626272829292A2B2C2DB8
:1009D0002D2E2F30313232333435363738393A3BD9
:1009E0003C3D3E3F404142434445464748494A4CCE
:1009F0004D4E4F50515354555658595A5B5D5E5F9A
:100A0000616264656668696B6C6D6F70727375772F
:100A1000787A7B7D7E8082838587888A8C8E8F9191
:100A2000939596989A9C9EA0A2A3A5A7A9ABADAFBB
:100A3000B1B3B5B7BABCBEC0C2C4C6C9CBCDCFD1A5
:100A4000D4D6D8DBDDDFE2E4E7E9EBEEF0F3F5F84E
:100A5000FAFDFF0A002530325820006B6579626F7D
:100A60006172645F7265706F72743A20000A0025CB
:100A7000303258006B6579626F6172645F736574C0
:100A80005F6C65643A20005B735D004B6579626F53
:100A90006172642073746172742E0A005B575D008A
:100AA0005B535D005B525D005B445D005B435D003A
:100AB0000403300000001C03490072006900730049
:100AC00020004B006500790062006F006100720039
:100AD000640000000E034B006500650062006900C1
:100AE0006F0000000403090409025B00030100A079
:100AF000FA090400000103010100092111010001AC
:100B00002240000705810308000A090401000103CF
:100B100000000009211101000122360007058203AF
:100B200020000A090402000203000000092111014B
:100B300000012222000705830320000107050303AB
:100B4000200001120110010000000810CB56120015
:100B500004010203010631FF0974A10109751500A2
:100B600026FF009520750881020976150026FF00F2
:100B7000952075089102C005010980A10185031A1D
:100B800081002A830016010026030095017510815B
:100B900000C0050C0901A10185041A01002A9C026C
:100BA000160100269C02950175108100C0050109FF
:100BB00006A101050719E029E7150025019508752B
:100BC0000181029501750881010507190029FF15AA
:100BD0000026FF0095067508810005081901290502
:100BE000950575019102950175039101C0001124CD
:100BF0001FBECFEFDAE0DEBFCDBF04B603FE27C0D5
:100C00008091700290917102A0917202B091730272
:100C10008730904BA740B04BD1F4109270021092E5
:100C20007102109272021092730214BE84B7877F11
:100C300084BF0FB6F894A895809160008861809376
:100C40006000109260000FBEE0E0F8E3099511E04B
:100C5000A0E0B1E0ECE7F1E602C005900D92AA3504
:100C6000B107D9F722E0AAE5B1E001C01D92A03793
:100C7000B207E1F70E94972A0C94BC300C94000054
:100C8000FF93EF93E0915A01F0915B01309709F0E7
:100C90000995EF91FF910895FC018591803011F045
:100CA000EFDFFBCF0895FF27E0E230E247FF0CC003
:100CB000419597FF09C0EDE26095709580959095FC
:100CC000611D711D811D911D27FF02C0219530E31B
:100CD00050E2AA27660F771F881F991FAA1FA41723
:100CE00010F0A41B63955A95A9F7AA3008F0A95FE4
:100CF000A05DAF93F395611571058105910541F7ED
:100D0000ED3211F4EF93F395F21718F43F93F39546
:100D1000FBCF8F91B5DFFA95E1F70895E991F9914D
:100D20008591803021F0853219F0AADFF9CF08953E
:100D300020E0E89455915532C1F3503311F4689492
:100D400055915A3348F4505390F3220F022E220F3C
:100D5000220F200D250FF4CF0EF421958991999142
:100D6000533619F3533729F1533559F1BC0188270C
:100D70009927E8945C3621F489919991689455916A
:100D8000543639F446EF7EF077FF0DC08FEF9FEFBA
:100D90000AC055374AE039F0583540E121F0523663
:100DA00042E009F00895FF93EF937DDFEF91FF910B
:100DB000B7CFFF93EF93FC0181918030B9F360DFEF
:100DC000FBCFFF93EF9368DFF1CFDF93CF93CDB7E6
:100DD000DEB72596A3DFCF91DF910895089508959A
:100DE0000F931F93CF93DF93EC018B0180915C01F4
:100DF00086FF12C0C13ED10521F4FB018281882308
:100E000019F081EE0E94A81B84E60E94BF1C80910D
:100E10005C018F7B80935C01CB30FDE5DF0709F43B
:100E2000B9C0A0F4C830EDE5DE0709F128F4C13EF1
:100E3000D10509F4FBC025C1C9308DE5D80709F4F7
:100E400046C0CA30DD4509F475C01BC1CD30FDE593
:100E5000DF0709F4D7C008F4CEC0CE30EDE5DE07D9
:100E600009F4D6C0CF30DD4509F4D8C00AC1F80175
:100E700082818823A9F0E0912501F09126018081EB
:100E800081FF07C08FE10E94A81B80915C018160F7
:100E9000F6C081E30E94A81B80915C018260EFC0D4
:100EA00080915C0180FF08C08FE10E94BF1C80918F
:100EB0005C018E7F80935C0180915C0181FFE1C0C9
:100EC00081E30E94BF1C80915C018D7FD8C0F80136
:100ED00082818823C1F0E0912501F0912601808173
:100EE00081FF0AC081EE0E94BF1C84E60E94A81BFD
:100EF00080915C018064C3C086E30E94A81B80913E
:100F00005C018068BCC080915C0186FF08C084E6FB
:100F10000E94BF1C80915C018F7B80935C0180915B
:100F20005C0187FFAEC086E30E94BF1C80915C011C
:100F30008F77A5C0F80182818823A9F0E09125016F
:100F4000F0912601808181FF07C084E60E94A81BE2
:100F500080915C01846093C087E30E94A81B80910C
:100F60005C0188608CC080915C0182FF08C084E6CF
:100F70000E94BF1C80915C018B7F80935C018091FB
:100F80005C0183FF7EC087E30E94BF1C80915C01EF
:100F9000877F75C0F80182818823C1F0E091250127
:100FA000F0912601808181FF07C087E30E94A81B82
:100FB00080915C01806163C081EE0E94A81B86E382
:100FC0000E94A81B80915C01806259C080915C01E5
:100FD00084FF08C087E30E94BF1C80915C018F7E64
:100FE00080935C0180915C0185FF4BC086E30E9489
:100FF000BF1C81EE3FC0F8018281882309F441C003
:1010000080E011C0F80182818823D9F181E00BC012
:10101000F80182818823A9F182E005C0F80182816C
:10102000882379F183E00E9483082BC0F801828134
:10103000882321F081EE0E94A81B1BC081EE0E9434
:10104000BF1C8FE10E94BF1C80915C018E7F80934A
:101050005C0184E60E94BF1C80915C018B7F8093C1
:101060005C0187E30E94BF1C80915C018F7E8093AE
:101070005C0186E30E94BF1C80915C018F7D8093A0
:101080005C0181E0DF91CF911F910F91089581E084
:1010900008950C94F0061F93CF93DF9300D000D0F7
:1010A0001F92CDB7DEB749835A832091970189817A
:1010B0009A81211112C0662349F00E94F824182F4A
:1010C000682F89819A810E949B2403C00E94CB24AF
:1010D000182F69817A81812F04C00E94F8246981C8
:1010E0007A810F900F900F900F900F90DF91CF911A
:1010F0001F910C945109FC014081518162817381DF
:1011000084810C944B08CF93DF9361E070E0EB0196
:1011100002C0CC0FDD1F8A95E2F78C2F0E94562665
:10112000BE0180E090E0DF91CF910C949C230E945F
:101130004326811102C00E94F1260E941A150E94C6
:1011400064150C94230C0E94C6150C94250C08956C
:101150000C94A70881E008950C94AA08CF93C82F97
:101160000E94A8088C2F0E94AC08CF910895089582
:101170000E94C11F0E94B7082FEF84E39CE021501A
:1011800080409040E1F700C000000C941C280F93B1
:101190001F93CF93DF938C010E947B08EC01B80171
:1011A0000E944908882309F471C0B801CE010E9449
:1011B000D716882309F46AC0B801CE010E94181717
:1011C000882309F463C0B801CE010E940613882366
:1011D00009F45CC0F8018281882339F1C1308CE5C3
:1011E000D80759F0CE3DECE5DE07E1F0C115FCE58E
:1011F000DF07D9F40E94B80849C080910D02C82FBA
:10120000C095C170C0FB80F980930D02CC2329F0FA
:1012100086EE95E00E944C0639C084ED95E00E9470
:101220004C0635C00E94F12631C0C631DC4539F587
:101230000E947825282FF801828140912501509144
:101240002601882379F02A7A91E009F490E09093BE
:101250005D01911102C069E201C065E3CA010E940B
:101260002A270AC080915D01811102C069E201C094
:1012700065E3CA010E942C270E94C42507C0C8014B
:10128000DF91CF911F910F910C944708C0E08C2FF4
:10129000DF91CF911F910F91089580E090E0089524
:1012A000089596E0799FF00111249CE3899FE00D59
:1012B000F11D1124E60FF11DEE0FFF1FEC5DFE4F37
:1012C000859194910895880F991FFC01E950FA4F78
:1012D000859194910895CF93DF930E9451090E94C4
:1012E0004C0BEC01811522E5920708F046C08115F0
:1012F00031E5930708F052C1883E910500F5803E24
:10130000910508F0C5C1883A910570F4853A9105B8
:1013100008F0B1C08130910509F4BAC108F46BC17D
:10132000049708F0B5C167C18F3B910508F4AEC0C2
:10133000803C910508F45FC1805C910906C181156C
:1013400040E4940790F4C11580E3D80708F001C188
:10135000C11521E0D20708F44EC1C11530E2D30710
:1013600008F496C1CE019F70F0C0811540E5940746
:1013700008F0F9C0DF70D06A8BC1C11589E5D807C4
:10138000B8F5C11528E5D20708F021C1C11534E52B
:10139000D307D0F42C2F26952695CE01837099275C
:1013A000C115D34508F0FFC040E2249F90011124ED
:1013B000C1E0D0E002C0CC0FDD1F8A95E2F72C2BF4
:1013C0003D2BE901DC6864C1C11585E5D80708F447
:1013D000F9C0C11526E5D20708F00DC18C2F0E9477
:1013E000E00B8F71C82FD0E0DC2FCC27D06250C12A
:1013F000CD3B3CE5D30709F4F5C0E0F4CB3B8CE5ED
:10140000D80709F4E9C008F0EAC0C1153AE5D307E6
:1014100008F0F1C08C2F8F700E94E00B94E0D695FD
:10142000C7959A95E1F7CF70D0E0DC2FCC27D06933
:10143000C82B2EC1C03C4CE5D40709F4D9C060F4D8
:10144000CE3B2CE5D20709F4D0C0CF3BDC4509F0F8
:10145000D2C0C0E0D2ED1CC1CE01905681159042A1
:1014600008F0C9C08D2F8F710E94E00BDD27D0627C
:101470008F71D82B0DC1853A910509F4BFC0863A0A
:10148000910509F0BEC0C2E8D0E402C1883A9105D6
:1014900009F4BAC0893A910509F4B9C08A3A9105AC
:1014A00009F4B8C08B3A910509F4B7C08C3A91059C
:1014B00009F4B6C08B3B910509F4B5C08C3B91058E
:1014C00009F4B4C08D3A910509F4B3C0803B91058D
:1014D00009F4B2C08E3A910509F4B1C08F3A910572
:1014E00009F4B0C0813B910509F4AFC0823B91057E
:1014F00009F4AEC0833B910509F4ADC0843B91056E
:1015000009F4ACC0853B910509F4ABC0863B91055D
:1015100009F4AAC0873B910509F4A9C0883B91054D
:1015200009F4A8C0893B910509F4A7C08D3B91053A
:1015300009F4A6C08E3B910509F4A5C08A3B91052C
:1015400009F4A4C0C0E0D4E4A3C00E946309EC0184
:101550009FC0CE019927D3FF03C0EC01D86C98C07F
:10156000EC01D06C95C0837021E030E002C0220F06
:10157000331F8A95E2F73C68CE0174E09695879513
:101580007A95E1F78370382BCF70C695C69580E2C7
:10159000C89FE0011124C22BD32B7AC0D82FCC27AF
:1015A000C16FD06A75C040E2249F90011124C1E050
:1015B000D0E002C0CC0FDD1F8A95E2F7C22BD32BFF
:1015C000DA6866C0DC2FCC27C46FD06A61C0DC2F1C
:1015D000CC27C06FD06A5CC0C0E0D4ED59C0C0E079
:1015E000D5ED56C0C0E0D1ED53C0C0E0D0ED50C045
:1015F000C0E0D3ED4DC0C0E0D0E04AC0C1E8D0E4C7
:1016000047C0C3E8D0E444C0C2EED4E441C0C9EE50
:10161000D4E43EC0CAEED4E43BC0C5EBD4E438C049
:10162000C6EBD4E435C0C3EBD4E432C0C4EBD4E49D
:101630002FC0C7EBD4E42CC0CCECD4E429C0CDEC53
:10164000D4E426C0C3E8D5E423C0CAE8D5E420C06A
:10165000C2E9D5E41DC0C4E9D5E41AC0C1E2D6E4AC
:1016600017C0C3E2D6E414C0C4E2D6E411C0C5E298
:10167000D6E40EC0C6E2D6E40BC0C7E2D6E408C08A
:10168000CFE6D4E405C0C0E7D4E402C0CAE2D6E4A1
:10169000CE01DF91CF9108958238910569F1B0F4C0
:1016A0008133910509F46DC048F48932910509F43C
:1016B00063C08A32910509F469C0089585339105A4
:1016C00009F455C089339105B9F00895833E910519
:1016D00069F138F4803E9105B1F0823E910509F13F
:1016E0000895863E9105A9F1873E9105B9F1843EA2
:1016F000910509F064C023C02091610220FD4FC014
:1017000021FD4DC008958091610280FD44C080910B
:10171000620280FF44C08091610284FD42C083EE7A
:101720004DC08091610282FF38C0F5CF8091610287
:1017300082FD33C08091620280FD31C0ECCF809188
:10174000620281FF32C08091610284FD2AC087EE6F
:1017500035C08091610283FF26C0F5CF8091610280
:1017600083FD21C08091620281FD1FC0ECCF80917A
:10177000610285FD1CC01DC08091610285FD19C0FC
:1017800016C08091610286FD16C017C0809161026B
:1017900086FD13C010C089E311C082EE0FC080EE39
:1017A0000DC080E00BC086EE09C084EE07C089E260
:1017B00005C085E303C08AE201C081E390E008959B
:1017C0009091610292FF0DC0282F2871283019F4E2
:1017D000877F846006C0282F2471243011F48B7F0A
:1017E000886093FF0DC0282F2871283119F4877E57
:1017F000846106C0282F2471243111F48B7E886106
:101800002091620220FF0DC0382F3871383019F452
:10181000877F816006C0382F3171313011F48E7F9F
:10182000886021FF0DC0282F2871283119F4877E88
:10183000816106C0282F2171213111F48E7E8861CB
:1018400094FD877E08950C94EE060C94EF06E82F25
:10185000F0E0E95DFD4F80810895CF92DF92EF9235
:10186000FF920F931F93CF93DF9386E096E00E9441
:101870004C0687E2E82E82E0F82EC0E0D0E091E04E
:10188000C92E96E0D92E09EF15E0DF93CF93DF92B2
:10189000CF920E94E5068EEF95E00E944C06F7017C
:1018A00081917F010E942D261F928F931F930F938A
:1018B0000E94E50687EF95E00E944C0621968DB7C1
:1018C0009EB708960FB6F8949EBF0FBE8DBFCA3064
:1018D000D105D9F6DF91CF911F910F91FF90EF9035
:1018E000DF90CF9008950895CF93DF93CDB7DEB703
:1018F00060970FB6F894DEBF0FBECDBF0E94470EB3
:101900008091100181112CC0FE0131968AE0DF0127
:101910001D928A95E9F781E3898382E38A8382E9CC
:101920008B8381EF8C8384EF8D83A6E0B1E08AE026
:101930008E0F91919D938E13FCCF86E0E2E3F1E050
:10194000DE011B9601900D928A95E1F7A0E0B1E0CF
:10195000FE013B9686E08E0F91919D938E13FCCFF6
:1019600080911001811102C095E001C090E0909338
:10197000320285E0891B80933102A6E0B1E041E0AC
:1019800050E025E02A0F8D91E82FE295EF70F0E00E
:1019900031A18F70BA0102C0660F771F8A95E2F7F6
:1019A000CB01962F9095932391A392A1892B82A38B
:1019B0002A13E9CFA0E0B1E041E050E026E02A0F91
:1019C0008D91E82FE295EF70F0E031A18F70BA01B0
:1019D00002C0660F771F8A95E2F7CB01962F90958C
:1019E000932391A392A1892B82A32A13E9CFA7E283
:1019F000B2E0EDE1F2E08AE08E0F11921D928E13BB
:101A0000FCCF85E00E94EC0D60960FB6F894DEBF27
:101A10000FBECDBFDF91CF910C9497080E942A0E84
:101A2000882321F18091310290E0895D9D4F0E94D1
:101A3000850E811117C080915E018F5F80935E01DA
:101A4000863090F02091310280E090E030E0FC019F
:101A5000E20FF31FE95DFD4F10820196853091057D
:101A6000B1F702C010925E010C94A308809132027B
:101A700090E0895D9D4F0E94B20E0E94C6150C94A5
:101A8000730CCF92DF92EF92FF920F931F93CF933D
:101A9000DF93A6E0B1E0EDE1F2E0D12C41E050E0CF
:101AA00085E0C82ECE0ECF01F08010826C91262FDB
:101AB00022952F7030E0E90119A16F70EA0102C090
:101AC000CC0FDD1F6A95E2F7BE01612BE90169A326
:101AD0003C91632F62956F7070E0EB011AA13F702B
:101AE000EA0102C0CC0FDD1F3A95E2F79E01209576
:101AF0002123EB012AA3D0EADA95F1F700E011E007
:101B000020E030E0E801E9908E016E2D62956F7063
:101B100070E0EB0168A170E0DE2DDF7002C075950A
:101B20006795DA95E2F760FD07C0BA01022E01C0A1
:101B3000660F0A94EAF702C060E070E07081672BDC
:101B400060832F5F3F4F26303105E1F67C91272FD0
:101B500022952F7030E0E90119A17F70EA0102C0DF
:101B6000CC0FDD1F7A95E2F7BE0160956123E90194
:101B700069A36D91262F22952F7030E0E9011AA1FB
:101B80006F70EA0102C0CC0FDD1F6A95E2F7BE015B
:101B9000612BE9016AA3319621E0EC018881F812FA
:101BA00001C020E0D22ACE127ECF6091320270E0D6
:101BB000695D7D4F2D2D45E08DE192E00E94ED0D98
:101BC0000E940E0D8D2DDF91CF911F910F91FF90EF
:101BD000EF90DF90CF9008950895FF920F931F9399
:101BE000CF93DF938C01F62ED72FC42F222349F0F9
:101BF00081E0809361010E94C027909360018093EF
:101C00005F01809161018823C1F080915F01909113
:101C100060010E94CC27069780F0EF2DFD2FD801A0
:101C20004C2F50E0CD01801B910B841795071CF4BD
:101C30008D918193F7CF10926101DF91CF911F9128
:101C40000F91FF90089555985D9889B185FB88277D
:101C500080F9089580916201811112C08091D800AD
:101C600080618093D8008AE18A95F1F700C0809165
:101C7000D90080FD02C082E001C081E08093620152
:101C800081E090916201913009F080E008950E9416
:101C9000230E809310018091100166E0882311F0DB
:101CA00080E001C086E00E946A0F0E942A0E811126
:101CB0000C945C0E0C94620E62E070E081E191E0A5
:101CC0000C94A11862E070E081E191E00C94AA18F4
:101CD0000E94C012882361F08CE691E00E94C61237
:101CE00081E090E00E948C19892B11F40C94C312AE
:101CF000089580916B01883039F460E08CE691E0C2
:101D00000E94D91210926B010895CF93DF93D82FC0
:101D1000C92F0E94680E80E090E00E948C19892BE8
:101D2000E9F4ED2FFC2F80E090E0DC01AB59BE4FD1
:101D30002C912193019685309105B9F70E945C138F
:101D4000882319F00E94601301C080E08093640131
:101D50008AE691E00E94371681E001C080E0DF91C1
:101D6000CF910895CF93DF9300D0CDB7DEB78983AD
:101D70009A830E94790E8981E82F9A81F92F80E059
:101D800090E02191DC01AB59BE4F2C930196853038
:101D90009105B9F7809164010E94BD148AE691E033
:101DA0000F900F90DF91CF910C942E16AF92BF92AF
:101DB000CF92DF92FF920F931F93CF93DF93D62E94
:101DC000372FE82FF0E0711106C0ED5AF64F6491FD
:101DD000762F862F75C0C72FD0E0ED5AF64F24918D
:101DE000F22E022F10E046E0649FC0011124EFEFB5
:101DF000F0E0BF010E941E30AB016BEA6403C0013A
:101E0000659F900D11248D0D911D8D0D911D982FA5
:101E1000990F890FDF01AC1BBD0B0A9FB0010B9F0F
:101E2000700D1A9F700D1124972F839FD0011124DC
:101E3000AB2FBB276F01CA1ADB0A0C9DD0010D9D89
:101E4000B00D1C9DB00D11245F01A81AB108AC9E05
:101E50006001AD9ED00CBC9ED00C1124CD2DDD2791
:101E6000EC1BFD0B0E9FE0010F9FD00D1E9FD00DB0
:101E70001124ED2F4230510591F04CF441155105DC
:101E8000E1F041305105B9F4E22F2B2F16C0443058
:101E9000510569F044F04630510579F00CC0E22F4D
:101EA000272F9D2F0AC0272F9F2DEB2F06C0E72F2E
:101EB000922F2D2F02C0E72F9B2F6E2F722F892F6D
:101EC000DF91CF911F910F91FF90DF90CF90BF9046
:101ED000AF90089580937501609322010895CF9388
:101EE000DF93762FE901682F842F0E94D60E798325
:101EF00068838A83DF91CF91089580913302982F70
:101F00009695913021F0817082608093330208951C
:101F100088E090E00C947C30CF93DF9300D000D029
:101F2000CDB7DEB7AB01BC0149835A836B837C8399
:101F30000E947D0F49815A816B817C8188E090E00D
:101F40000F900F900F900F90DF91CF910C949A30DB
:101F5000E3E3F2E083E0808311828FEF8283838367
:101F60001482A7E7B1E012968C91129783601296C3
:101F70008C9360817181828193810C948C0F80910C
:101F80000D0280FF08C08BEB98E09F938F930E9417
:101F9000E5060F900F9080910D0280FF0FC0809199
:101FA000330281701F928F938EE998E09F938F93F5
:101FB0000E94E5060F900F900F900F9080910D02F8
:101FC00080FF0FC08091330286951F928F9383E824
:101FD00098E09F938F930E94E5060F900F900F90CB
:101FE0000F9080910D0280FF0EC0809134021F92ED
:101FF0008F9389E698E09F938F930E94E5060F9058
:102000000F900F900F9080910D0280FF0EC0809175
:1020100035021F928F938FE498E09F938F930E94D5
:10202000E5060F900F900F900F9080910D0280FFAA
:102030000EC0809136021F928F9385E398E09F93A4
:102040008F930E94E5060F900F900F900F90809154
:102050000D0280FF0EC0809137021F928F9389E19D
:1020600098E09F938F930E94E5060F900F900F903A
:102070000F90089580913702833018F48F5F80931A
:102080003702609133027091340280913502909151
:1020900036020C948C0F80913702882319F08150FE
:1020A000809337026091330270913402809135023F
:1020B000909136020C948C0F6091220170E0809117
:1020C000330280FF0AC08091750123E0829FC00126
:1020D0001124885C9D4F0C945E1580917401909141
:1020E0002101891780F7E82FF0E09F01220F331FAD
:1020F000E20FF31FE85CFD4F1182108212828F5FA6
:10210000F0CF809133028E7F80933302609133024F
:102110007091340280913502909136020E948C0FAA
:1021200080910D0280FF0FC08091330281701F9259
:102130008F938BE996E09F938F930E94E5060F9013
:102140000F900F900F9080917901816080937901B9
:102150002FEF80E792E0215080409040E1F700C0EF
:1021600000000C945C10809133028E7F80933302C8
:1021700080910D0280FF0CC01F921F9281E696E0B5
:102180009F938F930E94E5060F900F900F900F90F2
:10219000809179018160809379012FEF80E792E04F
:1021A000215080409040E1F700C000000C945C108A
:1021B0009091330290FF16C09091740120912101FB
:1021C000921770F4E92FF0E0DF01AA0FBB1FEA0FAE
:1021D000FB1FE85CFD4F8183608342839F5FF0CFEC
:1021E0000C945C100895EF92FF920F931F93CF937E
:1021F000DF9300D01F92CDB7DEB79091330290FFEE
:1022000065C0E22EF42E062F182FE92FE695F0E098
:10221000E85CFE4F8081809377019E7F923059F475
:102220009E012F5F3F4F812F0E946F0F4B8169816D
:102230008A810E94D81080913402811308C0809155
:102240003502801304C0809136028F1529F08091E9
:1022500079018260809379011093340200933502F2
:10226000F0923602EE20E9F0609133027091340270
:1022700080913502909136020E948C0F80910D0260
:1022800080FF24C0809136021F928F938091350287
:102290001F928F93809134021F928F938CE396E06C
:1022A0000CC080910D0280FF11C01F92FF921F92FF
:1022B0000F931F921F9385E196E09F938F930E9447
:1022C000E5060FB6F894DEBF0FBECDBF0F900F909E
:1022D0000F90DF91CF911F910F91FF90EF90089594
:1022E000E3E3F2E09181282F4381628188E0890F46
:1022F0000C94F31081E00C947011E3E3F2E091810F
:10230000282F4381628188EF890F0C94F31081E0BC
:102310000C947D11E3E3F2E0628121E1620F08F4A5
:102320006FEF282F438181810C94F31081E00C948E
:102330008A11E3E3F2E0628121E1621B08F460E0CC
:10234000282F438181810C94F31081E00C94991122
:10235000E3E3F2E0438121E1420F08F44FEF282F3D
:10236000628181810C94F31081E00C94A811E3E365
:10237000F2E0438121E1421B08F440E0282F628112
:1023800081810C94F31081E00C94B71120E00C943F
:10239000F3108091330280FF3AC081708260809395
:1023A0003302809179018160809379016623B1F0D5
:1023B000609133027091340280913502909136021F
:1023C0000E948C0F80910D0280FF19C08091330212
:1023D00086951F928F938FE597E009C080910D023B
:1023E00080FF0DC01F9281E08F9381E497E09F935F
:1023F0008F930E94E5060F900F900F900F904091E1
:10240000360260913502809134020C94C611089511
:10241000682F81E00C94C91181E00C940812682F98
:102420009091330296958FEF890F09F481E00C9417
:10243000C91181E00C940F1261E00C94C9118091D4
:10244000330281608093330280910D0280FF0DC0C2
:102450001F9281E08F9383ED96E09F938F930E946C
:10246000E5060F900F900F900F90809133028695A4
:102470000C941C1280910D0280FF10C080913302D9
:10248000809581701F928F938AE097E09F938F933E
:102490000E94E5060F900F900F900F9080913302ED
:1024A00080FD0C9481100C941F1260E00C94C911F3
:1024B00080917601811163C080910D0280FF08C078
:1024C00082E098E09F938F930E94E5060F900F9013
:1024D00080910D0280FF08C08CEE97E09F938F9350
:1024E0000E94E5060F900F900E944326811110C0B4
:1024F00080910D0280FF08C084EC97E09F938F933A
:102500000E94E5060F900F900E94F1260E94A80FEE
:102510000E94880F609333027093340280933502D7
:1025200090933602809179018360809379016E7F68
:10253000C1F480910D0280FF08C08BE797E09F9364
:102540008F930E94E5060F900F900E94A80F0E94A3
:10255000880F609333027093340280933502909316
:1025600036020E947D0F0E94BF0F8091330280FFD0
:1025700003C086950E94551281E0809376010895EC
:1025800080917901089510927901089525E0E3E39F
:10259000F2E0DC0101900D922A95E1F7209177019C
:1025A0003091780140917901FC012583368347837E
:1025B00008951F93CF93DF93EC01162F8F8180FF37
:1025C0000FC0888180FF0AC08091330281608093B0
:1025D0003302888186950E94C91102C00E94B310FF
:1025E0008F8181FF09C0212F4B816A818981DF9111
:1025F000CF911F910C94F310DF91CF911F9108950B
:10260000882311F0FA0101C0FB0109941F93CF93B5
:10261000DF93FB01128111114AC0EC010E94782561
:102620008272FE01E25CFC45E431F10520F4EA5AD5
:10263000FF4F0C94543011E03AC00E943A1237C058
:1026400049E152E16CE072E104C04CE052E169E121
:1026500072E10E9400132BC047E851E16AE771E183
:10266000F8CF4AE751E167E871E1F3CF45EA51E17C
:1026700066E971E1EECF46E951E165EA71E1E9CF42
:1026800043EC51E164EB71E1E4CF44EB51E163ECE5
:1026900071E1DFCF4BE450E16AE370E1DACF4AE366
:1026A00050E16BE470E1D5CF81E00E941C12812FD4
:1026B000DF91CF911F91089580915C028170089500
:1026C00080915C0286958695869508950E944326A2
:1026D000811102C00E94F1260E94792680935C023B
:1026E000282F26952695269530E02630310524F0B2
:1026F0008770886280935C0280915C0280FF04C0D6
:1027000086958695869501C080E00C94BD14209135
:102710005C02822F869586958695482F50E045303D
:10272000510554F48F5F982F990F990F990F822FAD
:102730008770892B80935C0280915C02816080931A
:102740005C020E947D2680910D0280FF11C0809165
:102750005C028695869586951F928F938BE399E010
:102760009F938F930E94E5060F900F900F900F900C
:1027700080915C028695869586950C94BD14809117
:102780005C02982F969596959695A1F0915E990F7B
:10279000990F990F8770892B80935C02887F91E055
:1027A00009F490E080915C0290FB80F980935C02D8
:1027B0000E947D2680910D0280FF11C080915C02F5
:1027C0008695869586951F928F9383E299E09F93D5
:1027D0008F930E94E5060F900F900F900F908091BD
:1027E0005C028695869586950C94BD1480915C025A
:1027F00080FD1FC0816080935C02813019F489E004
:1028000080935C0280915C020E947D2680910D0283
:1028100080FF08C08BEF98E09F938F930E94E5069E
:102820000F900F9080915C028695869586950C940A
:10283000BD14089580915C0280FF14C08E7F809348
:102840005C020E947D2680910D0280FF08C088EE08
:1028500098E09F938F930E94E5060F900F9080E081
:102860000C94BD140895CF93C0915C02C170809107
:102870000D0280FF0CC01F92CF938DE099E09F93D3
:102880008F930E94E5060F900F900F900F90CC232E
:1028900019F0CF910C941A14CF910C94F6139091D7
:1028A0005C02892F8695869586958F5F8F719770CC
:1028B000863038F4880F880F880F892B80935C024C
:1028C00002C090935C0280915C02887F91E009F4E1
:1028D00090E080915C0290FB80F980935C020E9402
:1028E0007D2680910D0280FF11C080915C0286954B
:1028F000869586951F928F9384ED98E09F938F9392
:102900000E94E5060F900F900F900F9080915C024F
:102910008695869586950C94BD14863008F085E0E2
:1029200090915C029770282F220F220F220F922B7A
:1029300090935C02987F21E009F420E090915C0282
:1029400020FB90F990935C020C94BD140E948D14AE
:1029500080915C020C947D26E82FE295EF70F0E008
:1029600032A1282F2F7081E090E001C0880F2A95B6
:10297000EAF78095832382A30895CF92DF92EF92A6
:10298000FF92863030F4811105C0909180009F77CE
:1029900004C085E090918000906890938000282F7B
:1029A00030E0AFEFBFEF0E945A3025E030E040E06A
:1029B00050E00E9432302C3784E138074105510540
:1029C00030F4C90169E070E00E941E3029C0DA01CC
:1029D000C9018A50974DAF4FBF4F6627782F892F77
:1029E0009A2F25EF38E241E050E00E943230690131
:1029F0007A01CA01B9010E9402309B01AC01C701F2
:102A0000B6010E940230BB27A92F982F872F00976D
:102A100021E0A207B10511F0BC0102C06FEF7FEF0A
:102A20007093890060938800FF90EF90DF90CF90C3
:102A300008950895259A85E30E94AC1482E8809356
:102A4000800089E1809381008FEF9FEF9093870052
:102A5000809386000C9466132BB1342F309523237A
:102A60003BB1432B3FB7F894FC01680F791FE61781
:102A7000F70789F0819198E04BB9000000C087FF0B
:102A80002BB9880F000000C000C000C02BB900C0E7
:102A90009A9591F7ECCF3FBF08952AB1242B2AB91C
:102AA0009B01220F331F620F731F0E942C1587ECAE
:102AB00090E00197F1F700C00000089540E40C9405
:102AC0004D1508950C94611580911001882309F427
:102AD00048C020912401A22FA295AF70B0E091963A
:102AE0006C9191972F7081E090E0AC01022E01C0B3
:102AF000440F0A94EAF7342F3095362391963C938D
:102B0000919792963C919297432B92964C939297E1
:102B100040912301E42FE295EF70F0E031A14F7076
:102B2000042E01C0880F0A94EAF7982F90959323FA
:102B300091A392A1892B82A390968C9190E002C0E0
:102B4000959587952A95E2F78170992720A130E025
:102B500002C0359527954A95E2F720FD09C020E08F
:102B600008C087EF8093240186EF80932301B1CFC3
:102B700022E0822B80937F019091100181E09827C1
:102B800090937B01891B80937A010895CF93E09104
:102B90007F015E2F550F550F20912401E22FE29502
:102BA000EF70F0E080A190E02F7002C095958795BE
:102BB0002A95E2F78170992740912301E42FE2954D
:102BC000EF70F0E020A130E04F7002C035952795FE
:102BD0004A95E2F7F901E170FF2720FF02C0E2E029
:102BE000F0E0E82BF92BE52BE0937F01C0917B010E
:102BF000EF70F0E0E65CFE4F908180917E01890FDE
:102C000080937E0184306CF0EC2F0C2E000CFF0BB7
:102C1000E458FE4F80818F5F808361E08C2F0E949B
:102C2000621580917E018D3F6CF4EC2F0C2E000C10
:102C3000FF0BE458FE4F80818150808360E08C2F31
:102C40000E94621580917E01837887FF03C08150C6
:102C50008C6F8F5F80937E01CF910895E0917B010F
:102C6000F0E0E458FE4F2081FC0120830895FF929C
:102C70000F931F93CF93DF93D0917A010D2F10E024
:102C800004581E4FFC01C081F8018081C81BFC2E36
:102C90001F1454F4FA94F80180818F5F808361E0FF
:102CA0008D2F0E946215F4CF8C2FC7FD80E0C81BCA
:102CB000CC2351F0CF5FF80180818150808360E0A8
:102CC0008D2F0E946215F4CFDF91CF911F910F914C
:102CD000FF9008950F931F93CF93DF93C62FD42FA8
:102CE000022FFC0182818823C9F0609382010E9437
:102CF000C027909381018093800180E28C0F8830FF
:102D000008F050C0C77081E001C0880FCA95EAF78B
:102D1000DF91CF911F910F910C94311D1091820181
:102D2000161330C080918001909181010E94CC27C0
:102D3000883C910538F5C0E2CD0F1D17B9F080E24F
:102D4000810F883040F4177081E001C0880F1A9518
:102D5000EAF70E94381DC83048F481E09D2F977033
:102D600001C0880F9A95EAF70E94311D802F0E94BA
:102D70001E1DC830B8F4D77081E001C0880FDA9505
:102D8000EAF70AC080E28C0F883060F4C77081E0F7
:102D900001C0880FCA95EAF7DF91CF911F910F917B
:102DA0000C94381DDF91CF911F910F9108959C01D4
:102DB000CB01233F4CE53407F9F078F4283DFCE5DE
:102DC0003F07B9F0293D4CE5340711F1273D3C455B
:102DD00031F526E241EE61EE1EC0253FFCE53F07DE
:102DE00099F070F0263F3C45D1F427E245EE66EEBF
:102DF00012C027E245EE0EC026E241EE60EE0BC0A7
:102E000027E245EE64EE07C026E241EE62EE03C023
:102E100028E241E065EE0E946A1680E00895FC0118
:102E20008281882319F010928201089581E008952B
:102E3000CF93DF93EC01FB018281882309F41FC14A
:102E4000C230FCE5DF0708F41BC1C6319CE5D90799
:102E500038F09E012A5F3C452930310508F010C149
:102E60000E945B269093620280936102C031ECE580
:102E7000DE0709F4C3C008F041C0C8308CE5D807AC
:102E800009F49AC0F0F4C430ECE5DE0709F487C019
:102E900068F4C2308CE5D80709F477C0C330DC454C
:102EA00009F0E3C080916102826076C0C630ECE533
:102EB000DE0709F46EC008F07BC080916102886073
:102EC0006BC0CC308CE5D80709F485C068F4CA30F3
:102ED000ECE5DE0709F474C008F079C00E94C11F58
:102EE00080916102806858C0CE308CE5D80709F423
:102EF00076C008F07FC0809161028BC0CB3FECE5CB
:102F0000DE0709F44FC018F5C3318CE5D80709F482
:102F10007DC078F4C131ECE5DE0709F473C0C2313D
:102F2000DC4509F0A2C00E94C11F809161028F7729
:102F300033C0C5318CE5D80709F472C008F486C0E7
:102F4000CA3FDC4509F091C0809162023EC0CF3F8C
:102F5000FCE5DF0709F45FC058F4CD3F9CE5D907D5
:102F600009F444C008F43FC08091620282602DC021
:102F7000C130FDE5DF0709F475C008F45DC0C2305B
:102F8000DD4509F072C080E06EC080916102816011
:102F900003C08091610280618093610266C080916C
:102FA000610211C0809162028260809362025DC002
:102FB000809161028062F0CF809161028064ECCFE9
:102FC0008091610288608460E7CF8160EECF80915C
:102FD00061028E7FE1CF809161028D7FDDCF809194
:102FE0006102877FD9CF8091620218C0809162020E
:102FF0008D7FDBCF809161028F7ECECF8091610289
:103000008F7DCACF809161028F7BC6CF8091610294
:10301000877F8B7FC1CF809162028D7F8E7FC5CFEE
:103020008091610282FB222720F991E0922790FB98
:1030300082F990FB83F9B0CF80916202982F90952E
:1030400091708E7F892B90FB81F9AFCF0E94C11FB9
:103050008091610287FB222720F991E0922790FB63
:1030600087F99ACF81E00E94F326809161029091C6
:1030700062020E946C260E94C11F80E001C081E0B4
:10308000DF91CF9108958EE1489B02C08150E1F716
:10309000489BFECF0895589880E28A95F1F7589A98
:1030A0000895FC013AE03A95F1F720E090E080E0E5
:1030B00031E0961779F040E14A95F1F7880F489B87
:1030C00002C08160232700C0000040E14A95F1F76B
:1030D0009F5FEFCF90E19A95F1F799B100C00000A2
:1030E00030E13A95F1F7917092272081920F908309
:1030F0000895EF92FF920F931F93CF93DF931F9248
:10310000CDB7DEB7F62E1982E82E8C01802F8E19EE
:103110008F1558F40E94431868E0CE0101960E9472
:103120005118F80181938F01F1CF81E099819111BC
:1031300080E00F90DF91CF911F910F91FF90EF9062
:103140000895909385018093840160938301509A40
:10315000589A089590938501809384016093830128
:103160005098589AE89AE9E6F0E080818C7F808355
:103170000895615091E001C0990F6A95EAF720E047
:1031800031E0992361F0492F482319F0589A2327F9
:1031900001C0589840E24A95F1F79695F2CF222364
:1031A00011F0589A01C0589880E28A95F1F7589822
:1031B0000895EF92FF920F931F93CF93DF931F9287
:1031C000CDB7DEB7162F082F7C018E2D801B8117FF
:1031D00058F4F70181917F0189830E944B1868E0C0
:1031E00089810E94B918F1CF0F90DF91CF911F9183
:1031F0000F91FF90EF9008951F920F920FB60F92CC
:1032000011240F931F932F933F934F935F936F93CB
:103210007F938F939F93AF93BF93EF93FF93CF933E
:10322000DF931F92CDB7DEB719820E94431867E083
:10323000CE0101960E945118382F36953695369555
:10324000932F96959570232F2570920F292F237019
:10325000969596958770920F891348C08981811140
:1032600045C080918301831708F440C080E18A95AE
:10327000F1F7589A509AA2E0AA95F1F700C0009190
:10328000840110918501B8E03B9F000D111D1124B0
:103290005898F8016581662321F0868197810E9404
:1032A000D9180E944B18F0E1FA95F1F75898509808
:1032B000589A80E18A95F1F7D80112966C9112978D
:1032C000662369F013968D919C9114970E9479184A
:1032D000D801ED91FC91811105C082E004C0D801B4
:1032E000ED91FC9188E080830E9443180F90DF915C
:1032F000CF91FF91EF91BF91AF919F918F917F916E
:103300006F915F914F913F912F911F910F910F906E
:103310000FBE0F901F9018950F931F93CF93DF93BD
:103320002091830130E0281739070CF471C09C010B
:1033300093E0220F331F9A95E1F7C0918401D09159
:103340008501C20FD31FF894509A589845E04A95CA
:10335000F1F70000982F969595708570890F982F3A
:10336000937086958695890F8901082B0E944B18CA
:1033700084E08A95F1F700C067E0802F0E94B918B9
:1033800040E14A95F1F75098589A489902C000C018
:10339000FCCF87E090E0489B0EC0019751F4509A13
:1033A000589AE881F98181E08083789481E090E007
:1033B00031C000C0F0CF6D81662381F08E819F8186
:1033C0000E94791881110AC0509A589AE881F981AF
:1033D00082E08083789482E090E01CC00E944318D1
:1033E00080E28A95F1F75898509A40E14A95F1F7B2
:1033F0006A81662321F08B819C810E94D9180E94EA
:103400004B18E881F9811082789480E090E002C046
:1034100084E090E0DF91CF911F910F9108959093F8
:103420008B0180938A010895E0918A01F0918B01CC
:10343000309721F00190F081E02D099480E008950B
:10344000EF92FF920F931F93CF93DF93E0918A0146
:10345000F0918B013097B1F18C010280F381E02D66
:10346000099580910D0282FF2DC080FF04C08BE57D
:103470009AE00E944C06E80118E085E5E82E8AE013
:10348000F82E80910D0280FF0BC088811F928F93D0
:10349000FF92EF920E94E5060F900F900F900F9011
:1034A000115021961111EDCF80910D0280FF0AC0BD
:1034B00083E59AE0DF91CF911F910F91FF90EF90FC
:1034C0000C944C06DF91CF911F910F91FF90EF90DC
:1034D000089520918801309189018217930771F036
:1034E0009093890180938801E0918A01F0918B018A
:1034F000309721F00680F781E02D099408952091FE
:103500008601309187018217930771F090938701AC
:1035100080938601E0918A01F0918B01309721F030
:103520000084F185E02D0994089585B7806885BFF2
:1035300085B7806885BF0895089508950C949D1AF5
:1035400008950C94A01A0E94951A0E949C1A0C943B
:103550009E1A0E94B7270E94740C0E9440280E9465
:1035600066130E9458120C94A11ACF93C82F809111
:103570000D0282FF1EC080FF04C084E79AE00E9413
:103580004C0680910D0280FF0CC01F92CF938FE6F6
:103590009AE09F938F930E94E5060F900F900F90F3
:1035A0000F9080910D0280FF04C08DE69AE00E948A
:1035B0004C068C2FCF910C94AE08BF92CF92DF9225
:1035C000EF92FF920F931F93CF93DF93CDB7DEB7A8
:1035D0002B970FB6F894DEBF0FBECDBF0E94410DF2
:1035E0000E942A0E811111C08FEF89838A831B826A
:1035F0000E94C0278160782F9D838C8349815A81E6
:103600006B818D810E94741B42C08DE8C82E81E0C1
:10361000D82E00E010E0B02E802F0E94270CF6017B
:10362000E1906F01E82631F40F5F1F4F0A3011055A
:1036300091F7DACF90910D0291FF04C08B870E9421
:103640002D0C8B8590E0FF24F3942F2D2E21D1F0AB
:103650009E83BF828F2191E009F490E098870E94B9
:10366000C0278160782F9A8789874E815F8168851E
:103670008A850E94741BF801E357FE4F8081F8266B
:10368000F08205C09F5FFF0C9630F9F6CDCF0E9407
:10369000191510918C010E94141A1817A9F00E9494
:1036A000141A80938C012B960FB6F894DEBF0FBED0
:1036B000CDBFDF91CF911F910F91FF90EF90DF90E1
:1036C000CF90BF900C94B51A2B960FB6F894DEBF2E
:1036D0000FBECDBFDF91CF911F910F91FF90EF9063
:1036E000DF90CF90BF900895CF93DF93CDB7DEB733
:1036F0002B970FB6F894DEBF0FBECDBF4F83588710
:1037000069877A878B87DE01119686E0FD01119229
:103710008A95E9F785E0FE01379601900D928A952A
:10372000E1F749815A816B817C818D819E810E9464
:103730006B222B960FB6F894DEBF0FBECDBFDF9184
:10374000CF910895FC01808191810E9439250895CF
:10375000882309F413C1682F8238C1F40E94141A17
:1037600081FD0CC169E380912501909126010E94A1
:103770002A270E94C4252FEF81EE94E0215080403B
:103780009040E1F700C0000069E319C08338F9F404
:103790000E94141A80FDF2C063E58091250190918A
:1037A00026010E942A270E94C4252FEF81EE94E073
:1037B000215080409040E1F700C0000063E5809117
:1037C0002501909126010E942C270C94C425843851
:1037D000C1F40E94141A82FDD1C067E480912501D2
:1037E000909126010E942A270E94C4252FEF81EE86
:1037F00094E0215080409040E1F700C0000067E471
:10380000DECF8CEF860F813A38F4809125019091BC
:1038100026010E942A27D9CF80E2860F883048F4FB
:10382000677081E001C0880F6A95EAF70E947B25E6
:10383000CCCF8BE5860F833070F4653A29F0663A79
:1038400031F083E890E005C081E890E002C082E8B2
:1038500090E00C94691A88E5860F873108F08EC0D5
:10386000683A09F445C0693A09F445C06A3A09F46E
:1038700045C06B3A09F445C06C3A09F445C06B3B4E
:1038800009F445C06C3B09F445C06D3A09F445C0E4
:10389000603B09F445C06E3A09F445C06F3A09F43B
:1038A00045C0613B09F445C0623B09F445C0633B38
:1038B00009F445C0643B09F445C0653B09F445C0C3
:1038C000663B09F445C0673B09F445C0683B09F411
:1038D00045C0693B09F445C06D3B09F445C06E3BEA
:1038E00009F445C06A3B09F445C080E090E044C05B
:1038F00082EE90E041C089EE90E03EC08AEE90E01A
:103900003BC085EB90E038C086EB90E035C083EBA0
:1039100090E032C084EB90E02FC087EB90E02CC0A9
:103920008CEC90E029C08DEC90E026C083E891E01B
:1039300023C08AE891E020C082E991E01DC084E9BB
:1039400091E01AC081E292E017C083E292E014C0D5
:1039500084E292E011C085E292E00EC086E292E03D
:103960000BC087E292E008C08FE690E005C080E7D8
:1039700090E002C08AE292E00C947F1A08958823B6
:1039800009F45BC0682F823879F40E94141A81FF11
:1039900054C069E380912501909126010E942A2755
:1039A0000E94C42569E310C08338B1F40E94141A40
:1039B00080FF43C063E580912501909126010E941C
:1039C0002A270E94C42563E5809125019091260154
:1039D0000E942C270C94C425843879F40E94141A70
:1039E00082FF2BC067E480912501909126010E94FF
:1039F0002A270E94C42567E4E7CF8CEF860F813A1F
:103A000018F380E2860F883048F4677081E001C0C7
:103A1000880F6A95EAF70E948125DCCF8BE5860F37
:103A2000833020F480E090E00C94691A685A673182
:103A300020F480E090E00C947F1A0895CF93C82F73
:103A40000E94A81BC93349F42FEF87EE93E0215061
:103A500080409040E1F700C000008C2FCF910C9483
:103A6000BF1C882321F00E947B250C94C425089557
:103A7000882321F00E9481250C94C4250895BF92CB
:103A8000CF92DF92EF92FF920F931F93CF93DF932A
:103A90007C01062FC72FFC01158112951F70D28162
:103AA000D1110E9498250E947125882379F0DD2389
:103AB00069F080E2800F883048F082E00E940F2693
:103AC0000E94712591E0B82EB92601C0B12CCC2EF0
:103AD000C2948FE0C822D12CF601E659FF4F0C9416
:103AE00054308C2F807FCF70882311F0C295C07F17
:103AF000DD2399F0CC2309F48DC180E2800F88305A
:103B000010F0011104C08C2F0E947B2503C08C2F64
:103B10000E948B250E94C4257DC1802F0E94BF1C5E
:103B2000CC2309F4C0C180E2800F883010F001116D
:103B300004C08C2F0E94812503C08C2F0E949125E8
:103B40000E94C425B0C18C2F807FCF70803211F0CD
:103B5000C295C07F002319F00130C9F022C0DD23D7
:103B600071F0112341F0113031F40E94AB258C2B00
:103B70000E94B12598C10E94AB258C2B1DC011233A
:103B800019F0113009F48FC10E94BA2525C0DD2338
:103B900021F0163008F087C10EC0153008F083C13F
:103BA0001BC0DD2361F0112331F0F701858180FF17
:103BB00031C18F7085838C2F0E94311D74C11123F8
:103BC00059F0093309F037C1FFEF27EE83E0F150D8
:103BD00020408040E1F72DC18C2F0E94381D63C129
:103BE0008C2F86958695837090E0009719F0019749
:103BF00061F059C1DD2321F0802F9C2F937002C00A
:103C000080E090E00E94691A59C1DD2321F0802FE5
:103C10009C2F937002C080E090E00E947F1A4EC1FA
:103C20008C2F837009F049C0D11144C1402F4295B7
:103C300046954770440F440F602F6F70862F90E0B9
:103C4000A0E0B0E0042E04C0880F991FAA1FBB1F7C
:103C50000A94D2F704FF10C00FE010E020E030E03B
:103C600004C0000F111F221F331F4A95D2F7009581
:103C700010952095309503C000E010E09801C6959E
:103C8000C695C370D0E0BC01CD01602B712B822B97
:103C9000932BC230D10559F0C330D10559F021978B
:103CA00019F00E94B02306C10E949E2303C10E9406
:103CB000C22300C10E949C23FDC0DD2319F08C2F7C
:103CC000817001C08695882309F4F4C0402F429585
:103CD00046954770440F440F602F6F70862F90E019
:103CE000A0E0B0E0042E04C0880F991FAA1FBB1FDC
:103CF0000A94D2F704FF10C00FE010E020E030E09B
:103D000004C0000F111F221F331F4A95D2F70095E0
:103D100010952095309503C000E010E09801C695FD
:103D2000C695C370D0E0BC01CD01602B712B822BF6
:103D3000932BC230D10559F0C330D10559F02197EA
:103D400019F00E947624B6C00E946424B3C00E9479
:103D50008824B0C00E94D723ADC0CF70DD2339F0D6
:103D60008C2F0E94FD23802F0E94311DA3C0802F25
:103D70000E94381D8C2F0E941E249CC0023F01F11E
:103D800028F4003F41F0013FA1F040C0033FF9F0AB
:103D9000043F39F13BC0DD2341F0153008F083C00A
:103DA0008C2F8F710E9443247EC0163008F07BC098
:103DB000F7CFDD2339F08C2F8F710E94FD2373C064
:103DC000DD23C9F38C2F8F710E941E246CC0DD236C
:103DD00029F08C2F8F710E94E82365C00E94E32395
:103DE00062C0DD2349F0CF718C2F0E94FD2363E078
:103DF0008C2F0E94FA2557C081E00E940F261230B6
:103E000008F451C082E00E940F264DC0DD2331F03E
:103E1000112389F2802F0E94A81B45C0112391F223
:103E2000093349F49FEFE7EEF3E09150E040F040B2
:103E3000E1F700C00000802F0E94BF1C34C04C2F4F
:103E40004F70602FC7010E944D090E940F2336C09A
:103E5000D11134C0CF70D0E0C230D10599F03CF41C
:103E6000209769F02197F9F40E94BF1327C0C4304E
:103E7000D10571F054F02597B1F480E00AC00E949A
:103E800087131CC00E94331419C00E944F1416C01F
:103E900085E00E94A61412C04C2F4F70602FC701FE
:103EA0000E9450090BC028E0C21AD10884E0C8164D
:103EB000D10420F40E94141A0E94AE08BB20D1F055
:103EC0000E946D2580FD16C0F70112820E946725B1
:103ED0000E94FD23C7010E94841F0E946725DF9175
:103EE000CF911F910F91FF90EF90DF90CF90BF90F7
:103EF0000C941E24DF91CF911F910F91FF90EF90B2
:103F0000DF90CF90BF9008950F931F93CF93DF93CF
:103F1000EC01888199812B813C81232BB9F09F3F53
:103F200011F48F3F99F0CE010E94C708882371F0E9
:103F3000688179818A810E9444258C010E949A249B
:103F40000E949B23B801CE010E943F1DDF91CF91BB
:103F50001F910F9108950E9498250E94A8250E9404
:103F6000C42580E090E00E94691A80E090E00C9403
:103F70007F1A80912501909126010E942E270C9492
:103F8000AB1F0E9488250C94B91FE92FE295EF70B2
:103F9000F0E03297EE30F105B0F4E658FF4F0C94A4
:103FA0005430803F91F018F4883E68F40EC0843F8E
:103FB00051F40BC0883E48F0813F29F406C093FBC2
:103FC000882780F9089580E0089581E008950E948F
:103FD00039250E94C51F0895CF93DF9300D000D0EC
:103FE0001F92CDB7DEB70F900F900F900F900F90EC
:103FF000DF91CF910895CF93DF9300D000D000D010
:10400000CDB7DEB726960FB6F894DEBF0FBECDBF94
:10401000DF91CF9108951F93CF93DF93C0919801C3
:1040200016E080919901C81799F0D0E01C9FF0012B
:104030001D9FF00D1124E656FE4F40815181628193
:104040007381848195810E94FB1F2196C770E9CFFF
:10405000DF91CF911F9108954091CA015091CB01FA
:104060006091CC017091CD018091CE019091CF01F2
:104070000C94FB1F8091CF0182958F7009F054C082
:104080008091CC01882309F44FC080919801A091C0
:1040900099016091CA017091CB014091CD0150917D
:1040A000CE01B6E08A1709F43FC090E041155105F2
:1040B000C1F17F3F11F46F3FA1F1B89FF001B99FAB
:1040C000F00D1124E656FE4F218172132AC0208183
:1040D000621327C02281211124C023813481241737
:1040E000350710F421503109241B350B283C3105CC
:1040F000C0F42091CF012F7020612093CF0126E0E2
:10410000289FF001299FF00D1124E156FE4F808178
:104110008F70806180838AEC91E00E94841F0C94F0
:104120000B2001968770BECF0895CF92DF92EF9259
:10413000FF920F931F93CF93DF93CDB7DEB76297B4
:104140000FB6F894DEBF0FBECDBF8C0185E0F8013D
:10415000DE011D9601900D928A95E1F7D8014C91F0
:1041600011965C91119712966C9112971396CD90BF
:10417000DC9014973091CA017091CB018091CD01F0
:104180009091CE01009709F46BC17F3F19F43F3F36
:1041900009F466C1E090CC01EE2009F4C0C0209182
:1041A000CF01C816D90628F0F601E81BF90BCF019C
:1041B00004C0809590958C0D9D1DFF24F394883C40
:1041C000910578F0F12C207F09F0C6C07C2DD98AAA
:1041D000C88A89890E94EC1F8AEC91E00E94841FA2
:1041E000B1C0822F807F09F046C0751314C034130C
:1041F00012C0611110C02F7020612093CF010E9466
:104200002C208AEC91E00E94841F8091CF01D8017C
:1042100015968C932EC0CD2819F15F3F11F44F3FB6
:10422000F9F0F62E61111CC080919801209199013E
:1042300036E0821709F45AC090E0389FF001399FA8
:10424000F00D1124E656FE4F7181571306C07081A0
:10425000471303C07281711103C001968770E9CFC3
:10426000F62E662309F427C18091CF0181608093E7
:10427000CF01F12C20C1751308C0341306C06111A1
:1042800004C08091CF01D801C3C04D875E878D8562
:104290009E856A8B0E94E71F6A898823E1F1662365
:1042A000D1F12091CF01822F82958F7090E00297FB
:1042B00074F08091CA019091CB0198878F83198601
:1042C000DB86CA862C87CE0107960E94841F86E073
:1042D000F801AAECB1E001900D928A95E1F70E94F5
:1042E0003A200E942C20FF24F394E5C04D875E877E
:1042F0008D859E850E943925292F22952F7030E0CB
:10430000223031050CF0CBC09F7009F0C5C0805E33
:10431000883008F4D0C0C8010E94841FE4CFC816BA
:10432000D90608F453C0F601E81BF90BCF01883C0D
:10433000910508F450C0F12C7C2DD98AC88A89894E
:104340000E94EC1FEAECF1E086E0DF011D928A9505
:10435000E9F70E942C20AFC0751314C0341312C0AB
:10436000611110C08091CF01F8018583C8010E94BE
:10437000841F86E0EAECF1E0DF011D928A95E9F7FF
:10438000FE2C99C04D875E878D859E856A8B0E9425
:10439000E71F6A89882309F4BECF662309F4BBCFDF
:1043A0002091CF01822F82958F7090E002970CF4BC
:1043B0008ECF8091CA019091CB019A8389831B8211
:1043C000DD82CC822E83CE0101967FCF80959095A1
:1043D0008C0D9D1DACCFF62E662309F49CCF751372
:1043E0002EC034132CC02091CF0120FD1FC0822F7E
:1043F00082958F70D9F0D80115962C9315978F3030
:1044000049F08F5F982F9295907F822F8F70892B24
:1044100015968C93C8010E94841F86E0F801AAECCF
:10442000B1E001900D928A95E1F793CF86E0F80113
:10443000AAECB1E001900D928A95E1F73CC04D875E
:104440005E878D859E850E94E71F811140CF8091F8
:10445000CF0181608093CF01C8010E94841F2BC0CF
:10446000662309F458CF4D875E878D859E850E940F
:10447000E71FF82E882309F44ECF86E0F801AAEC56
:10448000B1E001900D928A95E1F78AEC91E00E94EB
:10449000A21B0E943A205DCF811139CF0CC024307D
:1044A00031050CF038CF9F7009F431CFF8019581B8
:1044B000907F09F02CCF8F2D62960FB6F894DEBF57
:1044C0000FBECDBFDF91CF911F910F91FF90EF9065
:1044D000DF90CF9008951F93CF93DF93CDB7DEB7D2
:1044E0002C970FB6F894DEBF0FBECDBF4F83588711
:1044F00069877A878B879C87CE0107960E949520D3
:10450000882369F08F8198852A853B85232BF1F1DB
:104510009F3F09F063C08F3F09F060C037C086E05D
:10452000FE013796DE01119601900D928A95E1F712
:104530006F817885EA85FB85309741F17F3F11F4E3
:104540006F3F21F12091990130E0C90101968770F8
:1045500099274091980150E08417950709F447C0C6
:1045600069837A83FD83EC8396E0929FD001939FC9
:10457000B00D1124A656BE4FFE01319601900D924A
:104580009A95E1F7809399010E940B2016E08091A3
:104590009801909199018917C1F1189FC0011124C8
:1045A00086569E4F0E949520882379F1E0919801CC
:1045B0001E9FF0011124E656FE4F40815181628119
:1045C0007381848195810E94FB1F8091980190E006
:1045D00001968770992780939801D9CF4F8158858C
:1045E00069857A858B859C850E94FB1FCFCF0E94B1
:1045F000C11F1092990110929801EAECF1E086E057
:10460000DF011D928A95E9F7C1CF2C960FB6F89479
:10461000DEBF0FBECDBFDF91CF911F910895EF9206
:10462000FF920F931F93CF93DF938C01892B09F493
:104630006CC0F12CEE24E394E8012196F8018491FA
:10464000843740F4843008F051C0813081F08230EA
:1046500019F15BC0853709F444C0A8F19CE7980FB5
:10466000903708F052C08F770E94BF1C41C00E5F88
:104670001F4FFE01C49180E28C0F883048F4C77050
:104680008E2D01C0880FCA95EAF70E949B2514C0A1
:104690008C2F0E94A81B2DC00E5F1F4FFE01C491DE
:1046A00080E28C0F883058F4C7708E2D01C0880FBF
:1046B000CA95EAF70E94A1250E94C4251AC08C2F32
:1046C0000E94BF1C16C00E5F1F4FFE01C491CC2379
:1046D00081F08FE99FE00197F1F700C00000C15021
:1046E000F6CF0E5F1F4FFE01F49003C00E94A81B7F
:1046F0008E018F2D882309F49FCFEFE9FFE03197DA
:10470000F1F700C000008150F5CFDF91CF911F91EC
:104710000F91FF90EF90089508950C948C230E94C0
:104720008D236093FC017093FD018093FE019093B3
:10473000FF010C94AB1F08950C948F230F931F93CC
:104740000091FC011091FD012091FE013091FF01CB
:10475000602B712B822B932B1F910F910C948F2325
:104760000F931F930091FC011091FD012091FE0118
:104770003091FF0160237123822393231F910F91B6
:104780000C948F230F931F930091FC011091FD0156
:104790002091FE013091FF01602771278227932726
:1047A0001F910F910C948F2308950C94D4230E9491
:1047B000D5236093F8017093F9018093FA019093E7
:1047C000FB010C94AB1F60E070E0CB010C94D7238D
:1047D0000F931F9341E050E060E070E08A019B017D
:1047E00004C0000F111F221F331F8A95D2F7C90181
:1047F000B8011F910F910C94D7230F931F9341E0A1
:1048000050E060E070E004C0440F551F661F771F42
:104810008A95D2F78091F8019091F901A091FA015F
:10482000B091FB018A019B01082B192B2A2B3B2BF2
:10483000C901B8011F910F910C94D7230F931F93B7
:1048400041E050E060E070E004C0440F551F661F77
:10485000771F8A95D2F74095509560957095809115
:10486000F8019091F901A091FA01B091FB018A0140
:104870009B01082319232A233B23C901B8011F9157
:104880000F910C94D7230F931F9341E050E060E009
:1048900070E004C0440F551F661F771F8A95D2F73A
:1048A0008091F8019091F901A091FA01B091FB017A
:1048B0008A019B01082719272A273B27C901B8012C
:1048C0001F910F910C94D7230F931F930091F80120
:1048D0001091F9012091FA013091FB01602B712BAD
:1048E000822B932B1F910F910C94D7230F931F931F
:1048F0000091F8011091F9012091FA013091FB012A
:1049000060237123822393231F910F910C94D7234B
:104910000F931F930091F8011091F9012091FA0172
:104920003091FB0160277127822793271F910F91F8
:104930000C94D7230895292F220F920F990F890FD6
:10494000A82FA695A695A695877051E001C0550F92
:104950008A95EAF785E0A89FD001112420E030E095
:1049600070E0F901EA0FFB1FE053FE4F4081CB01DD
:10497000022E02C0969587950A94E2F781709927D6
:10498000819584278523842780832F5F3F4F25309F
:10499000310539F70895292F220F920F990F890FAA
:1049A000682F669566956695982F977085E0689F45
:1049B000B001112440E050E080E0FA01E60FF71F5B
:1049C000E053FE4F208130E0092E02C03695279536
:1049D0000A94E2F721703327042E01C0220F0A94B3
:1049E000EAF7822B4F5F5F4F4530510531F708954D
:1049F000BF92CF92DF92EF92FF920F931F93CF93CC
:104A0000DF938C01C090FC01D090FD01E090FE018D
:104A1000F090FF018091F8019091F901A091FA01C5
:104A2000B091FB01C82AD92AEA2AFB2ACFE1D0E0BB
:104A3000D701C6010C2E04C0B695A795979587950A
:104A40000A94D2F780FF07C0BC2EB8018C2F0E94B9
:104A50006B09019719F4219758F7B12C8B2DDF9131
:104A6000CF911F910F91FF90EF90DF90CF90BF906B
:104A70000895CF93DF93EC010E94F824BE010E94B9
:104A80006B09DF91CF9108951F93CF93DF93EB01D3
:104A900090919701992321F0CB010E94392513C0F1
:104AA000882349F0CB010E94F824182F682FCE01EB
:104AB0000E949B2404C0CB010E94CB24182FBE016E
:104AC000812F0E946B09DF91CF911F9108958091F2
:104AD00000028595859585950895809100028770DF
:104AE000089590910002977081E009F480E00895A4
:104AF00080910C02089590910C02892B80930C02F6
:104B00000895809590910C02892380930C0208955A
:104B100010920C02089590910B02892B80930B0246
:104B20000895809590910B02892380930B0208953C
:104B300010920B02089590910A02892B80930A0229
:104B40000895809590910A02892380930A0208951E
:104B500010920A02089580910102089508950C941C
:104B6000AE2590910102981721F0809301020C94D8
:104B7000AF25089580910102882329F01092010247
:104B800080E00C94AF250895E0912501F091260175
:104B900080910C028083E0912501F09126019081A3
:104BA00080910B02892B8083E0912501F0912601F1
:104BB000908180910A02892B808380910102882351
:104BC00081F0E0912501F09126019081892B80836D
:104BD00080912501909126010E94F82681110E9462
:104BE000BA2580912501909126010C94201A0895F0
:104BF0000C94F72598E0899F90011124262B20938F
:104C000000020E94FD23809100028595859585957F
:104C10000C94F8251092000280E00C94F825209165
:104C200000028095822380930002982F977079F478
:104C300030E0482F082E000C550B2417350739F0AB
:104C40008595859585950E941E240C940A260895C5
:104C500090935B0180935A0108958295982F9C7CD4
:104C6000392F36953695282F237344E0249FC001B1
:104C70001124932F982B292F2A7A2695892F857511
:104C8000880F822B089580E090E00E94823021E01E
:104C90008C3E9E4F09F020E0822F089582E090E044
:104CA0000C94743083E090E00C947430682F83E0AF
:104CB00090E00C948830CF9384E090E00E947430B0
:104CC000C82F81E290E00E9474302C2F30E0A901BF
:104CD000582BCA01CF910895CF93C92F682F84E034
:104CE00090E00E9488306C2F81E290E0CF910C948C
:104CF000883086E090E00C947430682F86E090E075
:104D00000C948830AB01BC018FE090E00C949A3099
:104D1000AB01BC0183E190E00C949A3060E070E05C
:104D2000CB010C94882660E070E0CB010E948226C3
:104D30000C948E266CEE7EEF80E090E00E94A63010
:104D400060E082E090E00E94883060E083E090E0E4
:104D50000E9488301092FC011092FD011092FE0119
:104D60001092FF0160E084E090E00E94883060E0F3
:104D700081E290E00E94883060E085E090E00E944F
:104D8000883060E086E090E00E9488306FEF87E036
:104D900090E00E94883040E050E0BA0188E090E066
:104DA0000E949A3060E08DE090E00E94883040E000
:104DB00050E0BA0188E190E00E949A3060E087E11B
:104DC00090E00E94883040E050E0BA018CE190E031
:104DD0000E949A3060E080E290E00E9488300C945B
:104DE00093260C949A26682F8EE090E00C948830DD
:104DF000FC01329697E080E0915029F02191222326
:104E0000D9F38F5FF9CF08959C01FC0132969FEF93
:104E100080E04191461789F09F3F19F4411101C08C
:104E2000982F8F5F8630A9F79F3F39F0F901E90F7E
:104E3000F11D97FDFA95628308950895FC0132965D
:104E400008962081261301C010823196E817F907D1
:104E5000C1F708950C9404270C941E27029626E0AF
:104E6000FC0111922A95E9F7089508950C943527CD
:104E70000E94362780916702843061F110920E0201
:104E800020E488E190E00FB6F894A8958093600044
:104E90000FBE2093600080E00E94BD1480E00E945D
:104EA000AE080E94362783B7817F846083BF83B7B3
:104EB000816083BF7894889583B78E7F83BF0FB658
:104EC000F894A895809160008861809360001092AA
:104ED00060000FBE089508950895CF930E946B2738
:104EE0000E94410D0E946C27C0E08C2F0E94270C6D
:104EF000811104C0CF5FCA30C1F701C081E0CF91FA
:104F0000089508950C9481270E94C11F0E94661382
:104F10000E94141A0E94AE080C9482271F920F92CE
:104F20000FB60F9211248F939F93AF93BF938091ED
:104F30000E02811113C080915D0290915E02A091DA
:104F40005F02B09160024196A11DB11D80935D0288
:104F500090935E02A0935F02B0936002BF91AF9105
:104F60009F918F910F900FBE0F901F90189582E028
:104F700084BD93E095BD9AEF97BD80936E00089530
:104F80002FB7F89480915D0290915E02A0915F022C
:104F9000B09160022FBF0895CF92DF92EF92FF92FF
:104FA0000F931F932FB7F89440915D0250915E02CA
:104FB00060915F02709160022FBF6A017B01EE2455
:104FC000FF248C0120E030E0C016D106E206F30693
:104FD00010F4415051099A01281B390BC9011F9146
:104FE0000F91FF90EF90DF90CF90089578941F92EB
:104FF0000F920FB60F9211248F939F93AF93BF938D
:1050000080915D0290915E02A0915F02B09160027A
:105010000196A11DB11D80935D0290935E02A09345
:105020005F02B0936002BF91AF919F918F910F90FB
:105030000FBE0F901F90189581E08093E00080E2F2
:105040008093D8001092C9008FE19EE40197F1F798
:1050500000C0000087E090EBDC0180937002909329
:105060007102A0937202B09373029CE088E10FB6C4
:10507000F894A895809360000FBE90936000FFCFD6
:105080000E944326811102C00E94F1260E944E26F2
:1050900080930D020E945B269093620280936102CE
:1050A0000E945226682F70E080E090E00C949C23D0
:1050B00080911A02089508959FB7F89410921102F2
:1050C0009FBF90916702943009F057C09091E9001A
:1050D0009F703091EC00232F217030FD20E8922B3F
:1050E00023E02093E9002091EB0020FF43C02091B2
:1050F000EE0027FF3FC020910F02222321F02091D4
:10510000E80025FF37C010920F0226E03091E8003A
:1051100035FD15C030916702343061F53091EB00F8
:1051200035FD28C0215021F481E080930F0222C078
:10513000EFE9FFE03197F1F700C00000E7CF80937F
:10514000F1008091E80085FD0AC08091E80080FFB1
:10515000FCCF8091E8008E778093E80006C08FB77F
:10516000F89421E0209311028FBF9F709093E90083
:1051700080E008959F709093E9008FEF08950F935A
:105180001F93CF93DF9300D01F92CDB7DEB78C0172
:105190000E944A2B823011F0843021F584E089830B
:1051A0001B830A8382E08093E9008FEF9091E800EF
:1051B000815095FD06C095ED9A95F1F7000081119B
:1051C000F5CF8091E80085FF0DC040E050E063E03E
:1051D00070E0CE0101960E94672B8091E8008E77E7
:1051E0008093E8000F900F900F90DF91CF911F9167
:1051F0000F910895CF93DF9300D01F92CDB7DEB704
:1052000020916702243031F523E0298380589109E9
:105210009B838A8382E08093E9008FEF9091E8007E
:10522000815095FD06C095ED9A95F1F7000081112A
:10523000F5CF8091E80085FF0DC040E050E063E0CD
:1052400070E0CE0101960E94672B8091E8008E7776
:105250008093E8000F900F900F90DF91CF91089509
:10526000CF93DF93EC010E944A2B823011F08430FF
:1052700039F581E08093E9008FEF9091E80081504B
:1052800095FD06C095ED9A95F1F700008111F5CFD7
:105290008091E80085FF14C040E050E068E070E0D5
:1052A000CE010E94672B8091E8008E778093E80002
:1052B00088E0FE01A2E1B2E001900D928A95E1F74B
:1052C000DF91CF9108958CEA9AE00E944C0680917C
:1052D0006602811109C00E94FC2C0E94592D809108
:1052E000E20084608093E200089588EA9AE00E94D8
:1052F0004C0610926602089584EA9AE00C944C06DB
:1053000080EA9AE00C944C068CE99AE00E944C06E4
:105310000C948427209110022F5F822F62E30E9459
:105320001230992319F02093100208951092100260
:1053300080911102882371F180916702843041F5D8
:105340008091E9008F702091EC00922F917020FDE8
:1053500090E8892B93E09093E9009091EB0090FF07
:1053600014C09091EE0097FF10C09091E80095FF57
:1053700003C01092F100F9CF9091E80090FF05C0B2
:105380009091E8009E779093E8008F708093E900F9
:1053900010921102089542E061EC81E00E94762CA7
:1053A00042E261EC82E00E94762C42E261EC83E012
:1053B0000C94762C80916902833009F460C030F43B
:1053C000813071F0823009F499C008958A3009F46F
:1053D00085C08B3009F46BC0893009F0A7C020C0AC
:1053E00080916802813A09F0A1C08091E800877F2E
:1053F0008093E80080916C0290916D02892B21F4DA
:1054000068E082E192E003C060E080E090E070E05C
:105410000E94B22B8091E8008B778093E80008957A
:1054200080916802813209F081C080916C02909174
:105430006D02029708F07AC08091E800877F809320
:10544000E8008091E80082FD05C08091670281112B
:10545000F8CF6CC02091F3008091F20090E0922B85
:10546000029729F48091F1008B7F813021F48091A3
:10547000F10080931A028091E8008B7753C08091ED
:105480006802813A09F052C080916C0290916D02DD
:10549000892B09F04BC08091E800877F8093E8005A
:1054A0008091E80080FFFCCF8091310136C080916F
:1054B00068028132D9F580916C0290916D02892B3E
:1054C000A9F58091E800877F8093E8000E94AB2CCB
:1054D00080916A02809331010C94C11F809168020F
:1054E000813221F58091E800877F8093E8000E9457
:1054F000AB2C80916B0280931B020895809168020F
:10550000813AA1F48091E800877F8093E800809140
:10551000E80080FFFCCF80911B028093F100809116
:10552000E8008E778093E8000C94AB2C089584B744
:10553000877F84BF0FB6F894A8958091600088613A
:1055400080936000109260000FBE90E080E80FB67C
:10555000F89480936100909361000FBE0E94A31A9B
:105560000E94FC2C0E94592D8091E200846080935F
:10557000E2008CE598E20E94282678940E94E72FAA
:105580000E94A91A87E291E00E940F1A8BE89AE024
:105590000E944C0680916702853089F487E89AE082
:1055A0000E944C060E94382780916502882391F35F
:1055B0000E946D27882371F30E94512BEBCF0E942C
:1055C000DD1AE8CF0C94E42A292F33272330310544
:1055D000C9F064F42130310581F02230310509F041
:1055E00049C08BE590E028EE3AE048C02132310511
:1055F00021F12232310571F13DC082E190E023E4D6
:105600003BE03CC099278130910571F02CF4892B47
:1056100089F5E4EEFAE00DC08230910541F0039780
:1056200049F5E0EBFAE005C0E4EDFAE002C0E6EB94
:10563000FAE0849190E09F0121C063307105D0F4BD
:10564000660F771FFB01ED5AFE4F2081318189E003
:1056500090E014C06330710568F4FB01EE0FFF1F8A
:10566000E35BFE4F20813181FB01E65BFE4F8081D1
:1056700090E004C080E090E020E030E0FA01318367
:105680002083089580916702843011F081E00895AD
:1056900082E0089580911C02811102C00C94422B7B
:1056A000089580E189BD82E189BD09B400FEFDCF86
:1056B0008091D8008F7D8093D8008091E000826037
:1056C0008093E0008091E00081FDFCCF0895CF92AF
:1056D000DF92EF92FF920F931F93CF93DF93EC0132
:1056E0008B016A010E94CA2C811133C0C114D104FC
:1056F00039F0F60180819181081B190BC80FD91F61
:10570000E12CF12C0115110519F18091E80085FDBE
:1057100016C08091E8008E778093E800C114D10410
:1057200049F0F60180819181E80EF91EF182E08254
:1057300085E00FC00E94CA2C882321F30AC08991FA
:105740008093F10001501109FFEFEF1AFF0ADACF41
:1057500080E0DF91CF911F910F91FF90EF90DF904C
:10576000CF90089520916E0230916F02261737076F
:1057700048F06115710539F42091E8002E772093E7
:10578000E80001C0B90140E061157105A9F120915F
:105790006702222309F443C0253009F442C0209156
:1057A000E80023FD40C02091E80022FD32C0209196
:1057B000E80020FFE9CF4091F3002091F20030E0B3
:1057C000342BFC01CF016115710559F028303105EA
:1057D00040F481918093F100615071092F5F3F4F38
:1057E000F1CF41E02830310509F040E02091E80098
:1057F0002E772093E800C8CF4111C9CF0AC080910D
:105800006702882361F0853061F08091E80083FDB4
:105810000AC08091E80082FFF2CF80E0089582E024
:10582000089583E0089581E0089520916E023091FB
:105830006F022617370748F06115710539F420917A
:10584000E8002E772093E80001C0B901FC0120E0B8
:105850006115710591F180916702882309F440C0B8
:10586000853009F43FC08091E80083FD3DC0809100
:10587000E80082FD2FC08091E80080FFE9CF2091F1
:10588000F3008091F20090E0922B6115710559F0C0
:105890008830910540F424912093F10031966150B5
:1058A00071090196F2CF21E0089709F020E080917C
:1058B000E8008E778093E800CBCF2111CCCF0AC0CF
:1058C00080916702882361F0853061F08091E80063
:1058D00083FD0AC08091E80082FFF2CF80E0089546
:1058E00082E0089583E0089581E00895982F97302D
:1058F00058F59093E900981739F07091EC002091D9
:10590000ED005091F00003C0242F762F50E021FFCE
:1059100019C03091EB003E7F3093EB003091ED00E9
:105920003D7F3093ED003091EB0031603093EB0020
:105930007093EC002093ED005093F0002091EE0066
:1059400027FF07C09F5FD3CF8F708093E90081E06E
:10595000089580E008958091680287FF11C08091CA
:10596000E80082FD05C0809167028111F8CF11C067
:105970008091E8008B770BC080916702882349F003
:105980008091E80080FFF8CF8091E8008E778093C7
:10599000E80008952091E4003091E50095E64091FB
:1059A000EC00842F817040FF22C08091E80080FDD0
:1059B0001CC080916702882391F0853091F080911E
:1059C000EB0085FD10C04091E4005091E5004217C6
:1059D000530729F39A01915011F784E0089582E06A
:1059E000089583E0089581E0089580E0089540914E
:1059F000E80042FFDECF08950E946A2D0E94722DBA
:105A0000E0EEF0E0808181608083E8EDF0E080816D
:105A10008F77808319BCA7EDB0E08C918E7F8C933B
:105A200080818F7E80831092660208950F931F936A
:105A3000CF93DF930E946A2D0E94722DC8EDD0E0B3
:105A400088818F77888388818068888388818F7D2B
:105A5000888319BC1092670210926302109265024B
:105A60001092640200EE10E0F80180818B7F808349
:105A700088818160888342E060E080E00E94762C2B
:105A8000E1EEF0E080818E7F8083E2EEF0E08081C5
:105A900081608083808188608083F80180818E7F2F
:105AA0008083888180618883DF91CF911F910F91DE
:105AB0000895E8EDF0E080818F7E8083E7EDF0E0EF
:105AC00080818160808384E082BF81E08093660270
:105AD0000C94162DE8EDF0E080818E7F808310928B
