:100000000C9449060C941E1D0C9490060C949006BA
:100010000C9490060C9490060C9490060C94900608
:100020000C9490060C9490060C940D320C94E032D3
:100030000C94F02B0C9490060C9490060C94900663
:100040000C9490060C9490060C9490060C949006D8
:100050000C9490060C945B2C0C9490060C949006D7
:100060000C9490060C9490060C9490060C949006B8
:100070000C9490060C9490060C9490060C949006A8
:100080000C9490060C9490060C9490060C94900698
:100090000C9490060C9490060C9490060C94900688
:1000A0000C9490060C9490060C9490062B00295DFD
:1000B0002A5D2B5D13001C0029610400120008005A
:1000C00018000C00E1002C5D14000D000E001B0058
:1000D000E000E300E200075104512C0000000000A2
:1000E00001003802E100E2002A000F0015000600BE
:1000F0000A00090028001600110017000B00070075
:10010000E1001D0019001A0010000500E40009516B
:10011000E600065108512C000000000001002A00F2
:10012000E100E6002B0034003600370013001C000D
:10013000296104001200080018000C00E1003300DF
:1001400014000D000E001B00E000E300E200075168
:1001500005512C000000000001002D02E100E2002A
:100160002A000F00150006000A00090028001600EA
:10017000110017000B000700E1001D0019001A0014
:1001800010000500E4000951E600065108512C005A
:100190000000000001002A00E100E6002B0014002E
:1001A0001A00080015001700296104001600070056
:1001B00009000A00E1001D001B00060019000500EF
:1001C000E000E300E200075105512C0000000000B0
:1001D00001002D02E100E2002A00130012000C00D1
:1001E00018001C00280033000F000E000D000B004B
:1001F000E10034003700360010001100E40009511E
:10020000E600065108512C000000000001002A0001
:10021000E100E6002B001E001F002000210022004C
:100220002961170014001A0008001500E1001C00E5
:100230000400160007000900E0001D001B00060076
:100240001900050000000000E300E2002C0010008F
:100250002A00270026002500240023002800330060
:100260000F000E000D000B00E100340037003600D7
:1002700010001100E4000951E60006510C000A00CC
:1002800000000000045113001800120001001E02BB
:100290001F1420022114220201002D002702251420
:1002A00026142D020100010006011B011901301462
:1002B0000100010001000100010001000000000038
:1002C00001000100010001000100310226022502A7
:1002D00023023002010038002714241424022D14B4
:1002E0000100330034002F0064142E0201000100CD
:1002F00001000100010001000000000001000100F8
:100300000100010001001E021F0220022102220240
:1003100001002E022E002F003000380201000100E3
:1003200006011B0119013502010001000100010055
:1003300001000100000000000100010001000100B7
:1003400001002502270226022402230201002D00BB
:1003500030022F02380031000100010001000100CD
:10036000310235000100010001000100010001001F
:1003700000000000010001000100010001003A003E
:100380003B003C003D003E00010050004F00520089
:1003900051004400010001000100010001000100C2
:1003A0000100010001000100010001000000000047
:1003B0000100010001000100010043004200410072
:1003C00040003F0001004C004A004B004600450041
:1003D000010049004D004E00010001000100010034
:1003E0000100010001000100000000000100010007
:1003F0000100010001004C050100010001000100A5
:10040000010049040100010001000100010029036D
:1004100001000100010001000100010001000100D4
:1004200001000100000000000100010001000100C6
:1004300001000100010001000100010001000100B4
:1004400001000100010001000100010001000100A4
:100450000100010001000100010001000100010094
:100460000000000001000100010001000100010086
:10047000010001000100010001001E001F0020001A
:100480002100220001000100010001000100010023
:100490000100010001000100010001000000000056
:1004A0000100010001000100010001000100010044
:1004B0000100010001002700260025002400230080
:1004C0000100010001000100010001000100010024
:1004D0000100010001000100000000000100010016
:1004E0000100010001000100010001000100010004
:1004F00001000100010001000100010001000100F4
:1005000001000100010001000100010001000100E3
:1005100001000100000000000100010001000100D5
:1005200001000100010001000100010001000100C3
:1005300001000100010001000100305D2F5D2E5D12
:10054000315D010001000100010001000100010016
:100550000000000001000100010001004445425577
:10056000473A2064697361626C65642E0A004445F1
:100570004255473A20656E61626C65642E0A000A36
:100580000025303862003A200025303258000A72C7
:100590002F632030313233343536370A00726762C8
:1005A0006C6967687420616E696D6174696F6E2033
:1005B0007469636B207265706F727420746F20733E
:1005C0006C6176650A007267626C69676874207492
:1005D000696D65722064697361626C652E0A0072D0
:1005E00067626C696768742074696D657220656EF6
:1005F00061626C65642E0A007267626C6967687478
:100600002073657420687376205B4E4F45455052C9
:100610004F4D5D3A2025752C25752C25750A0072E5
:1006200067626C69676874207365742068737620EC
:100630005B454550524F4D5D3A2025752C25752C54
:1006400025750A007267626C696768742072616957
:100650006E626F7720736574206873763A20256424
:100660002C25642C25642C25750A007267626C6940
:100670006768742064697361626C65205B4E4F45E6
:100680004550524F4D5D3A207267626C69676874DD
:100690005F636F6E6669672E656E61626C65203D93
:1006A0002025750A007267626C6967687420646946
:1006B0007361626C65205B454550524F4D5D3A2039
:1006C0007267626C696768745F636F6E6669672ED4
:1006D000656E61626C65203D2025750A0072676257
:1006E0006C6967687420656E61626C65205B454566
:1006F00050524F4D5D3A207267626C696768745F53
:10070000636F6E6669672E656E61626C65203D2061
:1007100025750A007267626C6967687420746F6778
:10072000676C65205B454550524F4D5D3A207267BE
:10073000626C696768745F636F6E6669672E656E69
:1007400061626C65203D2025750A007267626C69E4
:10075000676874206D6F6465205B4E4F454550524D
:100760004F4D5D3A2025750A007267626C696768B3
:1007700074206D6F6465205B454550524F4D5D3A66
:100780002025750A007267626C696768745F696E1C
:100790006974207267626C696768745F636F6E6604
:1007A00069672E6D6F6465203D20302E2057726979
:1007B00074652064656661756C742076616C75651E
:1007C0007320746F20454550524F4D2E0A007267BA
:1007D000626C696768745F696E6974206565636FD0
:1007E0006E666967206973206E6F7420656E616242
:1007F0006C65642E0A007267626C696768745F6971
:100800006E6974207374617274210A007267626C7D
:10081000696768745F696E69742063616C6C656494
:100820002E0A007267626C696768745F636F6E6638
:1008300069672E7370656564203D2025640A007227
:1008400067626C696768745F636F6E6669672E764E
:10085000616C203D2025640A007267626C696768DC
:10086000745F636F6E6669672E736174203D202527
:10087000640A007267626C696768745F636F6E66B2
:1008800069672E687565203D2025640A00726768D7
:100890006C696768745F636F6E6669672E6D6F64FD
:1008A00065203D2025640A007267626C6967687480
:1008B0005F636F6E6669672E656E61626C65203D71
:1008C0002025640A007267626C696768745F636FF1
:1008D0006E66696720454550524F4D3A0A001E0F1B
:1008E0000500047F3F1F643214643214783C1E1EDE
:1008F000140A052223252628292A2C2D2F303233AD
:100900003536383A3B3D3E4042434547494A4C4ED6
:100910005051535557595A5C5E6062646668696B02
:100920006D6F71737577797B7D7F81838587898A08
:100930008C8E90929496989A9C9E9FA1A3A5A7A80E
:10094000AAACAEAFB1B3B4B6B8B9BBBCBEBFC1C23E
:10095000C3C5C6C7C9CACBCCCDCED0D1D2D2D3D4D1
:10096000D5D6D7D7D8D9D9DADADBDBDBDCDCDCDCEF
:10097000DCDDDDDDDDDCDCDCDCDCDBDBDBDADAD9BD
:10098000D9D8D7D7D6D5D4D3D2D2D1D0CECDCCCB3F
:10099000CAC9C7C6C5C3C2C1BFBEBCBBB9B8B6B45D
:1009A000B3B1AFAEACAAA8A7A5A3A19F9E9C9A98ED
:1009B000969492908E8C8A89878583817F7D7B79BE
:1009C000777573716F6D6B6968666462605E5C5A9F
:1009D0005957555351504E4C4A4947454342403E62
:1009E0003D3B3A3836353332302F2D2C2A292826F4
:1009F000252322FFAA7F55400001010101010101C9
:100A000001010202020202020202020303030303C3
:100A10000303030404040404040405050505050692
:100A20000606060607070707070808080809090950
:100A3000090A0A0A0B0B0B0C0C0C0D0D0D0E0E0EF9
:100A40000F0F0F101011111112121313141415158A
:100A500016161717181819191A1A1B1B1C1D1D1EFC
:100A60001E1F202021222223242425262627282950
:100A7000292A2B2C2D2D2E2F30313232333435367E
:100A80003738393A3B3C3D3E3F404142434445467E
:100A90004748494A4C4D4E4F50515354555658595A
:100AA0005A5B5D5E5F616264656668696B6C6D6F01
:100AB0007072737577787A7B7D7E80828385878874
:100AC0008A8C8E8F91939596989A9C9EA0A2A3A5AE
:100AD000A7A9ABADAFB1B3B5B7BABCBEC0C2C4C6AF
:100AE000C9CBCDCFD1D4D6D8DBDDDFE2E4E7E9EB6B
:100AF000EEF0F3F5F8FAFDFF0A0025303258200039
:100B00006B6579626F6172645F7265706F72743A5F
:100B100020000A0025303258006B6579626F6172DF
:100B2000645F7365745F6C65643A20005B735D009D
:100B30004B6579626F6172642073746172742E0AFE
:100B4000005B575D005B535D005B525D005B445D85
:100B5000005B435D0026034B006500650062006991
:100B6000006F0020004900720069007300200052ED
:100B700000650076002E002000340000000E034BBC
:100B80000065006500620069006F00000004030951
:100B90000409025B00030100A0FA0904000001033C
:100BA0000101000921110100012240000705810314
:100BB00008000A09040100010300000009211101D5
:100BC00000012232000705820320000A0904020006
:100BD0000203000000092111010001222200070583
:100BE0008303200001070503032000011201100107
:100BF0000000000810CB564200040102000106313B
:100C0000FF0974A1010975150026FF0095207508DC
:100C100081020976150026FF00952075089102C013
:100C200005010980A101850319012AB700150126D4
:100C3000B700950175108100C0050C0901A101855F
:100C40000419012AA002150126A002950175108140
:100C500000C005010906A101050719E029E71500F3
:100C60002501950875018102950175088101050727
:100C7000190029FF150026FF00950675088100055B
:100C800008190129059505750191029501750391D2
:100C900001C011241FBECFEFDAE0DEBFCDBF04B626
:100CA00003FE27C080916C0390916D03A0916E03A9
:100CB000B0916F038730904BA740B04BD1F41092A6
:100CC0006C0310926D0310926E0310926F0314BEAA
:100CD00084B7877F84BF0FB6F894A8958091600091
:100CE000886180936000109260000FBEE0E0F8E33E
:100CF000099511E0A0E0B1E0E8EDFCE602C0059046
:100D00000D92AE3FB107D9F723E0AEEFB1E001C0DD
:100D10001D92AC36B207E1F70E94462F0C941736AD
:100D20000C940000FF93EF93E091FE01F091FF011E
:100D3000309709F00995EF91FF910895FC01859195
:100D4000803011F0EFDFFBCF0895FF27E0E230E2C3
:100D500047FF0CC0419597FF09C0EDE26095709583
:100D600080959095611D711D811D911D27FF02C009
:100D7000219530E350E2AA27660F771F881F991F3D
:100D8000AA1FA41710F0A41B63955A95A9F7AA30BF
:100D900008F0A95FA05DAF93F3956115710581051A
:100DA000910541F7ED3211F4EF93F395F21718F432
:100DB0003F93F395FBCF8F91B5DFFA95E1F7089557
:100DC000E991F9918591803021F0853219F0AADFFF
:100DD000F9CF089520E0E89455915532C1F350338E
:100DE00011F4689455915A3348F4505390F3220FFC
:100DF000022E220F220F200D250FF4CF0EF4219585
:100E000089919991533619F3533729F1533559F193
:100E1000BC0188279927E8945C3621F4899199913F
:100E200068945591543639F446EF7EF077FF0DC043
:100E30008FEF9FEF0AC055374AE039F0583540E14F
:100E400021F0523642E009F00895FF93EF937DDFE1
:100E5000EF91FF91B7CFFF93EF93FC018191803029
:100E6000B9F360DFFBCFFF93EF9368DFF1CFDF9340
:100E7000CF93CDB7DEB72596A3DFCF91DF9108954D
:100E80000E9418164FEF6FEF80E00E94FF118BE079
:100E90000E94151660E070E0CB010E94D02A0C94ED
:100EA000DC2A089508950F931F93CF93DF93EC01ED
:100EB0008B018091010286FF13C0C13ED10529F448
:100EC000DB0112968C91882319F081EE0E94FE1F9F
:100ED00084E60E948720809101028F7B809301022B
:100EE000C13ED10509F4FFC0FE01E952FD45E930DC
:100EF000F10508F0DFC0E75EF94CD80112968C913D
:100F00000C94F4348823B9F0E0913A01F0913B015C
:100F1000808181FF09C08FE10E94FE1F8091010244
:100F2000816080930102C6C081E30E94FE1F809110
:100F300001028260F6CF8091010280FF08C08FE13C
:100F40000E948720809101028E7F80930102809110
:100F5000010281FFAFC081E30E94872080910102DE
:100F60008D7FDFCF8823C1F0E0913A01F0913B0102
:100F7000808181FF0AC081EE0E94872084E60E9462
:100F8000FE1F809101028064CCCF86E30E94FE1F89
:100F9000809101028068C5CF8091010286FF08C060
:100FA00084E60E948720809101028F7B809301025A
:100FB0008091010287FF7EC086E30E948720809196
:100FC00001028F77AECF8823A9F0E0913A01F0912A
:100FD0003B01808181FF07C084E60E94FE1F809153
:100FE000010284609ECF87E30E94FE1F8091010270
:100FF000886097CF8091010282FF08C084E60E943A
:101000008720809101028B7F8093010280910102F1
:1010100083FF50C087E30E94872080910102877F71
:1010200080CF8823C1F0E0913A01F0913B018081AB
:1010300081FF07C087E30E94FE1F8091010280614B
:1010400070CF81EE0E94FE1F86E30E94FE1F8091FA
:101050000102806266CF8091010284FF08C087E3AD
:101060000E948720809101028F7E809301028091EF
:10107000010285FF1FC086E30E94872081EE0E9447
:101080008720809101028F7D4CCF882361F0809171
:10109000000280FF15C081EF0E948720809100022E
:1010A0008E7F80930002F8018281882319F080E00E
:1010B0000E94E90881E0DF91CF911F910F9108957F
:1010C00081EF0E94FE1F809100028160EACF882399
:1010D00089F381E0EDCF882369F382E0E9CF8823AB
:1010E00049F383E0E5CFD80112968C91882329F04B
:1010F00081EE0E94FE1F86E3C2CF81EE0E94872010
:101100008FE10E948720809101028E7F80930102EF
:1011100084E60E948720809101028B7F80930102E8
:1011200087E30E948720809101028F7E80930102D5
:10113000E2CF81E008950C94530708950C949D0824
:101140001F93CF93DF9300D000D00F92CDB7DEB7BF
:1011500049835A836B833091910289819A8131113D
:101160001DC06623B9F02223A9F00E944E29182F32
:10117000682F89819A810E94F52869817A81812F5F
:101180000F900F900F900F900F90DF91CF911F91C4
:101190000C94A7090E942429182FEFCF0E944E29F2
:1011A00069817A81EDCFFC01262F408151816281D6
:1011B000738184810C94A008CF93DF93D82FC92F1B
:1011C00060E00E94D3086D2F7C2FDF91CF910C94AB
:1011D0009E08CF93DF9300D000D0CDB7DEB721E0DB
:1011E00030E002C0220F331F8A95E2F73A83298349
:1011F00089810E94B02AA981BA81CD01B0E0A0E026
:1012000089839A83AB83BC83BC01CD010F900F907F
:101210000F900F90DF91CF910C9431270E949D2A5F
:10122000811102C00E943F2B0C94A90B0C94AB0BB4
:1012300008950E94A7230E9418092FEF84E39CE0E1
:10124000215080409040E1F700C000000C94EB2C4E
:101250000F931F93CF93DF93EC0161E00E94D308BB
:101260008C01BE010E949B08882341F1BE01C80188
:101270000E947F1A882311F1BE01C8010E94D41A6E
:101280008823E1F0BE01C8010E94A71B8823B1F0AA
:10129000BE01C8010E945818882381F08A818823E2
:1012A00041F101308CE5180779F00F3D8CE5180706
:1012B000E9F001151C45E9F40E94190980E0DF916D
:1012C000CF911F910F91089590910703892F8E7FE1
:1012D00090FF81608093070380FF05C08EE695E054
:1012E0000E949E06EBCF8CE595E0FACF0E943F2B43
:1012F000E5CFCE01DF91CF911F910F910C9499080A
:10130000829594E0899F900111242C7C8695869586
:101310008373282B30E0C901880F991F8A7A35958D
:1013200027952575822B089508950C94940981E0E2
:1013300008950C949709CF93C82F0E9495098C2F7C
:10134000CF910C94990990E080E008950895972F2B
:1013500070E026E0929F600D711D1124FB019CE35B
:10136000899FE00DF11D1124EE0FFF1FE455FF4F83
:10137000859194910895FC01EE0FFF1FE158FA4FFB
:10138000859194910895CF93DF930E94A7090E94BD
:10139000CE0AEC01811521E5920708F048C08115BD
:1013A00030E5930708F0AFC0803E910518F5803C0A
:1013B000910508F096C0883A910570F4853A910538
:1013C00008F08CC08130910531F10497813A910584
:1013D00010F1D0E0C0E01FC08F3B9105D1F3C85A97
:1013E000D0E0CC0FDD1FCF5ADE4F0990D881C02D41
:1013F000D46411C0811540E3940788F4C11580E2DC
:10140000D80708F074C0C83ED10528F0CE019A95DF
:1014100081159F41F0F6CE01DF91CF91089581159E
:1014200030E4930708F466C0DF70D06AF4CF81150A
:10143000964560F5C11585E5D80708F096C0C11539
:1014400094E5D907F0F4C11523E5D20708F079C077
:10145000C11532E5D30708F46FC0CE018370992718
:1014600021E030E002C0220F331F8A95E2F7C695D3
:10147000C69540E2C49FE0011124C22BD32BDC6847
:10148000CACFDC2FCC27C46FD06AC5CFC1158AE57F
:10149000D80788F4C11599E5D90708F071C0CE01C5
:1014A00098558F3F910511F008F093CFDC2FCC2792
:1014B000C06FD06AB0CFCE0190568115904208F02F
:1014C00088CF8D2F8F710E94660B90E0982F882710
:1014D00088279F719C012C2BE90150C0A497D064F0
:1014E0009ACF805C91090E94BB09EC0194CFCE0198
:1014F0009F70F9CF9927D3FF03C0EC01D86C8BCF35
:10150000EC01D06C88CF74E0969587957A95E1F7D9
:1015100083702C2F26952695237040E2249F9001FE
:101520001124382B8C2F8370C1E0D0E002C0CC0F87
:10153000DD1F8A95E2F7A1CFDC2FCC27C16FD06ADF
:101540006ACFCE018370992721E030E002C0220FDC
:10155000331F8A95E2F7C695C69580E2C89FE001E1
:101560001124C22BD32BDA6856CF8C2F0E94660B26
:10157000C82FD0E0DC2FCC27CC27DF71D0624BCF37
:101580008C2F8F700E94660B34E0D695C7953A95E4
:10159000E1F7CF70DC2FC82FD0693DCF803E910599
:1015A00099F1C8F48133910509F476C048F4893281
:1015B000910509F46AC08A32910509F474C008954E
:1015C00089339105D1F082389105B9F085339105C1
:1015D00009F454C00895843E910599F138F4823E8F
:1015E0009105F9F0833E910509F10895863E910534
:1015F00099F1873E9105B9F1089520915D0323701B
:10160000A1F080EE90E0089520915D0320FD52C08E
:1016100030915E0330FF09C024FF4FC090E080E0AE
:1016200004C020915D0322FDF7CF089520915D0352
:1016300022FD46C030915E0330FDE3CF24FFF5CF9D
:10164000EDCF20915E0321FFF0CF80915D0384FDFB
:10165000E5CF87EE90E0089520915D0323FFE5CF6D
:1016600024FDDCCFF6CF20915D0323FD2CC030910B
:101670005E0331FFE3CF84EE90E0089520915D0397
:1016800025FFD3CF89E290E0089520915D0325FFE7
:10169000CCCF85E390E0089520915D0326FFC5CF70
:1016A0008AE290E0089520915D0326FFBECF81E39A
:1016B00090E0089589E390E0089583EE90E0089526
:1016C00082EE90E0089586EE90E0089590915D039B
:1016D00092FF06C0282F28712830F9F4877F846094
:1016E00093FF06C0282F28712831F1F4877E84618A
:1016F00020915E0320FF06C0382F38713830D9F4AE
:10170000877F816021FF06C0282F28712831D1F4FE
:10171000877E816194FD877E0895282F247124306F
:10172000F9F68B7F8860DCCF282F2471243101F7F4
:101730008B7E8861DDCF382F3171313019F78E7F84
:101740008860E0CF282F2171213121F78E7E8861BA
:10175000E1CF0C9451070C945207E82FF0E0E05EC3
:10176000FC4F80810895CF92DF92EF92FF920F930A
:101770001F93CF93DF938EE895E00E949E0680E250
:10178000E82E83E0F82ED0E0C0E099E8C92E95E07D
:10179000D92E01E815E0DF93CF93DF92CF920E941C
:1017A000370786E895E00E949E06F70181917F0148
:1017B0000E9480091F928F931F930F930E943707F7
:1017C0008FE795E00E949E0621968DB79EB70896FA
:1017D0000FB6F8949EBF0FBE8DBFCA30D105D9F6A3
:1017E000DF91CF911F910F91FF90EF90DF90CF90FD
:1017F000089580EA8A95F1F7089500C008950C9441
:10180000F90BF894E82FE295EF70A1E2AE0FB0E08B
:101810004C918F7021E030E0B90102C0660F771F54
:101820008A95E2F7CB01962F909594239C93EE5DD9
:10183000F0E09081892B8083789408950895EF9249
:10184000FF920F931F93CF93DF93CDB7DEB76097CF
:101850000FB6F894DEBF0FBECDBF0E94FC0D809185
:10186000140181112AC086E0E7E4F1E0DE0111965F
:1018700001900D928A95E1F7FE01379684E0DF0131
:101880001D928A95E9F78AE03697AAE0B1E00190C7
:101890000D928A95E1F786E0EFE7F1E0DE011B9615
:1018A00001900D928A95E1F786E0FE013B96A4E057
:1018B000B1E001900D928A95E1F78091140195E0D5
:1018C000811190E090932B0385E0891B80932A037C
:1018D0000AE011E09FE0E92E91E0F92EF8018191F4
:1018E0008F010E94010CE016F106C1F704E011E03F
:1018F0008AE0E82E81E0F82ED8018D918D010E94BA
:10190000010CE016F106C1F78AE0E6E1F3E0DF0141
:10191000982F1D929A95E9F7E0E2F3E0DF011D921E
:101920008A95E9F785E00E94A10D0E940E09609654
:101930000FB6F894DEBF0FBECDBFDF91CF911F91E0
:101940000F91FF90EF900C94110EEF92FF921F9366
:10195000CF93DF9300D000D00F92CDB7DEB70E94B7
:10196000DF0D182F60912B03882309F455C01A82CC
:101970001982FE01339683E0DF011D928A95E9F713
:10198000862F90E032977F01BF01805E9C4F0E94BE
:10199000FA1B811124C0809102028F5F80930202A2
:1019A0008630C0F1E0912A03F0E0E05EFC4F85E074
:1019B000DF01282F1D922A95E9F7D7011D928A95FC
:1019C000E9F70E941609812F0F900F900F900F904A
:1019D0000F90DF91CF911F91FF90EF90089510929B
:1019E0000202A0912A03B0E0A05EBC4F9E012A5FD4
:1019F0003F4F10E04D91F70191917F01491731F070
:101A0000AD0141505109FA019083182FE216F306F7
:101A100089F7D7CF10E0D5CF70E0605E7C4F809122
:101A20002A0390E0805E9C4F0E94361C0E941E0C90
:101A3000CACFAF92BF92CF92DF92EF92FF920F93F5
:101A40001F93CF93DF93CAE0D1E006E113E08FE06C
:101A5000C82E81E0D82EB12CEE24E394F12C89918C
:101A6000F894E82FE295EF70A1E2AE0FB0E02C9170
:101A70008F70A70102C0440F551F8A95E2F7CA0173
:101A8000922F982B9C93EE5DF0E0908180958923B6
:101A9000808378940E94FD0BE4E0F1E030E020E0E8
:101AA000A12C4191A42FA295AF70A05EB0E08C91C3
:101AB00090E04F7002C0959587954A95E2F780FDBA
:101AC0003CC08E2D022E01C0880F0A94EAF7A82A86
:101AD0002F5F3F4F2630310521F7FE01319780817E
:101AE0000E94010C0E94FF0BF8018081A81639F1B9
:101AF000A08281E0B82A0F5F1F4FCC16DD0609F0E7
:101B0000AECF60912B0370E0605E7C4F2B2D45E0E3
:101B100086E193E00E94A20D0E94A50CB11001C0C5
:101B2000B82E8B2DDF91CF911F910F91FF90EF90E9
:101B3000DF90CF90BF90AF90089580E0C8CF80E055
:101B4000D9CF0895FF920F931F93CF93DF93F82E71
:101B5000092F162FD72FC42F222349F081E080931D
:101B600005020E94202C909304028093030280912E
:101B700005028823A1F080910302909104020E9443
:101B80004C2C069760F0EF2DF02FA12FBD2FCF0129
:101B90008C0F911DE817F90741F410920502DF91AF
:101BA000CF911F910F91FF90089521912D93F2CF26
:101BB00055985D9889B185FB882780F908958091B3
:101BC0000602811110C08091D80080618093D800F6
:101BD0008AE18A95F1F700C08091D90080FD0AC0A2
:101BE00082E08093060281E090910602913009F034
:101BF00080E0089581E0F5CF0E94D80D8093140114
:101C00008091140166E0882349F080E00E94BE0EB6
:101C10000E94DF0D882321F00C94D11B86E0F6CFC3
:101C200008950E94DF0D811102C00C94D71B089506
:101C3000CF92DF92EF92FF920F931F93CF93DF9398
:101C4000D62FC72F982F711113C0442329F0E82FE6
:101C5000F0E0E850F64F9491692F792F892FDF91AA
:101C6000CF911F910F91FF90EF90DF90CF9008954B
:101C7000272F30E0E82FF0E0442321F0E850F64F22
:101C8000E491F0E086E0D89F700111240FEF10E09E
:101C9000C701B8010E94AA348D2F90E0880F991FC8
:101CA000A5E5A69FA001A79F500D1124841B950BAD
:101CB000D82EDD0CD80EC801821B930B8E9FA0017D
:101CC0008F9F500D9E9F500D1124952FDC9EE0019B
:101CD0001124CD2FDD27D801AC1BBD0BED01CE9F0C
:101CE000D001CF9FB00DDE9FB00D11248B2FE801E6
:101CF000CD19D1096E01C29EE001C39ED00DD29EC6
:101D0000D00D1124CD2FDD270C1B1D0B0E9FE001E4
:101D10000F9FD00D1E9FD00D11242E2F6330710503
:101D2000D9F03CEFE31633E0F30668F46130710557
:101D3000B9F062307105C1F0AFEFEA16F10448F472
:101D4000852F9D2F06C06430710589F066307105BE
:101D5000B9F3692F722F83CF9B2F8E2F252FF9CFA9
:101D60009E2F2B2F852FF5CF8D2F9E2FF7CF8E2FC8
:101D70002D2FEFCF41E00C94180E0895E8E1F1E02B
:101D80008083618308950C94BA0ECF93DF93982FCC
:101D9000762F842FE901692F0E94C30E798368830F
:101DA0008A83DF91CF91089580912C03982F9E7F95
:101DB00029F48170826080932C0308958635E8F3BE
:101DC00081708465F8CF88E090E00C94B8350F936B
:101DD0001F93CF93DF938B01D82FC92F0E94D40E6E
:101DE000A8016D2F7C2F88E090E0DF91CF911F91AB
:101DF0000F910C94D635ECE2F3E083E080831182FE
:101E00008FEF828383831482E0E5F2E08281836036
:101E1000828363E070E08FEF9FEF0C94E70E809178
:101E2000070380FF76C085EC98E09F938F930E9414
:101E30003707809107030F900F9080FF6AC0809151
:101E40002C0381701F928F9388EA98E09F938F9361
:101E50000E943707809107030F900F900F900F900B
:101E600080FF57C080912C0386951F928F938DE839
:101E700098E09F938F930E943707809107030F90FC
:101E80000F900F900F9080FF44C080912D031F9200
:101E90008F9383E798E09F938F930E9437078091F9
:101EA00007030F900F900F900F9080FF32C080912A
:101EB0002E031F928F9389E598E09F938F930E9442
:101EC0003707809107030F900F900F900F9080FFBE
:101ED00020C080912F031F928F938FE398E09F93F0
:101EE0008F930E943707809107030F900F900F90F8
:101EF0000F9080FF0EC0809130031F928F9383E27A
:101F000098E09F938F930E9437070F900F900F9048
:101F10000F90089580912C0380FF02C0869508954C
:101F200080E00895CF93DF9300D000D0CDB7DEB727
:101F300090913003933018F49F5F9093300388237F
:101F4000B1F080912C0390912D03A0912E03B091BC
:101F50002F0389839A83AB83BC83BC01CD010F908F
:101F60000F900F900F90DF91CF910C94E70E0F9090
:101F70000F900F900F90DF91CF91089581E00C9416
:101F8000920FCF93DF9300D000D0CDB7DEB7909102
:101F90003003992319F09150909330038823B1F0C6
:101FA00080912C0390912D03A0912E03B0912F03CB
:101FB00089839A83AB83BC83BC01CD010F900F90C2
:101FC0000F900F90DF91CF910C94E70E0F900F9030
:101FD0000F900F90DF91CF91089581E00C94C10F85
:101FE00070E00C94C7186091190180912C0380FF58
:101FF0000AC08091180123E0829FC00111248F5CE8
:102000009C4F0C94F00F80911A0190911B0123E0DA
:10201000829FF0011124EF5CFC4F891750F7118269
:10202000108212828F5F3396F8CF90912C0390FF2D
:1020300014C090911A0120911B0133E0939FF0018D
:102040001124EF5CFC4F921710F00C94F30F818376
:10205000608342839F5F3396F6CF0895CF93DF93DB
:1020600000D00F92CDB7DEB790912C0390FF0AC03D
:102070009E012F5F3F4F0E94C50E4B8169818A816F
:102080000E9415100F900F900F90DF91CF9108953F
:10209000CF93DF93EC01EC81F0E0ED50F74F4491EA
:1020A000ECE2F3E0628181810E942E108C818F5FCF
:1020B0008C83DF91CF910895CF93DF93EC01ECE215
:1020C000F3E0438162818C810E942E108C818F5FAE
:1020D0008C83DF91CF9108950F931F93CF93DF935C
:1020E00000D00F92CDB7DEB78C018091070281112D
:1020F0000AC09E012F5F3F4F4FEF6FEF0E94C50E4A
:102100008A8180930702F8016481613049F062306E
:10211000F1F08091070240E0662331F040E019C001
:102120006091070240E080E00E941510F801848170
:1021300090E0019663E070E00E94BE3484830F90CB
:102140000F900F90DF91CF911F910F9108954091C3
:10215000070280E060E0E8CF4F925F926F927F923B
:102160008F929F92AF92BF92CF92DF92EF92FF92A7
:102170000F931F93CF93DF9300D000D000D00F9226
:10218000CDB7DEB7182FF62E042FE22E90912C0338
:1021900090FF5DC0E92FE695AE2FB0E0AA57BE4F85
:1021A0008C91809350029E7F923009F067C09E010F
:1021B0002F5F3F4F812F0E94C50E4B8169818A811D
:1021C0000E94151080912D03811308C080912E0369
:1021D0008F1104C080912F03801729F08091520243
:1021E00082608093520210932D03F0922E0300938D
:1021F0002F03EE2009F4A2C080912C0390912D03AF
:10220000A0912E03B0912F038C839D83AE83BF8357
:10221000BC01CD010E94E70E8091070380FF17C02B
:1022200080912F031F928F9380912E031F928F9383
:1022300080912D031F928F938FE196E09F938F9350
:102240000E9437070FB6F894DEBF0FBECDBF2796AA
:102250000FB6F894DEBF0FBECDBFDF91CF911F91B7
:102260000F91FF90EF90DF90CF90BF90AF909F9035
:102270008F907F906F905F904F900895823019F407
:1022800000912F039FCF863019F410912D039ACF20
:102290008930D9F3893109F095CFE9518E2F8170BA
:1022A000682E81E0762C7826E695F0E0ED50F64F2A
:1022B000C590D490512CDD2494E4892E96E0992E7B
:1022C00060911C01561618F00E94F30F7BCFA52CCD
:1022D000B12C5C9CC0015D9C900D112470E00E94AB
:1022E000AA34412E611028C0460E8091070380FF5A
:1022F00011C0DF92CF921F927F921F924F921F9236
:102300005F929F928F920E9437070FB6F894DEBFBC
:102310000FBECDBF80911A01A80EB11C9501220FEE
:10232000331F2A0D3B1D2F5C3C4F402F6F2D842DFA
:102330000E94C50E5394C4CF461AD7CF809107038D
:1023400080FF85CF1F920F931F92FF921F921F93C2
:1023500088EF95E073CF282FECE2F3E08181438191
:102360006281885F0C94AC1081E00C94AB11282F33
:10237000ECE2F3E081814381628188500C94AC10DF
:1023800081E00C94B711282FECE2F3E0628131E197
:10239000630F08F46FEF438181810C94AC1081E0EE
:1023A0000C94C311282FECE2F3E0628131E1631B4E
:1023B00008F460E0438181810C94AC1081E00C94BE
:1023C000D211282FECE2F3E0438131E1430F08F40E
:1023D0004FEF628181810C94AC1081E00C94E1118B
:1023E000282FECE2F3E0438131E1431B08F440E0A5
:1023F000628181810C94AC1081E00C94F01121E099
:102400000C94AC1020E00C94AC10EF92FF921F9350
:10241000CF93DF93EC0110E0EE24EA94F12C60916D
:102420001C01161770F00E94F30F9A818C8190FFA7
:1024300027C08F5F8C83DF91CF911F91FF90EF902A
:10244000089520911A01422F410F5527551FCA01A7
:102450009A01220F331F280F391F2F5C3C4F70E069
:10246000C7010E94BE34962F8C8140912F0360914A
:102470002E03199F800D11240E94C50E1F5FCFCF20
:102480008150D8CF9F92AF92BF92CF92DF92EF92BE
:10249000FF920F931F93CF93DF93EC018A81BB24AC
:1024A000BA9480FD02C0BB24B3948C8181110AC010
:1024B00081E0B81227C080911C01815080930902ED
:1024C00081E08C83A12C80911C01A816F0F00E9461
:1024D000F30F8091090291E0B91260C0811159C0D7
:1024E00080911C018150809309021C82DF91CF9161
:1024F0001F910F91FF90EF90DF90CF90BF90AF9022
:102500009F90089510920902DBCF80911A01CA2C86
:10251000D12C8C0D9D2D911D8C01000F111F080FCA
:10252000191F0F5C1C4FF80111821082128234E0D7
:10253000E32EF12C912C80910902890D8D301CF134
:102540006CE00E949C34892F082E000C990BC81651
:10255000D90691F480912F038E9DA0018F9D500D7F
:1025600011245595479555954795980160912E03EF
:1025700080912D030E94C50E9B0CF1E0EF1AF1082B
:10258000D1F6A394A0CF87FFDFCF90911C01890FD4
:10259000DBCF815080930902BC82A8CF90E00196E6
:1025A00060911C0170E00E94BE34809309028C830C
:1025B0009DCFEF92FF920F931F93CF93DF93EC0188
:1025C0008C81811109C081E08C831092080292E015
:1025D000909317018093160180911A0190911B012D
:1025E00023E0829FF0011124EF5CFC4F891768F112
:1025F00010E003E060911C01161768F10E94F30FD0
:102600008091160120910802280F209308029091D2
:102610001701980F90931701191654F4022E000C0D
:10262000330B40911C014150550B2417350734F0F2
:10263000819580931601813009F41C82DF91CF913E
:102640001F910F91FF90EF900895118210821282D6
:102650008F5F3396CBCFE12EF12C70E0C7010E9443
:10266000BE3420911A01820F482F50E020910802B9
:10267000022E000C330BE216F306BCF0209117017A
:10268000022E000C330B2E153F057CF0809F90012D
:1026900011242F5C3C4F40912F0360912E038091B9
:1026A0002D030E94C50E1F5FA5CFFA01EE0FFF1F7D
:1026B000E40FF51FEF5CFC4F118210821282F3CF02
:1026C000EF92FF920F931F93CF93DF93CDB7DEB7B7
:1026D0002E970FB6F894DEBF0FBECDBF8D879E87B5
:1026E000AD85BE8514961C91212F30E0D9010E9442
:1026F00002359B01AC010E94183569837A838B8374
:102700009C83E0E2F0E0E11BF109A5E5B0E09B016C
:10271000AC010E94183569877A878B879C879F0157
:10272000DF010E94FA346D837E838F8398879B013B
:10273000AC010E9423359B01AC0169817A818B81B8
:102740009C81260F371F481F591F69857A858B8505
:102750009C850E94D234F22E822F90E079E272178B
:1027600088F183E0289F9001112435952795122F39
:10277000109500E085E5E82EEF1880911C01081700
:1027800080F10E94F30FAD85BE8514969C9181E087
:10279000992319F0903219F48FEF809315018091ED
:1027A0001501890FED85FE8584832E960FB6F8946A
:1027B000DEBF0FBECDBFDF91CF911F910F91FF9074
:1027C000EF90089525E530E0D901A81BB90B9D01D4
:1027D000220F331F2A0F3B1F37FFC7CF2F5F3F4FFB
:1027E000C4CF8E2D01FD8F2D20911A01E22FE00F15
:1027F000FF27FF1F9F01220F331F2E0F3F1F2F5C4C
:102800003C4F412F60912E030E94C50E0F5FB5CF44
:102810000F931F93CF93DF93EC0110E000E09091B2
:102820001C019017110609F06CF40E94F30F8C81C3
:1028300090E00196817099278C83DF91CF911F9151
:102840000F91089580911A01A801480F511D9A0116
:10285000220F331F240F351F2F5C3C4F4C8160919A
:102860002E0380912D0396959017110651F04CF090
:10287000442349F040912F030E94C50E0F5F1F4F64
:10288000CECF4423B9F340E0F7CF4F925F926F92DF
:102890007F928F929F92AF92BF92CF92DF92EF92F0
:1028A000FF920F931F93CF93DF93FC0162804480CC
:1028B00081E08483E3EFF8E07490E2E7F9E0E491EB
:1028C000812C75E0972EF2E0CF2EDD24D394AA243C
:1028D000AA94B12C55245A94E7190E2F10E0809138
:1028E0001C01881690F0DF91CF911F910F91FF90FE
:1028F000EF90DF90CF90BF90AF909F908F907F90A0
:102900006F905F904F900C94F30FE82CF12C82E0C5
:10291000861568F09E9CF0019F9CF00D1124E35FEA
:10292000FD4F80912D03808380912E038183411080
:1029300023C09E9CF0019F9CF00D1124E35FFD4F8E
:102940001382128280911A018E0D9F2D911D9C0180
:10295000220F331F280F391F2F5C3C4F9E9CF00124
:102960009F9CF00D1124E35FFD4F428161818081C6
:102970000E94C50E8394B3CF9E9CE0019F9CD00D16
:102980001124C35FDD4F8B818823E9F081508B8355
:10299000859DC00111246C8170E00E94AA34FB0166
:1029A000FF27ED50F74F8491E82FE719E59DC0010F
:1029B0001124B8010E94AA3480912F03689FB001AE
:1029C00011247A83BFCF0E949335AC0190912F03DD
:1029D000969591589C9D90019D9D300D1124232F1B
:1029E0003327421753070CF0ADCF82E0861588F4E9
:1029F0000E949335B5010E94BE3488830E949335AE
:102A000020912E032695622F70E00E94BE34280F7D
:102A100029839E9CF0019F9CF00D1124E35FFD4FE4
:102A2000128280912F03893C58F088EC9E9CF00123
:102A30009F9CF00D1124E35FFD4F8483838382CF3D
:102A40008431A0F784E1F2CF809152020895109270
:102A500052020895CF93DF93EC0185E0ECE2F3E0BE
:102A6000DE0101900D928A95E1F7809150029091DC
:102A70005102A09152028D839E83AF83DF91CF914B
:102A80000895E0E5F2E011828281846082830895F6
:102A900060912C03669570E04BE050E08DE191E091
:102AA0000E94A335892B19F481E0809351020E9482
:102AB000E22C90934A0280934902809152028460F2
:102AC000809352028091070380FF08C08FED95E04C
:102AD0009F938F930E9437070F900F900895109245
:102AE00051028091520284608093520280910703C8
:102AF00080FF08C086EC95E09F938F930E94370774
:102B00000F900F900895CF93DF9300D000D0CDB7F2
:102B1000DEB790912C0390FF66C0917081114DC07B
:102B2000926090932C0380915202816080935202B4
:102B3000662309F449C080912C0390912D03A09144
:102B40002E03B0912F0389839A83AB83BC83BC018E
:102B5000CD010E94E70E8091070380FF0FC0809196
:102B60002C0386951F928F9389E697E09F938F930E
:102B70000E9437070F900F900F900F9060912C03D9
:102B8000669570E04BE050E08DE191E00E94A33546
:102B9000892B31F10E946F1581E080934C024091A6
:102BA0002F0360912E0380912D030F900F900F90B3
:102BB0000F90DF91CF910C9402128B3210F094653C
:102BC000B0CF880F982BADCF8091070380FFD6CF71
:102BD00080912C0386951F928F938BE497E0C6CF4C
:102BE0000E944815D9CF0F900F900F900F90DF9152
:102BF000CF910895682F80912C0386958F5F8B323B
:102C000008F081E00C94831581E00C94FA15682F8C
:102C100090912C0396958FEF890F913009F48AE2F9
:102C20000C94831581E00C94071661E00C948315D5
:102C300080912C03816080932C038091070380FF97
:102C40000DC01F9281E08F938DED96E09F938F933F
:102C50000E9437070F900F900F900F9080912C03D8
:102C600086950C94151660E00C94831580914F02A4
:102C7000811165C08091070380FF14C08CE098E04B
:102C80009F938F930E943707809107030F900F90B7
:102C900080FF08C086EF97E09F938F930E943707CD
:102CA0000F900F900E949D2A811110C08091070300
:102CB00080FF08C08EEC97E09F938F930E943707A8
:102CC0000F900F900E943F2B0E94FB0E0E94E30E7C
:102CD00060932C0370932D0380932E0390932F0306
:102CE000809152028360809352026E7FC1F4809182
:102CF000070380FF08C085E897E09F938F930E94A9
:102D000037070F900F900E94FB0E0E94E30E609316
:102D10002C0370932D0380932E0390932F030E9416
:102D2000D40E0E940F0F0E94411580912C0380FF4A
:102D300003C086950E94331681E080934F02089568
:102D4000CF93DF9300D000D0CDB7DEB780912C03B6
:102D50008E7F80932C0380912C0390912D03A09162
:102D60002E03B0912F0389839A83AB83BC83BC016C
:102D7000CD010E94E70E8091070380FF0FC0809174
:102D80002C0381701F928F9385EA96E09F938F9317
:102D90000E9437070F900F900F900F900E946F15B1
:102DA000809152028160809352029FEFA0E7B2E0CF
:102DB0009150A040B040E1F700C000000F900F908C
:102DC0000F900F90DF91CF910C94F30F8091070338
:102DD00080FF10C080912C03809581701F928F938B
:102DE00084E197E09F938F930E9437070F900F9095
:102DF0000F900F9080912C0380FD0C94A0160C94E2
:102E0000181680912C038E7F80932C0380910703EA
:102E100080FF0CC01F921F928BE696E09F938F93CA
:102E20000E9437070F900F900F900F900E946F1520
:102E3000809152028160809352022FEF80E792E0EE
:102E4000215080409040E1F700C000000C94F30F47
:102E50001F93CF93DF93EC01162F8F8180FF0CC05F
:102E6000888180FF24C080912C03816080932C0393
:102E7000888186950E9483158F8181FF06C0212F4E
:102E80004B816A8189810E94AC108F8182FF05C0CD
:102E90008E81882379F00E9448158F8183FF03C0BB
:102EA00081E080934C02DF91CF911F9108950E94A1
:102EB0000117E2CF0E946F15F0CFEF92FF920F93B0
:102EC0001F93CF93DF9380915102882309F475C03B
:102ED00080915002E0912C03E695E81BE0934B02B1
:102EE000823009F071C0F0E0E151F74FE491CE2F4C
:102EF000D0E008E410E180914C02882361F0109248
:102F00004C020E94E22C90934A0280934902109254
:102F10004E0210924D020E94E22C9C0180914902C7
:102F200090914A02A901481B590BCA018F3F9F4744
:102F300008F043C080910C02882311F110920C021A
:102F400080910A0290910B02281B390B2F3F3F47BB
:102F5000B8F4805D9A4890930B0280930A028091A6
:102F6000070380FF08C08DE995E09F938F930E942F
:102F700037070F900F908091520288608093520221
:102F8000E0904D02F0904E02E0914902F0914A0229
:102F9000CE0FDF1FD0934A02C093490289E492E02A
:102FA000F801099580914D0290914E02892B29F4E8
:102FB000EF2819F081E080930C02DF91CF911F91EF
:102FC0000F91FF90EF900895863049F4F0E0E451BE
:102FD000F74FE491CE2FD0E00CE510E18CCF893093
:102FE00051F4E695F0E0E751F74FE491CE2FD0E0B1
:102FF00005E012E180CF8F3051F4E695F0E0EA5120
:10300000F74FE491CE2FD0E002E412E174CF853186
:1030100049F4F0E0ED51F74FE491CE2FD0E009ED07
:1030200012E169CFC8E2D0E000E613E1883109F48B
:1030300062CF833239F4E1EEF8E0C591D4910CE629
:1030400010E159CFC4EFD1E008E014E1843209F473
:1030500052CFC0EDD7E00DEB1EE0853209F04BCF2B
:103060008E2F63E00E949034E92FF0E0E252F74F98
:10307000E491CE2FD0E005E414E13DCFFA018111B7
:103080000994FB01FDCFCF93DF93C82FD62F0E9469
:103090008A0F8C1740F00E948A0F8D1720F4DF9161
:1030A000CF910C9404168C2FDF91CF910C941516B0
:1030B0001F93CF93DF93EC01FB011281111110C01C
:1030C0000E94EB298272FE01E35CFC45E431F105CC
:1030D00008F05BC0EE5DF94C0C94F4340E94E616E7
:1030E000812FDF91CF911F91089542E156E164E075
:1030F00076E10E943E18F4CF44E056E162E176E1C9
:10310000F8CF40EC51E164EB71E1F3CF44EB51E1D6
:1031100060EC71E1EECF4EED51E16FEC71E1E9CF82
:103120004FEC51E16EED71E1E4CF4CEF51E16DEE0A
:1031300071E1DFCF4DEE51E16CEF71E1DACF4DEE91
:103140005FE06EEB7FE0D5CF4EEB5FE06DEE7FE0B2
:10315000D0CF81E00E941516C3CF65E082E00E94C7
:103160004318BECF68E086E0FACF6EE089E0F7CF83
:1031700064E18FE0F4CF67E185E1F1CF88E1EACF48
:1031800062E289E1ECCF83E2E5CF11E0A9CF9C01B7
:10319000AB01569A6BB16F7B7BB17064EFB7F8945B
:1031A000CA01880F991F840F951F820F931F8217E2
:1031B000930741F4EFBF8FE594E00197F1F700C06A
:1031C00000000895D9014D919D0158E07BB90000A0
:1031D00000C047FF6BB9440F000000C000C000C032
:1031E0006BB900C05A9591F7E2CF08950C94F51889
:1031F000CF93DF9380911401811106C087EF8093F4
:10320000290186EF8093280120912901A22FA29500
:10321000AF70E1E2EA0FF0E030812F7081E090E0E2
:10322000BC01022E01C0660F0A94EAF7462F4095B2
:1032300043234083E2E2EA0FF0E03081362B308313
:1032400040912801E42FE295EF70C1E2CE0FD0E06B
:1032500038814F70042E01C0880F0A94EAF7982F26
:10326000909593239883C2E2CE0FD0E09881892B6A
:103270008883A05EB0E08C9190E002C09595879520
:103280002A95E2F78170E05EF0E0208130E002C034
:10329000359527954A95E2F792E020FF90E0892B3B
:1032A000809358029091140181E0982790935402E2
:1032B000891B80935302DF91CF910895CF93E091C2
:1032C0005802EE0FEE0F20912901A22FA295AF70A8
:1032D000A05EB0E08C9190E02F7002C0959587952C
:1032E0002A95E2F78170992740912801A42FA29591
:1032F000AF70A05EB0E02C9130E04F7002C0359509
:1033000027954A95E2F7A9014170552720FF02C091
:1033100042E050E0842BE82BE0935802C091540225
:10332000EF70F0E0EF54FE4F808190915702890FCB
:103330008093570220E0843074F0EC2F0C2E000CA8
:10334000FF0BEB5AFD4F80818F5F808360E08C2FF5
:103350000E94F61821E0809157028D3F74F4EC2F03
:103360000C2E000CFF0BEB5AFD4F808181508083A7
:1033700061E08C2F0E94F61821E080915702082E00
:10338000000C990B64E070E00E94BE3480935702F9
:10339000822FCF910895E0915402F0E0EB5AFD4F57
:1033A0002081FC0120830895FF920F931F93CF93F8
:1033B000DF93D09153020D2F10E00B5A1D4FFC01EB
:1033C000C081F8018081C81BFC2E80E01F147CF0B6
:1033D0009C2FC7FD90E0C91BC11114C08823E9F0E0
:1033E000DF91CF911F910F91FF900C94C61EFA941C
:1033F000F80180818F5F808360E08D2F0E94F61836
:1034000081E0E4CFCF5FF80180818150808361E06B
:103410008D2F0E94F61881E0DFCFDF91CF911F91B1
:103420000F91FF9008950F931F93CF93DF93C42FB5
:10343000D22FFC0182818823C9F040935B020E9455
:10344000202C90935A028093590280E28C0F88308E
:1034500008F050C0C77081E001C0880FCA95EAF734
:10346000DF91CF911F910F910C94F52010915B0289
:10347000141335C08091590290915A020E944C2C2D
:10348000883C910560F5C0E2CD0F1D17B9F080E2D0
:10349000810F883040F4177081E001C0880F1A95C1
:1034A000EAF70E94FC20C83048F481E09D2F977015
:1034B00001C0880F9A95EAF70E94F520802F0E949C
:1034C000ED20C830B8F4D77081E001C0880FDA95DC
:1034D000EAF7DF91CF911F910F910C94FC2080E2CD
:1034E0008C0F883038F4C77081E001C0880FCA950E
:1034F000EAF7EFCFDF91CF911F910F9108950F93CE
:103500009C01CB01243F4CE53407A1F190F4293D07
:10351000FCE53F0749F12A3D4CE53407E9F1283D38
:103520003C45C1F0FC0182818823E1F110925B02ED
:1035300019C0263FFCE53F0719F1273F4CE534074A
:1035400029F1253F3C4571F707E225EE44EE65EF92
:103550007CE505C006E221EE41EE68ED7CE50E94C7
:10356000131A80E00F91089507E225EE45EE69ED0C
:103570007CE5F5CF06E221EE40EE64EF7CE5EFCF8F
:1035800006E221EE42EE66EF7CE5E9CF07E225EEAA
:1035900046EE67EF7CE5E3CF08E221E045EE6AED19
:1035A0007CE5DDCF81E0DECFCF93DF93EC01FB0143
:1035B0008281882309F4C9C0C631FCE5DF07E0F445
:1035C000C2309CE5D907F0F00E94B52A90935E03C3
:1035D00080935D03C631ECE5DE0720F5C230FCE5E3
:1035E000DF0798F480915D0390915E030E94C32AE7
:1035F0000E94A72380E006C09E012B5F3C45293036
:10360000310510F3DF91CF910895FE01E350FC45A1
:1036100080915D038160E331F10588F4EA5CF94C47
:103620000C94F434CB5FDC45C930D105D8F6C75BC8
:10363000D94CFE010C94F43480915D038260809338
:103640005D03D0CF80915D038460F9CF80915D03ED
:103650008860F5CF80915E03816080935E03C2CF66
:1036600080915E038260F9CF80915D038061E7CF36
:1036700080915D038062E3CF80915D038064DFCF42
:103680000E94A72380915D038068D9CF80915D035C
:103690008C60D5CF80915E038360DFCF80915D0326
:1036A0008E7FCDCF80915D038D7FC9CF80915D03EB
:1036B0008B7FC5CF80915D03877FC1CF80915E03F3
:1036C0008E7FCBCF80915E038D7FC7CF80915D03CE
:1036D0008F7EB5CF80915D038F7DB1CF80915D03EB
:1036E0008F7BADCF0E94A72380915D038F77A7CFFB
:1036F00080915D03837FA3CF80915E038C7FADCFEC
:1037000080915D0382FB992790F921E0922790FB3D
:1037100082F990FB83F993CF80915E03982F909567
:1037200091708E7F892B90FB81F997CF0E94A72300
:1037300090915D03892F97FB87F9805880CF81E0B6
:103740000E94412B4FCF80E0FBCF81E05BCFCF9336
:10375000DF93EB0186319C4511F50E94EB299A819C
:10376000992399F08A7A91E009F490E090935C02B1
:10377000811109C089E20E94C6290E943A2A80E08C
:10378000DF91CF91089585E3F6CF80915C0281119E
:1037900004C089E20E94CD29F0CF85E3FBCF81E010
:1037A000EFCF62E070E08AE291E00C94CB1C62E023
:1037B00070E08AE291E00C94D41C0E9424158823C6
:1037C00061F089E692E00E942A1581E090E00E9473
:1037D000AD1D892B11F40C94271508958091680272
:1037E000883039F460E089E692E00E942817109250
:1037F00068020895CF93DF9300D000D00F92CDB729
:10380000DEB76D8379830E94DD1B90E080E00E942B
:10381000AD1D9C0180E02115310501F5ED81F98197
:10382000D901AE59BD4F8C9181932F5F3F4F253009
:103830003105B1F787E692E00E94D4190E94B12CBD
:10384000DC01CB010296A11DB11D80935E02909315
:103850005F02A0936002B093610281E00F900F902D
:103860000F900F900F90DF91CF910895CF93DF933A
:1038700000D000D000D0CDB7DEB76E837D830E942C
:10388000EE1B80915E0290915F02A0916002B09168
:10389000610289839A83AB83BC83BC01CD010E9402
:1038A000882CEE81FD8190E080E02191DC01AE5911
:1038B000BD4F2C93019685309105B9F787E692E0CC
:1038C00026960FB6F894DEBF0FBECDBFDF91CF9125
:1038D0000C94CB198EE1489B02C08150E1F7489BC4
:1038E000FECF0895589880E28A95F1F7589A089586
:1038F000FC013BE03A95F1F720E090E080E031E018
:1039000040E14A95F1F7880F489B02C08160232768
:1039100042E04A95F1F7000040E14A95F1F79F5FD8
:103920006913EECF90E19A95F1F799B132E03A95AB
:10393000F1F7000040E14A95F1F79170922720815C
:10394000920F90830895EF92FF920F931F93CF935E
:10395000DF930F92CDB7DEB719828C017C01E60EA2
:10396000F11C0E151F0561F481E09981911180E031
:103970000F90DF91CF911F910F91FF90EF900895DD
:103980000E946A1C68E0CE0101960E94781CF80132
:1039900081938F01E6CF90937302809372026093BC
:1039A0007102509A589A089590937302809372020C
:1039B000609371025098589AE89AE9E6F0E08081A5
:1039C0008C7F808308956150770B91E001C0990F3F
:1039D0006A95EAF720E031E0911108C0222391F0C6
:1039E000589A80E28A95F1F758980895492F48230C
:1039F00039F0589A232740E24A95F1F79695ECCF93
:103A00005898F9CF5898EDCFFF920F931F93CF930B
:103A1000DF93EC018C01060F111DC017D10731F4A3
:103A2000DF91CF911F910F91FF900895F9900E941F
:103A3000721C68E08F2D0E94E31CEFCF1F920F9243
:103A40000FB60F9211240F931F932F933F934F9311
:103A50005F936F937F938F939F93AF93BF93EF93F6
:103A6000FF93CF93DF930F92CDB7DEB719820E94F9
:103A70006A1C67E0CE0101960E94781C082F06950B
:103A800006950695982F92959570202F2570920F88
:103A9000292F2370969596958770920F891344C0AD
:103AA0008981811141C0809171028017E8F120E184
:103AB0002A95F1F7589A509A82E08A95F1F700C05A
:103AC000A8E00A9FC00111240091720210917302B4
:103AD000080F191F5898F8016581662321F0868127
:103AE00097810E94041D0E94721CF0E1FA95F1F783
:103AF00058985098589A20E12A95F1F7D8011296D3
:103B00006C911297662331F113968D919C910E94CE
:103B1000A31CD801ED91FC91882311F088E001C02D
:103B200082E080830E946A1C0F90DF91CF91FF9109
:103B3000EF91BF91AF919F918F917F916F915F9125
:103B40004F913F912F911F910F910F900FBE0F90AA
:103B50001F901895ED91FC91E1CF0F931F93CF9398
:103B6000DF939C0180917102821713060CF471C0DF
:103B7000890183E0000F111F8A95E1F7C09172025D
:103B8000D0917302C00FD11FF894509A589885E0D5
:103B90008A95F1F70000922F969595702570920FF7
:103BA000892F837096959695980F092B0E94721C09
:103BB00000C067E0802F0E94E31C80E18A95F1F746
:103BC0005098589A489B17C087E090E0489915C0D4
:103BD0006D81662321F18E819F810E94A31C81113A
:103BE0001EC0509A589AE881F98182E080837894C7
:103BF00082E090E00DC000C0E5CF019771F4509ACB
:103C0000589AE881F98181E08083789481E090E09E
:103C1000DF91CF911F910F91089500C0D7CF0E94DF
:103C20006A1C80E28A95F1F75898509A80E18A954B
:103C3000F1F76A81662321F08B819C810E94041D2B
:103C40000E94721CE881F9811082789490E080E0F3
:103C5000DFCF84E090E0DCCF90937902809378020C
:103C60000895E0917802F0917902309721F0019067
:103C7000F081E02D099480E00895EF92FF920F9378
:103C80001F93CF93DF938C01E0917802F09179023A
:103C90003097B1F10280F381E02D099580910703FF
:103CA00082FF2EC080FF04C080E09BE00E949E0641
:103CB000E801780188E0E80EF11C0AEF1AE0809133
:103CC000070380FF0BC088811F928F931F930F9370
:103CD0000E9437070F900F900F900F902196CE15EE
:103CE000DF0569F78091070380FF0AC088EF9AE03B
:103CF000DF91CF911F910F91FF90EF900C949E0652
:103D0000DF91CF911F910F91FF90EF900895209137
:103D10007602309177022817390771F09093770275
:103D200080937602E0917802F0917902309721F049
:103D30000680F781E02D0994089520917402309156
:103D400075022817390771F09093750280937402F9
:103D5000E0917802F0917902309721F00084F185AA
:103D6000E02D099408950E942C2C60938D0270938D
:103D70008E0280938F0290939002609389027093D9
:103D80008A0280938B0290938C0208950E942C2CBF
:103D900060938D0270938E0280938F0290939002B5
:103DA00060938502709386028093870290938802C5
:103DB000089585B7806885BF85B7806885BF0895F9
:103DC000089508950C94E01E08950C94E41E0E943A
:103DD000D91E84EE9EE20E940F2D0E94E11E0C94DB
:103DE000E21E0C94DF0D089508950E94172C0E9486
:103DF0007F2C0E941F0C0E94142D0E9436160E94D8
:103E0000F8180C94E51ECF93C82F8091070382FF0A
:103E10001EC080FF1CC089E19BE00E949E0680912D
:103E2000070380FF14C01F92CF9384E19BE09F9310
:103E30008F930E943707809107030F900F900F9088
:103E40000F9080FF04C082E19BE00E949E068C2FB1
:103E5000CF910C949B09AF92BF92CF92DF92EF92D9
:103E6000FF920F931F93CF93DF9300D000D00F9258
:103E7000CDB7DEB70E94F31E0E94F41E0E94190DFA
:103E800081110E94B31E8BE7A82E82E0B82E10E0AD
:103E900000E0C02E802F0E94AD0BF82EF501E190BE
:103EA0005F01E81609F452C08091070381FD0E946A
:103EB000B30B8E2D8F25D12CEE24E394982F9E21C9
:103EC00009F43FC00E94F11E882399F0D982CA826A
:103ED000FE2081E009F480E08B830E94202C816029
:103EE000782F9D838C8349815A816B818D810E94BB
:103EF000CD1FF801E558FD4F8081E826E0820E9441
:103F00005D170E945E1981110E94C61E0E94311E1B
:103F100090917A02891789F10E94311E80937A026A
:103F20000F900F900F900F900F90DF91CF911F91F6
:103F30000F91FF90EF90DF90CF90BF90AF900C94D7
:103F4000031FD394EE0CF6E0DF12B8CF0F5F1F4FC4
:103F50000A30110509F09DCF8FEF89838A831B8278
:103F60000E94202C8160782F9D838C8349815A8107
:103F70006B818D810E94CD1FC2CF0F900F900F904B
:103F80000F900F90DF91CF911F910F91FF90EF90C5
:103F9000DF90CF90BF90AF900895CF93DF93CDB7D0
:103FA000DEB72B970FB6F894DEBF0FBECDBF4F83A1
:103FB000588769877A878B8761110E940D2A1E8234
:103FC00085E0FE013796DE01119601900D928A95EB
:103FD000E1F749815A816B817C818D819E812B968D
:103FE0000FB6F894DEBF0FBECDBFDF91CF910C941A
:103FF0000926FC01808191810C949029CF93C82FD0
:10400000882309F482C08238C1F40E94311E81FDE8
:104010007CC089E30E94C6290E943A2A2FEF31EE24
:1040200084E0215030408040E1F700C0000089E387
:104030000E94CD29CF910C943A2A8338A1F40E9492
:10404000311E80FD62C083E50E94C6290E943A2A83
:104050009FEF21EE34E0915020403040E1F700C066
:10406000000083E5E5CF8438A1F40E94311E82FD73
:104070004CC087E40E94C6290E943A2A8FEF91EE35
:1040800024E0815090402040E1F700C0000087E428
:10409000CFCF8CEF8C0F813A90F46C2F80913A0146
:1040A00090913B010E94582B882329F08C2F0E946D
:1040B000CD290E943A2A8C2F0E94C629BBCF80E2CC
:1040C0008C0F883048F4C77081E001C0880FCA9512
:1040D000EAF70E94EE29AECF8BE58C0F833038F4DF
:1040E0002C2F2452330BC901CF910C94871EC85A30
:1040F000C73158F4EC2FF0E0EE0FFF1FEF53FE4FE7
:1041000080819181CF910C949D1ECF910895882339
:1041100009F44BC0823871F40E94311E81FF45C002
:1041200089E30E94C6290E943A2A89E30E94CD2988
:104130000C943A2A833859F40E94311E80FF35C00E
:1041400083E50E94C6290E943A2A83E5EFCF84388E
:1041500059F40E94311E82FF28C087E40E94C629BC
:104160000E943A2A87E4E2CF9CEF980F913AF0F24E
:1041700090E2980F983050F4877091E001C0990F49
:104180008A95EAF7892F0E94F429D2CF9BE5980FF0
:10419000933020F490E080E00C94871E885A873199
:1041A00020F490E080E00C949D1E08951F93CF931F
:1041B000DF93182FEB010E94FE1F209731F4812F0F
:1041C000DF91CF911F910C9487208FE99FE0019799
:1041D000F1F700C000002197F0CF70E060E0893374
:1041E00011F460E570E00C94D620882321F00E9441
:1041F000EE290C943A2A0895882321F00E94F4298C
:104200000C943A2A0895AF92BF92CF92DF92EF9228
:10421000FF920F931F93CF93DF9300D000D00F92A4
:10422000CDB7DEB76C016D837983FC011281058106
:1042300002950F700E94E429E82E8823A1F0E12E58
:10424000112389F08981807F803429F08D81805EFF
:10425000E12C883040F082E00E94852A0E94E42907
:1042600091E0E82EE926A980A2949FE0A922B12C32
:10427000F501EE5AF94C0C94F43409810F70F98170
:10428000F07F11F00295007F1123B1F0002361F05F
:104290008D81805E883018F02D81211109C0802F1A
:1042A0000E94EE290E943A2A8D810E94FE1F15C0AD
:1042B000802F0E94FF29F6CF8D810E948720002346
:1042C00061F08D81805E883018F04D81411133C0DE
:1042D000802F0E94F4290E943A2A48E0A41AB108CB
:1042E00054E0A516B10420F40E94311E0E949B09DF
:1042F000EE2009F4CBC10E94E02980FDC7C1F60180
:1043000012820E94DA290E94E527C6010E946D23CD
:104310000E94DA290F900F900F900F900F90DF916D
:10432000CF911F910F91FF90EF90DF90CF90BF90B2
:10433000AF900C941628802F0E94052ACCCF59816B
:104340005F70F52E6981607F603219F0F29480EF22
:10435000F8227D81772369F0713049F1112391F1C1
:10436000002351F1F601858180FF9ECF8F708583F8
:1043700023C0112381F0011106C00E94212A8F2938
:104380000E94F520AACF0130C1F70E94212A8F296F
:104390000E94272AA2CF011106C00E94302A8F2D29
:1043A0000E94FC209ACF013009F497CFF6CF112359
:1043B00029F0063008F091CF8F2DE2CF053008F0BC
:1043C0008CCFEDCF002359F3FD81F93349F42FEF62
:1043D00047EE53E0215040405040E1F700C000005C
:1043E0008D810E94872079CF8981869586958370FB
:1043F00069F0813009F071CF8D819981937011112D
:1044000002C090E080E00E949D1E67CF8D8199815F
:104410009370111102C090E080E00E94871E5DCF72
:104420008981837009F050C0111157CF4D81429599
:1044300046954770440F440F8D818F7090E0B0E037
:10444000A0E0042E04C0880F991FAA1FBB1F0A9466
:10445000D2F76D8100E010E0980164FF0FC00FE01B
:1044600010E020E030E004C0000F111F221F331FB6
:104470004A95D2F7009510952095309579817695DB
:10448000769573707D83B901A801482B592B6A2B4F
:104490007B2B49835A836B837C835D8169817A811D
:1044A0008B819C81523051F0533059F0513019F0CA
:1044B0000E945B2712CF0E9433270FCF0E948327D1
:1044C0000CCF0E94312709CF112309F445C069811F
:1044D00060FF03CF4D81429546954770440F440FCE
:1044E0008D818F7090E0B0E0A0E0042E04C0880FB2
:1044F000991FAA1FBB1F0A94D2F7ED8100E010E0BC
:104500009801E4FF0FC00FE010E020E030E004C0AD
:10451000000F111F221F331F4A95D2F700951095E7
:1045200020953095F981F695F695F370FD83B901E4
:10453000A801482B592B6A2B7B2B49835A836B8309
:104540007C83F230A1F0F330C9F0F13049F0CB01B7
:10455000BA010E94A428C1CE798171FFBECEBACF24
:1045600069817A818B819C810E947C28B6CE698189
:104570007A818B819C810E94CC28AFCE69817A811F
:104580008B819C810E94AF27A8CE59815F7059838F
:10459000112329F0852F0E94E5278D81F1CE8D8191
:1045A0000E94FC2089810E94162897CE6D81623F6F
:1045B00099F160F4603FD9F0613F39F1112309F4BA
:1045C00044C0011171CE89818F7123C07D81733FF9
:1045D00041F1743F99F7112371F189818F718983BA
:1045E0000E94E52763E089810E94702A76CE11231C
:1045F00041F0053008F071CE89818F710E944B28FF
:104600006CCE063008F069CEF7CF89818F71112307
:1046100051F20E94E52761CE89818F711123C9F380
:10462000C2CF112329F089818F710E94C02755CEF6
:104630000E94BB2752CE81E00E94852A023008F4F6
:104640004CCE82E00E94852A48CE002361F09D81F5
:10465000993309F0C5CEEFEFF7EE23E0E150F040DB
:104660002040E1F7BBCE89818F719DCF49814F708A
:104670006D81C6010E94A3090E94A3262ECE498106
:104680004F706D81C6010E94A60927CE0F900F9032
:104690000F900F900F90DF91CF911F910F91FF908E
:1046A000EF90DF90CF90BF90AF9008950F931F933E
:1046B000CF93DF93EC01688179818A810E949C29E4
:1046C0008C010E94F4280E943027B801CE01DF91AE
:1046D000CF911F910F910C940321CF93DF93EC01A5
:1046E0008B819C81892B29F08981988189238F3F37
:1046F00059F4DF91CF910895CE010E945623CE0147
:10470000DF91CF910C94DC08CE010E942809811121
:10471000F3CF0E94E429882361F38A81882349F337
:1047200082E0DF91CF910C94852A90E080E00E9496
:10473000871E90E080E00E949D1E0E940D2A0E942C
:104740001E2A0C943A2A0E94D4290C9495230E9484
:10475000FC290C94A323282F892F82958F70903CDD
:1047600080F48A30B0F4843020F4823090F480E019
:1047700008958630E1F781E0283E88F0213FB9F7BF
:104780000EC08C3011F08F3091F793FB882780F9A1
:10479000089581E0203F39F018F4283E40F708954D
:1047A000243F29F7FCCF08950E9490290C94AB2355
:1047B000CF93DF9300D000D00F92CDB7DEB70F902C
:1047C0000F900F900F900F90DF91CF910895CF939E
:1047D000DF9300D000D000D0CDB7DEB726960FB65D
:1047E000F894DEBF0FBECDBFDF91CF9108951F9328
:1047F000CF93DF93E091920216E0809193028E13A3
:1048000004C0DF91CF911F910895CE2FD0E01E9F5D
:10481000F0011124EC56FD4F40815181628173817A
:10482000848195810E94E723FE013196E770E5CFF0
:104830004091C4025091C5026091C6027091C702B6
:104840008091C8029091C9020C94E7231F93CF93E3
:10485000DF938091C902807FA9F48091C6028823EA
:1048600089F080919202C09193027091C40260918C
:10487000C502A091C702B091C802D62FD72316E077
:10488000C81304C0DF91CF911F91089590E0109755
:1048900011F0DF3F19F401968770F2CF189F900155
:1048A000199F300D1124F901EC56FD4F418164131D
:1048B000F2CF40814713EFCF42814111ECCF4381CA
:1048C00054814A1B5B0B483C510528F78091C90273
:1048D0008F7080618093C902F901E756FD4F808196
:1048E0008F708061808384EC92E00E946D23DF9161
:1048F000CF911F910C94F723AF92BF92CF92DF928A
:10490000EF92FF920F931F93CF93DF93CDB7DEB754
:104910002B970FB6F894DEBF0FBECDBF8C0185E09C
:10492000F801DE01179601900D928A95E1F7F801E2
:1049300040815181E28084ECA82E82E0B82E609103
:10494000C7027091C8026115710549F09091C402C7
:104950002091C502892F82238F3F09F045C1EE20A7
:1049600009F453C14F8358878F8198850E94D423BF
:10497000F82E882309F449C186E0F801A4ECB2E0DE
:1049800001900D928A95E1F784EC92E00E94F91F64
:104990000E94262426C18091C902382F307F683CAE
:1049A000710508F07CC03111B5C0FE2C251324C060
:1049B000941322C0E11020C08F7080618093C902DF
:1049C0000E94182484EC92E00E946D238091C90219
:1049D000F80185838F2D2B960FB6F894DEBF0FBE9E
:1049E000CDBFDF91CF911F910F91FF90EF90DF909E
:1049F000CF90BF90AF900895CD2829F0842F8523C4
:104A00008F3F09F084C080E0F82FF170DF2EE09135
:104A100092022091930236E080FD1CC0EE20D1F27C
:104A20008091C90281608093C902F12CD3CF8E2F6F
:104A300090E03E9FF0011124EC56FD4F618165131B
:104A400006C06081641303C062816E11E7CFFC0170
:104A50003196E770E213EBCF4F8358878F819885AB
:104A60000E949029292F22952F70903260F0225FAA
:104A70002F70223078F49F7051F0F8019581907F6B
:104A800031F4D12C0AC09F7011F08823D1F3805EDD
:104A90008830B8F3C8010E946D23FD2C9BCF3111E3
:104AA0006EC06E2D7A858B850E94D82384EC92E0AF
:104AB0000E946D2386E0F50111928A95E9F70E9424
:104AC0001824B3CF86E0F801A4ECB2E001900D9277
:104AD0008A95E1F77FCF4F8358878F8198850E9411
:104AE000D42381113DC08091C90281608093C902A5
:104AF000C8010E946D236ECF6E2D7A858B850E9432
:104B0000D82386E0F50111928A95E9F76AC081E021
:104B10008E257ACF251306C0941304C0F801EE2029
:104B200009F453C04F8358878F8198850E94D423FE
:104B3000882309F46AC0EE2009F467C08091C90295
:104B4000803270F02091C4023091C5023A832983EB
:104B50001B82DD82CC828E83CE0101960E946D2362
:104B600086E0F801A4ECB2E001900D928A95E1F79D
:104B70000E9426240E941824FF24F3942BCF25138F
:104B8000D1CF9413CFCFE110CDCFF8018583C801E9
:104B90000E946D2386E0F50111928A95E9F71ACFFC
:104BA000251399CF941397CF8091C90280FD8ACFA6
:104BB000982F907F09F486CFF8018583903F31F0DC
:104BC000982F907F905F8F70892B8583C8010E94FA
:104BD0006D2386E0F801A4ECB2E001900D928A9575
:104BE000E1F70E941824F6CEC380D480F090C6026C
:104BF000F601E61BF70BBF01F110CDCE683C710545
:104C000008F07ACFFE2CE110CBCFC8010E946D23B3
:104C1000B3CF1F93CF93DF93CDB7DEB72C970FB6EB
:104C2000F894DEBF0FBECDBF4F83588769877A8760
:104C30008B879C87CE0107960E947C24882369F08D
:104C40008A859B85892B39F058854F81852F842350
:104C50008F3F09F071C016E05FC086E0FE01379615
:104C6000DE01119601900D928A95E1F78A859B8568
:104C7000892B89F38F81988589238F3F61F3209158
:104C8000930230E0C9010196877099274091920202
:104C90004817190671F40E94A723109293021092EC
:104CA000920286E0E4ECF2E0DF011D928A95E9F7DA
:104CB000D2CF96E0929FD001939FB00D1124AC56B5
:104CC000BD4FFE01319601900D929A95E1F78093C8
:104CD00093020E94F723BFCF819FC00111248C56FD
:104CE0009D4F0E947C248823E9F0E09192021E9F50
:104CF000F0011124EC56FD4F408151816281738196
:104D0000848195810E94E7238091920290E0019630
:104D100087709927809392028091920290919302DA
:104D20008913DACF2C960FB6F894DEBF0FBECDBF35
:104D3000DF91CF911F91089569857A858B859C8538
:104D40000E94E72388CFEF92FF920F931F93CF9398
:104D5000DF938C01892B89F0F12CEE24E394E80198
:104D60002196F8018491843709F458C0A0F4823068
:104D700009F43FC048F48130D1F0DF91CF911F9109
:104D80000F91FF90EF9008959CEF980F9037A8F740
:104D90000E94FE1F0AC0853709F44EC09CE7980F99
:104DA000903758F78F770E9487208E0116C00E5FCC
:104DB0001F4FFE01849190E2980F983060F4877045
:104DC000FE2D01C0FF0F8A95EAF78F2F0E94102A4F
:104DD0000E943A2A02C00E94FE1F8F2D882309F4E8
:104DE000BECFEFE9FFE03197F1F700C0000081503E
:104DF000F5CF0E5F1F4FFE01849190E2980F98301F
:104E000050F48770FE2D01C0FF0F8A95EAF78F2FAF
:104E10000E94162ADDCF0E948720DFCF0E5F1F4F32
:104E2000FE01C491CC23C9F28FE99FE00197F1F70D
:104E300000C00000C150F6CF0E5F1F4FFE01F4907E
:104E4000CCCF08950C9421270E9422276093F6026C
:104E50007093F7028093F8029093F9020C949523D3
:104E600008950C942427CF93DF9300D000D0CDB7C2
:104E7000DEB769837A838B839C838091F60290915D
:104E8000F702A091F802B091F90229813A814B8191
:104E90005C81282B392B4A2B5B2B29833A834B834C
:104EA0005C83CA01B9010F900F900F900F90DF91B2
:104EB000CF910C942427CF93DF9300D000D0CDB7AF
:104EC000DEB769837A838B839C838091F60290910D
:104ED000F702A091F802B091F90229813A814B8141
:104EE0005C81282339234A235B2329833A834B831C
:104EF0005C83CA01B9010F900F900F900F90DF9162
:104F0000CF910C942427CF93DF9300D000D0CDB75E
:104F1000DEB769837A838B839C838091F6029091BC
:104F2000F702A091F802B091F90229813A814B81F0
:104F30005C81282739274A275B2729833A834B83BB
:104F40005C83CA01B9010F900F900F900F90DF9111
:104F5000CF910C9424270C9421270C94AB270E940A
:104F6000AD276093F2027093F3028093F402909362
:104F7000F5020C94952360E070E0CB010C94AF2710
:104F80000F931F93CF93DF9300D000D0CDB7DEB740
:104F900041E050E060E070E08A019B0104C0000F36
:104FA000111F221F331F8A95D2F709831A832B837F
:104FB0003C83C901B8010F900F900F900F90DF91C3
:104FC000CF911F910F910C94AF270F931F93CF9305
:104FD000DF9300D000D0CDB7DEB741E050E060E015
:104FE00070E004C0440F551F661F771F8A95D2F7E3
:104FF0008091F2029091F302A091F402B091F50237
:105000008A019B01082B192B2A2B3B2B09831A831E
:105010002B833C83C901B8010F900F900F900F9024
:10502000DF91CF911F910F910C94AF270F931F9396
:10503000CF93DF9300D000D0CDB7DEB741E050E092
:1050400060E070E004C0440F551F661F771F8A950B
:10505000D2F740955095609570958091F2029091AD
:10506000F302A091F402B091F5028A019B0108239A
:1050700019232A233B2309831A832B833C83C901E9
:10508000B8010F900F900F900F90DF91CF911F916B
:105090000F910C94AF270F931F93CF93DF9300D002
:1050A00000D0CDB7DEB741E050E060E070E004C072
:1050B000440F551F661F771F8A95D2F78091F20221
:1050C0009091F302A091F402B091F5028A019B0144
:1050D000082719272A273B2709831A832B833C8318
:1050E000C901B8010F900F900F900F90DF91CF91F1
:1050F0001F910F910C94AF27CF93DF9300D000D076
:10510000CDB7DEB769837A838B839C838091F2026B
:105110009091F302A091F402B091F50229813A81B5
:105120004B815C81282B392B4A2B5B2B29833A83BB
:105130004B835C83CA01B9010F900F900F900F90C1
:10514000DF91CF910C94AF27CF93DF9300D000D0A5
:10515000CDB7DEB769837A838B839C838091F2021B
:105160009091F302A091F402B091F50229813A8165
:105170004B815C81282339234A235B2329833A838B
:105180004B835C83CA01B9010F900F900F900F9071
:10519000DF91CF910C94AF27CF93DF9300D000D055
:1051A000CDB7DEB769837A838B839C838091F202CB
:1051B0009091F302A091F402B091F50229813A8115
:1051C0004B815C81282739274A275B2729833A832B
:1051D0004B835C83CA01B9010F900F900F900F9021
:1051E000DF91CF910C94AF270895292F220FE22F42
:1051F000E90FEE0FE80F8E2F877041E001C0440FDA
:105200008A95EAF7E695E695E69585E0E89FF00150
:105210001124E653FD4F30E020E070E05191DF01B2
:105220001197CB01022E02C0969587950A94E2F75A
:10523000817081958527842385278C932F5F3F4F2D
:105240002530310559F70895292F220FE22FE90F54
:10525000EE0FE80F9E2F9770E695E695E69585E0B0
:10526000E89FF0011124E653FD4F50E040E080E05C
:10527000219130E0092E02C0369527950A94E2F775
:1052800021703327042E01C0220F0A94EAF7822BE3
:105290004F5F5F4F4530510559F70895BF92CF9248
:1052A000DF92EF92FF920F931F93CF93DF938C01C6
:1052B000C090F202D090F302E090F402F090F50278
:1052C0008091F6029091F702A091F802B091F90254
:1052D000C82AD92AEA2AFB2ACFE1D0E0BC2ED7017E
:1052E000C6010C2E04C0B695A795979587950A948C
:1052F000D2F780FD0EC0219788F7B12C8B2DDF915E
:10530000CF911F910F91FF90EF90DF90CF90BF90C2
:105310000895B8018C2F0E94C309019761F3EECF65
:10532000CF93DF93D82FC92F0E944E296D2F7C2F4A
:10533000DF91CF910C94C3091F93CF93DF93162F66
:10534000D72F90919102992339F0862F972FDF91D3
:10535000CF911F910C949029882391F0862F972F3D
:105360000E944E29C82F682F812F9D2F0E94F5285B
:10537000612F7D2F8C2FDF91CF911F910C94C3094A
:10538000862F972F0E942429C82FF2CF682F809153
:105390003A0190913B010C94922B682F80913A0135
:1053A00090913B010C94942B80913A0190913B0198
:1053B0000C94962B8091FA02859585958595089594
:1053C0008091FA02877008959091FA02977081E0B7
:1053D00009F480E0089580910603089590910603F2
:1053E000982B909306030895982F9095809106032B
:1053F00089238093060308951092060308959091DF
:105400000503982B909305030895982F909580910C
:1054100005038923809305030895109205030895D9
:1054200090910403982B909304030895982F9095DE
:105430008091040389238093040308951092040348
:1054400008958091FB02089508950C94242A909168
:10545000FB02981721F08093FB020C94252A0895F3
:105460008091FB02882329F01092FB0280E00C94CB
:10547000252A0895E0913A01F0913B0180910603BD
:105480008083E0913A01F0913B0180819091050386
:10549000892B8083E0913A01F0913B0180819091CA
:1054A0000403892B80839091FB02992381F0E09182
:1054B0003A01F0913B018081892B808380913A01F0
:1054C00090913B010E94462B81110E94302A8091CD
:1054D0003A0190913B010C943D1E08950C946D2A65
:1054E00098E0899F90011124622B6093FA020E9438
:1054F000E5278091FA028595859585950C946E2A0D
:105500001092FA0280E00C946E2A9091FA02809533
:1055100089238093FA02282F277071F4282F082EF0
:10552000000C330B9217130639F0859585958595F8
:105530000E9416280C94802A089590E080E00E9432
:10554000BE359C0181E02B3E3E4F09F080E008957E
:1055500082E090E00C94B03583E090E00C94B0359C
:10556000682F83E090E00C94C435CF9384E090E002
:105570000E94B035C82F81E290E00E94B035982F8C
:105580008C2FCF910895CF93682FC92F84E090E09E
:105590000E94C4356C2F81E290E0CF910C94C43509
:1055A000AB01BC018FE090E00C94D635AB01BC019F
:1055B00083E190E00C94D63560E070E0CB010C9470
:1055C000D62A6BEE7EEF90E080E00E94E23560E04C
:1055D00082E090E00E94C43560E083E090E00E94A9
:1055E000C4351092F6021092F7021092F80210924F
:1055F000F90260E084E090E00E94C43560E081E25E
:1056000090E00E94C43560E085E090E00E94C435DF
:1056100060E086E090E00E94C4356FEF87E090E0A4
:105620000E94C43540E050E0BA0188E090E00E945A
:10563000D63560E08DE090E00E94C43540E050E057
:10564000BA0188E190E00E94D63560E087E190E001
:105650000E94C43540E050E0BA018CE190E00E9425
:10566000D63560E080E290E00E94C43540E050E032
:10567000BA0188E190E00E94D6350C9440070C9462
:10568000E12A682F8EE090E00C94C435AC019C01B7
:105690002E5F3F4F485F5F4F80E02417350709F4C6
:1056A0000895F90191919F019923B9F38F5FF5CF87
:1056B0009C01662351F0FC013296285F3F4F819197
:1056C000861729F0E217F307D1F780E0089581E00B
:1056D00008959C01FC0132968FEF90E041914617AE
:1056E00051F08F3F19F4411101C0892F9F5F96300F
:1056F000A9F78F3F09F40895280F311D87FD3A95CA
:10570000F901628308959C01FC013296285F3F4FA6
:105710008191861303C0DF0111971C92E217F307F2
:10572000B9F708950C94692B0C94832BFC013296E5
:1057300086E0DF011D928A95E9F70895089508959E
:105740000C949F2B80916303843049F10E94A02B1D
:1057500080E00E949B091092080388E190E020E419
:105760000FB6F894A895809360000FBE2093600058
:1057700083B7817F846083BF83B7816083BF789460
:10578000889583B78E7F83BF0FB6F894A8958091D4
:105790006000886180936000109260000FBE0895E1
:1057A0000895CF930E949E2B0E94190D0E94D02B2A
:1057B000C0E08C2F0E94AD0B811105C0CF5FCA30B5
:1057C000C1F7CF91089581E0FCCF08950C94E52BAB
:1057D0000E94A7230E94311E0E949B090C94E62B75
:1057E0001F921FB61F9211248F939F93AF93BF9365
:1057F00080910803811113C0809155039091560345
:10580000A0915703B09158034196A11DB11D8093FB
:10581000550390935603A0935703B0935803BF9139
:10582000AF919F918F911F901FBE1F90189582E09E
:1058300084BD93E095BD9AEF97BD80936E00089567
:105840002FB7F8948091550390915603A091570378
:10585000B09158032FBF0895CF93DF9300D000D0AD
:10586000CDB7DEB78FB7F89420915503309156032A
:10587000409157035091580329833A834B835C83AB
:105880008FBF69817A818B819C810F900F900F90DF
:105890000F90DF91CF9108959C014FB7F8948091BC
:1058A000550390915603A0915703B09158034FBFF1
:1058B000821B930B089578941F921FB61F92112498
:1058C0008F939F93AF93BF9380915503909156030D
:1058D000A0915703B09158030196A11DB11D80936B
:1058E000550390935603A0935703B0935803BF9169
:1058F000AF919F918F911F901FBE1F90189510928E
:10590000590310925A0310925B0310925C0308959E
:10591000CF92DF92EF92FF92CF93DF9300D000D02F
:10592000CDB7DEB76B017C010E94DF0D81110EC087
:105930000E942C2CC61AD70AE80AF90AC092590309
:10594000D0925A03E0925B03F0925C030F900F90A9
:105950000F900F90DF91CF91FF90EF90DF90CF905D
:105960000895CF93DF9300D000D0CDB7DEB70E946B
:10597000DF0D882341F00F900F900F900F90DF9173
:10598000CF910C942C2C0E942C2C69837A838B83CE
:105990009C838091590390915A03A0915B03B0912D
:1059A0005C0329813A814B815C81280F391F4A1F92
:1059B0005B1FCA01B9010F900F900F900F90DF91FC
:1059C000CF9108950E94DF0D81110C94202C0E942C
:1059D000B12CCB01089581E08093E00080E28093B8
:1059E000D8001092C9008FE19EE40197F1F700C042
:1059F000000087E090EBDC0180936C0390936D03D3
:105A0000A0936E03B0936F0388E19CE00FB6F89407
:105A1000A895809360000FBE90936000FFCF909395
:105A2000FF018093FE010895CF93DF9300D000D053
:105A3000CDB7DEB70E949D2A811102C00E943F2B84
:105A40000E94A82A809307030E94B52A90935E03C0
:105A500080935D030E94AC2A282F30E050E040E0A4
:105A6000CA01B9010E9431278091F2029091F3029C
:105A7000A091F402B091F50289839A83AB83BC8331
:105A8000BC01CD010F900F900F900F90DF91CF913F
:105A90000C94AD278091140308950895CF93DF935C
:105AA00000D00F92CDB7DEB790916303943019F513
:105AB00089836A837B8382E08093E9008FEF9091F2
:105AC000E800815095FD06C095ED9A95F1F700002C
:105AD0008111F5CF8091E80085FF0DC050E040E0D6
