:100000000C949C030C94500F0C94E3030C94E303A6
:100010000C94E3030C94E3030C94E3030C94E303C8
:100020000C94E3030C94E3030C94C3230C949624E4
:100030000C94AF1D0C94E3030C94E3030C94E303C2
:100040000C94E3030C94E3030C94E3030C94E30398
:100050000C94E3030C941A1E0C94E3030C94E30336
:100060000C94E3030C94E3030C94E3030C94E30378
:100070000C94E3030C94E3030C94E3030C94E30368
:100080000C94E3030C94E3030C94E3030C94E30358
:100090000C94E3030C94E3030C94E3030C94E30348
:1000A0000C94E3030C94E3030C94E3032B00295D0D
:1000B0002A5D2B5D13001C0029610400120008005A
:1000C00018000C00E1002C5D14000D000E001B0058
:1000D000E000E300E200075104512C0000000000A2
:1000E00001003802E100E2002A000F0015000600BE
:1000F0000A00090028001600110017000B00070075
:10010000E1001D0019001A0010000500E40009516B
:10011000E600065108512C000000000001002A00F2
:10012000E100E6002B0034003600370013001C000D
:10013000296104001200080018000C00E1003300DF
:1001400014000D000E001B00E000E300E200075168
:1001500005512C000000000001002D02E100E2002A
:100160002A000F00150006000A00090028001600EA
:10017000110017000B000700E1001D0019001A0014
:1001800010000500E4000951E600065108512C005A
:100190000000000001002A00E100E6002B0014002E
:1001A0001A00080015001700296104001600070056
:1001B00009000A00E1001D001B00060019000500EF
:1001C000E000E300E200075105512C0000000000B0
:1001D00001002D02E100E2002A00130012000C00D1
:1001E00018001C00280033000F000E000D000B004B
:1001F000E10034003700360010001100E40009511E
:10020000E600065108512C000000000001002A0001
:10021000E100E6002B001E001F002000210022004C
:100220002961170014001A0008001500E1001C00E5
:100230000400160007000900E0001D001B00060076
:100240001900050000000000E300E2002C0010008F
:100250002A00270026002500240023002800330060
:100260000F000E000D000B00E100340037003600D7
:1002700010001100E4000951E60006510C000A00CC
:1002800000000000045113001800120001001E02BB
:100290001F1420022114220201002D002702251420
:1002A00026142D020100010006011B011901301462
:1002B0000100010001000100010001000000000038
:1002C00001000100010001000100310226022502A7
:1002D00023023002010038002714241424022D14B4
:1002E0000100330034002F0064142E0201000100CD
:1002F00001000100010001000000000001000100F8
:100300000100010001001E021F0220022102220240
:1003100001002E022E002F003000380201000100E3
:1003200006011B0119013502010001000100010055
:1003300001000100000000000100010001000100B7
:1003400001002502270226022402230201002D00BB
:1003500030022F02380031000100010001000100CD
:10036000310235000100010001000100010001001F
:1003700000000000010001000100010001003A003E
:100380003B003C003D003E00010050004F00520089
:1003900051004400010001000100010001000100C2
:1003A0000100010001000100010001000000000047
:1003B0000100010001000100010043004200410072
:1003C00040003F0001004C004A004B004600450041
:1003D000010049004D004E00010001000100010034
:1003E0000100010001000100000000000100010007
:1003F0000100010001004C05240724034302010011
:100400002903490442014303280301003A0440053B
:10041000160716053E01010001004004010001001D
:1004200001000100000000000100010001000100C6
:10043000010001004F05500501000100010001000D
:10044000010001002C030100010001000100010076
:100450000100010001000100010001000100010094
:100460000000000001000100010001000100010086
:10047000010001000100010001001E001F0020001A
:100480002100220001000100010001000100010023
:100490000100010001000100010001000000000056
:1004A0000100010001000100010001000100010044
:1004B0000100010001002700260025002400230080
:1004C0000100010001000100010001000100010024
:1004D0000100010001000100000000000100010016
:1004E0000100010001000100010001000100010004
:1004F00001000100010001000100010001000100F4
:1005000001000100010001000100010001000100E3
:1005100001000100000000000100010001000100D5
:1005200001000100010001000100010001000100C3
:1005300001000100010001000100305D2F5D2E5D12
:10054000315D010001000100010001000100010016
:100550000000000001000100010001004445425577
:10056000473A2064697361626C65642E0A004445F1
:100570004255473A20656E61626C65642E0A000A36
:100580000025303862003A200025303258000A72C7
:100590002F632030313233343536370A000A0025D4
:1005A00030325820006B6579626F6172645F7265EA
:1005B000706F72743A20000A0025303258006B6563
:1005C00079626F6172645F7365745F6C65643A2011
:1005D000005B735D004B6579626F617264207374B8
:1005E0006172742E0A005B575D005B535D005B52C5
:1005F0005D005B445D005B435D0026034B006500CE
:100600006500620069006F00200049007200690007
:10061000730020005200650076002E002000340098
:1006200000000E034B0065006500620069006F006A
:1006300000000403090409025B00030100A0FA0999
:100640000400000103010100092111010001224001
:10065000000705810308000A0904010001030000E6
:100660000009211101000122320007058203200048
:100670000A0904020002030000000921110100011F
:100680002222000705830320000107050303200041
:1006900001120110010000000810CB5642000401B5
:1006A0000200010631FF0974A1010975150026FF3A
:1006B000009520750881020976150026FF00952017
:1006C00075089102C005010980A101850319012A5D
:1006D000B700150126B700950175108100C0050C03
:1006E0000901A101850419012AA002150126A00211
:1006F000950175108100C005010906A101050719C2
:10070000E029E7150025019508750181029501751D
:100710000881010507190029FF150026FF0095062D
:1007200075088100050819012905950575019102D3
:10073000950175039101C00011241FBECFEFDAE0CF
:10074000DEBFCDBF04B603FE27C08091A302909107
:10075000A402A091A502B091A6028730904BA740B9
:10076000B04BD1F41092A3021092A4021092A502F1
:100770001092A60214BE84B7877F84BF0FB6F89488
:10078000A89580916000886180936000109260005D
:100790000FBEE0E0F8E3099511E0A0E0B1E0E6E08B
:1007A000FEE402C005900D92A43BB107D9F722E008
:1007B000A4EBB1E001C01D92A33AB207E1F70E9499
:1007C000FC200C94C2260C940000FF93EF93E09160
:1007D000B401F091B501309709F00995EF91FF91BF
:1007E0000895FC018591803011F0EFDFFBCF089573
:1007F000FF27E0E230E247FF0CC0419597FF09C0B8
:10080000EDE26095709580959095611D711D811D3B
:10081000911D27FF02C0219530E350E2AA27660F01
:10082000771F881F991FAA1FA41710F0A41B639598
:100830005A95A9F7AA3008F0A95FA05DAF93F39588
:10084000611571058105910541F7ED3211F4EF93C2
:10085000F395F21718F43F93F395FBCF8F91B5DF23
:10086000FA95E1F70895E991F9918591803021F0A9
:10087000853219F0AADFF9CF089520E0E894559168
:100880005532C1F3503311F4689455915A3348F4FA
:10089000505390F3220F022E220F220F200D250F0E
:1008A000F4CF0EF4219589919991533619F353376A
:1008B00029F1533559F1BC0188279927E8945C3612
:1008C00021F48991999168945591543639F446EF01
:1008D0007EF077FF0DC08FEF9FEF0AC055374AE0DB
:1008E00039F0583540E121F0523642E009F00895E0
:1008F000FF93EF937DDFEF91FF91B7CFFF93EF93DE
:10090000FC0181918030B9F360DFFBCFFF93EF935F
:1009100068DFF1CFDF93CF93CDB7DEB72596A3DFA6
:10092000CF91DF91089560E070E0CB010E948F1CB1
:100930000C949B1C089508950F931F93CF93DF93FE
:10094000EC018B018091B70186FF13C0C13ED10538
:1009500029F4DB0112968C91882319F081EE0E9414
:10096000BD1184E60E9446128091B7018F7B80936F
:10097000B701C13ED10509F4FFC0FE01E952FD45B2
:10098000E930F10508F0DFC0EC53F94DD8011296BB
:100990008C910C9466268823B9F0E0911B01F091AC
:1009A0001C01808181FF09C08FE10E94BD118091EF
:1009B000B70181608093B701C6C081E30E94BD1179
:1009C0008091B7018260F6CF8091B70180FF08C0A7
:1009D0008FE10E9446128091B7018E7F8093B7010C
:1009E0008091B70181FFAFC081E30E9446128091E0
:1009F000B7018D7FDFCF8823C1F0E0911B01F0911B
:100A00001C01808181FF0AC081EE0E94461284E6AB
:100A10000E94BD118091B7018064CCCF86E30E9413
:100A2000BD118091B7018068C5CF8091B70186FF65
:100A300008C084E60E9446128091B7018F7B8093A4
:100A4000B7018091B70187FF7EC086E30E944612FE
:100A50008091B7018F77AECF8823A9F0E0911B0179
:100A6000F0911C01808181FF07C084E60E94BD11C6
:100A70008091B70184609ECF87E30E94BD11809171
:100A8000B701886097CF8091B70182FF08C084E6E4
:100A90000E9446128091B7018B7F8093B7018091AD
:100AA000B70183FF50C087E30E9446128091B701CF
:100AB000877F80CF8823C1F0E0911B01F0911C015A
:100AC000808181FF07C087E30E94BD118091B7013B
:100AD000806170CF81EE0E94BD1186E30E94BD113E
:100AE0008091B701806266CF8091B70184FF08C012
:100AF00087E30E9446128091B7018F7E8093B701F1
:100B00008091B70185FF1FC086E30E94461281EEE7
:100B10000E9446128091B7018F7D4CCF882361F0EF
:100B20008091B60180FF15C081EF0E94461280912E
:100B3000B6018E7F8093B601F8018281882319F077
:100B400080E00E94320681E0DF91CF911F910F91EA
:100B5000089581EF0E94BD118091B6018160EACFB6
:100B6000882389F381E0EDCF882369F382E0E9CF20
:100B7000882349F383E0E5CFD80112968C9188232E
:100B800029F081EE0E94BD1186E3C2CF81EE0E9462
:100B900046128FE10E9446128091B7018E7F8093AA
:100BA000B70184E60E9446128091B7018B7F809343
:100BB000B70187E30E9446128091B7018F7E809330
:100BC000B701E2CF81E008950C949C0408950C9441
:100BD000E6051F93CF93DF9300D000D00F92CDB7DF
:100BE000DEB749835A836B833091F10189819A8101
:100BF00031111DC06623B9F02223A9F00E940D1BFC
:100C0000182F682F89819A810E94B41A69817A818C
:100C1000812F0F900F900F900F900F90DF91CF9139
:100C20001F910C94EA060E94E31A182FEFCF0E943E
:100C30000D1B69817A81EDCFFC01262F4081518106
:100C40006281738184810C94E905CF93DF93D82F5F
:100C5000C92F60E00E941C066D2F7C2FDF91CF9181
:100C60000C94E705CF93DF9300D000D0CDB7DEB76B
:100C700021E030E002C0220F331F8A95E2F73A8369
:100C8000298389810E946F1CA981BA81CD01B0E0BE
:100C9000A0E089839A83AB83BC83BC01CD010F9014
:100CA0000F900F900F90DF91CF910C94F0180E944D
:100CB0005C1C811102C00E94FE1C0C94EC080C9478
:100CC000EE0808950E9466150E9461062FEF84E3E6
:100CD0009CE0215080409040E1F700C000000C945F
:100CE000A11E0F931F93CF93DF93EC0161E00E944D
:100CF0001C068C01BE010E94E405882311F1BE018F
:100D0000C8010E94DA0C8823E1F0BE01C8010E94EC
:100D10002F0D8823B1F0BE01C8010E94020E882366
:100D200081F08A81882341F101308CE5180779F040
:100D30000F3D8CE51807E9F001151C45E9F40E9408
:100D4000620680E0DF91CF911F910F9108959091FD
:100D50006702892F8E7F90FF81608093670280FFFA
:100D600005C08EE695E00E94F103EBCF8CE595E09F
:100D7000FACF0E94FE1CE5CFCE01DF91CF911F91EB
:100D80000F910C94E205829594E0899F90011124C3
:100D90002C7C869586958373282B30E0C901880FBB
:100DA000991F8A7A359527952575822B0895089580
:100DB0000C94D70681E008950C94DA06CF93C82FDF
:100DC0000E94D8068C2FCF910C94DC0690E080E036
:100DD00008950895972F70E026E0929F600D711D91
:100DE0001124FB019CE3899FE00DF11D1124EE0FFE
:100DF000FF1FE455FF4F859194910895FC01EE0F7C
:100E0000FF1FE158FA4F859194910895CF93DF9396
:100E10000E94EA060E941108EC01811521E5920763
:100E200008F048C0811530E5930708F0AFC0803E58
:100E3000910518F5803C910508F096C0883A910517
:100E400070F4853A910508F08CC08130910531F13C
:100E50000497813A910510F1D0E0C0E01FC08F3BAC
:100E60009105D1F3C85AD0E0CC0FDD1FCE5CDE4F28
:100E70000990D881C02DD46411C0811540E3940736
:100E800088F4C11580E2D80708F074C0C83ED105C7
:100E900028F0CE019A9581159F41F0F6CE01DF91A1
:100EA000CF910895811530E4930708F466C0DF7090
:100EB000D06AF4CF8115964560F5C11585E5D80750
:100EC00008F096C0C11594E5D907F0F4C11523E5E3
:100ED000D20708F079C0C11532E5D30708F46FC016
:100EE000CE018370992721E030E002C0220F331F2A
:100EF0008A95E2F7C695C69540E2C49FE0011124A9
:100F0000C22BD32BDC68CACFDC2FCC27C46FD06AAE
:100F1000C5CFC1158AE5D80788F4C11599E5D90769
:100F200008F071C0CE0198558F3F910511F008F07F
:100F300093CFDC2FCC27C06FD06AB0CFCE019056B4
:100F40008115904208F088CF8D2F8F710E94A908DB
:100F500090E0982F882788279F719C012C2BE9010E
:100F600050C0A497D0649ACF805C91090E94FE067D
:100F7000EC0194CFCE019F70F9CF9927D3FF03C026
:100F8000EC01D86C8BCFEC01D06C88CF74E09695D7
:100F900087957A95E1F783702C2F269526952370F7
:100FA00040E2249F90011124382B8C2F8370C1E0E4
:100FB000D0E002C0CC0FDD1F8A95E2F7A1CFDC2F75
:100FC000CC27C16FD06A6ACFCE018370992721E008
:100FD00030E002C0220F331F8A95E2F7C695C6950E
:100FE00080E2C89FE0011124C22BD32BDA6856CFD0
:100FF0008C2F0E94A908C82FD0E0DC2FCC27CC274B
:10100000DF71D0624BCF8C2F8F700E94A90834E023
:10101000D695C7953A95E1F7CF70DC2FC82FD069E8
:101020003DCF803E910599F1C8F48133910509F4D3
:1010300076C048F48932910509F46AC08A32910574
:1010400009F474C0089589339105D1F0823891056F
:10105000B9F08533910509F454C00895843E910593
:1010600099F138F4823E9105F9F0833E910509F13A
:101070000895863E910599F1873E9105B9F108954D
:10108000209194022370A1F080EE90E008952091C9
:10109000940220FD52C03091950230FF09C024FF18
:1010A0004FC090E080E004C02091940222FDF7CF71
:1010B00008952091940222FD46C03091950230FDA2
:1010C000E3CF24FFF5CFEDCF2091950221FFF0CFA4
:1010D0008091940284FDE5CF87EE90E00895209101
:1010E000940223FFE5CF24FDDCCFF6CF20919402BC
:1010F00023FD2CC03091950231FFE3CF84EE90E0C8
:1011000008952091940225FFD3CF89E290E00895BD
:101110002091940225FFCCCF85E390E008952091A3
:10112000940226FFC5CF8AE290E0089520919402B0
:1011300026FFBECF81E390E0089589E390E0089513
:1011400083EE90E0089582EE90E0089586EE90E0C0
:1011500008959091940292FF06C0282F287128309C
:10116000F9F4877F846093FF06C0282F2871283107
:10117000F1F4877E84612091950220FF06C0382F0C
:1011800038713830D9F4877F816021FF06C0282F5D
:1011900028712831D1F4877E816194FD877E08957E
:1011A000282F24712430F9F68B7F8860DCCF282F1C
:1011B0002471243101F78B7E8861DDCF382F3171A6
:1011C000313019F78E7F8860E0CF282F21712131CF
:1011D00021F78E7E8861E1CF0C949A040C949B04D5
:1011E000E82FF0E0E058FD4F80810895CF92DF9224
:1011F000EF92FF920F931F93CF93DF938EE895E0CA
:101200000E94F10380E8E82E82E0F82ED0E0C0E0F2
:1012100099E8C92E95E0D92E01E815E0DF93CF9328
:10122000DF92CF920E948A0486E895E00E94F10343
:10123000F70181917F010E94C3061F928F931F9334
:101240000F930E948A048FE795E00E94F103219694
:101250008DB79EB708960FB6F8949EBF0FBE8DBF90
:10126000CA30D105D9F6DF91CF911F910F91FF9030
:10127000EF90DF90CF90089580EA8A95F1F7089576
:1012800000C008950C943C09F894E82FE295EF70A3
:10129000A1E2AE0FB0E04C918F7021E030E0B901D7
:1012A00002C0660F771F8A95E2F7CB01962F9095C3
:1012B00094239C93EE5DF0E09081892B8083789459
:1012C00008950895EF92FF920F931F93CF93DF93AA
:1012D000CDB7DEB760970FB6F894DEBF0FBECDBFB7
:1012E0000E943F0B8091100181112AC086E0E8E244
:1012F000F1E0DE01119601900D928A95E1F7FE0171
:10130000379684E0DF011D928A95E9F78AE03697E7
:10131000A6E0B1E001900D928A95E1F786E0E0E663
:10132000F1E0DE011B9601900D928A95E1F786E0CF
:10133000FE013B96A0E0B1E001900D928A95E1F7A5
:101340008091100195E0811190E090938B0285E0EF
:10135000891B80938A0206E011E09BE0E92E91E070
:10136000F92EF80181918F010E944409E016F106DF
:10137000C1F700E011E086E0E82E81E0F82ED80108
:101380008D918D010E944409E016F106C1F78AE0B3
:10139000E6E7F2E0DF01982F1D929A95E9F7E0E881
:1013A000F2E0DF011D928A95E9F785E00E94E40AE8
:1013B0000E94570660960FB6F894DEBF0FBECDBFF1
:1013C000DF91CF911F910F91FF90EF900C94490BFB
:1013D000EF92FF921F93CF93DF9300D000D00F9234
:1013E000CDB7DEB70E94220B182F60918B028823A5
:1013F00009F455C01A821982FE01339683E0DF0199
:101400001D928A95E9F7862F90E032977F01BF0100
:1014100080589D4F0E94380E811124C08091B801E0
:101420008F5F8093B8018630C0F1E0918A02F0E0CE
:10143000E058FD4F85E0DF01282F1D922A95E9F73E
:10144000D7011D928A95E9F70E945F06812F0F90C0
:101450000F900F900F900F90DF91CF911F91FF9001
:10146000EF9008951092B801A0918A02B0E0A058C0
:10147000BD4F9E012A5F3F4F10E04D91F7019191C2
:101480007F01491731F0AD0141505109FA019083B4
:10149000182FE216F30689F7D7CF10E0D5CF70E00A
:1014A00060587D4F80918A0290E080589D4F0E9445
:1014B000700E0E946109CACFAF92BF92CF92DF92A5
:1014C000EF92FF920F931F93CF93DF93C6E0D1E08B
:1014D00006E712E08BE0C82E81E0D82EB12CEE2476
:1014E000E394F12C8991F894E82FE295EF70A1E252
:1014F000AE0FB0E02C918F70A70102C0440F551FB2
:101500008A95E2F7CA01922F982B9C93EE5DF0E04A
:10151000908180958923808378940E944009E0E03F
:10152000F1E030E020E0A12C4191A42FA295AF7012
:10153000A05EB0E08C9190E04F7002C095958795C9
:101540004A95E2F780FD3CC08E2D022E01C0880F27
:101550000A94EAF7A82A2F5F3F4F2630310521F77A
:10156000FE01319780810E9444090E944209F801DE
:101570008081A81639F1A08281E0B82A0F5F1F4F41
:10158000CC16DD0609F0AECF60918B0270E060589A
:101590007D4F2B2D45E086E792E00E94E50A0E94F0
:1015A000E809B11001C0B82E8B2DDF91CF911F91AA
:1015B0000F91FF90EF90DF90CF90BF90AF90089584
:1015C00080E0C8CF80E0D9CF0895FF920F931F939A
:1015D000CF93DF93F82E092F162FD72FC42F222356
:1015E00049F081E08093BB010E94DF1D9093BA0116
:1015F0008093B9018091BB018823A1F08091B9014A
:101600009091BA010E940B1E069760F0EF2DF02F0B
:10161000A12FBD2FCF018C0F911DE817F90741F4C1
:101620001092BB01DF91CF911F910F91FF90089510
:1016300021912D93F2CF55985D9889B185FB88272C
:1016400080F908958091BC01811110C08091D8006B
:1016500080618093D8008AE18A95F1F700C080917B
:10166000D90080FD0AC082E08093BC0181E09091A6
:10167000BC01913009F080E0089581E0F5CF0E942F
:101680001B0B809310010E94220B81110C942C0ED5
:1016900008950E94220B811102C00C94320E08950D
:1016A00008950C94500BCF93DF938091100181111A
:1016B00006C087EF8093120186EF8093110120917D
:1016C0001201A22FA295AF70E1E2EA0FF0E03081A3
:1016D0002F7081E090E0BC01022E01C0660F0A94D9
:1016E000EAF7462F409543234083E2E2EA0FF0E019
:1016F0003081362B308340911101E42FE295EF7059
:10170000C1E2CE0FD0E038814F70042E01C0880FA7
:101710000A94EAF7982F909593239883C2E2CE0F0C
:10172000D0E09881892B8883A05EB0E08C9190E016
:1017300002C0959587952A95E2F78170E05EF0E00A
:10174000208130E002C0359527954A95E2F792E076
:1017500020FF90E0892B8093C2019091100181E0DD
:1017600098279093BE01891B8093BD01DF91CF9193
:101770000895CF93E091C201EE0FEE0F2091120178
:10178000A22FA295AF70A05EB0E08C9190E02F7078
:1017900002C0959587952A95E2F781709927409127
:1017A0001101A42FA295AF70A05EB0E02C9130E0A3
:1017B0004F7002C0359527954A95E2F7A90141700F
:1017C000552720FF02C042E050E0842BE82BE09335
:1017D000C201C091BE01EF70F0E0E959FE4F808177
:1017E0009091C101890F8093C10120E0843074F091
:1017F000EC2F0C2E000CFF0BE154FE4F80818F5F0D
:10180000808360E08C2F0E94510B21E08091C10108
:101810008D3F74F4EC2F0C2E000CFF0BE154FE4FA7
:1018200080818150808361E08C2F0E94510B21E0E8
:101830008091C101082E000C990B64E070E00E94B9
:1018400052268093C101822FCF910895E091BE016D
:10185000F0E0E154FE4F2081FC0120830895FF92C7
:101860000F931F93CF93DF93D091BD010D2F10E005
:1018700001541E4FFC01C081F8018081C81BFC2E61
:1018800080E01F147CF09C2FC7FD90E0C91BC111A4
:1018900014C08823E9F0DF91CF911F910F91FF9041
:1018A0000C948910FA94F80180818F5F808360E046
:1018B0008D2F0E94510B81E0E4CFCF5FF801808132
:1018C0008150808361E08D2F0E94510B81E0DFCF3A
:1018D000DF91CF911F910F91FF9008950F931F9368
:1018E000CF93DF93C42FD22FFC0182818823C9F0CC
:1018F0004093C5010E94DF1D9093C4018093C301F2
:1019000080E28C0F883008F050C0C77081E001C0C1
:10191000880FCA95EAF7DF91CF911F910F910C9430
:10192000B4121091C501141335C08091C301909178
:10193000C4010E940B1E883C910560F5C0E2CD0FEA
:101940001D17B9F080E2810F883040F4177081E0F4
:1019500001C0880F1A95EAF70E94BB12C83048F4FC
:1019600081E09D2F977001C0880F9A95EAF70E9439
:10197000B412802F0E94AC12C830B8F4D77081E046
:1019800001C0880FDA95EAF7DF91CF911F910F918F
:101990000C94BB1280E28C0F883038F4C77081E061
:1019A00001C0880FCA95EAF7EFCFDF91CF911F9161
:1019B0000F9108950F939C01CB01243F4CE5340710
:1019C000A1F190F4293DFCE53F0749F12A3D4CE5A2
:1019D0003407E9F1283D3C45C1F0FC0182818823B0
:1019E000E1F11092C50119C0263FFCE53F0719F14E
:1019F000273F4CE5340729F1253F3C4571F707E2C5
:101A000025EE44EE65EF7CE505C006E221EE41EEF1
:101A100068ED7CE50E946E0C80E00F91089507E26E
:101A200025EE45EE69ED7CE5F5CF06E221EE40EED0
:101A300064EF7CE5EFCF06E221EE42EE66EF7CE557
:101A4000E9CF07E225EE46EE67EF7CE5E3CF08E25B
:101A500021E045EE6AED7CE5DDCF81E0DECFCF937E
:101A6000DF93EC01FB018281882309F4C9C0C631F0
:101A7000FCE5DF07E0F4C2309CE5D907F0F00E94F6
:101A8000741C9093950280939402C631ECE5DE07B6
:101A900020F5C230FCE5DF0798F480919402909124
:101AA00095020E94821C0E94661580E006C09E017D
:101AB0002B5F3C452930310510F3DF91CF9108951C
:101AC000FE01E350FC45809194028160E331F10511
:101AD00088F4E353F94D0C946626CB5FDC45C9309E
:101AE000D105D8F6C052D94DFE010C9466268091DE
:101AF0009402826080939402D0CF8091940284609B
:101B0000F9CF809194028860F5CF80919502816031
:101B100080939502C2CF809195028260F9CF809127
:101B200094028061E7CF809194028062E3CF80913C
:101B300094028064DFCF0E946615809194028068D1
:101B4000D9CF809194028C60D5CF8091950283602B
:101B5000DFCF809194028E7FCDCF809194028D7FD4
:101B6000C9CF809194028B7FC5CF80919402877FEB
:101B7000C1CF809195028E7FCBCF809195028D7FD2
:101B8000C7CF809194028F7EB5CF809194028F7DD4
:101B9000B1CF809194028F7BADCF0E94661580916A
:101BA00094028F77A7CF80919402837FA3CF8091F7
:101BB00095028C7FADCF8091940282FB992790F99A
:101BC00021E0922790FB82F990FB83F993CF8091DB
:101BD0009502982F909591708E7F892B90FB81F9BB
:101BE00097CF0E94661590919402892F97FB87F9F1
:101BF000805880CF81E00E94001D4FCF80E0FBCF56
:101C000081E05BCFCF93DF93EB0186319C4511F5EB
:101C10000E94AA1B9A81992399F08A7A91E009F48B
:101C200090E09093C601811109C089E20E94851B52
:101C30000E94F91B80E0DF91CF91089585E3F6CFF4
:101C40008091C601811104C089E20E948C1BF0CFF3
:101C500085E3FBCF81E0EFCF61E070E083E191E0CD
:101C60000C94010F61E070E083E191E00C94080FA7
:101C7000CF93DF9300D000D00F92CDB7DEB76D8346
:101C800079830E94A20F9C0180E02115310501F5A6
:101C9000ED81F981D901A453BE4F8C9181932F5FBF
:101CA0003F4F25303105B1F781ED91E00E942F0CB7
:101CB0000E94701EDC01CB010296A11DB11D809314
:101CC000C8019093C901A093CA01B093CB0181E0F0
:101CD0000F900F900F900F900F90DF91CF9108957C
:101CE000CF93DF9300D000D000D0CDB7DEB76E83A6
:101CF0007D838091C8019091C901A091CA01B091E2
:101D0000CB0189839A83AB83BC83BC01CD010E9444
:101D1000471EEE81FD8190E080E02191DC01A4531B
:101D2000BE4F2C93019685309105B9F781ED91E076
:101D300026960FB6F894DEBF0FBECDBFDF91CF91D0
:101D40000C94260C8EE1489B02C08150E1F7489B21
:101D5000FECF0895589880E28A95F1F7589A089531
:101D6000FC013BE03A95F1F798E020E080E031E0BB
:101D700040E14A95F1F7880F489B02C08160232714
:101D800042E04A95F1F7000040E14A95F1F79150A1
:101D900079F790E19A95F1F799B132E03A95F1F738
:101DA000000040E14A95F1F7917092272081920F4F
:101DB00090830895EF92FF920F931F93CF93DF9339
:101DC0000F92CDB7DEB719828C017C01E60EF11CB3
:101DD0000E151F0561F481E09981911180E00F904B
:101DE000DF91CF911F910F91FF90EF9008950E9486
:101DF000A20ECE0101960E94B00EF80181938F01D0
:101E0000E7CF9093D3018093D201509A589A0895C6
:101E10009093D3018093D2015098589AE89AE9E6BA
:101E2000F0E080818C7F808308956150770B91E092
:101E300001C0990F6A95EAF720E031E0911108C0DE
:101E4000222391F0589A80E28A95F1F758980895E4
:101E5000492F482339F0589A232740E24A95F1F751
:101E60009695ECCF5898F9CF5898EDCFFF920F93F5
:101E70001F93CF93DF93EC018C01060F111DC01748
:101E8000D10731F4DF91CF911F910F91FF90089509
:101E9000F9900E94AA0E68E08F2D0E94150FEFCFD7
:101EA0001F920F920FB60F9211242F933F934F93CF
:101EB0005F936F937F938F939F93AF93BF93CF93D2
:101EC000DF93EF93FF935898509AC091D201D0912D
:101ED000D3016D81662321F08E819F810E94360F90
:101EE0000E94AA0E80E18A95F1F758985098589A66
:101EF00080E18A95F1F76A81662309F18B819C81E3
:101F00000E94DA0EE881F981882311F088E001C08F
:101F100082E080830E94A20EFF91EF91DF91CF912A
:101F2000BF91AF919F918F917F916F915F914F91F1
:101F30003F912F910F900FBE0F901F901895E88141
:101F4000F981E4CFCF93DF93C091D201D091D30137
:101F5000F894509A589885E08A95F1F700005098C7
:101F6000589A80E28A95F1F7489B0CC0509A589A8B
:101F7000E881F98181E08083789481E090E0DF91CD
:101F8000CF9108956D81662381F08E819F810E949B
:101F9000DA0E81110AC0509A589AE881F98182E0DC
:101FA0008083789482E090E0EACF0E94A20E80E2E3
:101FB0008A95F1F75898509A80E18A95F1F76A81ED
:101FC000662321F08B819C810E94360F0E94AA0E0D
:101FD000E881F9811082789490E080E0D0CF9093EE
:101FE000D9018093D8010895E091D801F091D901E9
:101FF000309721F00190F081E02D099480E0089560
:10200000EF92FF920F931F93CF93DF938C01E09198
:10201000D801F091D9013097B1F10280F381E02D20
:1020200009958091670282FF2EC080FF04C085EA77
:1020300095E00E94F103E801780188E0E80EF11CC8
:102040000FE915E08091670280FF0BC088811F9225
:102050008F931F930F930E948A040F900F900F90FD
:102060000F902196CE15DF0569F78091670280FFFA
:102070000AC08DE995E0DF91CF911F910F91FF90FC
:10208000EF900C94F103DF91CF911F910F91FF908E
:10209000EF9008952091D6013091D7012817390784
:1020A00071F09093D7018093D601E091D801F0911F
:1020B000D901309721F00680F781E02D0994089529
:1020C0002091D4013091D5012817390771F09093F0
:1020D000D5018093D401E091D801F091D9013097D6
:1020E00021F00084F185E02D099408950E94EB1DF4
:1020F0006093ED017093EE018093EF019093F001F6
:102100006093E9017093EA018093EB019093EC01F5
:1021100008950E94EB1D6093ED017093EE01809392
:10212000EF019093F0016093E5017093E6018093D5
:10213000E7019093E801089585B7806885BF85B76A
:10214000806885BF0895089508950C94A31008959C
:102150000C94A7100E949C108AE990E20E94C51E70
:102160000E94A4100C94A5100C94220B08950895BD
:102170000E94D61D0E943E1E0E9462090E94CA1E35
:102180000E94530B0C94A810CF93C82F8091670224
:1021900082FF1EC080FF1CC08EEB95E00E94F10301
:1021A0008091670280FF14C01F92CF9389EB95E066
:1021B0009F938F930E948A04809167020F900F90E3
:1021C0000F900F9080FF04C087EB95E00E94F10311
:1021D0008C2FCF910C94DE06AF92BF92CF92DF92FC
:1021E000EF92FF920F931F93CF93DF9300D000D015
:1021F0000F92CDB7DEB70E94B6100E94B7100E94B2
:102200005C0A81110E9476108BEDA82E81E0B82E19
:1022100010E000E0C02E802F0E94F008F82EF5019B
:10222000E1905F01E81609F450C08091670281FDDA
:102230000E94F6088E2D8F25D12CEE24E394982F42
:102240009E2109F43DC00E94B410882399F0D982E0
:10225000CA82FE2081E009F480E08B830E94DF1DAA
:102260008160782F9D838C8349815A816B818D8118
:102270000E948C11F801E552FE4F8081E826E08231
:102280000E94B90B81110E9489100E94F40F909155
:10229000DA01891789F10E94F40F8093DA010F9017
:1022A0000F900F900F900F90DF91CF911F910F9192
:1022B000FF90EF90DF90CF90BF90AF900C94C41040
:1022C000D394EE0CF6E0DF12BACF0F5F1F4F0A3047
:1022D000110509F09FCF8FEF89838A831B820E94AB
:1022E000DF1D8160782F9D838C8349815A816B81AA
:1022F0008D810E948C11C4CF0F900F900F900F9082
:102300000F90DF91CF911F910F91FF90EF90DF9091
:10231000CF90BF90AF900895CF93DF93CDB7DEB746
:102320002B970FB6F894DEBF0FBECDBF4F835887F3
:1023300069877A878B8761110E94CC1B1E8285E09A
:10234000FE013796DE01119601900D928A95E1F714
:1023500049815A816B817C818D819E812B960FB63C
:10236000F894DEBF0FBECDBFDF91CF910C94C8179C
:10237000FC01808191810C944F1BCF93C82F88233F
:1023800009F482C08238C1F40E94F40F81FD7CC040
:1023900089E30E94851B0E94F91B2FEF31EE84E038
:1023A000215030408040E1F700C0000089E30E94E6
:1023B0008C1BCF910C94F91B8338A1F40E94F40F6D
:1023C00080FD62C083E50E94851B0E94F91B9FEF80
:1023D00021EE34E0915020403040E1F700C0000091
:1023E00083E5E5CF8438A1F40E94F40F82FD4CC050
:1023F00087E40E94851B0E94F91B8FEF91EE24E079
:10240000815090402040E1F700C0000087E4CFCF2A
:102410008CEF8C0F813A90F46C2F80911B0190917E
:102420001C010E94171D882329F08C2F0E948C1BF1
:102430000E94F91B8C2F0E94851BBBCF80E28C0F62
:10244000883048F4C77081E001C0880FCA95EAF768
:102450000E94AD1BAECF8BE58C0F833038F42C2F50
:102460002452330BC901CF910C944A10C85AC7317A
:1024700058F4EC2FF0E0EE0FFF1FE958FE4F80817B
:102480009181CF910C946010CF910895882309F425
:102490004BC0823871F40E94F40F81FF45C089E37C
:1024A0000E94851B0E94F91B89E30E948C1B0C94DF
:1024B000F91B833859F40E94F40F80FF35C083E57F
:1024C0000E94851B0E94F91B83E5EFCF843859F4E5
:1024D0000E94F40F82FF28C087E40E94851B0E949F
:1024E000F91B87E4E2CF9CEF980F913AF0F290E26B
:1024F000980F983050F4877091E001C0990F8A9539
:10250000EAF7892F0E94B31BD2CF9BE5980F933037
:1025100020F490E080E00C944A10885A873120F42F
:1025200090E080E00C94601008951F93CF93DF93A8
:10253000182FEB010E94BD11209731F4812FDF91FC
:10254000CF911F910C9446128FE99FE00197F1F70C
:1025500000C000002197F0CF70E060E0893311F4F3
:1025600060E570E00C949512882321F00E94AD1B69
:102570000C94F91B0895882321F00E94B31B0C943E
:10258000F91B0895AF92BF92CF92DF92EF92FF9224
:102590000F931F93CF93DF9300D000D00F92CDB74E
:1025A000DEB76C016D837983FC0112810581029590
:1025B0000F700E94A31BE82E8823A1F0E12E1123A7
:1025C00089F08981807F803429F08D81805EE12CC3
:1025D000883040F082E00E94441C0E94A31B91E0DE
:1025E000E82EE926A980A2949FE0A922B12CF5014A
:1025F000E751F94D0C94662609810F70F981F07F3F
:1026000011F00295007F1123B1F0002361F08D815C
:10261000805E883018F02D81211109C0802F0E9422
:10262000AD1B0E94F91B8D810E94BD1115C0802F2A
:102630000E94BE1BF6CF8D810E944612002361F0DE
:102640008D81805E883018F04D81411133C0802F1C
:102650000E94B31B0E94F91B48E0A41AB10854E081
:10266000A516B10420F40E94F40F0E94DE06EE20AD
:1026700009F4CBC10E949F1B80FDC7C1F6011282E5
:102680000E94991B0E94A419C6010E942C150E9449
:10269000991B0F900F900F900F900F90DF91CF919B
:1026A0001F910F91FF90EF90DF90CF90BF90AF9070
:1026B0000C94D519802F0E94C41BCCCF59815F7018
:1026C000F52E6981607F603219F0F29480EFF82274
:1026D0007D81772369F0713049F1112391F1002355
:1026E00051F1F601858180FF9ECF8F70858323C0D5
:1026F000112381F0011106C00E94E01B8F290E9466
:10270000B412AACF0130C1F70E94E01B8F290E94AA
:10271000E61BA2CF011106C00E94EF1B8F2D0E9465
:10272000BB129ACF013009F497CFF6CF112329F0CD
:10273000063008F091CF8F2DE2CF053008F08CCF16
:10274000EDCF002359F3FD81F93349F42FEF47EE24
:1027500053E0215040405040E1F700C000008D811F
:102760000E94461279CF898186958695837069F09B
:10277000813009F071CF8D8199819370111102C060
:1027800090E080E00E94601067CF8D819981937006
:10279000111102C090E080E00E944A105DCF898153
:1027A000837009F050C0111157CF4D814295469565
:1027B0004770440F440F8D818F7090E0B0E0A0E02F
:1027C000042E04C0880F991FAA1FBB1F0A94D2F7BA
:1027D0006D8100E010E0980164FF0FC00FE010E091
:1027E00020E030E004C0000F111F221F331F4A9564
:1027F000D2F700951095209530957981769576954C
:1028000073707D83B901A801482B592B6A2B7B2B50
:1028100049835A836B837C835D8169817A818B8153
:102820009C81523051F0533059F0513019F00E94D0
:102830001A1912CF0E94F2180FCF0E9442190CCF22
:102840000E94F01809CF112309F445C0698160FF87
:1028500003CF4D81429546954770440F440F8D81BB
:102860008F7090E0B0E0A0E0042E04C0880F991FA4
:10287000AA1FBB1F0A94D2F7ED8100E010E0980177
:10288000E4FF0FC00FE010E020E030E004C0000FD4
:10289000111F221F331F4A95D2F7009510952095DE
:1028A0003095F981F695F695F370FD83B901A8018D
:1028B000482B592B6A2B7B2B49835A836B837C8350
:1028C000F230A1F0F330C9F0F13049F0CB01BA0198
:1028D0000E94631AC1CE798171FFBECEBACF6981E1
:1028E0007A818B819C810E943B1AB6CE69817A8164
:1028F0008B819C810E948B1AAFCE69817A818B81FA
:102900009C810E946E19A8CE59815F705983112352
:1029100029F0852F0E94A4198D81F1CE8D810E940E
:10292000BB1289810E94D51997CE6D81623F99F1C2
:1029300060F4603FD9F0613F39F1112309F444C0DC
:10294000011171CE89818F7123C07D81733F41F167
:10295000743F99F7112371F189818F7189830E94E6
:10296000A41963E089810E942F1C76CE112341F0C7
:10297000053008F071CE89818F710E940A1A6CCEE1
:10298000063008F069CEF7CF89818F71112351F29B
:102990000E94A41961CE89818F711123C9F3C2CF1E
:1029A000112329F089818F710E947F1955CE0E94D1
:1029B0007A1952CE81E00E94441C023008F44CCEB9
:1029C00082E00E94441C48CE002361F09D8199332F
:1029D00009F0C5CEEFEFF7EE23E0E150F0402040E4
:1029E000E1F7BBCE89818F719DCF49814F706D8199
:1029F000C6010E94E6060E9462182ECE49814F70E1
:102A00006D81C6010E94E90627CE0F900F900F90AE
:102A10000F900F90DF91CF911F910F91FF90EF904A
:102A2000DF90CF90BF90AF9008950F931F93CF93F7
:102A3000DF93EC01688179818A810E945B1B8C01A4
:102A40000E94B31A0E94EF18B801CE01DF91CF9116
:102A50001F910F910C94C212CF93DF93EC018B81E5
:102A60009C81892B29F08981988189238F3F59F492
:102A7000DF91CF910895CE010E941515CE01DF910F
:102A8000CF910C942506CE010E9471068111F3CFDF
:102A90000E94A31B882361F38A81882349F382E083
:102AA000DF91CF910C94441C90E080E00E944A108A
:102AB00090E080E00E9460100E94CC1B0E94DD1B11
:102AC0000C94F91B0E94931B0C9454150E94BB1B81
:102AD0000C946215282F892F82958F70903C80F47A
:102AE0008A30B0F4843020F4823090F480E008958D
:102AF0008630E1F781E0283E88F0213FB9F70EC02B
:102B00008C3011F08F3091F793FB882780F908956E
:102B100081E0203F39F018F4283E40F70895243F23
:102B200029F7FCCF08950E944F1B0C946A15CF9390
:102B3000DF9300D000D00F92CDB7DEB70F900F908B
:102B40000F900F900F90DF91CF910895CF93DF9367
:102B500000D000D000D0CDB7DEB726960FB6F894DF
:102B6000DEBF0FBECDBFDF91CF9108951F93CF93EE
:102B7000DF93E091F20116E08091F3018E1304C01F
:102B8000DF91CF911F910895CE2FD0E01E9FF001CD
:102B90001124EC50FE4F4081518162817381848108
:102BA00095810E94A615FE013196E770E5CF409110
:102BB0002402509125026091260270912702809193
:102BC0002802909129020C94A6151F93CF93DF93AE
:102BD00080912902807FA9F480912602882389F0C0
:102BE0008091F201C091F30170912402609125025D
:102BF000A0912702B0912802D62FD72316E0C81340
:102C000004C0DF91CF911F91089590E0109711F0CB
:102C1000DF3F19F401968770F2CF189F9001199F3A
:102C2000300D1124F901EC50FE4F41816413F2CFB5
:102C300040814713EFCF42814111ECCF4381548152
:102C40004A1B5B0B483C510528F7809129028F7085
:102C5000806180932902F901E750FE4F80818F70D7
:102C60008061808384E292E00E942C15DF91CF91F5
:102C70001F910C94B615AF92BF92CF92DF92EF9254
:102C8000FF920F931F93CF93DF93CDB7DEB72B97B0
:102C90000FB6F894DEBF0FBECDBF8C0185E0F80102
:102CA000DE01179601900D928A95E1F7F8014081B7
:102CB0005181E28084E2A82E82E0B82E6091270242
:102CC000709128026115710549F0909124022091BC
:102CD0002502892F82238F3F09F045C1EE2009F498
:102CE00053C14F8358878F8198850E949315F82E82
:102CF000882309F449C186E0F801A4E2B2E001901A
:102D00000D928A95E1F784E292E00E94B8110E9448
:102D1000E51526C180912902382F307F683C710566
:102D200008F07CC03111B5C0FE2C251324C09413CB
:102D300022C0E11020C08F708061809329020E9420
:102D4000D71584E292E00E942C1580912902F801A7
:102D500085838F2D2B960FB6F894DEBF0FBECDBFA7
:102D6000DF91CF911F910F91FF90EF90DF90CF9067
:102D7000BF90AF900895CD2829F0842F85238F3FF1
:102D800009F084C080E0F82FF170DF2EE091F201AD
:102D90002091F30136E080FD1CC0EE20D1F280913D
:102DA0002902816080932902F12CD3CF8E2F90E0ED
:102DB0003E9FF0011124EC50FE4F6181651306C067
:102DC0006081641303C062816E11E7CFFC0131960C
:102DD000E770E213EBCF4F8358878F8198850E946D
:102DE0004F1B292F22952F70903260F0225F2F7099
:102DF000223078F49F7051F0F8019581907F31F482
:102E0000D12C0AC09F7011F08823D1F3805E8830E6
:102E1000B8F3C8010E942C15FD2C9BCF31116EC058
:102E20006E2D7A858B850E94971584E292E00E9430
:102E30002C1586E0F50111928A95E9F70E94D715C5
:102E4000B3CF86E0F801A4E2B2E001900D928A953A
:102E5000E1F77FCF4F8358878F8198850E94931524
:102E600081113DC080912902816080932902C801AF
:102E70000E942C156ECF6E2D7A858B850E9497153A
:102E800086E0F50111928A95E9F76AC081E08E2506
:102E90007ACF251306C0941304C0F801EE2009F47C
:102EA00053C04F8358878F8198850E94931588233C
:102EB00009F46AC0EE2009F467C0809129028032CB
:102EC00070F020912402309125023A8329831B82DD
:102ED000DD82CC828E83CE0101960E942C1586E085
:102EE000F801A4E2B2E001900D928A95E1F70E9408
:102EF000E5150E94D715FF24F3942BCF2513D1CFCE
:102F00009413CFCFE110CDCFF8018583C8010E9483
:102F10002C1586E0F50111928A95E9F71ACF251351
:102F200099CF941397CF8091290280FD8ACF982F53
:102F3000907F09F486CFF8018583903F31F0982F78
:102F4000907F905F8F70892B8583C8010E942C151C
:102F500086E0F801A4E2B2E001900D928A95E1F7D3
:102F60000E94D715F6CEC380D480F0902602F601D9
:102F7000E61BF70BBF01F110CDCE683C710508F0E0
:102F80007ACFFE2CE110CBCFC8010E942C15B3CF15
:102F90001F93CF93DF93CDB7DEB72C970FB6F8947E
:102FA000DEBF0FBECDBF4F83588769877A878B8777
:102FB0009C87CE0107960E943B16882369F08A857C
:102FC0009B85892B39F058854F81852F84238F3F2E
:102FD00009F071C016E05FC086E0FE013796DE01A1
:102FE000119601900D928A95E1F78A859B85892B30
:102FF00089F38F81988589238F3F61F32091F301B5
:1030000030E0C9010196877099274091F201481775
:10301000190671F40E9466151092F3011092F201E4
:1030200086E0E4E2F2E0DF011D928A95E9F7D2CF73
:1030300096E0929FD001939FB00D1124AC50BE4FEB
:10304000FE01319601900D929A95E1F78093F3017C
:103050000E94B615BFCF819FC00111248C509E4F96
:103060000E943B168823E9F0E091F2011E9FF001D7
:103070001124EC50FE4F4081518162817381848123
:1030800095810E94A6158091F20190E001968770CB
:1030900099278093F2018091F2019091F3018913B5
:1030A000DACF2C960FB6F894DEBF0FBECDBFDF91FE
:1030B000CF911F91089569857A858B859C850E94A3
:1030C000A61588CFEF92FF920F931F93CF93DF93B4
:1030D0008C01892B89F0F12CEE24E394E8012196F0
:1030E000F8018491843709F458C0A0F4823009F4BF
:1030F0003FC048F48130D1F0DF91CF911F910F9103
:10310000FF90EF9008959CEF980F9037A8F70E94DA
:10311000BD110AC0853709F44EC09CE7980F90375F
:1031200058F78F770E9446128E0116C00E5F1F4F10
:10313000FE01849190E2980F983060F48770FE2D24
:1031400001C0FF0F8A95EAF78F2F0E94CF1B0E94C4
:10315000F91B02C00E94BD118F2D882309F4BECF38
:10316000EFE9FFE03197F1F700C000008150F5CFA3
:103170000E5F1F4FFE01849190E2980F983050F43B
:103180008770FE2D01C0FF0F8A95EAF78F2F0E94EE
:10319000D51BDDCF0E944612DFCF0E5F1F4FFE0111
:1031A000C491CC23C9F28FE99FE00197F1F700C0E9
:1031B0000000C150F6CF0E5F1F4FFE01F490CCCF40
:1031C00008950C94E0180E94E118609356027093E1
:1031D000570280935802909359020C945415089505
:1031E0000C94E318CF93DF9300D000D0CDB7DEB7B7
:1031F00069837A838B839C838091560290915702D6
:10320000A0915802B091590229813A814B815C8189
:10321000282B392B4A2B5B2B29833A834B835C83E6
:10322000CA01B9010F900F900F900F90DF91CF91CD
:103230000C94E318CF93DF9300D000D0CDB7DEB766
:1032400069837A838B839C83809156029091570285
:10325000A0915802B091590229813A814B815C8139
:10326000282339234A235B2329833A834B835C83B6
:10327000CA01B9010F900F900F900F90DF91CF917D
:103280000C94E318CF93DF9300D000D0CDB7DEB716
:1032900069837A838B839C83809156029091570235
:1032A000A0915802B091590229813A814B815C81E9
:1032B000282739274A275B2729833A834B835C8356
:1032C000CA01B9010F900F900F900F90DF91CF912D
:1032D0000C94E3180C94E0180C946A190E946C1971
:1032E000609352027093530280935402909355025C
:1032F0000C94541560E070E0CB010C946E190F93A0
:103300001F93CF93DF9300D000D0CDB7DEB741E05D
:1033100050E060E070E08A019B0104C0000F111FC3
:10332000221F331F8A95D2F709831A832B833C838C
:10333000C901B8010F900F900F900F90DF91CF91BE
:103340001F910F910C946E190F931F93CF93DF93DE
:1033500000D000D0CDB7DEB741E050E060E070E0D3
:1033600004C0440F551F661F771F8A95D2F78091BE
:10337000520290915302A0915402B09155028A01D9
:103380009B01082B192B2A2B3B2B09831A832B8398
:103390003C83C901B8010F900F900F900F90DF91FF
:1033A000CF911F910F910C946E190F931F93CF9390
:1033B000DF9300D000D0CDB7DEB741E050E060E051
:1033C00070E004C0440F551F661F771F8A95D2F71F
:1033D000409550956095709580915202909153025E
:1033E000A0915402B09155028A019B010823192330
:1033F0002A233B2309831A832B833C83C901B80109
:103400000F900F900F900F90DF91CF911F910F9120
:103410000C946E190F931F93CF93DF9300D000D0BD
:10342000CDB7DEB741E050E060E070E004C0440F8B
:10343000551F661F771F8A95D2F78091520290918F
:103440005302A0915402B09155028A019B010827B2
:1034500019272A273B2709831A832B833C83C90119
:10346000B8010F900F900F900F90DF91CF911F91A7
:103470000F910C946E19CF93DF9300D000D0CDB78D
:10348000DEB769837A838B839C838091520290910B
:103490005302A0915402B091550229813A814B8187
:1034A0005C81282B392B4A2B5B2B29833A834B8356
:1034B0005C83CA01B9010F900F900F900F90DF91BC
:1034C000CF910C946E19CF93DF9300D000D0CDB77D
:1034D000DEB769837A838B839C83809152029091BB
:1034E0005302A0915402B091550229813A814B8137
:1034F0005C81282339234A235B2329833A834B8326
:103500005C83CA01B9010F900F900F900F90DF916B
:10351000CF910C946E19CF93DF9300D000D0CDB72C
:10352000DEB769837A838B839C838091520290916A
:103530005302A0915402B091550229813A814B81E6
:103540005C81282739274A275B2729833A834B83C5
:103550005C83CA01B9010F900F900F900F90DF911B
:10356000CF910C946E190895292F220FE22FE90FA5
:10357000EE0FE80F8E2F877041E001C0440F8A954F
:10358000EAF7E695E695E69585E0E89FF0011124D7
:10359000E65DFD4F30E020E070E05191DF011197D2
:1035A000CB01022E02C0969587950A94E2F78170AE
:1035B00081958527842385278C932F5F3F4F253066
:1035C000310559F70895292F220FE22FE90FEE0F49
:1035D000E80F9E2F9770E695E695E69585E0E89FC3
:1035E000F0011124E65DFD4F50E040E080E02191C4
:1035F00030E0092E02C0369527950A94E2F7217033
:103600003327042E01C0220F0A94EAF7822B4F5F62
:103610005F4F4530510559F70895BF92CF92DF9221
:10362000EF92FF920F931F93CF93DF938C01C09083
:103630005202D0905302E0905402F09055028091D3
:10364000560290915702A0915802B0915902C82A8F
:10365000D92AEA2AFB2ACFE1D0E0BC2ED701C60145
:103660000C2E04C0B695A795979587950A94D2F726
:1036700080FD0EC0219788F7B12C8B2DDF91CF9163
:103680001F910F91FF90EF90DF90CF90BF90089522
:10369000B8018C2F0E940607019761F3EECFCF93FC
:1036A000DF93D82FC92F0E940D1B6D2F7C2FDF9128
:1036B000CF910C9406071F93CF93DF93162FD72F2C
:1036C0009091F101992339F0862F972FDF91CF91B7
:1036D0001F910C944F1B882391F0862F972F0E94E7
:1036E0000D1BC82F682F812F9D2F0E94B41A612FA8
:1036F0007D2F8C2FDF91CF911F910C940607862F81
:10370000972F0E94E31AC82FF2CF682F80911B01D8
:1037100090911C010C94511D682F80911B01909178
:103720001C010C94531D80911B0190911C010C9461
:10373000551D80915A0285958595859508958091AE
:103740005A028770089590915A02977081E009F4A7
:1037500080E0089580916602089590916602982B0A
:10376000909366020895982F909580916602892320
:103770008093660208951092660208959091650202
:10378000982B909365020895982F909580916502EB
:10379000892380936502089510926502089590919F
:1037A0006402982B909364020895982F90958091CD
:1037B000640289238093640208951092640208953C
:1037C00080915B02089508950C94E31B90915B0235
:1037D000981721F080935B020C94E41B089580916C
:1037E0005B02882329F010925B0280E00C94E41BBA
:1037F0000895E0911B01F0911C0180916602808385
:10380000E0911B01F0911C01808190916502892B50
:103810008083E0911B01F0911C01808190916402F2
:10382000892B808390915B02992381F0E0911B01A9
:10383000F0911C018081892B808380911B019091E4
:103840001C010E94051D81110E94EF1B80911B012C
:1038500090911C010C94001008950C942C1C98E07D
:10386000899F90011124622B60935A020E94A4192F
:1038700080915A028595859585950C942D1C109202
:103880005A0280E00C942D1C90915A028095892355
:1038900080935A02282F277071F4282F082E000CCD
:1038A000330B9217130639F08595859585950E94FF
:1038B000D5190C943F1C089590E080E00E94882662
:1038C0009C0181E02B3E3E4F09F080E0089582E0AC
:1038D00090E00C94802683E090E00C948026682F82
:1038E00083E090E00C948E26CF9384E090E00E94D9
:1038F0008026C82F81E290E00E948026982F8C2F8E
:10390000CF910895CF93682FC92F84E090E00E9453
:103910008E266C2F81E290E0CF910C948E26AB0125
:10392000BC018FE090E00C94A026AB01BC0183E1C8
:1039300090E00C94A02660E070E0CB010C94951C04
:103940006BEE7EEF90E080E00E94AC2660E082E0CB
:1039500090E00E948E2660E083E090E00E948E2638
:103960001092560210925702109258021092590269
:1039700060E084E090E00E948E2660E081E290E0CA
:103980000E948E2660E085E090E00E948E2660E036
:1039900086E090E00E948E266FEF87E090E00E9424
:1039A0008E2640E050E0BA0188E090E00E94A02618
:1039B00060E08DE090E00E948E2640E050E0BA0189
:1039C00088E190E00E94A02660E087E190E00E94FC
:1039D0008E2640E050E0BA018CE190E00E94A026E3
:1039E00060E080E290E00E948E2640E050E0BA0164
:1039F00088E190E00E94A0260C9493040C94A01CF3
:103A0000682F8EE090E00C948E26AC019C012E5F16
:103A10003F4F485F5F4F80E02417350709F4089552
:103A2000F90191919F019923B9F38F5FF5CF9C0123
:103A3000662351F0FC013296285F3F4F8191861733
:103A400029F0E217F307D1F780E0089581E00895A7
:103A50009C01FC0132968FEF90E04191461751F0A6
:103A60008F3F19F4411101C0892F9F5F9630A9F74C
:103A70008F3F09F40895280F311D87FD3A95F9010C
:103A8000628308959C01FC013296285F3F4F81912B
:103A9000861303C0DF0111971C92E217F307B9F7F1
:103AA00008950C94281D0C94421DFC01329686E06A
:103AB000DF011D928A95E9F70895089508950C9401
:103AC0005E1D80919A02843049F10E945F1D80E062
:103AD0000E94DE061092680288E190E020E40FB6B2
:103AE000F894A895809360000FBE2093600083B780
:103AF000817F846083BF83B7816083BF789488951A
:103B000083B78E7F83BF0FB6F894A895809160002D
:103B1000886180936000109260000FBE0895089540
:103B2000CF930E945D1D0E945C0A0E948F1DC0E021
:103B30008C2F0E94F008811105C0CF5FCA30C1F7F9
:103B4000CF91089581E0FCCF08950C94A41D0E94AC
:103B500066150E94F40F0E94DE060C94A51D1F92AC
:103B60001FB61F9211248F939F93AF93BF938091A1
:103B70006802811113C080918C0290918D02A091F6
:103B80008E02B0918F024196A11DB11D80938C02CF
:103B900090938D02A0938E02B0938F02BF91AF914C
:103BA0009F918F911F901FBE1F90189582E084BD3A
:103BB00093E095BD9AEF97BD80936E0008952FB75F
:103BC000F89480918C0290918D02A0918E02B09118
:103BD0008F022FBF0895CF93DF9300D000D0CDB7D1
:103BE000DEB78FB7F89420918C0230918D0240910E
:103BF0008E0250918F0229833A834B835C838FBF5F
:103C000069817A818B819C810F900F900F900F902A
:103C1000DF91CF9108959C014FB7F89480918C0269
:103C200090918D02A0918E02B0918F024FBF821BA6
:103C3000930B089578941F921FB61F9211248F93AF
:103C40009F93AF93BF9380918C0290918D02A0912E
:103C50008E02B0918F020196A11DB11D80938C023E
:103C600090938D02A0938E02B0938F02BF91AF917B
:103C70009F918F911F901FBE1F90189510929002D8
:103C80001092910210929202109293020895CF9294
:103C9000DF92EF92FF92CF93DF9300D000D0CDB7A9
:103CA000DEB76B017C010E94220B81110EC00E94C5
:103CB000EB1DC61AD70AE80AF90AC0929002D09200
:103CC0009102E0929202F09293020F900F900F9067
:103CD0000F90DF91CF91FF90EF90DF90CF900895FC
:103CE000CF93DF9300D000D0CDB7DEB70E94220B78
:103CF000882341F00F900F900F900F90DF91CF919C
:103D00000C94EB1D0E94EB1D69837A838B839C834B
:103D10008091900290919102A0919202B0919302B1
:103D200029813A814B815C81280F391F4A1F5B1F13
:103D3000CA01B9010F900F900F900F90DF91CF91B2
:103D4000089581E08093E00080E28093D800109293
:103D5000C9008FE19EE40197F1F700C0000087E001
:103D600090EBDC018093A3029093A402A093A502A0
:103D7000B093A60288E19CE00FB6F894A8958093D2
:103D800060000FBE90936000FFCF9093B5018093C9
:103D9000B4010895CF93DF9300D000D0CDB7DEB744
:103DA0000E945C1C811102C00E94FE1C0E94671CC4
:103DB000809367020E94741C9093950280939402F2
:103DC0000E946B1C282F30E050E040E0CA01B9018E
:103DD0000E94F0188091520290915302A0915402D7
:103DE000B091550289839A83AB83BC83BC01CD011A
:103DF0000F900F900F900F90DF91CF910C946C1952
:103E00008091740208950895CF93DF9300D00F92AC
:103E1000CDB7DEB790919A02943019F589836A8301
:103E20007B8382E08093E9008FEF9091E8008150DE
:103E300095FD06C095ED9A95F1F700008111F5CF3B
:103E40008091E80085FF0DC050E040E063E070E045
:103E5000CE0101960E94C0218091E8008E77809368
:103E6000E8000F900F900F90DF91CF910895BC0163
:103E700084E00C94041FBC0183E00C94041FCF93D6
:103E8000DF93D82FC92F81E08093E9008FEF9091C5
:103E9000E800815095FD06C095ED9A95F1F7000078
:103EA0008111F5CF8091E80085FF16C050E040E019
:103EB00068E070E08D2F9C2F0E94C0218091E80067
:103EC0008E778093E80088E0ED2FFC2FACE6B2E01F
:103ED00001900D928A95E1F7DF91CF91089586EFD9
:103EE00095E00E94F10380919902811109C00E941E
:103EF00048230E94A5238091E20084608093E20021
:103F0000089582EF95E00E94F103109299020895BE
:103F10008EEE95E00C94F1038AEE95E00C94F1039B
:103F200086EE95E00C94F10320916A022F5F822FB8
:103F300062E30E944626992319F020936A020895AD
:103F400010926A0280916B028823F1F080919A02AC
:103F50008430C1F49091E9009F702091EC00822F91
:103F6000817020FD80E8892B93E09093E900909187
:103F7000EB0090FF04C09091EE0097FD08C08F7099
:103F80008093E90010926B0208951092F1009091D5
:103F9000E80095FDFACF9091E80090FFF0CF909166
:103FA000E8009E779093E800EACF42E061EC81E080
:103FB0000E94C42242E261EC82E00E94C42242E2FA
:103FC00061EC83E00C94C42280919C02893089F1D9
:103FD00048F4823009F49DC0833009F458C0813020
:103FE00041F008958A3009F484C08B3009F46AC026
:103FF000089580919B02813A09F048C08091E800C1
:10400000877F8093E80080919F029091A002892B86
:1040100061F468E08CE692E070E00E940F228091EB
:10402000E8008B778093E800089560E090E080E0FE
:10403000F3CF80919B02813249F580919F0290914C
:10404000A002029718F58091E800877F8093E8002E
:104050008091E80082FF16C09091F3008091F200F9
:10406000029729F48091F1008B7F813021F48091B7
:10407000F100809374028091E8008B778093E800D0
:104080000C94F82280919A028111E2CF08958091D8
:104090009B02813AD9F780919F029091A002892BCF
:1040A000A9F78091E800877F8093E8008091E8007D
:1040B00080FFFCCF809127018093F1008091E80080
:1040C0008E77DCCF80919B02813201F780919F0235
:1040D0009091A002892BD1F68091E800877F809390
:1040E000E8000E94F82280919D02809327010C94A1
:1040F000661580919B02813249F68091E800877FA6
:104100008093E8000E94F82280919E0280937502BD
:10411000089580919B02813A09F0B8CF8091E80020
:10412000877F8093E8008091E80080FFFCCF80913A
:104130007502C2CF9FB7F89410926B029FBF909107
:104140009A02943009F048C02091E9002F70309114
:10415000EC00932F917030FD90E8922B23E0209398
:10416000E9002091EB0020FF34C02091EE0027FFF2
:1041700030C020916902222321F02091E80025FF20
:1041800028C01092690226E03091E80035FF14C083
:104190008093F1008091E80085FD27C08091E800C0
:1041A00080FFFCCF8091E8008E778093E8009F70BD
:1041B0009093E90080E0089530919A02343049F4F8
:1041C0003091EB0035FD05C0215041F481E0809332
:1041D00069029F709093E9008FEF0895EFE9FFE087
:1041E0003197F1F700C00000CFCF8FB7F89421E0EE
:1041F00020936B028FBFDBCF84B7877F84BF0FB65E
:10420000F894A89580916000886180936000109276
:1042100060000FBE80E890E00FB6F89480936100D4
:10422000909361000FBE0E94AA100E9448230E9432
:10423000A5238091E20084608093E20078940E943C
:104240002B260E94B8108DE191E00E94EF0F85EDC2
:1042500095E00E94F10380919A02853051F481ED3E
:1042600095E00E94F10380919A02853049F00E9406
:10427000A71D0E94EC100E94B6100E94B710EBCF51
:104280000E94611D80919802882369F30E94901D0D
:10429000882349F30E94AA210E946615E4CF0C945A
:1042A0005121FC01CB01DA012F2F332723303105B7
:1042B000D1F070F42130310509F447C022303105C6
:1042C00069F48BE590E026E336E02D933C93089566
:1042D00021323105E9F02232310539F190E080E0F8
:1042E00030E020E0F2CFCF019927E13059F0823061
:1042F000910559F0E2E3F6E0892B81F7849190E093
:104300009F01E3CFE2E2F6E0F9CFEAEFF5E0F6CF86
:104310006330710518F7880F991FFC01E255FE4FB5
:104320002081318189E090E0D0CF63307105B0F613
:10433000FB01EE0FFF1FE855FE4F208131818B55A9
:104340009E4FFC01808190E0C0CF82E190E021E9A6
:1043500036E0BBCF80E189BD82E189BD09B400FEB2
:10436000FDCF8091D8008F7D8093D8008091E000B0
:1043700082608093E0008091E00081FDFCCF089591
:10438000AF92BF92CF92DF92FF920F931F93CF9382
:10439000DF936C01EB018A010E941723F82E811133
:1043A00023C00115110539F0F80180819181C81BE6
:1043B000D90BC80ED91EB12CA12C2097A9F0809141
:1043C000E80085FD22C08091E8008E778093E800A8
:1043D00001151105A1F0F80180819181A80EB91E87
:1043E000B182A08285E0F82E8F2DDF91CF911F91B1
:1043F0000F91FF90DF90CF90BF90AF9008950E94F3
:1044000017238823D1F2F82EEFCFF60181916F01A7
:104410008093F1002197FFEFAF1ABF0ACECFFC01C6
:10442000CB012091A1023091A2022617370790F00C
:10443000009729F42091E8002E772093E80040E0CF
:10444000009751F4411108C08091E80082FF31C00B
:1044500080E00895C901F3CF20919A022223A9F1A7
:104460002530A9F12091E80023FD2DC02091E8001E
:1044700022FDEACF2091E80020FFE2CF3091F30047
:104480002091F200009719F02830310558F041E0F2
:104490002830310509F040E02091E8002E77209384
:1044A000E800CECF41914093F10001972F5F3F4F3D
:1044B000E9CF80919A02882341F0853041F08091C4
:1044C000E80083FFC1CF81E0089582E0089583E092
:1044D0000895FC01CB012091A1023091A202261780
:1044E000370790F0009729F42091E8002E77209369
:1044F000E80040E0009751F4411108C08091E800C5
:1045000082FF32C080E00895C901F3CF20919A0262
:104510002223B1F12530B1F12091E80023FD2EC016
:104520002091E80022FDEACF2091E80020FFE2CFB1
:104530003091F3002091F200009719F028303105F6
:1045400058F041E02830310509F040E02091E800C2
:104550002E772093E800CECF44914093F10031961E
:1045600001972F5F3F4FE8CF80919A02882341F057
:10457000853041F08091E80083FFC0CF81E008954D
:1045800082E0089583E00895982F973028F08F7087
:104590008093E90081E008959093E900242F762F1D
:1045A00050E0981731F07091EC002091ED0050919F
:1045B000F00021FD02C09F5FE8CF3091EB003E7F0D
:1045C0003093EB003091ED003D7F3093ED00309162
:1045D000EB0031603093EB007093EC002093ED0022
:1045E0005093F0002091EE0027FDE5CF80E0089584
:1045F00080919B0287FF13C08091E80082FF06C074
:104600008091E8008B778093E80004C080919A0243
:104610008111F2CF089580919A028823D9F3809175
:10462000E80080FFF8CF8091E8008E77ECCF2091F2
:10463000E4003091E50095E6A9012091EC00822F7D
:10464000817020FF06C08091E80080FF06C080E0F6
:1046500008952091E80022FD1AC080919A028823D3
:1046600089F0853089F08091EB0085FD0FC02091A5
:10467000E4003091E50042175307F9F29150E1F65A
:1046800084E0089582E0089583E0089581E008952C
:104690000E94B6230E94BE23E0EEF0E0808181609C
:1046A0008083E8EDF0E080818F77808319BCA7EDEF
:1046B000B0E08C918E7F8C9380818F7E808310926E
:1046C000990208950F931F93CF93DF930E94B6230F
:1046D0000E94BE23C8EDD0E088818F7788838881CF
:1046E0008068888388818F7D888319BC10929A02A4
:1046F00010929602109298021092970200EE10E02B
:10470000F80180818B7F808388818160888342E08B
:1047100060E080E00E94C422E1EEF0E080818E7FC4
:104720008083E2EEF0E08081816080838081886018
:104730008083F80180818E7F808388818061888377
:10474000DF91CF911F910F910895E8EDF0E0808106
:104750008F7E8083E7EDF0E080818160808384E05C
:1047600082BF81E0809399020C946223E8EDF0E02F
:1047700080818E7F80831092E20008951092DA008B
:104780001092E10008951F920F920FB60F9211241C
:104790002F933F934F935F936F937F938F939F9349
:1047A000AF93BF93EF93FF938091E10082FF0BC023
:1047B0008091E20082FF07C08091E1008B7F8093AF
:1047C000E1000E94941F8091DA0080FF19C080915F
:1047D000D80080FF15C08091DA008E7F8093DA00C8
:1047E0008091D90080FF94C080E189BD82E189BDBC
:1047F00009B400FEFDCF81E080939A020E946F1FF2
:104800008091E10080FF19C08091E20080FF15C017
:104810008091E2008E7F8093E2008091E2008061CF
:104820008093E2008091D80080628093D80019BC08
:1048300085E080939A020E948C1F8091E10084FFA2
:1048400029C08091E20084FF25C080E189BD82E11A
:1048500089BD09B400FEFDCF8091D8008F7D809383
:10486000D8008091E1008F7E8093E1008091E2008A
:104870008F7E8093E2008091E20081608093E2006D
:1048800080919602882309F449C084E080939A02BB
:104890000E94901F8091E10083FF29C08091E20077
:1048A00083FF25C08091E100877F8093E10082E053
:1048B00080939A02109296028091E1008E7F8093FD
:1048C000E1008091E2008E7F8093E2008091E2001F
:1048D00080618093E20042E060E080E00E94C422B8
:1048E0008091F00088608093F0000E94881FFF9103
:1048F000EF91BF91AF919F918F917F916F915F9158
:104900004F913F912F910F900FBE0F901F901895D0
:1049100019BC10929A020E94811F72CF8091E3000D
:1049200087FD02C081E0B2CF83E0B0CF1F920F922B
:104930000FB60F9211242F933F934F935F936F9372
:104940007F938F939F93AF93BF93CF93DF93EF9317
:10495000FF93D091E900DF708091EC00C82FC17007
:1049600080FDC0E81092E9008091F000877F80937D
:10497000F00078940E94DA241092E9008091F0000F
:1049800088608093F000CD2BCF70C093E900FF9139
:10499000EF91DF91CF91BF91AF919F918F917F91D7
:1049A0006F915F914F913F912F910F900FBE0F909C
:1049B0001F9018951F93CF93DF93CDB7DEB7AA97BB
:1049C0000FB6F894DEBF0FBECDBF8BE992E0FC01BD
:1049D00001962091F100208322E0833A9207B9F7F3
:1049E0000E94E41F8091E80083FF1DC180919B021B
:1049F00090919C029A3008F016C1E92FF0E0E75040
:104A0000F94D0C946626803899F0823809F00BC174
:104A100080919F028F70873008F005C18093E90074
:104A20008091EB0085FB882780F91092E90006C091
:104A30008091970290919802911182609091E80084
:104A4000977F9093E8008093F1001092F10080919D
:104A5000E8008E77E4C0882309F4D2C0823009F0E0
:104A6000E2C080919D028111D5C080919F028F701C
:104A70002FEF280F263008F0D6C08093E900209150
:104A8000EB0020FFC7C0933031F48091EB008062CF
:104A90008093EB00BFC09091EB0090619093EB008E
:104AA00021E030E001C0220F8A95EAF72093EA0066
:104AB0001092EA008091EB008860EACF8111B3C0C8
:104AC00010919D021F778091E3008078812B809365
:104AD000E3008091E800877F8093E8000E94F8223D
:104AE0008091E80080FFFCCF8091E3008068809394
:104AF000E30082E0111183E080939A0294C0805811
:104B0000823008F090C080919D0290919E028C3D71
:104B100023E0920799F583E08A838AE289834FB77D
:104B2000F894DE01139620E03EE051E2E32FF0E03E
:104B300050935700849120FF03C082958F703F5F90
:104B40008F708A30C8F0895C90E08D939D932F5FC1
:104B5000243161F74FBF8091E800877F8093E800A0
:104B60006AE270E0CE0101960E940F228091E80077
:104B70008B778093E80057C0805DE6CF60919F02FD
:104B80007091A002AE014F5F5F4F0E944F21BC01A8
:104B9000892B09F448C08091E800877F8093E80062
:104BA00089819A810E946922E1CF8038E1F5809164
:104BB000E800877F8093E800809196028093F1005F
:104BC00046CF811130C090919D02923060F5809166
:104BD000E800877F8093E800909396020E94F82275
:104BE00080919602882311F084E005C08091E30053
:104BF00087FDFACF81E080939A020E94D51F13C0EF
:104C000080919D02813079F481E0933009F080E059
:104C1000809398021092E9008091E800877F80934A
:104C2000E8000E94F8228091E80083FF0AC080918A
:104C3000E800877F8093E8008091EB00806280939A
:104C4000EB00AA960FB6F894DEBF0FBECDBFDF9182
:104C5000CF911F910895CF9380919A028823A1F05C
:104C6000C091E900CF709091EC00892F817090FD88
:104C700080E8C82B1092E9008091E80083FD0E9433
:104C8000DA24CF70C093E900CF910895991B79E0A1
:104C900004C0991F961708F0961B881F7A95C9F7CC
:104CA0008095089597FB072E16F4009407D077FDA2
:104CB00009D00E946C2607FC05D03EF490958195A2
:104CC0009F4F0895709561957F4F0895EE0FFF1FD8
:104CD0000590F491E02D0994AA1BBB1B51E107C07C
:104CE000AA1FBB1FA617B70710F0A61BB70B881F7C
:104CF000991F5A95A9F780959095BC01CD0108950B
:104D0000F999FECF92BD81BDF89A992780B5089593
:104D1000A8E1B0E042E050E00C94B426262FF999C7
:104D2000FECF92BD81BDF89A019700B4021639F00A
:104D30001FBA20BD0FB6F894FA9AF99A0FBE0895DB
:104D40000396272F0E948F260E948E26252F0E94D1
:104D50008F26242F0C948F260196272F0E948F26B2
:104D60000C948E26DC01CB01FC01F999FECF06C024
:104D7000F2BDE1BDF89A319600B40D924150504019
:104D8000B8F70895F894FFCFCB04FB042C055A051F
:104D90008E059C05B005B405B805770D7D0D810D18
:104DA0008F0D930D970D9B0DA10DA90DAD0DB10D9F
:104DB000B50DC10DC50DC90DCD0DD30DF10DDB0D1B
:104DC000850D8B0DB90DBD0DA50DD70DE70DFA0D98
:104DD000FE0DFC12FC125E135E13B3132C132C1386
:104DE0002C13CF13841495149514F5142C132C1331
:104DF000FE1403252B2513262B2513265E257F2540
:064E00001326D525E12573
:104E0600F1F49392379431F0F5F6F70000000000C4
:104E1600013332C70104C80106CC015C02001F3F02
:104E26001F031F3B1F371F01313292F1F4000000B0
:104E36000000E200E900EA00B500B600B700CD00C8
:104E46008301CC008A0192019401210223022402EB
:104E56002502260227022A02B300B4006F00700062
:104E660094979337F0330000FF0100010000FFFF25
:104E76000000010001FF00E200E900EA00B500B60B
:104E860000B700CD008301CC008A01920194012174
:104E960002230224022502260227022A02B300B4B4
:104EA600006F007000403222F706C506A3064806CA
:044EB60061067A0611
:00000001FF
