:100000000C94F1050C9438060C9438060C943806C0
:100010000C9438060C9438060C9438060C94380668
:100020000C9438060C9438060C94DD2C0C94AF2DEF
:100030000C94A6250C9438060C9438060C943806BB
:100040000C9438060C9438060C9438060C94380638
:100050000C9438060C940E260C9438060C94380632
:100060000C9438060C9438060C9438060C94380618
:100070000C9438060C9438060C9438060C94380608
:100080000C9438060C9438060C9438060C943806F8
:100090000C9438060C9438060C9438060C943806E8
:1000A0000C9438060C9438060C9438067C097E09AA
:1000B0008909800982098409860988098B098D09C3
:1000C0008F099A09910993099509970999099C093A
:1000D000CB1ACB1AFD1AFD1A5C1BDB1CDB1CDB1CCC
:1000E0007C1B191C2A1C2A1CA71CB01CDB1CD41C42
:1000F0005B1D5B1D6D1D6D1D641D6D1D6D1D6D1DDD
:100100005B1D5B1D691D6D1D6D1D691D1C2E432E24
:10011000352F432E352F8F2EB22E352F082F172F28
:100120002B00F75CF85CF95C13001C0009000A0066
:10013000060015000F002A002961040012000800C3
:1001400018000C0007000B00170011001600280013
:10015000E100FA5C14000D000E001B000500100009
:100160001A0019001D00E100E000E300E200065162
:1001700003512C00000007510551E6000851E4002E
:100180002B0034003600370013001C0009000A0061
:10019000060015000F002A00296104001200080063
:1001A00018000C0007000B001700110016002800B3
:1001B000E100330014000D000E001B0005001000CC
:1001C0001A0019001D00E100E000E300E200065102
:1001D00004512C00000007510551E6000851E400CD
:1001E0002B0014001A000800150017001C0018004E
:1001F0000C00120013002A002961040016000700F9
:1002000009000A000B000D000E000F00330028004B
:10021000E1001D001B000600190005001100100080
:10022000360037003400E100E000E300E200065150
:1002300004512C00000007510551E6000851E4006C
:1002400001001E021F142002211422023002230288
:10025000250226023102010001002D00270225148B
:1002600026142D022D142402241427143800010012
:100270000100010006011B01190130142E02641453
:100280002F003400330001000100010001000100D3
:100290000100010000000100010001000100010057
:1002A00001001E021F022002210222022302240258
:1002B000260227022502010001002E022E002F0037
:1002C00030003802310038002F0230022D000100CA
:1002D0000100010006011B01190135023500310240
:1002E0000100010001000100010001000100010006
:1002F00001000100000001000100010001000100F7
:1003000001003A003B003C003D003E003F00400041
:100310004100420043000100010050004F00520024
:1003200051004400450046004B004A004C000100CB
:1003300001000100010001000100010001000100B5
:100340004E004D00490001000100010001000100C4
:100350000100010000000100010001000100010096
:1003600001004C0501000100010001000100010035
:100370000100010001000100010049040100AE007C
:100380000100010001000100010001000100010065
:10039000010029030100010001000100010001002A
:1003A0000100010001000100010001000100010045
:1003B0000100010000000100010001000100010036
:1003C0000100010001000100010001000100010025
:1003D000010001000100010001001E001F002000BB
:1003E0002100220023002400250026002700010010
:1003F00001000100010001000100010001000100F5
:1004000001000100010001000100010001000100E4
:1004100001000100000001000100010001000100D5
:1004200001000100010001000100010001000100C4
:1004300001000100010001000100010001000100B4
:1004400001000100010001000100010001000100A4
:100450000100010001000100010001000100010094
:10046000FB5CFC5CFD5C010001000100010001007F
:100470000100010000000100010001000100010075
:1004800044454255473A2064697361626C65642E45
:100490000A0044454255473A20656E61626C6564C6
:1004A0002E0A000A002530313662003A200025303D
:1004B0003258000A722F63203031323334353637E8
:1004C00038394142434445460A007267626C6967A5
:1004D00068742074696D65722064697361626C650B
:1004E0002E0A007267626C696768742074696D65B2
:1004F0007220656E61626C65642E0A007267626CC0
:10050000696768742073657420687376205B4E4F4A
:10051000454550524F4D5D3A2025752C25752C25AB
:10052000750A007267626C6967687420736574206D
:10053000687376205B454550524F4D5D3A202575D6
:100540002C25752C25750A007267626C69676874C2
:10055000207261696E626F772073657420687376AC
:100560003A2025642C25642C25642C25750A0072FC
:1005700067626C696768742064697361626C652086
:100580005B454550524F4D5D3A207267626C69671A
:1005900068745F636F6E6669672E656E61626C6515
:1005A000203D2025750A007267626C6967687420B7
:1005B000656E61626C65205B454550524F4D5D3AFA
:1005C000207267626C696768745F636F6E666967E3
:1005D0002E656E61626C65203D2025750A0072678C
:1005E000626C6967687420746F67676C65205B452F
:1005F0004550524F4D5D3A207267626C696768746E
:100600005F636F6E6669672E656E61626C65203D23
:100610002025750A007267626C69676874206D6FC7
:100620006465205B4E4F454550524F4D5D3A202545
:10063000750A007267626C69676874206D6F646523
:10064000205B454550524F4D5D3A2025750A00729A
:1006500067626C696768745F696E6974207267624B
:100660006C696768745F636F6E6669672E6D6F642F
:1006700065203D20302E20577269746520646566C0
:1006800061756C742076616C75657320746F20459C
:100690004550524F4D2E0A007267626C696768744C
:1006A0005F696E6974206565636F6E66696720694E
:1006B00073206E6F7420656E61626C65642E0A0033
:1006C0007267626C696768745F696E6974207374BD
:1006D000617274210A007267626C696768745F698D
:1006E0006E69742063616C6C65642E0A00726762C7
:1006F0006C696768745F636F6E6669672E73706597
:100700006564203D2025640A007267626C69676831
:10071000745F636F6E6669672E76616C203D20257D
:10072000640A007267626C696768745F636F6E6603
:1007300069672E736174203D2025640A0072676228
:100740006C696768745F636F6E6669672E6875654C
:10075000203D2025640A007267686C696768745FD1
:10076000636F6E6669672E6D6F6465203D2025643A
:100770000A007267626C696768745F636F6E6669AE
:10078000672E656E61626C65203D2025640A0072EB
:1007900067626C696768745F636F6E66696720453E
:1007A0004550524F4D3A0A0000047F3F1F643214F7
:1007B000643214783C1E1E140A052223252628299B
:1007C0002A2C2D2F3032333536383A3B3D3E4042CD
:1007D000434547494A4C4E5051535557595A5C5E10
:1007E0006062646668696B6D6F71737577797B7D24
:1007F0007F81838587898A8C8E90929496989A9C23
:100800009E9FA1A3A5A7A8AAACAEAFB1B3B4B6B83A
:10081000B9BBBCBEBFC1C2C3C5C6C7C9CACBCCCD9C
:10082000CED0D1D2D2D3D4D5D6D7D7D8D9D9DADA77
:10083000DBDBDBDCDCDCDCDCDDDDDDDDDCDCDCDCF7
:10084000DCDBDBDBDADAD9D9D8D7D7D6D5D4D3D22B
:10085000D2D1D0CECDCCCBCAC9C7C6C5C3C2C1BF09
:10086000BEBCBBB9B8B6B4B3B1AFAEACAAA8A7A56D
:10087000A3A19F9E9C9A98969492908E8C8A898729
:100880008583817F7D7B79777573716F6D6B696807
:10089000666462605E5C5A5957555351504E4C4ADB
:1008A0004947454342403E3D3B3A38363533323086
:1008B0002F2D2C2A292826252322FFAA7F554000E8
:1008C0000000000000000000000101010101010121
:1008D00001010202020202020202030303030303F4
:1008E00003040404040405050505050606060606BA
:1008F00007070707080808080909090A0A0A0B0B6D
:100900000B0C0C0C0D0D0D0E0E0E0F0F1010101108
:100910001112121313141415151616171718181987
:10092000191A1A1B1C1C1D1D1E1F1F2021212223EA
:100930002324252526272828292A2B2C2C2D2E2F29
:1009400030313132333435363738393A3B3C3D3E3D
:100950003F404142434445464748494B4C4D4E4F2A
:1009600050525354555758595A5C5D5E60616364E8
:100970006567686A6B6C6E6F7172747677797A7C72
:100980007D7F8182848687898B8D8E9092949597C6
:10099000999B9D9FA1A2A4A6A8AAACAEB0B2B4B6E2
:1009A000B9BBBDBFC1C3C5C8CACCCED0D3D5D7DAB9
:1009B000DCDEE1E3E6E8EAEDEFF2F4F7F9FCFF0A4A
:1009C000002530325820006B6579626F6172645F78
:1009D0007265706F72743A20000A00253032580038
:1009E0006B6579626F6172645F7365745F6C656477
:1009F0003A20004F6E6573686F743A2074696D65B4
:100A00006F75740A006261636B6C69676874207348
:100A10007465703A2025750A006261636B6C6967C2
:100A200068742064697361626C650A006261636B5B
:100A30006C6967687420656E61626C650A0062614A
:100A4000636B6C6967687420746F67676C653A20C4
:100A500025750A006261636B6C6967687420646560
:100A60006372656173653A2025750A006261636B84
:100A70006C6967687420696E6372656173653A209A
:100A800025750A005B735D004B6579626F61726466
:100A90002073746172742E0A005B575D005B535DB6
:100AA000005B525D005B445D005B435D000403300E
:100AB00000000012034E004900550020004D00695F
:100AC000006E006900000010034B00420044004625
:100AD0000061006E00730000000403090409025B5A
:100AE00000030100A0FA090400000103010100094C
:100AF00021110100012240000705810308000A09B5
:100B00000401000103000000092111010001223647
:100B1000000705820320000A090402000203000006
:100B20000009211101000122220007058303200092
:100B30000107050303200001120110010000000855
:100B4000EDFE60600100010203010631FF0974A19E
:100B5000010975150026FF009520750881020976A8
:100B6000150026FF00952075089102C00501098037
:100B7000A10185031601002603001A81002A8300C3
:100B8000751095018100C0050C0901A101850416AD
:100B90000100269C021A01002A9C02751095018111
:100BA00000C005010906A101050719E029E71500A4
:100BB00025019508750181029501750881010508D7
:100BC000190129059505750191029501750391019A
:100BD0000507190029FF150026FF009506750881F5
:100BE00000C011241FBECFEFDAE0DEBFCDBF04B6D8
:100BF00003FE27C080915D0290915E02A0915F028A
:100C0000B09160028730904BA740B04BD1F4109266
:100C10005D0210925E0210925F021092600214BE9A
:100C200084B7877F84BF0FB6F894A8958091600041
:100C3000886180936000109260000FBEE0E0F8E3EE
:100C4000099511E0A0E0B1E0EAE8F0E602C0059005
:100C50000D92A236B107D9F722E0A2E6B1E001C0B9
:100C60001D92AD35B207E1F70E94F6290C9443308E
:100C70000C940000FF93EF93E0916201F091630107
:100C8000309709F00995EF91FF910895FC01859146
:100C9000803011F0EFDFFBCF0895FF27E0E230E274
:100CA00047FF0CC0419597FF09C0EDE26095709534
:100CB00080959095611D711D811D911D27FF02C0BA
:100CC000219530E350E2AA27660F771F881F991FEE
:100CD000AA1FA41710F0A41B63955A95A9F7AA3070
:100CE00008F0A95FA05DAF93F395611571058105CB
:100CF000910541F7ED3211F4EF93F395F21718F4E3
:100D00003F93F395FBCF8F91B5DFFA95E1F7089507
:100D1000E991F9918591803021F0853219F0AADFAF
:100D2000F9CF089520E0E89455915532C1F350333E
:100D300011F4689455915A3348F4505390F3220FAC
:100D4000022E220F220F200D250FF4CF0EF4219535
:100D500089919991533619F3533729F1533559F144
:100D6000BC0188279927E8945C3621F489919991F0
:100D700068945591543639F446EF7EF077FF0DC0F4
:100D80008FEF9FEF0AC055374AE039F0583540E100
:100D900021F0523642E009F00895FF93EF937DDF92
:100DA000EF91FF91B7CFFF93EF93FC0181918030DA
:100DB000B9F360DFFBCFFF93EF9368DFF1CFDF93F1
:100DC000CF93CDB7DEB72596A3DFCF91DF910895FE
:100DD0006E9A769A0C94EC0608950895FB01893F6B
:100DE0002CE5920709F47EC058F4873F2CE5920762
:100DF000C1F008F045C0813E910509F4E3C00CC183
:100E00008B3F2CE5920709F4CCC008F49AC08C3FC4
:100E10002CE5920709F4CAC08D3F9C4509F4CBC06C
:100E2000FBC082818823A9F0E0911001F0911101AB
:100E3000808181FF07C08FE10E94021980916401C7
:100E40008160E8C081E30E940219809164018260A0
:100E5000E1C08091640180FF08C08FE10E94191AEF
:100E6000809164018E7F809364018091640181FF91
:100E7000D3C081E30E94191A809164018D7FCAC09A
:100E800082818823C1F0E0911001F09111018081ED
:100E900081FF0AC081EE0E94191A84E60E9402199D
:100EA000809164018064B6C086E30E94021980913B
:100EB00064018068AFC08091640186FF08C084E649
:100EC0000E94191A809164018F7B80936401809144
:100ED000640187FFA1C086E30E94191A8091640112
:100EE0008F7798C082818823A9F0E0911001F0915A
:100EF0001101808181FF07C084E60E940219809160
:100F00006401846087C087E30E94021980916401B4
:100F1000886080C08091640182FF08C084E60E94DE
:100F2000191A809164018B7F809364018091640120
:100F300083FF72C087E30E94191A80916401877F42
:100F400069C082818823C1F0E0911001F091110104
:100F5000808181FF07C087E30E94021980916401AC
:100F6000806158C081EE0E94021986E30E94021936
:100F70008091640180624EC08091640184FF08C04A
:100F800087E30E94191A809164018F7E8093640127
:100F90008091640185FF40C086E30E94191A81EEAA
:100FA00034C082818823C1F180E009C08281882316
:100FB00099F181E004C08281882371F182E00E946E
:100FC0004B082AC08281882321F081EE0E940219F9
:100FD0001BC081EE0E94191A8FE10E94191A80919C
:100FE00064018E7F8093640184E60E94191A8091C7
:100FF00064018B7F8093640187E30E94191A8091BA
:1010000064018F7E8093640186E30E94191A8091A7
:1010100064018F7D8093640181E00895089581E0EB
:1010200008950C94EE061F93CF93DF9300D000D069
:101030001F92CDB7DEB749835A83209199018981E8
:101040009A81211112C0662349F00E948022182F34
:10105000682F89819A810E94252203C00E94542210
:10106000182F69817A81812F04C00E9480226981B2
:101070007A810F900F900F900F900F90DF91CF918A
:101080001F910C94FC0AFC014081518162817381A3
:1010900084810C941308CF93DF9361E070E0EB013F
:1010A00002C0CC0FDD1F8A95E2F78C2F0E948C24A2
:1010B000BE0180E090E0DF91CF910C9426210C944A
:1010C000A70DE82FE295EF70F0E032A1282F2F70E6
:1010D00081E090E001C0880F2A95EAF7809583238C
:1010E00082A30895CF92DF92EF92FF92853030F481
:1010F000811105C0909180009F7D04C084E0909193
:101100008000906290938000282F30E0AFEFBFEF17
:101110000E94D42FDC01CB0142E0B695A7959795AC
:1011200087954A95D1F78C3724E19207A105B1053F
:1011300028F469E070E00E94842F27C08A50974D00
:10114000AF4FBF4F6627782F892F9A2F25EF38E2B0
:1011500041E050E00E94AC2F69017A01CA01B90157
:101160000E94682F9B01AC01C701B6010E94682F45
:10117000BB27A92F982F872F009721E0A207B10541
:1011800011F0BC0102C06FEF7FEF70938B00609392
:101190008A00FF90EF90DF90CF900895269A86E323
:1011A0000E94610882E28093800089E1809381003F
:1011B0008FEF9FEF90938700809386000C947126A9
:1011C0000E947924811102C00E940D250E94CE0840
:1011D0000C94E8060C940E080C94EA0808950E94FA
:1011E0004B1D0E94EE082FEF84E39CE021508040CD
:1011F0009040E1F700C000000C9434260F931F9339
:10120000CF93DF93EC010E9443088C01BE010E9442
:101210001108882329F1BE01C8010E94F516882310
:10122000F9F00A3C8CE51807E9F008F019C1033C15
:101230008CE51807F1F040F505318CE5180708F04A
:10124000AEC002308CE51807B0F501158CE5180723
:1012500009F082C0CA81CC2309F4C4C10E94EF08FE
:10126000C0E0C0C1CA81CC2309F4BCC10E94AA124B
:10127000F7CFCA81CC2309F4B5C10E9451238272F1
:10128000B9F00E94E514ECCF063C8CE5180709F490
:10129000BBC008F0CBC0043C8CE5180709F0BBC00C
:1012A000CA81CC2309F49EC10E945123827249F362
:1012B0000E94D814D5CF8A81882309F450C00E9497
:1012C0007924811102C00E940D250E94912490E092
:1012D00090934E0280934D02F801E350FC45E231B9
:1012E000F10530F4EA5AFF4F80914D020C94CE2F55
:1012F00080914D02816027C0826025C0846023C038
:10130000806121C080621FC080641DC080681BC0D6
:101310008460886018C08E7F16C08D7F14C08B7F5C
:1013200012C08F7E10C08F7D0EC08F7B0CC08F7758
:101330000AC08B7F877F07C087FB222720F991E0B7
:10134000922790FB87F980934D0280914D020E9475
:1013500095240E944B1D84CF01301C4539F0CE01ED
:10136000DF91CF911F910F910C940F08CA81CC236C
:1013700009F438C180910A02C82FC095C170C0FB22
:1013800080F980930A02CC2329F082E994E00E943C
:10139000460666CF80E894E00E94460623C10631E7
:1013A0008CE5180731F50E945123282F8A8140913E
:1013B000100150911101882379F02A7A91E009F403
:1013C00090E090936501911102C069E201C065E36C
:1013D000CA010E9441250AC080916501811102C0A5
:1013E00069E201C065E3CA010E9443250E94C2234D
:1013F00037CF023C1C4509F0B2CFCA81CC2309F497
:10140000F1C00E949E152CCFCA81CC2309F4EAC0FA
:101410000E946E1225CF053C1C4509F0A0CFCA8161
:10142000CC2309F4DFC00E9461121ACFCA81083CA4
:101430008CE5180731F4CC2309F4D4C00E948C1237
:101440000FCF093C1C4530F4CC2309F4CBC00E94DB
:101450007D1206CFCC2309F4C5C00E949B1200CF99
:10146000013D8CE5180779F4CA81CC2309F4BAC090
:101470000E948F108F3028F00E948F10843108F462
:1014800017CF8FE00EC0023D8CE5180708F058C05A
:101490000D3C8CE5180741F4CA81CC2309F4A2C0A5
:1014A00081E00E94E814DCCE0E3C8CE51807B0F415
:1014B0000B3C8CE5180739F4CA81CC2309F492C09F
:1014C0000E949710CDCE0C3C1C4509F048CFCA8134
:1014D000CC2309F487C00E94A810C2CECA810F3C59
:1014E0008CE5180771F4CC2309F47CC00E948F109E
:1014F000863028F00E948F10883008F4D9CE86E01C
:10150000D0CF003D1C4570F4CC2309F46BC00E9481
:101510008F10823028F00E948F10853008F4C8CEDA
:1015200082E0BFCFCC2309F45DC00E948F108930C8
:1015300028F00E948F108E3008F4BACE89E0B1CF27
:10154000053D8CE5180731F4CA81CC2309F44AC063
:1015500083E2A7CF063D8CE5180730F5CA81033D2D
:101560008CE5180721F4CC23E9F188E19ACF043DFA
:101570001C4568F4CC23B1F10E948F10853128F00E
:101580000E948F10873108F493CE85E18ACFCC2357
:1015900049F10E948F10893128F00E948F10823209
:1015A00008F486CE89E17DCF0D3D8CE5180739F42E
:1015B000CA81CC23B9F082E00E94A02A51CE0E3D10
:1015C0008CE5180731F4CA81CC2361F00E940D2507
:1015D00047CE0C3D1C4509F0C2CECA81CC2311F088
:1015E00080E0EACF8C2FDF91CF911F910F9108956A
:1015F00080E090E0089508959CE0799FF001112427
:1016000090E3899FE00DF11D1124E60FF11DEE0F0F
:10161000FF1FE05EFE4F859194910895880F991FFA
:10162000FC01ED55FB4F859194910895CF93DF9385
:101630000E94FC0A0E94070DEC01811521E592072A
:1016400008F042C0811560E5960708F02FC1883E7A
:10165000910500F5803E910508F0D5C1883A9105C5
:1016600070F4853A910508F0A4C08130910509F421
:10167000CAC108F47BC1049708F0C5C177C18F3B8C
:10168000910508F4A1C0803C910508F46FC1805C0D
:101690009109FBC0C11580E3D80780F4C11590E221
:1016A000D90708F0F0C0C03FD10508F45FC1CF3FB3
:1016B000D10511F008F0A7C1D065A5C1C11520E47E
:1016C000D20708F0F0C0E5C0811569E5960760F51E
:1016D000C11588E5D80708F035C1C11594E5D907CB
:1016E00078F4C11523E5D20708F011C1C11562E5F0
:1016F000D60708F0F6C0DC2FCC27C16FD06A83C1B3
:10170000C11585E5D80708F418C1C11596E5D907B4
:1017100008F02CC18C2F0E94840D8F71C82FD0E04F
:10172000DC2FCC27D0626FC18D3B2CE5920709F4EA
:1017300014C1E0F4CB3B8CE5D80709F408C108F0EC
:1017400009C1C1152AE5D20708F010C18C2F8F708E
:101750000E94840D94E0D695C7959A95E1F7CF70D5
:10176000D0E0DC2FCC27D069C82B4DC1803C9C45F4
:1017700009F4F9C0C13C8CE5D80760F4CE3B9CE588
:10178000D90709F4EDC0CF3BDC4509F0EFC0C0E05C
:10179000D2ED39C1CE0190568115904208F0E6C0D5
:1017A0008D2F8F710E94840DDD27D0628F71D82B11
:1017B0002AC1853A910509F4DCC0863A910509F001
:1017C000DBC0C2E8D0E41FC1883A910509F4D7C054
:1017D000893A910509F4D6C08A3A910509F4D5C031
:1017E0008B3A910509F4D4C08C3A910509F4D3C021
:1017F0008B3B910509F4D2C08C3B910509F4D1C013
:101800008D3A910509F4D0C0803B910509F4CFC011
:101810008E3A910509F4CEC08F3A910509F4CDC0F6
:10182000813B910509F4CCC0823B910509F4CBC002
:10183000833B910509F4CAC0843B910509F4C9C0F2
:10184000853B910509F4C8C0863B910509F4C7C0E2
:10185000873B910509F4C6C0883B910509F4C5C0D2
:10186000893B910509F4C4C08D3B910509F4C3C0BF
:101870008E3B910509F4C2C08A3B910509F4C1C0B1
:10188000C0E0D4E4C0C0CE019F700E940E0BEC01FA
:10189000BAC0CE019927D3FF03C0EC01D86CB3C006
:1018A000EC01D06CB0C0DF70D06AADC0837021E0B5
:1018B00030E002C0220F331F8A95E2F73C68CE0168
:1018C00074E0969587957A95E1F78370382BCF7001
:1018D000C695C69580E2C89FE0011124C22BD32B88
:1018E00092C04C2F4695469590E2499FA001112445
:1018F000C370DD2721E030E0C90102C0880F991FC5
:10190000CA95E2F7EC01C42BD52BDC687CC04C2FC8
:101910004695469580E2489FA0011124C370DD27BB
:1019200021E030E0C90102C0880F991FCA95E2F793
:10193000EC01C42BD52BDA6866C0DC2FCC27C46F32
:10194000D06A61C0DC2FCC27C06FD06A5CC0C0E019
:10195000D4ED59C0C0E0D5ED56C0C0E0D1ED53C0C4
:10196000C0E0D0ED50C0C0E0D3ED4DC0C0E0D0E04D
:101970004AC0C1E8D0E447C0C3E8D0E444C0C2EEE6
:10198000D4E441C0C9EED4E43EC0CAEED4E43BC0C6
:10199000C5EBD4E438C0C6EBD4E435C0C3EBD4E423
:1019A00032C0C4EBD4E42FC0C7EBD4E42CC0CCECE1
:1019B000D4E429C0CDECD4E426C0C3E8D5E423C0E8
:1019C000CAE8D5E420C0C2E9D5E41DC0C4E9D5E425
:1019D0001AC0C1E2D6E417C0C3E2D6E414C0C4E220
:1019E000D6E411C0C5E2D6E40EC0C6E2D6E40BC010
:1019F000C7E2D6E408C0CFE6D4E405C0C0E7D4E42B
:101A000002C0CAE2D6E4CE01DF91CF9108958238B8
:101A1000910549F1B0F48133910509F458C048F4B7
:101A20008932910509F44EC08A32910509F454C0F7
:101A300008958533910509F440C08933910599F0E3
:101A40000895833E910529F138F4803E910591F087
:101A5000823E9105A1F00895863E9105F9F0873EFA
:101A6000910531F1089520914D0220FD3AC021FDEC
:101A700038C0089580914D0280FD35C032C08091FC
:101A80004D0282FF32C080914D0284FD30C083EE52
:101A900039C080914D0282FD28C0F5CF80914D0262
:101AA00083FF27C080914D0284FD21C087EE2AC0AC
:101AB00080914D0283FD1DC0F5CF80914D0285FDC3
:101AC0001AC01BC080914D0285FD17C014C08091C3
:101AD0004D0286FD14C015C080914D0286FD11C0D7
:101AE0000EC080EE0FC089E30DC082EE0BC080E017
:101AF00009C086EE07C089E205C085E303C08AE21B
:101B000001C081E390E0089590914D0292FF0DC0D5
:101B1000282F2871283019F4877F846006C0282F69
:101B20002471243011F48B7F886093FF0DC0282F1F
:101B30002871283119F4877E846106C0282F24710A
:101B4000243111F48B7E886194FD877E08950C9476
:101B5000ED06E82FF0E0EE0FFF1FEA59FE4F8081FF
:101B600091810895CF92DF92EF92FF920F931F938E
:101B7000CF93DF9383EB94E00E94460686E6E82E3F
:101B800081E0F82EC0E0D0E09EEAC92E94E0D92E84
:101B900005EA14E0DF93CF93DF92CF920E94DF0635
:101BA0008BEA94E00E944606F701819191917F01B2
:101BB0000E945F249F938F931F930F930E94DF06D1
:101BC00083EA94E00E94460621968DB79EB7089658
:101BD0000FB6F8949EBF0FBE8DBFC430D105D1F6AD
:101BE000DF91CF911F910F91FF90EF90DF90CF90F9
:101BF0000895A9E2B1E041E050E024E02A0F8D9180
:101C0000E82FE295EF70F0E031A18F70BA0102C0C9
:101C1000660F771F8A95E2F7CB01962F9095932355
:101C200091A392A1892B82A32A13E9CFADE1B1E060
:101C300041E050E02CE02A0F8D91E82FE295EF7003
:101C4000F0E031A18F70BA0102C0660F771F8A954C
:101C5000E2F7CB01962F9095932391A392A1892B24
:101C600082A32A13E9CF10926F0110926E01109295
:101C7000670110926601109271011092700110922A
:101C80006901109268011092730110927201109212
:101C90006B0110926A0110927501109274011092FA
:101CA0006D0110926C0184E00E94EF0E0C94E0082C
:101CB0005F926F927F928F929F92AF92BF92CF92DC
:101CC000DF92EF92FF920F931F93CF93DF9309E27E
:101CD00011E0AEE6B1E0612CEE24E394F12C5D015D
:101CE0008D909C90119711961C921E92E8018991FB
:101CF0008E01E82FE295EF70F0E091A18F70A701BF
:101D000001C0440F8A95EAF7892F842B81A382A111
:101D1000542E5094852182A3D0EADA95F1F78DE113
:101D2000C82E81E0D82E80E090E0E60179906E0127
:101D3000272D22952F7030E0E90168A12D913C916B
:101D4000119770E0D72DDF7002C075956795DA9511
:101D5000E2F760FD08C0B701082E02C0660F771FCA
:101D60000A94E2F702C060E070E0262B372B119650
:101D70003C932E9301968C309105B9F681A1D52D17
:101D8000D823D1A382A1482B42A3129681E0F5016A
:101D9000208131818216930609F480E0682AF1E0FF
:101DA000A637BF0709F09BCF262D44E066E671E019
:101DB0008EE691E00E94F00E0E945F08862DDF9172
:101DC000CF911F910F91FF90EF90DF90CF90BF9038
:101DD000AF909F908F907F906F905F90089508953F
:101DE000FF920F931F93CF93DF93F82E092F162F97
:101DF000D72FC42F222349F081E0809378010E94DD
:101E0000D82590937701809376018091780188237B
:101E1000D9F080917601909177010E94E425069790
:101E200098F0EF2DF02FA12FBD2F80E090E04C2FE8
:101E300050E08417950734F4219131912D933D930F
:101E40000196F7CF10927801DF91CF911F910F91FA
:101E5000FF900895CF92DF92EF92FF920F931F931E
:101E6000CF93DF937B01282F382FE82FF0E0F1107C
:101E700006C0E154F74F6491762F862F7BC00F2D5B
:101E800010E046E0649FC0011124CFEFD0E0BE0116
:101E90000E94842FAB016BEA6403C001659F900D23
:101EA00011248E0D911D8E0D911D982F990F890F64
:101EB000BE01601B710B6E9FD0016F9FB00D7E9FA6
:101EC000B00D11249B2F8F9DB0011124672F772710
:101ED0007E01E61AF70AEE9EB001EF9E700DFE9E9F
:101EE000700D11246E01C81AD108C09E7001C19EE8
:101EF000F00CD09EF00C11240F2D1127C01BD10B1C
:101F0000CE9F8001CF9F100DDE9F100D1124812FD9
:101F10004230510591F04CF441155105E1F041304A
:101F20005105B9F4822F272F16C04430510569F0AE
:101F300044F04630510579F00CC0822F2B2F912FA1
:101F40000AC02B2F932F872F06C08B2F922F212F64
:101F500002C08B2F972FE22FF0E0E154F74F7491DE
:101F6000E82FF0E0E154F74F6491E92FF0E0E154FD
:101F7000F74F8491DF91CF911F910F91FF90EF90D8
:101F8000DF90CF9008950895CF93DF93762FE901E6
:101F9000682F842F0E942A0F798368838A83DF91B8
:101FA000CF91089580911A02282F269530E02115AF
:101FB000310519F48170826005C02532310524F0A5
:101FC0008170886480931A02089588E090E00C94F0
:101FD0000330CF93DF9300D000D0CDB7DEB7AB0195
:101FE000BC0149835A836B837C830E94D20F498151
:101FF0005A816B817C8188E090E00F900F900F9068
:102000000F90DF91CF910C942130EAE1F2E083E070
:10201000808311828FEF8283838314826081718138
:10202000828193810C94E90F80910A0280FF08C09D
:102030008FE897E09F938F930E94DF060F900F9099
:1020400080910A0280FF0FC080911A0281701F9256
:102050008F9382E797E09F938F930E94DF060F9004
:102060000F900F900F9080910A0280FF0FC0809117
:102070001A0286951F928F9387E597E09F938F931F
:102080000E94DF060F900F900F900F9080910A0230
:1020900080FF0EC080911B021F928F938DE397E00B
:1020A0009F938F930E94DF060F900F900F900F90D9
:1020B00080910A0280FF0EC080911C021F928F93B4
:1020C00083E297E09F938F930E94DF060F900F901B
:1020D0000F900F9080910A0280FF0EC080911D0228
:1020E0001F928F9389E097E09F938F930E94DF0662
:1020F0000F900F900F900F9080910A0280FF0EC0FA
:1021000080911E021F928F938DEE96E09F938F9386
:102110000E94DF060F900F900F900F90089580910E
:102120001A0280FF02C08695089580E0089580918C
:102130001E02833018F48F5F80931E0260911A0292
:1021400070911B0280911C0290911D020C94E90F6A
:1021500080911E02882319F0815080931E026091A5
:102160001A0270911B0280911C0290911D020C9426
:10217000E90F6091040170E080911A0280FF0AC0AB
:1021800080917D0123E0829FC0011124815E9D4FDB
:102190000C94851680917C0190910301891780F73A
:1021A000E82FF0E09F01220F331FE20FF31FE15EE3
:1021B000FD4F1182108212828F5FF0CF90911A0230
:1021C00090FF16C090917C0120910301921770F44A
:1021D000E92FF0E0DF01AA0FBB1FEA0FFB1FE15E52
:1021E000FD4F8183608342839F5FF0CF0C94B910D1
:1021F0000895CF93DF9300D01F92CDB7DEB79091B3
:102200001A0290FF0AC09E012F5F3F4F0E94C40F29
:102210004B8169818A810E94DE100F900F900F9090
:10222000DF91CF910895CF93DF93EC01EC81F0E043
:10223000E654F84F4491EAE1F2E0628181810E9424
:10224000F9108C818F5F8C83DF91CF910895CF93AC
:10225000DF93EC01EAE1F2E0438162818C810E942C
:10226000F9108C818F5F8C83DF91CF9108950F934C
:102270001F93CF93DF9300D01F92CDB7DEB78C01B1
:102280008091790181110AC09E012F5F3F4F4FEF6E
:102290006FEF0E94C40F8A8180937901F8018481D5
:1022A000813051F028F0823061F4409179010AC008
:1022B0008091790140E007C06091790140E080E0C1
:1022C00003C040E080E060E00E94DE10F80124815D
:1022D00030E0C901019663E070E00E94982F84838A
:1022E0000F900F900F90DF91CF911F910F91089554
:1022F0006F927F928F929F92AF92BF92CF92DF9216
:10230000EF92FF920F931F93CF93DF9300D000D0F3
:10231000CDB7DEB7182FD62E042FB22E90911A0209
:1023200090FFB2C0E92FE695AE2FB0E0A35DBE4F9F
:102330008C91809385019E7F923061F49E012F5F86
:102340003F4F812F0E94C40F4B8169818A810E9477
:10235000DE1060C0823019F400911D025BC086302F
:1023600019F410911B0256C08930D9F3893109F054
:1023700051C0E9518E2F80958170C82EE695F0E00E
:10238000E654F74FE590F490A12CFF2428E4822E28
:1023900025E0922E60910201A616D0F56A2C712CD0
:1023A0006E9CC0016F9C900D7E9C900D112470E07E
:1023B0000E94842F812FCC2011F0860F01C0861B34
:1023C00090910A0290FF13C0FF92EF921F92CF925A
:1023D0001F928F931F92AF929F928F928C830E9435
:1023E000DF060FB6F894DEBF0FBECDBF8C81909193
:1023F0007C01690E711C9301220F331F260D371DBE
:10240000215E3D4F402F6D2D0E94C40FA394C2CF7B
:102410000E94B91010931B02D0921C0200931D025F
:10242000BB20E9F060911A0270911B0280911C029E
:1024300090911D020E94E90F80910A0280FF24C042
:1024400080911D021F928F9380911C021F928F9387
:1024500080911B021F928F9383E295E00CC08091C4
:102460000A0280FF11C01F920F931F92DF921F92EA
:102470001F938CEF94E09F938F930E94DF060FB61B
:10248000F894DEBF0FBECDBF0F900F900F900F904E
:10249000DF91CF911F910F91FF90EF90DF90CF9040
:1024A000BF90AF909F908F907F906F900895EAE1DA
:1024B000F2E09181282F4381628188E0890F0C949A
:1024C000781181E00C945712EAE1F2E09181282F13
:1024D0004381628188EF890F0C94781181E00C941C
:1024E0006412EAE1F2E0628128E0620F08F46FEF23
:1024F000282F438181810C94781181E00C94711212
:10250000EAE1F2E0628128E0621B08F460E0282F33
:10251000438181810C94781181E00C948012EAE16E
:10252000F2E0438128E0420F08F44FEF282F628148
:1025300081810C94781181E00C948F12EAE1F2E031
:10254000438128E0421B08F440E0282F628181810A
:102550000C94781181E00C949E1220E00C94781178
:10256000FF920F931F93CF93DF93EC01F12C0FEFAA
:1025700010E060910201F616E8F420917C0130E051
:102580002F0D311DC901880F991F280F391F215E9A
:102590003D4F70E0C8010E94982F962F8C8140918A
:1025A0001D0260911C02F99E800D11240E94C40F2F
:1025B000F394DFCF0E94B9109A818C8190FF02C002
:1025C0008F5F01C081508C83DF91CF911F910F915C
:1025D000FF900895BF92CF92DF92EF92FF920F93F8
:1025E0001F93CF93DF93FC01828180FF02C00FEF26
:1025F00001C001E010E0809102011817E0F5C12E42
:10260000D12C80917C01E601C80FD11DCE01880F2D
:10261000991FC80FD91FC15EDD4F198218821A8217
:1026200034E0E32EF12CB12C80917B018B0D87FFE0
:1026300003C090910201890F082E000C990BC81657
:10264000D90691F480911D028E9DA0018F9D500DA1
:10265000112455954795559547959E0160911C020B
:1026600080911B020E94C40FB00EF1E0EF1AF10836
:10267000D9F61F5FC0CF0E94B91080917B01013055
:1026800031F4811102C080910201815007C090E0B5
:1026900001966091020170E00E94982F80937B0167
:1026A000DF91CF911F910F91FF90EF90DF90CF902E
:1026B000BF900895CF9380917C0190910301891779
:1026C00070F4E82FF0E09F01220F331FE20FF31F99
:1026D000E15EFD4F1182108212828F5FF0CFC0E069
:1026E00060910201C617B8F5EC2FF0E070E0CF0161
:1026F0000E94982F40917C01480F80917A01082E0A
:10270000000C990B50E0E817F907C4F02091010183
:10271000022E000C330B2E173F0784F09A01220F74
:10272000331F240F351F215E3D4F40911D026091E4
:102730001C0280911B020E94C40F0BC0FA01EE0F15
:10274000FF1F4E0F5F1FFA01E15EFD4F11821082E5
:102750001282CF5FC5CF0E94B910209100018091F5
:102760007A01820F80937A0190910101920F9093E8
:10277000010119165CF4082E000C990B409102011E
:1027800050E041505109841795071CF02195209382
:102790000001CF9108950F931F93CF93DF938C0186
:1027A000FC018481958101968170992795838483AA
:1027B000C0E0D5E580910201C817F8F420917C01B2
:1027C00030E02C0F311DC901880F991F280F391FC8
:1027D000215E3D4F4C2F4695F80184819581840FF1
:1027E000911D817040911D0260911C028D9F802D72
:1027F00011240E94C40FCF5FDDCFDF91CF911F91D5
:102800000F910C94B9100F931F93CF93DF93EC01AA
:1028100000E010E080910201282F30E0021713073A
:1028200024F590917C019801290F311DA901440FD5
:10283000551F240F351F215E3D4F869590E04C813A
:10284000081719071CF4442331F002C0411103C0DA
:1028500040911D0201C040E060911C0280911B026A
:102860000E94C40F0F5F1F4FD5CF0E94B9102C815B
:1028700030E02F5F3F4F217033272C83DF91CF91C2
:102880001F910F91089560911A02669570E04BE0D8
:1028900050E085E091E00E94EE2F892B19F481E051
:1028A000809386010E94D82590937F0180937E01BA
:1028B00080910A0280FF08C083EE94E09F938F937B
:1028C0000E94DF060F900F9008951092860180916C
:1028D0000A0280FF08C08AEC94E09F938F930E94C5
:1028E000DF060F900F90089590911A0290FF54C048
:1028F0009170811102C0926006C0853210F0986418
:1029000002C0880F982B90931A026623B1F0609151
:102910001A0270911B0280911C0290911D020E946C
:10292000E90F80910A0280FF1BC080911A028695F0
:102930001F928F9383E396E00BC080910A0280FF81
:102940000FC080911A0286951F928F9385E196E0C1
:102950009F938F930E94DF060F900F900F900F9020
:1029600060911A02669570E04BE050E085E091E0DE
:102970000E94EE2F892B19F00E94651402C00E945C
:10298000431481E08093810140911D0260911C02FB
:1029900080911B020C94AD120895682F90911A0239
:1029A000969581E0890F853208F081E00C947414CB
:1029B00081E00C94CD14682F90911A0296958FEFB8
:1029C000890F09F484E20C94741481E00C94DB14F4
:1029D00061E00C94741480911A02816080931A0251
:1029E00080910A0280FF0DC01F9281E08F9387EAD9
:1029F00095E09F938F930E94DF060F900F900F90AA
:102A00000F9080911A0286950C94E81460E00C9463
:102A1000741480918401811161C080910A028160E7
:102A200080930A0286ED96E09F938F930E94DF06C3
:102A300080910A020F900F9080FF08C080EC96E012
:102A40009F938F930E94DF060F900F900E9479242E
:102A5000811110C080910A0280FF08C088E996E0C9
:102A60009F938F930E94DF060F900F900E940D2579
:102A70000E9405100E94E50F60931A0270931B02DA
:102A800080931C0290931D026E7FC1F480910A0214
:102A900080FF08C08FE496E09F938F930E94DF062B
:102AA0000F900F900E9405100E94E50F60931A028C
:102AB00070931B0280931C0290931D020E94D20F00
:102AC0000E9414101092860180911A0280FF03C0A8
:102AD00086950E94061581E0809384010895809177
:102AE0001A028E7F80931A0260911A0270911B0263
:102AF00080911C0290911D020E94E90F80910A02B0
:102B000080FF0FC080911A0281701F928F938FE611
:102B100095E09F938F930E94DF060F900F900F9088
:102B20000F900E9465142FEF80E792E021508040C3
:102B30009040E1F700C000000C94B91080910A02A7
:102B400080FF10C080911A02809581701F928F9330
:102B50008EED95E09F938F930E94DF060F900F906C
:102B60000F900F9080911A0280FD0C946F150C94B9
:102B7000EB140F931F93CF93DF93809186018823EB
:102B800009F48CC080918501E0911A02E695E81B5A
:102B9000E0938001823049F4F0E0EA54F84FE49188
:102BA000CE2FD0E003E111E149C0863049F4F0E0D6
:102BB000ED54F84FE491CE2FD0E007E211E13EC092
:102BC000893051F4E695F0E0E055F84FE491CE2FCE
:102BD000D0E000EB12E132C08F3051F4E695F0E026
:102BE000E355F84FE491CE2FD0E00AEE12E126C073
:102BF000853149F4F0E0E655F84FE491CE2FD0E06E
:102C00000AE513E11BC0883181F0833239F4E8EA28
:102C1000F7E0C591D49107E311E110C0843251F47B
:102C2000C4EFD1E003E014E109C0C8EED3E00BEC3F
:102C300013E104C0C0EDD7E003EC1FE080918101F7
:102C4000882389F0109281010E94D8259E01209549
:102C50003095820F931F90937F0180937E01109295
:102C600083011092820180917E0190917F010E94E8
:102C7000E4258C179D0790F0E0917E01F0917F0193
:102C8000CE0FDF1FD0937F01C0937E018EE791E0CE
:102C9000F801DF91CF911F910F910994DF91CF91AE
:102CA0001F910F9108952EB1342F309523233EB1FB
:102CB000432B3FB7F894FC01680F791FE617F7071D
:102CC00089F0819198E04EB9000000C087FF2EB9CD
:102CD000880F000000C000C000C02EB900C09A9547
:102CE00091F7ECCF3FBF08952DB1242B2DB99B0157
:102CF000220F331F620F731F0E94531687EC90E060
:102D00000197F1F700C00000089544E00C94741698
:102D10000F931F93CF93DF93C62FD42F022FFC0165
:102D200082818823C9F0609389010E94D8259093FD
:102D300088018093870180E28C0F883008F050C0B2
:102D4000C77081E001C0880FCA95EAF7DF91CF9183
:102D50001F910F910C948B1A10918901161330C09A
:102D600080918701909188010E94E425883C91051B
:102D700038F5C0E2CD0F1D17B9F080E2810F883021
:102D800040F4177081E001C0880F1A95EAF70E949D
:102D9000921AC83048F481E09D2F977001C0880FC7
:102DA0009A95EAF70E948B1A802F0E94781AC830F1
:102DB000B8F4D77081E001C0880FDA95EAF70AC04D
:102DC00080E28C0F883060F4C77081E001C0880F0A
:102DD000CA95EAF7DF91CF911F910F910C94921A47
:102DE000DF91CF911F910F9108959C01CB01203F5E
:102DF0004CE53407F9F078F4283DFCE53F07B9F0DD
:102E0000293D4CE5340711F1273D3C4531F526E2DB
:102E100041EE61EE1EC0223FFCE53F0799F070F0E5
:102E2000233F3C45D1F427E245EE66EE12C027E28F
:102E300045EE0EC026E241EE60EE0BC027E245EE05
:102E400064EE07C026E241EE62EE03C028E241E0F4
:102E500065EE0E94881680E00895FC018281882337
:102E600019F010928901089581E0089590938F01DF
:102E700080938E010895E0918E01F0918F0130973B
:102E800021F00190F081E02D099480E00895EF9207
:102E9000FF920F931F93CF93DF93E0918E01F091F8
:102EA0008F013097B1F18C010280F381E02D0995FB
:102EB00080910A0282FF2DC080FF04C087EC99E058
:102EC0000E944606E80118E081ECE82E89E0F82E21
:102ED00080910A0280FF0BC088811F928F93FF921E
:102EE000EF920E94DF060F900F900F900F901150FD
:102EF00021961111EDCF80910A0280FF0AC08FEB5D
:102F000099E0DF91CF911F910F91FF90EF900C947A
:102F10004606DF91CF911F910F91FF90EF9008959A
:102F200020918C0130918D018217930771F090935D
:102F30008D0180938C01E0918E01F0918F0130978B
:102F400021F00680F781E02D0994089520918A01EF
:102F500030918B018217930771F090938B018093CE
:102F60008A01E0918E01F0918F01309721F0008469
:102F7000F185E02D0994089585B7806885BF85B7F0
:102F8000806885BF0895089508950C94C417089526
:102F90000C94C7170E94BC170E94C3170C94C51746
:102FA00081E008950E94CF250E94F90D0E945826C5
:102FB0000E9471260E9409150C94C817CF93C82F40
:102FC00080910A0282FF1EC080FF04C080EE99E05B
:102FD0000E94460680910A0280FF0CC01F92CF9388
:102FE0008BED99E09F938F930E94DF060F900F90D7
:102FF0000F900F9080910A0280FF04C089ED99E044
:103000000E9446068C2FCF910C94EC084F925F9251
:103010007F928F929F92AF92BF92CF92DF92EF9268
:10302000FF920F931F93CF93DF93CDB7DEB72A970D
:103030000FB6F894DEBF0FBECDBF0E94580E0E949F
:10304000D017811111C08FEF89838A831B820E9460
:10305000D8258160782F9D838C8349815A816B812B
:103060008D810E94C21857C091E9C92E91E0D92ED6
:1030700000E010E0AA24A394B12C702E802F0E94AF
:10308000A90D4C01F601419051906F014826592637
:103090004114510431F40F5F1F4F0430110569F7DB
:1030A000D2CF80910A0281FD0E94B20D20E030E073
:1030B0007501022E02C0EE0CFF1C0A94E2F7C70154
:1030C00084219521892B09F12E837F828E209F20D8
:1030D00091E0892809F490E098870E94D8258160C2
:1030E000782F9A8789874E815F8168858A850E94BB
:1030F000C218000F111FF801EF56FE4F8081918119
:10310000E826F926F182E08206C02F5F3F4F2C307F
:10311000310571F6C0CF109190010E943B1718172E
:10312000D9F00E943B17809390012A960FB6F8942D
:10313000DEBF0FBECDBFDF91CF911F910F91FF90EA
:10314000EF90DF90CF90BF90AF909F908F907F9047
:103150005F904F900C94DE172A960FB6F894DEBF5E
:103160000FBECDBFDF91CF911F910F91FF90EF90D8
:10317000DF90CF90BF90AF909F908F907F905F90A7
:103180004F900895CF93DF93CDB7DEB72B970FB64F
:10319000F894DEBF0FBECDBF4F83588769877A870B
:1031A0008B87DE01119686E0FD0111928A95E9F781
:1031B00085E0FE01379601900D928A95E1F70E9415
:1031C0001F23882319F082E00E942B240E94F22200
:1031D00081110E94B42349815A816B817C818D8148
:1031E0009E810E94F51F2B960FB6F894DEBF0FBE8E
:1031F000CDBFDF91CF910895FC01808191810E9424
:10320000C1220895882309F413C1682F8238C1F4BC
:103210000E943B1781FD0CC169E3809110019091E0
:1032200011010E9441250E94C2232FEF81EE94E0FC
:10323000215080409040E1F700C0000069E319C0D0
:103240008338F9F40E943B1780FDF2C063E580915A
:103250001001909111010E9441250E94C2232FEF7D
:1032600081EE94E0215080409040E1F700C00000E2
:1032700063E580911001909111010E9443250C9407
:10328000C2238438C1F40E943B1782FDD1C067E499
:1032900080911001909111010E9441250E94C2234A
:1032A0002FEF81EE94E0215080409040E1F700C084
:1032B000000067E4DECF8CEF860F813A38F480910E
:1032C0001001909111010E944125D9CF80E2860F13
:1032D000883048F4677081E001C0880F6A95EAF78A
:1032E0000E945423CCCF8BE5860F833070F4653A6F
:1032F00029F0663A31F083E890E005C081E890E07B
:1033000002C082E890E00C94901788E5860F873120
:1033100008F08EC0683A09F445C0693A09F445C01E
:103320006A3A09F445C06B3A09F445C06C3A09F4AD
:1033300045C06B3B09F445C06C3B09F445C06D3A90
:1033400009F445C0603B09F445C06E3A09F445C034
:103350006F3A09F445C0613B09F445C0623B09F48A
:1033600045C0633B09F445C0643B09F445C0653B77
:1033700009F445C0663B09F445C0673B09F445C004
:10338000683B09F445C0693B09F445C06D3B09F44D
:1033900045C06E3B09F445C06A3B09F445C080E076
:1033A00090E044C082EE90E041C089EE90E03EC0E3
:1033B0008AEE90E03BC085EB90E038C086EB90E071
:1033C00035C083EB90E032C084EB90E02FC087EBF8
:1033D00090E02CC08CEC90E029C08DEC90E026C0F1
:1033E00083E891E023C08AE891E020C082E991E07F
:1033F0001DC084E991E01AC081E292E017C083E227
:1034000092E014C084E292E011C085E292E00EC026
:1034100086E292E00BC087E292E008C08FE690E07F
:1034200005C080E790E002C08AE292E00C94A61703
:103430000895882309F45BC0682F823879F40E94CC
:103440003B1781FF54C069E38091100190911101F5
:103450000E9441250E94C22369E310C08338B1F461
:103460000E943B1780FF43C063E58091100190915B
:1034700011010E9441250E94C22363E58091100141
:10348000909111010E9443250C94C223843879F451
:103490000E943B1782FF2BC067E48091100190913E
:1034A00011010E9441250E94C22367E4E7CF8CEFFF
:1034B000860F813A18F380E2860F883048F46770EF
:1034C00081E001C0880F6A95EAF70E945A23DCCF99
:1034D0008BE5860F833020F480E090E00C94901709
:1034E000685A673120F480E090E00C94A6170895A4
:1034F000CF93C82F0E940219C93349F42FEF87EEEA
:1035000093E0215080409040E1F700C000008C2FF4
:10351000CF910C94191A882321F00E9454230C9403
:10352000C2230895882321F00E945A230C94C223B9
:103530000895BF92CF92DF92EF92FF920F931F9365
:10354000CF93DF937C01062FC72FFC0115811295C5
:103550001F70D281D1110E9471230E944A238823B7
:1035600079F0DD2369F080E2800F883048F082E056
:103570000E942B240E944A2391E0B82EB92601C054
:10358000B12CCC2EC2948FE0C822D12CF601E85980
:10359000FF4F0C94CE2F8C2F807FCF70882311F09B
:1035A000C295C07FDD2399F0CC2309F4BAC180E233
:1035B000800F883010F0011104C08C2F0E9454231A
:1035C00003C08C2F0E9464230E94C223AAC1802FB3
:1035D0000E94191ACC2309F4EEC180E2800F8830D2
:1035E00010F0011104C08C2F0E945A2303C08C2FAD
:1035F0000E946A230E94C223DEC18C2F807FCF707D
:10360000803211F0C295C07F002319F0013059F1CA
:1036100034C0DD23B1F0112381F0113031F40E9468
:1036200084238C2B0E94A023C6C1153031F40E9444
:10363000B4238C2F0E948A232AC00E9484238C2BBF
:1036400027C0112369F0113041F40E9451238C23CB
:1036500009F4B1C10E94932303C0153009F4ABC132
:103660000E94B42325C0DD2321F0163008F0A3C149
:103670000EC0153008F09FC11BC0DD2361F011237F
:1036800031F0F701858180FF4CC18F7085838C2FCD
:103690000E948B1A90C1112359F0093309F053C1CC
:1036A000FFEF27EE83E0F15020408040E1F749C171
:1036B0008C2F0E94921A7FC18C2F869586958370DD
:1036C00090E0009719F0019761F075C1DD2321F0BA
:1036D000802F9C2F937002C080E090E00E94901792
:1036E00075C1DD2321F0802F9C2F937002C080E0F4
:1036F00090E00E94A6176AC18C2F837009F049C020
:10370000D11160C1402F429546954770440F440F38
:10371000602F6F70862F90E0A0E0B0E0042E04C010
:10372000880F991FAA1FBB1F0A94D2F704FF10C06D
:103730000FE010E020E030E004C0000F111F221F56
:10374000331F4A95D2F7009510952095309503C008
:1037500000E010E09801C695C695C370D0E0BC01AA
:10376000CD01602B712B822B932BC230D10559F0E8
:10377000C330D10559F0219719F00E943A2122C196
:103780000E9428211FC10E944C211CC10E94262199
:1037900019C1DD2319F08C2F817001C08695882313
:1037A00009F410C1402F429546954770440F440FCD
:1037B000602F6F70862F90E0A0E0B0E0042E04C070
:1037C000880F991FAA1FBB1F0A94D2F704FF10C0CD
:1037D0000FE010E020E030E004C0000F111F221FB6
:1037E000331F4A95D2F7009510952095309503C068
:1037F00000E010E09801C695C695C370D0E0BC010A
:10380000CD01602B712B822B932BC230D10559F047
:10381000C330D10559F0219719F00E940022D2C07F
:103820000E94EE21CFC00E941222CCC00E946121D2
:10383000C9C0CF70DD2339F08C2F0E948721802FE3
:103840000E948B1ABFC0802F0E94921A8C2F0E9458
:10385000A821B8C0023F01F128F4003F41F0013F28
:10386000A1F05AC0033FF9F0043F39F155C0DD2300
:1038700041F0153008F09FC08C2F8F710E94CD2130
:103880009AC0163008F097C0F7CFDD2339F08C2F9F
:103890008F710E9487218FC0DD23C9F38C2F8F7118
:1038A0000E94A82188C0DD2329F08C2F8F710E94EF
:1038B000722181C00E946D217EC0DD23C9F00E946B
:1038C000EF220E945A230E941B23843039F40E9465
:1038D00022248C2F8F710E94A82194C0153008F0EB
:1038E00091C0CF718C2F0E94872163E08C2F0DC077
:1038F0000E94EF220E945423153050F00E9422248F
:103900000E94932364E08C2F8F710E940C247AC054
:1039100081E00E942B2476C0DD2339F0112309F4C5
:10392000B6CF802F0E94021946C0112309F4B6CFEA
:10393000093349F49FEFE7EEF3E09150E040F040A7
:10394000E1F700C00000802F0E94191A34C04C2FEC
:103950004F70602FC7010E94F80A0E94992036C05C
:10396000D11134C0CF70D0E0C230D10599F03CF411
:10397000209769F02197F9F40E94CA2627C0C43025
:10398000D10571F054F02597B1F480E00AC00E948F
:1039900092261CC00E943E2719C00E945A2716C0BA
:1039A00084E00E94982712C04C2F4F70602FC701EF
:1039B0000E94FB0A0BC028E0C21AD10884E0C81696
:1039C000D10420F40E943B170E94EC08BB20E1F0D8
:1039D0000E941B2380FD18C0F70112820E9415234C
:1039E0000E948721C7010E940E1D0E941523DF91AE
:1039F000CF911F910F91FF90EF90DF90CF90BF90EC
:103A00000C94A821B12CDECFDF91CF911F910F91A3
:103A1000FF90EF90DF90CF90BF9008950F931F938A
:103A2000CF93DF93EC01888199812B813C81232BFB
:103A3000B9F09F3F11F48F3F99F0CE010E94FE082C
:103A4000882371F0688179818A810E94CC228C015F
:103A50000E9424220E942521B801CE010E94991AB9
:103A6000DF91CF911F910F9108950E9471230E94C1
:103A700081230E94C22380E090E00E94901780E0A2
:103A800090E00C94A61780911001909111010E9472
:103A900045250C94351D0E9461230C94431DE92F8C
:103AA000E295EF70F0E03297EE30F105B0F4E858AF
:103AB000FF4F0C94CE2F803F91F018F4883E68F4AD
:103AC0000EC0843F51F40BC0883E48F0813F29F47A
:103AD00006C093FB882780F9089580E0089581E06F
:103AE00008950E94C1220E944F1D0895CF93DF9335
:103AF00000D000D01F92CDB7DEB70F900F900F907F
:103B00000F900F90DF91CF910895CF93DF9300D066
:103B100000D000D0CDB7DEB726960FB6F894DEBF42
:103B20000FBECDBFDF91CF9108951F93CF93DF9349
:103B3000C0919A0116E080919B01C81799F0D0E0DE
:103B40001C9FF0011D9FF00D1124E456FE4F408193
:103B5000518162817381848195810E94851D2196A6
:103B6000C770E9CFDF91CF911F9108954091CC01AB
:103B70005091CD016091CE017091CF018091D00123
:103B80009091D1010C94851D8091D10182958F7007
:103B900009F054C08091CE01882309F44FC0809170
:103BA0009A01A0919B016091CC017091CD0140914F
:103BB000CF015091D001B6E08A1709F43FC090E0E0
:103BC00041155105C1F17F3F11F46F3FA1F1B89F3D
:103BD000F001B99FF00D1124E456FE4F21817213BC
:103BE0002AC02081621327C02281211124C0238191
:103BF00034812417350710F421503109241B350B6B
:103C0000283C3105C0F42091D1012F702061209310
:103C1000D10126E0289FF001299FF00D1124EF55D6
:103C2000FE4F80818F70806180838CEC91E00E94D8
:103C30000E1D0C94951D01968770BECF0895CF92EE
:103C4000DF92EF92FF920F931F93CF93DF93CDB745
:103C5000DEB762970FB6F894DEBF0FBECDBF8C0102
:103C600085E0F801DE011D9601900D928A95E1F73D
:103C7000D8014C9111965C91119712966C91129704
:103C80001396CD90DC9014973091CC017091CD01BA
:103C90008091CF019091D001009709F46BC17F3FD3
:103CA00019F43F3F09F466C1E090CE01EE2009F41B
:103CB000C0C02091D101C816D90628F0F601E81B32
:103CC000F90BCF0104C0809590958C0D9D1DFF24AC
:103CD000F394883C910578F0F12C207F09F0C6C060
:103CE0007C2DD98AC88A89890E94761D8CEC91E046
:103CF0000E940E1DB1C0822F807F09F046C075134F
:103D000014C0341312C0611110C02F7020612093B1
:103D1000D1010E94B61D8CEC91E00E940E1D809195
:103D2000D101D80115968C932EC0CD2819F15F3F93
:103D300011F44F3FF9F0F62E61111CC080919A01E9
:103D400020919B0136E0821709F45AC090E0389F19
:103D5000F001399FF00D1124E456FE4F7181571385
:103D600006C07081471303C07281711103C00196B0
:103D70008770E9CFF62E662309F427C18091D1011F
:103D800081608093D101F12C20C1751308C03413D8
:103D900006C0611104C08091D101D801C3C04D8714
:103DA0005E878D859E856A8B0E94711D6A89882336
:103DB000E1F16623D1F12091D101822F82958F709C
:103DC00090E0029774F08091CC019091CD0198879A
:103DD0008F831986DB86CA862C87CE0107960E94C0
:103DE0000E1D86E0F801ACECB1E001900D928A95D1
:103DF000E1F70E94C41D0E94B61DFF24F394E5C0A4
:103E00004D875E878D859E850E94C122292F229530
:103E10002F7030E0223031050CF0CBC09F7009F0DC
:103E2000C5C0805E883008F4D0C0C8010E940E1D55
:103E3000E4CFC816D90608F453C0F601E81BF90B05
:103E4000CF01883C910508F450C0F12C7C2DD98A13
:103E5000C88A89890E94761DECECF1E086E0DF01DA
:103E60001D928A95E9F70E94B61DAFC0751314C064
:103E7000341312C0611110C08091D101F801858303
:103E8000C8010E940E1D86E0ECECF1E0DF011D92FE
:103E90008A95E9F7FE2C99C04D875E878D859E85B2
:103EA0006A8B0E94711D6A89882309F4BECF66233C
:103EB00009F4BBCF2091D101822F82958F7090E0C1
:103EC00002970CF48ECF8091CC019091CD019A8312
:103ED00089831B82DD82CC822E83CE0101967FCF27
:103EE000809590958C0D9D1DACCFF62E662309F420
:103EF0009CCF75132EC034132CC02091D10120FD0E
:103F00001FC0822F82958F70D9F0D80115962C93FF
:103F100015978F3049F08F5F982F9295907F822F61
:103F20008F70892B15968C93C8010E940E1D86E018
:103F3000F801ACECB1E001900D928A95E1F793CFD6
:103F400086E0F801ACECB1E001900D928A95E1F7C2
:103F50003CC04D875E878D859E850E94711D8111B5
:103F600040CF8091D10181608093D101C8010E942E
:103F70000E1D2BC0662309F458CF4D875E878D85B3
:103F80009E850E94711DF82E882309F44ECF86E08D
:103F9000F801ACECB1E001900D928A95E1F78CEC60
:103FA00091E00E94FC180E94C41D5DCF811139CFA1
:103FB0000CC0243031050CF038CF9F7009F431CF9C
:103FC000F8019581907F09F02CCF8F2D62960FB666
:103FD000F894DEBF0FBECDBFDF91CF911F910F913F
:103FE000FF90EF90DF90CF9008951F93CF93DF93D2
:103FF000CDB7DEB72C970FB6F894DEBF0FBECDBF9E
:104000004F83588769877A878B879C87CE0107966D
:104010000E941F1E882369F08F8198852A853B8521
:10402000232BF1F19F3F09F063C08F3F09F060C07F
:1040300037C086E0FE013796DE01119601900D92A1
:104040008A95E1F76F817885EA85FB85309741F1A4
:104050007F3F11F46F3F21F120919B0130E0C901B6
:1040600001968770992740919A0150E0841795072F
:1040700009F447C069837A83FD83EC8396E0929FBD
:10408000D001939FB00D1124A456BE4FFE0131966E
:1040900001900D929A95E1F780939B010E94951DE6
:1040A00016E080919A0190919B018917C1F1189FA8
:1040B000C001112484569E4F0E941F1E882379F14F
:1040C000E0919A011E9FF0011124E456FE4F4081B9
:1040D000518162817381848195810E94851D8091C7
:1040E0009A0190E001968770992780939A01D9CF21
:1040F0004F81588569857A858B859C850E94851DB1
:10410000CFCF0E944B1D10929B0110929A01ECECB4
:10411000F1E086E0DF011D928A95E9F7C1CF2C9688
:104120000FB6F894DEBF0FBECDBFDF91CF911F91C8
:104130000895EF92FF920F931F93CF93DF938C011B
:10414000892B09F46CC0F12CEE24E394E80121964C
:10415000F8018491843740F4843008F051C08130F4
:1041600081F0823019F15BC0853709F444C0A8F1B1
:104170009CE7980F903708F052C08F770E94191A69
:1041800041C00E5F1F4FFE01C49180E28C0F88304A
:1041900048F4C7708E2D01C0880FCA95EAF70E94B7
:1041A000742314C08C2F0E9402192DC00E5F1F4F64
:1041B000FE01C49180E28C0F883058F4C7708E2DB8
:1041C00001C0880FCA95EAF70E947A230E94C22391
:1041D0001AC08C2F0E94191A16C00E5F1F4FFE01C5
:1041E000C491CC2381F08FE99FE00197F1F700C0E3
:1041F0000000C150F6CF0E5F1F4FFE01F49003C0C8
:104200000E9402198E018F2D882309F49FCFEFE9B8
:10421000FFE03197F1F700C000008150F5CFDF914A
:10422000CF911F910F91FF90EF90089508950C94F6
:1042300016210E9417216093F4017093F501809379
:10424000F6019093F7010C94351D08950C941921F3
:104250000F931F930091F4011091F5012091F60145
:104260003091F701602B712B822B932B1F910F91B3
:104270000C9419210F931F930091F4011091F501F3
:104280002091F6013091F70160237123822393235B
:104290001F910F910C9419210F931F930091F4011A
:1042A0001091F5012091F6013091F70160277127F7
:1042B000822793271F910F910C94192108950C9434
:1042C0005E210E945F216093F0017093F101809361
:1042D000F2019093F3010C94351D60E070E0CB0186
:1042E0000C9461210F931F9341E050E060E070E077
:1042F0008A019B0104C0000F111F221F331F8A95E2
:10430000D2F7C901B8011F910F910C9461210F934D
:104310001F9341E050E060E070E004C0440F551F7F
:10432000661F771F8A95D2F78091F0019091F10175
:10433000A091F201B091F3018A019B01082B192B86
:104340002A2B3B2BC901B8011F910F910C946121BD
:104350000F931F9341E050E060E070E004C0440F11
:10436000551F661F771F8A95D2F740955095609527
:1043700070958091F0019091F101A091F201B091BE
:10438000F3018A019B01082319232A233B23C90136
:10439000B8011F910F910C9461210F931F9341E07D
:1043A00050E060E070E004C0440F551F661F771FA7
:1043B0008A95D2F78091F0019091F101A091F201DC
:1043C000B091F3018A019B01082719272A273B276F
:1043D000C901B8011F910F910C9461210F931F9394
:1043E0000091F0011091F1012091F2013091F3015F
:1043F000602B712B822B932B1F910F910C946121B9
:104400000F931F930091F0011091F1012091F2019F
:104410003091F30160237123822393231F910F9125
:104420000C9461210F931F930091F0011091F10101
:104430002091F2013091F3016027712782279327A1
:104440001F910F910C94612108952CE0929F800D93
:104450001124A82FA695A695A695877051E001C0B6
:10446000550F8A95EAF785E0A89FD001112420E036
:1044700030E070E0F901EA0FFB1FEE52FE4F408181
:10448000CB01022E02C0969587950A94E2F78170BF
:104490009927819584278523842780832F5F3F4F29
:1044A0002530310539F708952CE0929F800D1124B5
:1044B000682F669566956695982F977085E0689F3A
:1044C000B001112440E050E080E0FA01E60FF71F50
:1044D000EE52FE4F208130E0092E02C0369527951E
:1044E0000A94E2F721703327042E01C0220F0A94A8
:1044F000EAF7822B4F5F5F4F4530510531F7089542
:10450000BF92CF92DF92EF92FF920F931F93CF93C0
:10451000DF938C01C090F401D090F501E090F6019A
:10452000F090F7018091F0019091F101A091F201DA
:10453000B091F301C82AD92AEA2AFB2ACFE1D0E0B8
:10454000D701C6010C2E04C0B695A79597958795FF
:104550000A94D2F780FF07C0BC2EB8018C2F0E94AE
:10456000160B019719F4219758F7B12C8B2DDF9179
:10457000CF911F910F91FF90EF90DF90CF90BF9060
:104580000895CF93DF93EC010E948022BE010E9428
:10459000160BDF91CF9108951F93CF93DF93EB011B
:1045A00090919901992321F0CB010E94C12213C05F
:1045B000882349F0CB010E948022182F682FCE015A
:1045C0000E94252204C0CB010E945422182FBE0154
:1045D000812F0E94160BDF91CF911F91089580913A
:1045E000FD0108950E94D8252091FB013091FC0126
:1045F0008217930750F00E94D8252091FB0130913B
:10460000FC01821B930B9C010AC00E94D8252091BB
:10461000FB013091FC0120953095280F391F81E076
:10462000203D374008F480E008958091FA01859597
:104630008595859508958091FA01877008950E9467
:10464000D8252091F8013091F90182179307A8F03D
:104650000E94D8252091F8013091F901821B930B1B
:10466000803D974010F480E013C08091FA0182FBF6
:10467000882780F991E089270BC00E94D8252091D6
:10468000F8013091F90120953095820F931FE8CF02
:10469000817008959091FA01977081E009F480E0AB
:1046A000089580910902089590910902892B8093C1
:1046B0000902089580959091090289238093090247
:1046C000089510920902089590910802892B809311
:1046D000080208958095909108028923809308022A
:1046E000089510920802089590910702892B8093F3
:1046F000070208958095909107028923809307020D
:1047000008951092070208958091FE01089508957A
:104710000C9487239091FD01891721F08093FD016E
:104720000C94882308958091FD01882329F010922C
:10473000FD0180E00C948823089508950C949D2336
:10474000CF939091FE01981769F0C82F0E94D82549
:104750009093FC018093FB01C093FE018C2FCF91BD
:104760000C949E23CF9108958091FE01882349F0F7
:104770001092FE011092FC011092FB0180E00C945B
:104780009E230895E0911001F0911101809109029A
:104790008083E0911001F0911101908180910802D5
:1047A000892B8083E0911001F0911101908180911B
:1047B0000702892B80838091FE01882321F10E94CA
:1047C000F222882371F080910A0280FF08C083EFF3
:1047D00099E09F938F930E94DF060F900F900E94A5
:1047E000B423E0911001F091110190818091FE01BC
:1047F000892B808380911001909111010E940F25D7
:1048000081110E94B42380911001909111010C94A8
:10481000471708950C94092498E0899F900111246A
:10482000262B2093FA010E9487210E94D82590937D
:10483000F9018093F8018091FA0185958595859518
:104840000C940A241092FA011092F9011092F801C6
:1048500080E00C940A242091FA01809582238093B1
:10486000FA01982F977079F430E0482F082E000C49
:10487000550B2417350739F08595859585950E9448
:10488000A8210C94222408959093630180936201DF
:1048900008958295982F9C7C392F36953695282F30
:1048A000237344E0249FC0011124932F982B292FB8
:1048B0002A7A2695892F8575880F822B08951F9354
:1048C000CF93DF931F92CDB7DEB799830E9449241F
:1048D000182F9981892F0E944924212F30E0322FEF
:1048E0002227A901482BCA010F90DF91CF911F9178
:1048F000089580E090E00E94093021E08D3E9E4FB7
:1049000009F020E0822F089582E090E00C94FB2FC4
:1049100083E090E00C94FB2F682F83E090E00C94F0
:104920000F3084E090E00C94FB2F682F84E090E03F
:104930000C940F3086E090E00C94FB2F682F86E0FB
:1049400090E00C940F30AB01BC018FE090E00C9430
:104950002130AB01BC0183E190E00C94213060E098
:1049600070E0CB010C94A92460E070E0CB010E94C0
:10497000A3240C94AF246DEE7EEF80E090E00E94C3
:104980002D3060E082E090E00E940F3060E083E034
:1049900090E00E940F301092F4011092F5011092F5
:1049A000F6011092F70160E084E090E00E940F3081
:1049B00060E085E090E00E940F3060E086E090E0EB
:1049C0000E940F306FEF87E090E00E940F3040E0D0
:1049D00050E0BA0188E090E00E94213060E08DE074
:1049E00090E00E940F3040E050E0BA0188E190E092
:1049F0000E94213060E087E190E00E940F3040E0AB
:104A000050E0BA018CE190E00E94213060E080E249
:104A100090E00E940F300C94B4240C94BB24FC0151
:104A2000329697E080E0915029F021912223D9F32A
:104A30008F5FF9CF08959C01FC0132969FEF80E0D3
:104A40004191461789F09F3F19F4411101C0982FF9
:104A50008F5F8630A9F79F3F39F0F901E90FF11D0B
:104A600097FDFA95628308950895FC0132960896A1
:104A70002081261301C010823196E817F907C1F78B
:104A800008950C941B250C943525029626E0FC0114
:104A900011922A95E9F7089508950C944C250E94E7
:104AA0004D2580915402843061F110920B0220E474
:104AB00088E190E00FB6F894A895809360000FBE4F
:104AC0002093600080E00E94720880E00E94EC0861
:104AD0000E944D2583B7817F846083BF83B7816047
:104AE00083BF7894889583B78E7F83BF0FB6F89481
:104AF000A8958091600088618093600010926000AA
:104B00000FBE089508950895CF930E9482250E94B4
:104B1000580E0E948325C0E08C2F0E94A90D892B7E
:104B200029F4CF5FC430C1F780E001C081E0CF91AC
:104B3000089508950C9499250E944B1D0E9471269A
:104B40000E943B170E94EC080C949A251F920F922A
:104B50000FB60F9211248F939F93AF93BF938091C1
:104B60000B02811113C08091490290914A02A091D9
:104B70004B02B0914C024196A11DB11D8093490298
:104B800090934A02A0934B02B0934C02BF91AF9115
:104B90009F918F910F900FBE0F901F90189582E0FC
:104BA00084BD93E095BD9AEF97BD80936E00089504
:104BB0002FB7F8948091490290914A02A0914B023C
:104BC000B0914C022FBF0895CF92DF92EF92FF92E7
:104BD0000F931F932FB7F8944091490250914A02C6
:104BE00060914B0270914C022FBF6A017B01EE2451
:104BF000FF248C0120E030E0C016D106E206F30667
:104C000010F4415051099A01281B390BC9011F9119
:104C10000F91FF90EF90DF90CF90089578941F92BE
:104C20000F920FB60F9211248F939F93AF93BF9360
:104C30008091490290914A02A0914B02B0914C029E
:104C40000196A11DB11D8093490290934A02A09341
:104C50004B02B0934C02BF91AF919F918F910F90F7
:104C60000FBE0F901F90189581E08093E00080E2C6
:104C70008093D8001092C9008FE19EE40197F1F76C
:104C800000C0000087E090EBDC0180935D02909310
:104C90005E02A0935F02B09360029CE088E10FB6D1
:104CA000F894A895809360000FBE90936000FFCFAA
:104CB0000E947924811102C00E940D250E94842443
:104CC00080930A020E94912490E090934E02809378
:104CD0004D020E948824682F70E080E090E00C94E0
:104CE00026210E947924811102C00E940D250E9474
:104CF0009A2480934F02282F26952695269530E0FA
:104D00002530310524F08770806280934F028091B6
:104D10004F0280FF04C086958695869501C080E08D
:104D20000C94720820914F02822F86958695869565
:104D3000482F50E04430510554F48F5F982F990F5D
:104D4000990F990F822F8770892B80934F02809142
:104D50004F02816080934F020E949E2480910A023C
:104D600080FF11C080914F028695869586951F928F
:104D70008F938CE69AE09F938F930E94DF060F90AB
:104D80000F900F900F9080914F0286958695869593
:104D90000C94720880914F02982F9695969596954F
:104DA000A1F0915E990F990F990F8770892B8093CD
:104DB0004F02887F91E009F490E080914F0290FBD0
:104DC00080F980934F020E949E2480910A0280FF06
:104DD00011C080914F028695869586951F928F937C
:104DE00084E59AE09F938F930E94DF060F900F90C7
:104DF0000F900F9080914F028695869586950C9422
:104E0000720880914F0280FD1FC0816080934F0225
:104E1000813019F489E080934F0280914F020E9403
:104E20009E2480910A0280FF08C08CE29AE09F9342
:104E30008F930E94DF060F900F9080914F0286950E
:104E4000869586950C947208089580914F0280FF94
:104E500014C08E7F80934F020E949E2480910A028C
:104E600080FF08C089E19AE09F938F930E94DF063C
:104E70000F900F9080E00C9472080895CF93C0912A
:104E80004F02C17080910A0280FF0CC01F92CF9325
:104E90008EE39AE09F938F930E94DF060F900F900E
:104EA0000F900F90CC2319F0CF910C942527CF9120
:104EB0000C94012790914F02892F869586958695AF
:104EC0008F5F8F719770853038F4880F880F880F47
:104ED000892B80934F0202C090934F0280914F0222
:104EE000887F91E009F490E080914F0290FB80F977
:104EF00080934F020E949E2480910A0280FF11C07D
:104F000080914F028695869586951F928F9385E0B6
:104F10009AE09F938F930E94DF060F900F900F905F
:104F20000F9080914F028695869586950C94720815
:104F3000853008F084E0880F880F880F90914F0229
:104F40009770892B80934F02887F91E009F490E05D
:104F500080914F0290FB80F980934F020E949E2423
:104F600080914F028695869586950C947208809163
:104F70001702089508959FB7F89410920E029FBFEC
:104F800090915402943009F057C09091E9009F70BD
:104F90003091EC00232F217030FD20E8922B23E08C
:104FA0002093E9002091EB0020FF43C02091EE0008
:104FB00027FF3FC020910C02222321F02091E8001E
:104FC00025FF37C010920C0226E03091E80035FD35
:104FD00015C030915402343061F53091EB0035FD4D
:104FE00028C0215021F481E080930C0222C0EFE917
:104FF000FFE03197F1F700C00000E7CF8093F100A8
:105000008091E80085FD0AC08091E80080FFFCCF18
:105010008091E8008E778093E80006C08FB7F894FF
:1050200021E020930E028FBF9F709093E90080E0F3
:1050300008959F709093E9008FEF08950F931F9349
:10504000CF93DF9300D01F92CDB7DEB78C010E94C3
:10505000B02A823011F0843021F584E089831B83EB
:105060000A8382E08093E9008FEF9091E8008150FD
:1050700095FD06C095ED9A95F1F700008111F5CFE9
:105080008091E80085FF0DC040E050E063E070E0F3
:10509000CE0101960E94CD2A8091E8008E77809300
:1050A000E8000F900F900F90DF91CF911F910F911B
:1050B0000895CF93DF9300D01F92CDB7DEB7209134
:1050C0005402243031F523E02983805891099B83D1
:1050D0008A8382E08093E9008FEF9091E80081500D
:1050E00095FD06C095ED9A95F1F700008111F5CF79
:1050F0008091E80085FF0DC040E050E063E070E083
:10510000CE0101960E94CD2A8091E8008E7780938F
:10511000E8000F900F900F90DF91CF910895CF93FB
:10512000DF93EC010E94B02A823011F0843039F50F
:1051300081E08093E9008FEF9091E800815095FD28
:1051400006C095ED9A95F1F700008111F5CF809199
:10515000E80085FF14C040E050E068E070E0CE0158
:105160000E94CD2A8091E8008E778093E80088E045
:10517000FE01AFE0B2E001900D928A95E1F7DF9178
:10518000CF91089589EA9AE00E94460680915302E1
:10519000811109C00E94622C0E94BF2C8091E20004
:1051A00084608093E200089585EA9AE00E944606B2
:1051B00010925302089581EA9AE00C9446068DE914
:1051C0009AE00C94460689E99AE00E9446060C94FF
:1051D0009C2520910D022F5F822F62E30E94782F81
:1051E000992319F020930D02089510920D028091D9
:1051F0000E02882371F180915402843041F5809130
:10520000E9008F702091EC00922F917020FD90E8C2
:10521000892B93E09093E9009091EB0090FF14C0EC
:105220009091EE0097FF10C09091E80095FF03C0A9
:105230001092F100F9CF9091E80090FF05C0909195
:10524000E8009E779093E8008F708093E9001092B9
:105250000E02089542E061EC81E00E94DC2B42E204
:1052600061EC82E00E94DC2B42E261EC83E00C9472
:10527000DC2B80915602833009F460C030F4813019
:1052800071F0823009F499C008958A3009F485C01C
:105290008B3009F46BC0893009F0A7C020C0809121
:1052A0005502813A09F0A1C08091E800877F809380
:1052B000E8008091590290915A02892B21F468E00C
:1052C0008FE092E003C060E080E090E070E00E9438
:1052D000182B8091E8008B778093E80008958091E7
:1052E0005502813209F081C08091590290915A0291
:1052F000029708F07AC08091E800877F8093E800E9
:105300008091E80082FD05C0809154028111F8CFA0
:105310006CC02091F3008091F20090E0922B0297F4
:1053200029F48091F1008B7F813021F48091F1008C
:10533000809317028091E8008B7753C080915502CB
:10534000813A09F052C08091590290915A02892BFA
:1053500009F04BC08091E800877F8093E80080913E
:10536000E80080FFFCCF80911C0136C0809155027F
:105370008132D9F58091590290915A02892BA9F571
:105380008091E800877F8093E8000E94112C809133
:10539000570280931C010C944B1D80915502813261
:1053A00021F58091E800877F8093E8000E94112C0E
:1053B0008091580280931802089580915502813A95
:1053C000A1F48091E800877F8093E8008091E80055
:1053D00080FFFCCF809118028093F1008091E8005B
:1053E0008E778093E8000C94112C089584B7877F02
:1053F00084BF0FB6F894A89580916000886180936F
:105400006000109260000FBE80E8809361001092EF
:1054100061000E94CA170E94622C0E94BF2C8091DA
:10542000E20084608093E2008BEB97E20E944424C8
:1054300078940E944D2F0E94D21782E191E00E9441
:10544000361788E89AE00E9446068091540285301B
:1054500089F484E89AE00E9446060E944F258091D4
:105460005202882391F30E948425882371F30E94BD
:10547000B72AEBCF0E9406180E94B915E6CF0C940C
:10548000412A292F332723303105C9F064F4213014
:10549000310581F02230310509F049C08BE590E0FB
:1054A0002DED3AE048C02132310521F1223231059B
:1054B00071F13DC082E190E028E33BE03CC09927D8
:1054C0008130910571F02CF4892B89F5E9EDFAE032
:1054D0000DC08230910541F0039749F5EDEAFAE0FD
:1054E00005C0E7ECFAE002C0E3EBFAE0849190E05B
:1054F0009F0121C063307105D0F4660F771FFB0157
:10550000E55AFE4F2081318189E090E014C063307C
:10551000710568F4FB01EE0FFF1FEB5AFE4F20816F
:105520003181FB01EE5AFE4F808190E004C080E0A3
:1055300090E020E030E0FA0131832083089508955F
:10554000CF93C82F0E949F2AC0931902CF9108952C
:1055500080915402843011F081E0089582E0089532
:1055600080911902811102C00C94A82A089580E14B
:1055700089BD82E189BD09B400FEFDCF8091D800CC
:105580008F7D8093D8008091E00082608093E0005E
:105590008091E00081FDFCCF0895CF92DF92EF92E1
:1055A000FF920F931F93CF93DF93EC018B016A015E
:1055B0000E94302C811133C0C114D10439F0F6019E
:1055C00080819181081B190BC80FD91FE12CF12C88
:1055D0000115110519F18091E80085FD16C0809133
:1055E000E8008E778093E800C114D10449F0F601F9
:1055F00080819181E80EF91EF182E08285E00FC082
:105600000E94302C882321F30AC089918093F100F5
:1056100001501109FFEFEF1AFF0ADACF80E0DF91A6
:10562000CF911F910F91FF90EF90DF90CF90089551
:1056300020915B0230915C022617370748F0611514
:10564000710539F42091E8002E772093E80001C01D
:10565000B90140E061157105A9F12091540222239E
:1056600009F443C0253009F442C02091E80023FD2D
:1056700040C02091E80022FD32C02091E80020FFC8
:10568000E9CF4091F3002091F20030E0342BFC018F
:10569000CF016115710559F02830310540F4819131
:1056A0008093F100615071092F5F3F4FF1CF41E0CE
:1056B0002830310509F040E02091E8002E77209352
:1056C000E800C8CF4111C9CF0AC080915402882395
:1056D00061F0853061F08091E80083FD0AC080911F
:1056E000E80082FFF2CF80E0089582E0089583E031
:1056F000089581E0089520915B0230915C022617A5
:10570000370748F06115710539F42091E8002E77CC
:105710002093E80001C0B901FC0120E0611571058A
:1057200091F180915402882309F440C0853009F436
:105730003FC08091E80083FD3DC08091E80082FD7C
:105740002FC08091E80080FFE9CF2091F300809185
:10575000F20090E0922B6115710559F088309105A7
:1057600040F424912093F100319661507109019623
:10577000F2CF21E0089709F020E08091E8008E77D1
:105780008093E800CBCF2111CCCF0AC08091540286
:10579000882361F0853061F08091E80083FD0AC0C4
:1057A0008091E80082FFF2CF80E0089582E00895C2
:1057B00083E0089581E00895982F973058F59093ED
:1057C000E900981739F07091EC002091ED005091AC
:1057D000F00003C0242F762F50E021FF19C0309134
:1057E000EB003E7F3093EB003091ED003D7F309336
:1057F000ED003091EB0031603093EB007093EC00E2
:105800002093ED005093F0002091EE0027FF07C099
:105810009F5FD3CF8F708093E90081E0089580E08F
:1058200008958091550287FF11C08091E80082FDA4
:1058300005C0809154028111F8CF11C08091E80019
:105840008B770BC080915402882349F08091E80047
:1058500080FFF8CF8091E8008E778093E80008956C
:105860002091E4003091E50095E64091EC00842F12
:10587000817040FF22C08091E80080FD1CC08091B3
:105880005402882391F0853091F08091EB0085FDE2
:1058900010C04091E4005091E5004217530729F3EE
:1058A0009A01915011F784E0089582E0089583E011
:1058B000089581E0089580E008954091E80042FF56
:1058C000DECF08950E94D02C0E94D82CE0EEF0E0AC
:1058D000808181608083E8EDF0E080818F77808334
:1058E00019BCA7EDB0E08C918E7F8C9380818F7E68
:1058F00080831092530208950F931F93CF93DF93E9
:105900000E94D02C0E94D82CC8EDD0E088818F77DF
:10591000888388818068888388818F7D888319BC8B
:1059200010925402109250021092520210925102A0
:1059300000EE10E0F80180818B7F80838881816098
:10594000888342E060E080E00E94DC2BE1EEF0E042
:1059500080818E7F8083E2EEF0E0808181608083B1
:10596000808188608083F80180818E7F8083888138
:1059700080618883DF91CF911F910F910895E8EDA9
:10598000F0E080818F7E8083E7EDF0E080818160B0
:10599000808384E082BF81E0809353020C947C2C4E
:1059A000E8EDF0E080818E7F80831092E200089520
:1059B0001092DA001092E10008951F920F920FB634
:1059C0000F9211242F933F934F935F936F937F9385
:1059D0008F939F93AF93BF93EF93FF938091E100D9
:1059E00082FF0BC08091E20082FF07C08091E1003E
:1059F0008B7F8093E1000E94E9288091DA0080FF8C
:105A00001FC08091D80080FF1BC08091DA008E7F7C
:105A10008093DA008091D90080FF0DC080E189BDBC
:105A200082E189BD09B400FEFDCF81E0809354027C
:105A30000E94C22805C019BC109254020E94D428AA
:105A40008091E10080FF19C08091E20080FF15C0C5
:105A50008091E2008E7F8093E2008091E20080617D
:105A60008093E2008091D80080628093D80019BCB6
:105A700085E0809354020E94DF288091E10084FF3A
:105A800030C08091E20084FF2CC080E189BD82E1BA
:105A900089BD09B400FEFDCF8091D8008F7D809331
:105AA000D8008091E1008F7E8093E1008091E20038
:105AB0008F7E8093E2008091E20081608093E2001B
:105AC00080915002882311F084E007C08091E300A8
:105AD00087FD02C081E001C083E0809354020E94F0
