:100000000C94F8050C943F060C943F060C943F06A4
:100010000C943F060C943F060C943F060C943F064C
:100020000C943F060C943F060C94BA2C0C948C2D27
:100030000C9483250C943F060C943F060C943F06C9
:100040000C943F060C943F060C943F060C943F061C
:100050000C943F060C94EB250C943F060C943F0641
:100060000C943F060C943F060C943F060C943F06FC
:100070000C943F060C943F060C943F060C943F06EC
:100080000C943F060C943F060C943F060C943F06DC
:100090000C943F060C943F060C943F060C943F06CC
:1000A0000C943F060C943F060C943F06030711077F
:1000B00028073507430747074B0759095B096609B6
:1000C0005D095F0961096309650968096A096C09C5
:1000D00077096E0970097209740976097909A81AF5
:1000E000A81ADA1ADA1A391BB81CB81CB81C591B22
:1000F000F61B071C071C841C8D1CB81CB11C381D6A
:10010000381D4A1D4A1D411D4A1D4A1D4A1D381DE4
:10011000381D461D4A1D4A1D461DF92D202E122F41
:10012000202E122F6C2E8F2E122FE52EF42E2B0048
:10013000F75CF85CF95C13001C0009000A0006007B
:1001400015000F002A0029610400120008001800A1
:100150000C0007000B001700110016002800E1003A
:10016000FA5C14000D000E001B00050010001A00C0
:1001700019001D00E100E000E300E2000651035118
:100180002C00000007510551E6000851E4002B0047
:1001900034003600370013001C0009000A00060076
:1001A00015000F002A002961040012000800180041
:1001B0000C0007000B001700110016002800E100DA
:1001C000330014000D000E001B00050010001A0083
:1001D00019001D00E100E000E300E20006510451B7
:1001E0002C00000007510551E6000851E4002B00E7
:1001F00014001A000800150017001C0018000C005D
:10020000120013002A0029610400160007000900EB
:100210000A000B000D000E000F0033002800E10063
:100220001D001B000600190005001100100036001B
:1002300037003400E100E000E300E2000651045121
:100240002C00000007510551E6000851E4000100B0
:100250001E021F1420022114220230022302250252
:1002600026023102010001002D0027022514261468
:100270002D022D142402241427143800010001003B
:10028000010006011B01190130142E0264142F0015
:1002900034003300010001000100010001000100F1
:1002A0000100000001000100010001000100010047
:1002B0001E021F0220022102220223022402260221
:1002C00027022502010001002E022E002F0030001F
:1002D0003802310038002F0230022D0001000100E9
:1002E000010006011B011901350235003102010030
:1002F00001000100010001000100010001000100F6
:1003000001000000010001000100010001000100E6
:100310003A003B003C003D003E003F0040004100F1
:10032000420043000100010050004F005200510004
:100330004400450046004B004A004C00010001000B
:1003400001000100010001000100010001004E0058
:100350004D00490001000100010001000100010001
:100360000100000001000100010001000100010086
:100370004C05010001000100010001000100010025
:10038000010001000100010049040100AE0001006C
:100390000100010001000100010001000100010055
:1003A000290301000100010001000100010001001A
:1003B0000100010001000100010001000100010035
:1003C0000100000001000100010001000100010026
:1003D0000100010001000100010001000100010015
:1003E00001000100010001001E001F00200021008B
:1003F0002200230024002500260027000100010020
:1004000001000100010001000100010001000100E4
:1004100001000100010001000100010001000100D4
:1004200001000000010001000100010001000100C5
:1004300001000100010001000100010001000100B4
:1004400001000100010001000100010001000100A4
:100450000100010001000100010001000100010094
:100460000100010001000100010001000100FB5C2E
:10047000FC5CFD5C010001000100010001000100C5
:1004800001000000010001000100010001004445DD
:100490004255473A2064697361626C65642E0A00B4
:1004A00044454255473A20656E61626C65642E0A88
:1004B000000A002530313662003A200025303258DB
:1004C000000A722F632030313233343536373839F1
:1004D0004142434445460A007267626C696768742A
:1004E0002074696D65722064697361626C652E0A9F
:1004F000007267626C696768742074696D65722048
:10050000656E61626C65642E0A007267626C696771
:1005100068742073657420687376205B4E4F454580
:1005200050524F4D5D3A2025752C25752C25750AA6
:10053000007267626C696768742073657420687301
:1005400076205B454550524F4D5D3A2025752C2550
:10055000752C25750A007267626C69676874207271
:1005600061696E626F7720736574206873763A20D4
:1005700025642C25642C25642C25750A007267627D
:100580006C696768742064697361626C65205B459F
:100590004550524F4D5D3A207267626C69676874CE
:1005A0005F636F6E6669672E656E61626C65203D84
:1005B0002025750A007267626C6967687420656E31
:1005C00061626C65205B454550524F4D5D3A20722B
:1005D00067626C696768745F636F6E6669672E65D2
:1005E0006E61626C65203D2025750A007267626C41
:1005F0006967687420746F67676C65205B45455058
:10060000524F4D5D3A207267626C696768745F6330
:100610006F6E6669672E656E61626C65203D202590
:10062000750A007267626C69676874206D6F646533
:10063000205B4E4F454550524F4D5D3A2025750A7F
:10064000007267626C69676874206D6F6465205B17
:10065000454550524F4D5D3A2025750A007267623C
:100660006C696768745F696E6974207267626C692F
:100670006768745F636F6E6669672E6D6F6465206F
:100680003D20302E2057726974652064656661755F
:100690006C742076616C75657320746F20454550CD
:1006A000524F4D2E0A007267626C696768745F6909
:1006B0006E6974206565636F6E6669672069732073
:1006C0006E6F7420656E61626C65642E0A007267DD
:1006D000626C696768745F696E69742073746172B3
:1006E00074210A007267626C696768745F696E6979
:1006F000742063616C6C65642E0A007267626C69B9
:100700006768745F636F6E6669672E737065656492
:10071000203D2025640A007267626C696768745F17
:10072000636F6E6669672E76616C203D2025640AD2
:10073000007267626C696768745F636F6E66696791
:100740002E736174203D2025640A007267626C6913
:100750006768745F636F6E6669672E687565203DB4
:100760002025640A007267686C696768745F636F4C
:100770006E6669672E6D6F6465203D2025640A00F2
:100780007267626C696768745F636F6E6669672E13
:10079000656E61626C65203D2025640A00726762A7
:1007A0006C696768745F636F6E6669672045455062
:1007B000524F4D3A0A0000047F3F1F6432146432E6
:1007C00014783C1E1E140A052223252628292A2CCB
:1007D0002D2F3032333536383A3B3D3E404243458B
:1007E00047494A4C4E5051535557595A5C5E6062C6
:1007F000646668696B6D6F71737577797B7D7F81D6
:10080000838587898A8C8E90929496989A9C9E9FD5
:10081000A1A3A5A7A8AAACAEAFB1B3B4B6B8B9BBF3
:10082000BCBEBFC1C2C3C5C6C7C9CACBCCCDCED062
:10083000D1D2D2D3D4D5D6D7D7D8D9D9DADADBDB4F
:10084000DBDCDCDCDCDCDDDDDDDDDCDCDCDCDCDBE6
:10085000DBDBDADAD9D9D8D7D7D6D5D4D3D2D2D12F
:10086000D0CECDCCCBCAC9C7C6C5C3C2C1BFBEBC22
:10087000BBB9B8B6B4B3B1AFAEACAAA8A7A5A3A193
:100880009F9E9C9A98969492908E8C8A8987858355
:10089000817F7D7B79777573716F6D6B6968666435
:1008A00062605E5C5A5957555351504E4C4A494705
:1008B000454342403E3D3B3A3836353332302F2DAA
:1008C0002C2A292826252322FFAA7F554000000034
:1008D000000000000000000101010101010101010F
:1008E00002020202020202020303030303030304DF
:1008F00004040404050505050506060606060707A3
:100900000707080808080909090A0A0A0B0B0B0C53
:100910000C0C0D0D0D0E0E0E0F0F101010111112EC
:100920001213131414151516161717181819191A67
:100930001A1B1C1C1D1D1E1F1F20212122232324C6
:10094000252526272828292A2B2C2C2D2E2F3031FF
:100950003132333435363738393A3B3C3D3E3F400F
:100960004142434445464748494B4C4D4E4F5052F7
:100970005354555758595A5C5D5E606163646567AE
:10098000686A6B6C6E6F7172747677797A7C7D7F32
:100990008182848687898B8D8E9092949597999B7E
:1009A0009D9FA1A2A4A6A8AAACAEB0B2B4B6B9BB92
:1009B000BDBFC1C3C5C8CACCCED0D3D5D7DADCDE63
:1009C000E1E3E6E8EAEDEFF2F4F7F9FCFF0A0025CF
:1009D00030325820006B6579626F6172645F7265B6
:1009E000706F72743A20000A0025303258006B652F
:1009F00079626F6172645F7365745F6C65643A20DD
:100A0000004F6E6573686F743A2074696D656F7519
:100A1000740A006261636B6C696768742073746543
:100A2000703A2025750A006261636B6C69676874AF
:100A30002064697361626C650A006261636B6C6952
:100A400067687420656E61626C650A006261636B41
:100A50006C6967687420746F67676C653A202575E8
:100A60000A006261636B6C69676874206465637215
:100A7000656173653A2025750A006261636B6C6974
:100A800067687420696E6372656173653A202575C5
:100A90000A005B735D004B6579626F61726420735D
:100AA000746172742E0A005B575D005B535D005BDE
:100AB000525D005B445D005B435D00040330000059
:100AC0000012034E004900550020004D0069006EE1
:100AD000006900000010034B004200440046006122
:100AE000006E00730000000403090409025B0003A8
:100AF0000100A0FA0904000001030101000921110D
:100B00000100012240000705810308000A090401D1
:100B10000001030000000921110100012236000735
:100B200005820320000A09040200020300000009F4
:100B30002111010001222200070583032000010783
:100B40000503032000011201100100000008EDFE62
:100B500060600100010203010631FF0974A101096F
:100B600075150026FF00952075088102097615008D
:100B700026FF00952075089102C005010980A1019A
:100B800085031601002603001A81002A83007510D0
:100B900095018100C0050C0901A101850416010021
:100BA000269C021A01002A9C02751095018100C042
:100BB00005010906A101050719E029E7150025012E
:100BC00095087501810295017508810105081901D3
:100BD0002905950575019102950175039101050798
:100BE000190029FF150026FF00950675088100C031
:100BF00011241FBECFEFDAE0DEBFCDBF04B603FE87
:100C000027C080915C0290915D02A0915E02B0913C
:100C10005F028730904BA740B04BD1F410925C023A
:100C200010925D0210925E0210925F0214BE84B7B1
:100C3000877F84BF0FB6F894A89580916000886183
:100C400080936000109260000FBEE0E0F8E3099529
:100C500011E0A0E0B1E0E4E4F0E602C005900D92FE
:100C6000A236B107D9F722E0A2E6B1E001C01D9299
:100C7000AC35B207E1F70E94D3290C9420300C94D4
:100C80000000FF93EF93E0916201F09163013097D0
:100C900009F00995EF91FF910895FC01859180304D
:100CA00011F0EFDFFBCF0895FF27E0E230E247FFCE
:100CB0000CC0419597FF09C0EDE260957095809555
:100CC0009095611D711D811D911D27FF02C0219509
:100CD00030E350E2AA27660F771F881F991FAA1FCB
:100CE000A41710F0A41B63955A95A9F7AA3008F031
:100CF000A95FA05DAF93F39561157105810591051D
:100D000041F7ED3211F4EF93F395F21718F43F9396
:100D1000F395FBCF8F91B5DFFA95E1F70895E9914F
:100D2000F9918591803021F0853219F0AADFF9CF51
:100D3000089520E0E89455915532C1F3503311F4F1
:100D4000689455915A3348F4505390F3220F022E71
:100D5000220F220F200D250FF4CF0EF4219589913B
:100D60009991533619F3533729F1533559F1BC0191
:100D700088279927E8945C3621F4899199916894A1
:100D80005591543639F446EF7EF077FF0DC08FEF62
:100D90009FEF0AC055374AE039F0583540E121F05D
:100DA000523642E009F00895FF93EF937DDFEF9113
:100DB000FF91B7CFFF93EF93FC0181918030B9F39E
:100DC00060DFFBCFFF93EF9368DFF1CFDF93CF932B
:100DD000CDB7DEB72596A3DFCF91DF9108956E9A48
:100DE000769A0C94F30608950895FC01E75FFC459C
:100DF000E730F10508F054C0DB01EA5AFF4F1296C4
:100E00009C910C94AB2F992309F44AC0E0911001F6
:100E1000F0911101808181FF02C08FE116C081E352
:100E200014C09923E9F1E0911001F0911101808142
:100E300081FF0AC081EE0E94F61984E60E94551ACD
:100E400081EE0E94DF182CC086E30E94551A28C04C
:100E5000992331F1E0911001F0911101808181FF1E
:100E600002C084E6F2CF87E3F0CF9923C9F0E09186
:100E70001001F0911101808181FDF5CF86E392E0B0
:100E80000E94E2070DC0992359F080E007C0992322
:100E900039F081E003C0992319F082E00E9428080C
:100EA00081E0089508950F931F93CF93DF939C01E2
:100EB0003A9521153F4148F5EB018C0190FF03C0A5
:100EC00080EEFB01099511FF03C081EEFE0109953B
:100ED00012FF03C082EEFE01099513FF03C083EEEB
:100EE000FE0109950115104180F084EEFE0109957F
:100EF00085EEFE01099586EEFE01099587EEFE015D
:100F0000DF91CF911F910F910994DF91CF911F91A4
:100F10000F910895877091E001C0990F8A95EAF7C3
:100F2000892F0E9441230C949F23877091E001C078
:100F3000990F8A95EAF7892F0E9441230C949F23E9
:100F4000877091E001C0990F8A95EAF7892F0E9476
:100F500047230C949F23877091E001C0990F8A95D5
:100F6000EAF7892F0E9447230C949F23CF93DF93A6
:100F7000EC01805E9109089710F0209719F465E95B
:100F800077E002C06AE877E0CE010E9453078C2F19
:100F9000DF91CF910C94DF18CF93DF93EC010E9487
:100FA000F619CE01805E9109089710F0209719F488
:100FB0006BEA77E002C060EA77E0CE01DF91CF9183
:100FC0000C945307CF93DF93EC010E94B607CE0138
:100FD000DF91CF910C94CC0781E008950C94F50635
:100FE0001F93CF93DF9300D000D01F92CDB7DEB711
:100FF00049835A832091980189819A81211112C0D5
:10100000662349F00E945D22182F682F89819A81FA
:101010000E94022203C00E943122182F69817A8126
:10102000812F04C00E945D2269817A810F900F9008
:101030000F900F900F90DF91CF911F910C94D90AD0
:10104000FC01408151816281738184810C94F0079D
:10105000CF93DF9361E070E0EB0102C0CC0FDD1FA6
:101060008A95E2F78C2F0E946924BE0180E090E00F
:10107000DF91CF910C9403210C94840DE82FE2951D
:10108000EF70F0E032A1282F2F7081E090E001C0D6
:10109000880F2A95EAF78095832382A30895CF923B
:1010A000DF92EF92FF92853030F4811105C090916C
:1010B00080009F7D04C084E09091800090629093B6
:1010C0008000282F30E0AFEFBFEF0E94B12FDC018E
:1010D000CB0142E0B695A795979587954A95D1F7AC
:1010E0008C3724E19207A105B10528F469E070E08E
:1010F0000E94612F27C08A50974DAF4FBF4F662780
:10110000782F892F9A2F25EF38E241E050E00E9496
:10111000892F69017A01CA01B9010E94452F9B01FB
:10112000AC01C701B6010E94452FBB27A92F982FFC
:10113000872F009721E0A207B10511F0BC0102C082
:101140006FEF7FEF70938B0060938A00FF90EF90BA
:10115000DF90CF900895269A86E30E943E0882E2AF
:101160008093800089E1809381008FEF9FEF9093BF
:101170008700809386000C944E260E94562481118D
:1011800002C00E94EA240E94AB080C94EF060C9463
:1011900052070C94C70808950E94281D0E94CB088E
:1011A0002FEF84E39CE0215080409040E1F700C0A5
:1011B00000000C9411260F931F93CF93DF93EC0143
:1011C0000E9420088C01BE010E94EE07882329F1AD
:1011D000BE01C8010E94D2168823F9F00A3C8CE5B2
:1011E0001807E9F008F019C1033C8CE51807F1F085
:1011F00040F505318CE5180708F0AEC002308CE5EB
:101200001807B0F501158CE5180709F082C0CA81EE
:10121000CC2309F4C4C10E94CC08C0E0C0C1CA817B
:10122000CC2309F4BCC10E948712F7CFCA81CC231A
:1012300009F4B5C10E942E238272B9F00E94C21433
:10124000ECCF063C8CE5180709F4BBC008F0CBC016
:10125000043C8CE5180709F0BBC0CA81CC2309F413
:101260009EC10E942E23827249F30E94B514D5CFED
:101270008A81882309F450C00E945624811102C03B
:101280000E94EA240E946E2490E090934D02809385
:101290004C02F801E350FC45E231F10530F4E35A29
:1012A000FF4F80914C020C94AB2F80914C028160D7
:1012B00027C0826025C0846023C0806121C0806215
:1012C0001FC080641DC080681BC08460886018C017
:1012D0008E7F16C08D7F14C08B7F12C08F7E10C092
:1012E0008F7D0EC08F7B0CC08F770AC08B7F877F6E
:1012F00007C087FB222720F991E0922790FB87F90E
:1013000080934C0280914C020E9472240E94281DFE
:1013100084CF01301C4539F0CE01DF91CF911F9170
:101320000F910C94EC07CA81CC2309F438C1809149
:101330000902C82FC095C170C0FB80F980930902D3
:10134000CC2329F080EA94E00E944D0666CF8EE817
:1013500094E00E944D0623C106318CE5180731F553
:101360000E942E23282F8A81409110015091110153
:10137000882379F02A7A91E009F490E0909364014F
:10138000911102C069E201C065E3CA010E941E25F5
:101390000AC080916401811102C069E201C065E365
:1013A000CA010E9420250E949F2337CF023C1C4582
:1013B00009F0B2CFCA81CC2309F4F1C00E947B1599
:1013C0002CCFCA81CC2309F4EAC00E944B1225CF4E
:1013D000053C1C4509F0A0CFCA81CC2309F4DFC02D
:1013E0000E943E121ACFCA81083C8CE5180731F4DE
:1013F000CC2309F4D4C00E9469120FCF093C1C45CC
:1014000030F4CC2309F4CBC00E945A1206CFCC236F
:1014100009F4C5C00E94781200CF013D8CE5180781
:1014200079F4CA81CC2309F4BAC00E946C108F30C1
:1014300028F00E946C10843108F417CF8FE00EC0A2
:10144000023D8CE5180708F058C00D3C8CE51807E4
:1014500041F4CA81CC2309F4A2C081E00E94C514E2
:10146000DCCE0E3C8CE51807B0F40B3C8CE518077D
:1014700039F4CA81CC2309F492C00E947410CDCEF5
:101480000C3C1C4509F048CFCA81CC2309F487C025
:101490000E948510C2CECA810F3C8CE5180771F4FA
:1014A000CC2309F47CC00E946C10863028F00E9486
:1014B0006C10883008F4D9CE86E0D0CF003D1C45B2
:1014C00070F4CC2309F46BC00E946C10823028F0B9
:1014D0000E946C10853008F4C8CE82E0BFCFCC23C8
:1014E00009F45DC00E946C10893028F00E946C10D5
:1014F0008E3008F4BACE89E0B1CF053D8CE51807EF
:1015000031F4CA81CC2309F44AC083E2A7CF063D57
:101510008CE5180730F5CA81033D8CE5180721F4E6
:10152000CC23E9F188E19ACF043D1C4568F4CC2333
:10153000B1F10E946C10853128F00E946C10873147
:1015400008F493CE85E18ACFCC2349F10E946C1038
:10155000893128F00E946C10823208F486CE89E12D
:101560007DCF0D3D8CE5180739F4CA81CC23B9F045
:1015700082E00E947D2A51CE0E3D8CE5180731F4A1
:10158000CA81CC2361F00E94EA2447CE0C3D1C4561
:1015900009F0C2CECA81CC2311F080E0EACF8C2FB3
:1015A000DF91CF911F910F91089580E090E0089511
:1015B00008959CE0799FF001112490E3899FE00D4C
:1015C000F11D1124E60FF11DEE0FFF1FE25DFE4F2E
:1015D000859194910895880F991FFC01EF54FB4F5A
:1015E000859194910895CF93DF930E94D90A0E9428
:1015F000E40CEC01811521E5920708F042C0811549
:1016000060E5960708F02FC1883E910500F5803E01
:10161000910508F0D5C1883A910570F4853A910595
:1016200008F0A4C08130910509F4CAC108F47BC157
:10163000049708F0C5C177C18F3B910508F4A1C09C
:10164000803C910508F46FC1805C9109FBC0C11515
:1016500080E3D80780F4C11590E2D90708F0F0C004
:10166000C03FD10508F45FC1CF3FD10511F008F0AC
:10167000A7C1D065A5C1C11520E4D20708F0F0C00C
:10168000E5C0811569E5960760F5C11588E5D807BD
:1016900008F035C1C11594E5D90778F4C11523E5E3
:1016A000D20708F011C1C11562E5D60708F0F6C0EF
:1016B000DC2FCC27C16FD06A83C1C11585E5D8075F
:1016C00008F418C1C11596E5D90708F02CC18C2F74
:1016D0000E94610D8F71C82FD0E0DC2FCC27D06223
:1016E0006FC18D3B2CE5920709F414C1E0F4CB3BAC
:1016F0008CE5D80709F408C108F009C1C1152AE52D
:10170000D20708F010C18C2F8F700E94610D94E0F9
:10171000D695C7959A95E1F7CF70D0E0DC2FCC270E
:10172000D069C82B4DC1803C9C4509F4F9C0C13C2F
:101730008CE5D80760F4CE3B9CE5D90709F4EDC0F1
:10174000CF3BDC4509F0EFC0C0E0D2ED39C1CE019E
:1017500090568115904208F0E6C08D2F8F710E943F
:10176000610DDD27D0628F71D82B2AC1853A910592
:1017700009F4DCC0863A910509F0DBC0C2E8D0E488
:101780001FC1883A910509F4D7C0893A910509F437
:10179000D6C08A3A910509F4D5C08B3A910509F46F
:1017A000D4C08C3A910509F4D3C08B3B910509F460
:1017B000D2C08C3B910509F4D1C08D3A910509F452
:1017C000D0C0803B910509F4CFC08E3A910509F451
:1017D000CEC08F3A910509F4CDC0813B910509F443
:1017E000CCC0823B910509F4CBC0833B910509F441
:1017F000CAC0843B910509F4C9C0853B910509F431
:10180000C8C0863B910509F4C7C0873B910509F420
:10181000C6C0883B910509F4C5C0893B910509F410
:10182000C4C08D3B910509F4C3C08E3B910509F4FA
:10183000C2C08A3B910509F4C1C0C0E0D4E4C0C075
:10184000CE019F700E94EB0AEC01BAC0CE0199272D
:10185000D3FF03C0EC01D86CB3C0EC01D06CB0C0B6
:10186000DF70D06AADC0837021E030E002C0220F8B
:10187000331F8A95E2F73C68CE0174E09695879510
:101880007A95E1F78370382BCF70C695C69580E2C4
:10189000C89FE0011124C22BD32B92C04C2F469538
:1018A000469590E2499FA0011124C370DD2721E0F5
:1018B00030E0C90102C0880F991FCA95E2F7EC0118
:1018C000C42BD52BDC687CC04C2F4695469580E216
:1018D000489FA0011124C370DD2721E030E0C90139
:1018E00002C0880F991FCA95E2F7EC01C42BD52BD3
:1018F000DA6866C0DC2FCC27C46FD06A61C0DC2FE9
:10190000CC27C06FD06A5CC0C0E0D4ED59C0C0E045
:10191000D5ED56C0C0E0D1ED53C0C0E0D0ED50C011
:10192000C0E0D3ED4DC0C0E0D0E04AC0C1E8D0E493
:1019300047C0C3E8D0E444C0C2EED4E441C0C9EE1D
:10194000D4E43EC0CAEED4E43BC0C5EBD4E438C016
:10195000C6EBD4E435C0C3EBD4E432C0C4EBD4E46A
:101960002FC0C7EBD4E42CC0CCECD4E429C0CDEC20
:10197000D4E426C0C3E8D5E423C0CAE8D5E420C037
:10198000C2E9D5E41DC0C4E9D5E41AC0C1E2D6E479
:1019900017C0C3E2D6E414C0C4E2D6E411C0C5E265
:1019A000D6E40EC0C6E2D6E40BC0C7E2D6E408C057
:1019B000CFE6D4E405C0C0E7D4E402C0CAE2D6E46E
:1019C000CE01DF91CF9108958238910549F1B0F4AD
:1019D0008133910509F458C048F48932910509F41E
:1019E0004EC08A32910509F454C00895853391059B
:1019F00009F440C08933910599F00895833E91051B
:101A000029F138F4803E910591F0823E9105A1F0D4
:101A10000895863E9105F9F0873E910531F10895CC
:101A200020914C0220FD3AC021FD38C008958091DC
:101A30004C0280FD35C032C080914C0282FF32C022
:101A400080914C0284FD30C083EE39C080914C02FD
:101A500082FD28C0F5CF80914C0283FF27C0809182
:101A60004C0284FD21C087EE2AC080914C0283FD88
:101A70001DC0F5CF80914C0285FD1AC01BC080911E
:101A80004C0285FD17C014C080914C0286FD14C025
:101A900015C080914C0286FD11C00EC080EE0FC0B3
:101AA00089E30DC082EE0BC080E009C086EE07C05E
:101AB00089E205C085E303C08AE201C081E390E0CA
:101AC000089590914C0292FF0DC0282F2871283064
:101AD00019F4877F846006C0282F2471243011F404
:101AE0008B7F886093FF0DC0282F2871283119F44F
:101AF000877E846106C0282F2471243111F48B7EE7
:101B0000886194FD877E08950C94F406E82FF0E038
:101B1000EE0FFF1FEB59FE4F808191810895CF9208
:101B2000DF92EF92FF920F931F93CF93DF9381EC9D
:101B300094E00E944D0685E6E82E81E0F82EC0E094
:101B4000D0E09CEBC92E94E0D92E03EB14E0DF9398
:101B5000CF93DF92CF920E94E60689EB94E00E9439
:101B60004D06F701819191917F010E943C249F9342
:101B70008F931F930F930E94E60681EB94E00E94DF
:101B80004D0621968DB79EB708960FB6F8949EBF66
:101B90000FBE8DBFC430D105D1F6DF91CF911F911B
:101BA0000F91FF90EF90DF90CF900895A9E2B1E000
:101BB00041E050E024E02A0F8D91E82FE295EF708C
:101BC000F0E031A18F70BA0102C0660F771F8A95CD
:101BD000E2F7CB01962F9095932391A392A1892BA5
:101BE00082A32A13E9CFADE1B1E041E050E02CE05F
:101BF0002A0F8D91E82FE295EF70F0E031A18F7000
:101C0000BA0102C0660F771F8A95E2F7CB01962FC3
:101C10009095932391A392A1892B82A32A13E9CFB4
:101C200010926E0110926D01109266011092650182
:101C30001092700110926F0110926801109267016A
:101C4000109272011092710110926A011092690152
:101C5000109274011092730110926C0110926B013A
:101C600084E00E94CC0E0C94BD085F926F927F922C
:101C70008F929F92AF92BF92CF92DF92EF92FF929C
:101C80000F931F93CF93DF9309E211E0ADE6B1E02C
:101C9000612CEE24E394F12C5D018D909C901197C2
:101CA00011961C921E92E80189918E01E82FE2950F
:101CB000EF70F0E091A18F70A70101C0440F8A95E9
:101CC000EAF7892F842B81A382A1542E5094852179
:101CD00082A3D0EADA95F1F78DE1C82E81E0D82E03
:101CE00080E090E0E60179906E01272D22952F701B
:101CF00030E0E90168A12D913C91119770E0D72D5A
:101D0000DF7002C075956795DA95E2F760FD08C04F
:101D1000B701082E02C0660F771F0A94E2F702C0CF
:101D200060E070E0262B372B11963C932E930196A2
:101D30008C309105B9F681A1D52DD823D1A382A1EC
:101D4000482B42A3129681E0F50120813181821651
:101D5000930609F480E0682AF1E0A537BF0709F08F
:101D60009BCF262D44E065E671E08DE691E00E9470
:101D7000CD0E0E943C08862DDF91CF911F910F91CF
:101D8000FF90EF90DF90CF90BF90AF909F908F909B
:101D90007F906F905F9008950895FF920F931F9327
:101DA000CF93DF93F82E092F162FD72FC42F22237E
:101DB00049F081E0809377010E94B52590937601E8
:101DC00080937501809177018823D9F08091750106
:101DD000909176010E94C125069798F0EF2DF02F83
:101DE000A12FBD2F80E090E04C2F50E08417950785
:101DF00034F4219131912D933D930196F7CF1092B8
:101E00007701DF91CF911F910F91FF900895CF92AD
:101E1000DF92EF92FF920F931F93CF93DF937B019B
:101E2000282F382FE82FF0E0F11006C0E353F74FCA
:101E30006491762F862F7BC00F2D10E046E0649FC3
:101E4000C0011124CFEFD0E0BE010E94612FAB0191
:101E50006BEA6403C001659F900D11248E0D911DE6
:101E60008E0D911D982F990F890FBE01601B710B6C
:101E70006E9FD0016F9FB00D7E9FB00D11249B2FE0
:101E80008F9DB0011124672F77277E01E61AF70A8C
:101E9000EE9EB001EF9E700DFE9E700D11246E013E
:101EA000C81AD108C09E7001C19EF00CD09EF00CE3
:101EB00011240F2D1127C01BD10BCE9F8001CF9F66
:101EC000100DDE9F100D1124812F4230510591F02D
:101ED0004CF441155105E1F041305105B9F4822F20
:101EE000272F16C04430510569F044F046305105A3
:101EF00079F00CC0822F2B2F912F0AC02B2F932FFC
:101F0000872F06C08B2F922F212F02C08B2F972F48
:101F1000E22FF0E0E353F74F7491E82FF0E0E35342
:101F2000F74F6491E92FF0E0E353F74F8491DF918D
:101F3000CF911F910F91FF90EF90DF90CF90089578
:101F40000895CF93DF93762FE901682F842F0E94A5
:101F5000070F798368838A83DF91CF9108958091F9
:101F60001902282F269530E02115310519F48170CA
:101F7000826005C02532310524F081708864809329
:101F80001902089588E090E00C94E02FCF93DF933E
:101F900000D000D0CDB7DEB7AB01BC0149835A8376
:101FA0006B837C830E94AF0F49815A816B817C8156
:101FB00088E090E00F900F900F900F90DF91CF91FD
:101FC0000C94FE2FE9E1F2E083E0808311828FEF31
:101FD00082838383148260817181828193810C94D6
:101FE000C60F8091090280FF08C08DE997E09F939A
:101FF0008F930E94E6060F900F908091090280FF58
:102000000FC08091190281701F928F9380E897E032
:102010009F938F930E94E6060F900F900F900F9062
:102020008091090280FF0FC08091190286951F924E
:102030008F9385E697E09F938F930E94E6060F901B
:102040000F900F900F908091090280FF0EC0809139
:102050001A021F928F938BE497E09F938F930E94B5
:10206000E6060F900F900F900F908091090280FF6D
:102070000EC080911B021F928F9381E397E09F9384
:102080008F930E94E6060F900F900F900F90809113
:10209000090280FF0EC080911C021F928F9387E17E
:1020A00097E09F938F930E94E6060F900F900F90FA
:1020B0000F908091090280FF0EC080911D021F9237
:1020C0008F938BEF96E09F938F930E94E6060F907D
:1020D0000F900F900F9008958091190280FF02C019
:1020E0008695089580E0089580911D02833018F44C
:1020F0008F5F80931D026091190270911A02809186
:102100001B0290911C020C94C60F80911D02882323
:1021100019F0815080931D026091190270911A028A
:1021200080911B0290911C020C94C60F60910401D7
:1021300070E08091190280FF0AC080917C0123E049
:10214000829FC0011124825E9D4F0C946216809183
:102150007B0190910301891780F7E82FF0E09F0140
:10216000220F331FE20FF31FE25EFD4F1182108238
:1021700012828F5FF0CF9091190290FF16C090915C
:102180007B0120910301921770F4E92FF0E0DF0149
:10219000AA0FBB1FEA0FFB1FE25EFD4F8183608326
:1021A00042839F5FF0CF0C9496100895CF93DF93F6
:1021B00000D01F92CDB7DEB79091190290FF0AC0F0
:1021C0009E012F5F3F4F0E94A10F4B8169818A8141
:1021D0000E94BB100F900F900F90DF91CF91089548
:1021E000CF93DF93EC01EC81F0E0E853F84F44919A
:1021F000E9E1F2E0628181810E94D6108C818F5FDB
:102200008C83DF91CF910895CF93DF93EC01E9E1C7
:10221000F2E0438162818C810E94D6108C818F5FB5
:102220008C83DF91CF9108950F931F93CF93DF930A
:1022300000D01F92CDB7DEB78C018091780181115B
:102240000AC09E012F5F3F4F4FEF6FEF0E94A10F1B
:102250008A8180937801F8018481813051F028F0DF
:10226000823061F4409178010AC08091780140E0A9
:1022700007C06091780140E080E003C040E080E06A
:1022800060E00E94BB10F801248130E0C901019692
:1022900063E070E00E94752F84830F900F900F9081
:1022A000DF91CF911F910F9108956F927F928F923E
:1022B0009F92AF92BF92CF92DF92EF92FF920F93D5
:1022C0001F93CF93DF9300D000D0CDB7DEB7182F88
:1022D000D62E042FB22E9091190290FFB2C0E92F92
:1022E000E695AE2FB0E0A35DBE4F8C918093840144
:1022F0009E7F923061F49E012F5F3F4F812F0E949D
:10230000A10F4B8169818A810E94BB1060C082301D
:1023100019F400911C025BC0863019F410911A0266
:1023200056C08930D9F3893109F051C0E9518E2F57
:1023300080958170C82EE695F0E0E853F74FE59060
:10234000F490A12CFF2426E5822E25E0922E6091A8
:102350000201A616D0F56A2C712C6E9CC0016F9CF0
:10236000900D7E9C900D112470E00E94612F812FB2
:10237000CC2011F0860F01C0861B9091090290FFBE
:1023800013C0FF92EF921F92CF921F928F931F92D2
:10239000AF929F928F928C830E94E6060FB6F894BC
:1023A000DEBF0FBECDBF8C8190917B01690E711C89
:1023B0009301220F331F260D371D225E3D4F402F04
:1023C0006D2D0E94A10FA394C2CF0E94961010936E
:1023D0001A02D0921B0200931C02BB20E9F060910C
:1023E000190270911A0280911B0290911C020E94A6
:1023F000C60F8091090280FF24C080911C021F92A9
:102400008F9380911B021F928F9380911A021F92CB
:102410008F9381E395E00CC08091090280FF11C089
:102420001F920F931F92DF921F921F938AE095E0F5
:102430009F938F930E94E6060FB6F894DEBF0FBEFF
:10244000CDBF0F900F900F900F90DF91CF911F9104
:102450000F91FF90EF90DF90CF90BF90AF909F9043
:102460008F907F906F900895E9E1F2E09181282F9D
:102470004381628188E0890F0C94551181E00C94AE
:102480003412E9E1F2E09181282F4381628188EFE3
:10249000890F0C94551181E00C944112E9E1F2E0AE
:1024A000628128E0620F08F46FEF282F4381818159
:1024B0000C94551181E00C944E12E9E1F2E0628136
:1024C00028E0621B08F460E0282F438181810C948E
:1024D000551181E00C945D12E9E1F2E0438128E0BE
:1024E000420F08F44FEF282F628181810C9455111F
:1024F00081E00C946C12E9E1F2E0438128E0421B98
:1025000008F440E0282F628181810C94551181E00C
:102510000C947B1220E00C945511FF920F931F93A3
:10252000CF93DF93EC01F12C0FEF10E060910201EB
:10253000F616E8F420917B0130E02F0D311DC90122
:10254000880F991F280F391F225E3D4F70E0C80188
:102550000E94752F962F8C8140911C0260911B0266
:10256000F99E800D11240E94A10FF394DFCF0E94E9
:1025700096109A818C8190FF02C08F5F01C08150BC
:102580008C83DF91CF911F910F91FF900895BF929F
:10259000CF92DF92EF92FF920F931F93CF93DF932F
:1025A000FC01828180FF02C00FEF01C001E010E05A
:1025B000809102011817E0F5C12ED12C80917B018A
:1025C000E601C80FD11DCE01880F991FC80FD91F72
:1025D000C25EDD4F198218821A8234E0E32EF12C9C
:1025E000B12C80917A018B0D87FF03C0909102017D
:1025F000890F082E000C990BC816D90691F480910A
:102600001C028E9DA0018F9D500D1124559547955C
:10261000559547959E0160911B0280911A020E9478
:10262000A10FB00EF1E0EF1AF108D9F61F5FC0CF8D
:102630000E94961080917A01013031F4811102C01C
:1026400080910201815007C090E0019660910201E3
:1026500070E00E94752F80937A01DF91CF911F91D6
:102660000F91FF90EF90DF90CF90BF900895CF93A0
:1026700080917B0190910301891770F4E82FF0E0BD
:102680009F01220F331FE20FF31FE25EFD4F118205
:10269000108212828F5FF0CFC0E060910201C617F6
:1026A000B8F5EC2FF0E070E0CF010E94752F40915B
:1026B0007B01480F80917901082E000C990B50E0A6
:1026C000E817F907C4F020910101022E000C330B2A
:1026D0002E173F0784F09A01220F331F240F351F56
:1026E000225E3D4F40911C0260911B0280911A02B4
:1026F0000E94A10F0BC0FA01EE0FFF1F4E0F5F1FCC
:10270000FA01E25EFD4F118210821282CF5FC5CFC7
:102710000E9496102091000180917901820F809390
:10272000790190910101920F9093010119165CF4C7
:10273000082E000C990B4091020150E041505109C4
:10274000841795071CF0219520930001CF910895DF
:102750000F931F93CF93DF938C01FC0184819581AC
:1027600001968170992795838483C0E0D5E5809197
:102770000201C817F8F420917B0130E02C0F311DC5
:10278000C901880F991F280F391F225E3D4F4C2F1A
:102790004695F80184819581840F911D8170409147
:1027A0001C0260911B028D9F802D11240E94A10F9D
:1027B000CF5FDDCFDF91CF911F910F910C949610D9
:1027C0000F931F93CF93DF93EC0100E010E0809113
:1027D0000201282F30E00217130724F590917B01A6
:1027E0009801290F311DA901440F551F240F351FD2
:1027F000225E3D4F869590E04C81081719071CF426
:10280000442331F002C0411103C040911C0201C0B9
:1028100040E060911B0280911A020E94A10F0F5F9D
:102820001F4FD5CF0E9496102C8130E02F5F3F4F75
:10283000217033272C83DF91CF911F910F91089541
:1028400060911902669570E04BE050E085E091E000
:102850000E94CB2F892B19F481E0809385010E947F
:10286000B52590937E0180937D018091090280FFC0
:1028700008C081EF94E09F938F930E94E6060F902B
:102880000F900895109285018091090280FF08C081
:1028900088ED94E09F938F930E94E6060F900F902F
:1028A00008959091190290FF54C09170811102C057
:1028B000926006C0853210F0986402C0880F982B91
:1028C000909319026623B1F06091190270911A0277
:1028D00080911B0290911C020E94C60F80910902F8
:1028E00080FF1BC08091190286951F928F9381E40F
:1028F00096E00BC08091090280FF0FC08091190201
:1029000086951F928F9383E296E09F938F930E9408
:10291000E6060F900F900F900F9060911902669548
:1029200070E04BE050E085E091E00E94CB2F892BD6
:1029300019F00E94421402C00E94201481E080938A
:10294000800140911C0260911B0280911A020C943C
:102950008A120895682F90911902969581E0890F47
:10296000853208F081E00C94511481E00C94AA1493
:10297000682F9091190296958FEF890F09F484E2E0
:102980000C94511481E00C94B81461E00C9451142F
:10299000809119028160809319028091090280FF61
:1029A0000DC01F9281E08F9385EB95E09F938F93ED
:1029B0000E94E6060F900F900F900F9080911902E1
:1029C00086950C94C51460E00C9451148091830199
:1029D000811161C08091090281608093090284EEB7
:1029E00096E09F938F930E94E606809109020F90D4
:1029F0000F9080FF08C08EEC96E09F938F930E940B
:102A0000E6060F900F900E945624811110C080910D
:102A1000090280FF08C086EA96E09F938F930E9488
:102A2000E6060F900F900E94EA240E94E20F0E9497
:102A3000C20F6093190270931A0280931B02909345
:102A40001C026E7FC1F48091090280FF08C08DE5F1
:102A500096E09F938F930E94E6060F900F900E943E
:102A6000E20F0E94C20F6093190270931A028093C2
:102A70001B0290931C020E94AF0F0E94F10F109254
:102A800085018091190280FF03C086950E94E3149E
:102A900081E0809383010895809119028E7F809355
:102AA00019026091190270911A0280911B02909193
:102AB0001C020E94C60F8091090280FF0FC0809106
:102AC000190281701F928F938DE795E09F938F93EA
:102AD0000E94E6060F900F900F900F900E944214F4
:102AE0002FEF80E792E0215080409040E1F700C056
:102AF00000000C9496108091090280FF10C0809114
:102B00001902809581701F928F938CEE95E09F93B0
:102B10008F930E94E6060F900F900F900F90809178
:102B2000190280FD0C944C150C94C8140F931F933C
:102B3000CF93DF9380918501882309F48CC0809125
:102B40008401E0911902E695E81BE0937F01823051
:102B500049F4F0E0EC53F84FE491CE2FD0E000EFD1
:102B600010E149C0863049F4F0E0EF53F84FE491AA
:102B7000CE2FD0E004E011E13EC0893051F4E6955B
:102B8000F0E0E254F84FE491CE2FD0E00DE812E1EE
:102B900032C08F3051F4E695F0E0E554F84FE491FF
:102BA000CE2FD0E007EC12E126C0853149F4F0E0E9
:102BB000E854F84FE491CE2FD0E007E313E11BC0B7
:102BC000883181F0833239F4E6EBF7E0C591D49196
:102BD00004E111E110C0843251F4C4EFD1E000EE01
:102BE00013E109C0C8EED3E008EA13E104C0C0ED68
:102BF000D7E000EA1FE080918001882389F01092DD
:102C000080010E94B5259E0120953095820F931F6B
:102C100090937E0180937D01109282011092810138
:102C200080917D0190917E010E94C1258C179D07A6
:102C300090F0E0917D01F0917E01CE0FDF1FD093E7
:102C40007E01C0937D018DE791E0F801DF91CF9186
:102C50001F910F910994DF91CF911F910F910895CA
:102C60002EB1342F309523233EB1432B3FB7F89438
:102C7000FC01680F791FE617F70789F0819198E04A
:102C80004EB9000000C087FF2EB9880F000000C0B9
:102C900000C000C02EB900C09A9591F7ECCF3FBF9D
:102CA00008952DB1242B2DB99B01220F331F620FE4
:102CB000731F0E94301687EC90E00197F1F700C077
:102CC0000000089544E00C9451160F931F93CF9386
:102CD000DF93C62FD42F022FFC0182818823C9F0F5
:102CE000609388010E94B5259093870180938601A7
:102CF00080E28C0F883008F050C0C77081E001C0BE
:102D0000880FCA95EAF7DF91CF911F910F910C942C
:102D1000681A10918801161330C080918601909135
:102D200087010E94C125883C910538F5C0E2CD0F8E
:102D30001D17B9F080E2810F883040F4177081E0F0
:102D400001C0880F1A95EAF70E946F1AC83048F43C
:102D500081E09D2F977001C0880F9A95EAF70E9435
:102D6000681A802F0E94551AC830B8F4D77081E0D5
:102D700001C0880FDA95EAF70AC080E28C0F88302C
:102D800060F4C77081E001C0880FCA95EAF7DF914F
:102D9000CF911F910F910C946F1ADF91CF911F91DA
:102DA0000F9108959C01CB01203F4CE53407F9F0C9
:102DB00078F4283DFCE53F07B9F0293D4CE53407A0
:102DC00011F1273D3C4531F526E241EE61EE1EC092
:102DD000223FFCE53F0799F070F0233F3C45D1F4DA
:102DE00027E245EE66EE12C027E245EE0EC026E26F
:102DF00041EE60EE0BC027E245EE64EE07C026E22E
:102E000041EE62EE03C028E241E065EE0E946516E5
:102E100080E00895FC018281882319F010928801D6
:102E2000089581E0089590938E0180938D01089517
:102E3000E0918D01F0918E01309721F00190F081A9
:102E4000E02D099480E00895EF92FF920F931F9375
:102E5000CF93DF93E0918D01F0918E013097B1F126
:102E60008C010280F381E02D09958091090282FF97
:102E70002DC080FF04C085ED99E00E944D06E80159
:102E800018E08FECE82E89E0F82E8091090280FF8F
:102E90000BC088811F928F93FF92EF920E94E606EB
:102EA0000F900F900F900F90115021961111EDCFB0
:102EB0008091090280FF0AC08DEC99E0DF91CF91EB
:102EC0001F910F91FF90EF900C944D06DF91CF91E1
:102ED0001F910F91FF90EF90089520918B013091F9
:102EE0008C018217930771F090938C0180938B0172
:102EF000E0918D01F0918E01309721F00680F781ED
:102F0000E02D099408952091890130918A0182175A
:102F1000930771F090938A0180938901E0918D016C
:102F2000F0918E01309721F00084F185E02D099415
:102F3000089585B7806885BF85B7806885BF089587
:102F4000089508950C94A11708950C94A4170E9455
:102F500099170E94A0170C94A21781E008950E946F
:102F6000AC250E94D60D0E9435260E944E260E9456
:102F7000E6140C94A517CF93C82F8091090282FF05
:102F80001EC080FF04C08EEE99E00E944D06809125
:102F9000090280FF0CC01F92CF9389EE99E09F93A6
:102FA0008F930E94E6060F900F900F900F908091E4
:102FB000090280FF04C087EE99E00E944D068C2F25
:102FC000CF910C94C9084F925F927F928F929F92FB
:102FD000AF92BF92CF92DF92EF92FF920F931F9327
:102FE000CF93DF93CDB7DEB72A970FB6F894DEBF45
:102FF0000FBECDBF0E94350E0E94AD17811111C0CA
:103000008FEF89838A831B820E94B5258160782F88
:103010009D838C8349815A816B818D810E949F1889
:1030200057C090E9C92E91E0D92E00E010E0AA2403
:10303000A394B12C702E802F0E94860D4C01F601B6
:10304000419051906F01482659264114510431F4A2
:103050000F5F1F4F0430110569F7D2CF809109022D
:1030600081FD0E948F0D20E030E07501022E02C02C
:10307000EE0CFF1C0A94E2F7C70184219521892BED
:1030800009F12E837F828E209F2091E0892809F408
:1030900090E098870E94B5258160782F9A8789876C
:1030A0004E815F8168858A850E949F18000F111FDD
:1030B000F801E057FE4F80819181E826F926F182E0
:1030C000E08206C02F5F3F4F2C30310571F6C0CF34
:1030D00010918F010E9418171817D9F00E94181725
:1030E00080938F012A960FB6F894DEBF0FBECDBF36
:1030F000DF91CF911F910F91FF90EF90DF90CF90D4
:10310000BF90AF909F908F907F905F904F900C9466
:10311000BB172A960FB6F894DEBF0FBECDBFDF9166
:10312000CF911F910F91FF90EF90DF90CF90BF90C4
:10313000AF909F908F907F905F904F900895CF9326
:10314000DF93CDB7DEB72B970FB6F894DEBF0FBE77
:10315000CDBF4F83588769877A878B87DE011196A9
:1031600086E0FD0111928A95E9F785E0FE01379628
:1031700001900D928A95E1F70E94FC22882319F0B4
:1031800082E00E9408240E94CF2281110E94912394
:1031900049815A816B817C818D819E810E94D21FE1
:1031A0002B960FB6F894DEBF0FBECDBFDF91CF9147
:1031B0000895FC01808191810E949E2208958823B8
:1031C00009F413C1682F8238C1F40E94181781FDD9
:1031D0000CC169E380911001909111010E941E259C
:1031E0000E949F232FEF81EE94E021508040904079
:1031F000E1F700C0000069E319C08338F9F40E94C8
:10320000181780FDF2C063E58091100190911101C3
:103210000E941E250E949F232FEF81EE94E02150F3
:1032200080409040E1F700C0000063E5809110010C
:10323000909111010E9420250C949F238438C1F4A1
:103240000E94181782FDD1C067E48091100190910F
:1032500011010E941E250E949F232FEF81EE94E012
:10326000215080409040E1F700C0000067E4DECFCD
:103270008CEF860F813A38F4809110019091110102
:103280000E941E25D9CF80E2860F883048F46770EF
:1032900081E001C0880F6A95EAF70E943123CCCF04
:1032A0008BE5860F833070F4653A29F0663A31F089
:1032B00083E890E005C081E890E002C082E890E0F9
:1032C0000C946D1788E5860F873108F08EC0683A38
:1032D00009F445C0693A09F445C06A3A09F445C0A1
:1032E0006B3A09F445C06C3A09F445C06B3B09F4EC
:1032F00045C06C3B09F445C06D3A09F445C0603BDC
:1033000009F445C06E3A09F445C06F3A09F445C066
:10331000613B09F445C0623B09F445C0633B09F4D5
:1033200045C0643B09F445C0653B09F445C0663BB4
:1033300009F445C0673B09F445C0683B09F445C042
:10334000693B09F445C06D3B09F445C06E3B09F487
:1033500045C06A3B09F445C080E090E044C082EE7D
:1033600090E041C089EE90E03EC08AEE90E03BC024
:1033700085EB90E038C086EB90E035C083EB90E0C1
:1033800032C084EB90E02FC087EB90E02CC08CEC37
:1033900090E029C08DEC90E026C083E891E023C046
:1033A0008AE891E020C082E991E01DC084E991E0C3
:1033B0001AC081E292E017C083E292E014C084E276
:1033C00092E011C085E292E00EC086E292E00BC06E
:1033D00087E292E008C08FE690E005C080E790E0C9
:1033E00002C08AE292E00C9483170895882309F4BE
:1033F0005BC0682F823879F40E94181781FF54C08F
:1034000069E380911001909111010E941E250E9494
:103410009F2369E310C08338B1F40E94181780FF1E
:1034200043C063E580911001909111010E941E2517
:103430000E949F2363E580911001909111010E94E9
:1034400020250C949F23843879F40E94181782FF5A
:103450002BC067E480911001909111010E941E25FC
:103460000E949F2367E4E7CF8CEF860F813A18F321
:1034700080E2860F883048F4677081E001C0880FD1
:103480006A95EAF70E943723DCCF8BE5860F8330FD
:1034900020F480E090E00C946D17685A673120F4B6
:1034A00080E090E00C9483170895CF93C82F0E947A
:1034B000DF18C93349F42FEF87EE93E021508040A5
:1034C0009040E1F700C000008C2FCF910C94F619CA
:1034D000882321F00E9431230C949F230895882390
:1034E00021F00E9437230C949F230895BF92CF921E
:1034F000DF92EF92FF920F931F93CF93DF937C01A4
:10350000062FC72FFC01158112951F70D281D11192
:103510000E944E230E942723882379F0DD2369F03F
:1035200080E2800F883048F082E00E9408240E94E8
:10353000272391E0B82EB92601C0B12CCC2EC2941D
:103540008FE0C822D12CF601E159FF4F0C94AB2F2C
:103550008C2F807FCF70882311F0C295C07FDD2330
:1035600099F0CC2309F4BAC180E2800F883010F0C2
:10357000011104C08C2F0E94312303C08C2F0E94A4
:1035800041230E949F23AAC1802F0E94F619CC23B9
:1035900009F4EEC180E2800F883010F0011104C000
:1035A0008C2F0E94372303C08C2F0E9447230E9438
:1035B0009F23DEC18C2F807FCF70803211F0C295A7
:1035C000C07F002319F0013059F134C0DD23B1F080
:1035D000112381F0113031F40E9461238C2B0E9461
:1035E0007D23C6C1153031F40E9491238C2F0E9497
:1035F00067232AC00E9461238C2B27C0112369F006
:10360000113041F40E942E238C2309F4B1C10E9491
:10361000702303C0153009F4ABC10E94912325C06B
:10362000DD2321F0163008F0A3C10EC0153008F0DC
:103630009FC11BC0DD2361F0112331F0F7018581AB
:1036400080FF4CC18F7085838C2F0E94681A90C1B7
:10365000112359F0093309F053C1FFEF27EE83E03E
:10366000F15020408040E1F749C18C2F0E946F1A31
:103670007FC18C2F86958695837090E0009719F016
:10368000019761F075C1DD2321F0802F9C2F93708D
:1036900002C080E090E00E946D1775C1DD2321F02B
:1036A000802F9C2F937002C080E090E00E948317CF
:1036B0006AC18C2F837009F049C0D11160C1402FBD
:1036C000429546954770440F440F602F6F70862FC8
:1036D00090E0A0E0B0E0042E04C0880F991FAA1F5C
:1036E000BB1F0A94D2F704FF10C00FE010E020E0E7
:1036F00030E004C0000F111F221F331F4A95D2F77C
:10370000009510952095309503C000E010E09801D9
:10371000C695C695C370D0E0BC01CD01602B712B5E
:10372000822B932BC230D10559F0C330D10559F00B
:10373000219719F00E94172122C10E9405211FC163
:103740000E9429211CC10E94032119C1DD2319F007
:103750008C2F817001C08695882309F410C1402FF9
:10376000429546954770440F440F602F6F70862F27
:1037700090E0A0E0B0E0042E04C0880F991FAA1FBB
:10378000BB1F0A94D2F704FF10C00FE010E020E046
:1037900030E004C0000F111F221F331F4A95D2F7DB
:1037A000009510952095309503C000E010E0980139
:1037B000C695C695C370D0E0BC01CD01602B712BBE
:1037C000822B932BC230D10559F0C330D10559F06B
:1037D000219719F00E94DD21D2C00E94CB21CFC0D9
:1037E0000E94EF21CCC00E943E21C9C0CF70DD23D2
:1037F00039F08C2F0E946421802F0E94681ABFC06C
:10380000802F0E946F1A8C2F0E948521B8C0023F22
:1038100001F128F4003F41F0013FA1F05AC0033FFD
:10382000F9F0043F39F155C0DD2341F0153008F0BF
:103830009FC08C2F8F710E94AA219AC0163008F069
:1038400097C0F7CFDD2339F08C2F8F710E94642150
:103850008FC0DD23C9F38C2F8F710E94852188C012
:10386000DD2329F08C2F8F710E944F2181C00E948F
:103870004A217EC0DD23C9F00E94CC220E9437235A
:103880000E94F822843039F40E94FF238C2F8F711C
:103890000E94852194C0153008F091C0CF718C2F03
:1038A0000E94642163E08C2F0DC00E94CC220E94F4
:1038B0003123153050F00E94FF230E94702364E0F2
:1038C0008C2F8F710E94E9237AC081E00E94082426
:1038D00076C0DD2339F0112309F4B6CF802F0E9482
:1038E000DF1846C0112309F4B6CF093349F49FEF1E
:1038F000E7EEF3E09150E040F040E1F700C0000057
:10390000802F0E94F61934C04C2F4F70602FC701D2
:103910000E94D50A0E94762036C0D11134C0CF70E3
:10392000D0E0C230D10599F03CF4209769F021979E
:10393000F9F40E94A72627C0C430D10571F054F0D5
:103940002597B1F480E00AC00E946F261CC00E9437
:103950001B2719C00E94372716C084E00E947527D4
:1039600012C04C2F4F70602FC7010E94D80A0BC0A5
:1039700028E0C21AD10884E0C816D10420F40E94BD
:1039800018170E94C908BB20E1F00E94F82280FDB0
:1039900018C0F70112820E94F2220E946421C7011E
:1039A0000E94EB1C0E94F222DF91CF911F910F9198
:1039B000FF90EF90DF90CF90BF900C948521B12CB9
:1039C000DECFDF91CF911F910F91FF90EF90DF90AD
:1039D000CF90BF9008950F931F93CF93DF93EC0187
:1039E000888199812B813C81232BB9F09F3F11F471
:1039F0008F3F99F0CE010E94DB08882371F0688127
:103A000079818A810E94A9228C010E9401220E9450
:103A10000221B801CE010E94761ADF91CF911F9149
:103A20000F9108950E944E230E945E230E949F23BF
:103A300080E090E00E946D1780E090E00C94831786
:103A400080911001909111010E9422250C94121D69
:103A50000E943E230C94201DE92FE295EF70F0E0C8
:103A60003297EE30F105B0F4E158FF4F0C94AB2FD4
:103A7000803F91F018F4883E68F40EC0843F51F402
:103A80000BC0883E48F0813F29F406C093FB88278D
:103A900080F9089580E0089581E008950E949E22B3
:103AA0000E942C1D0895CF93DF9300D000D01F9269
:103AB000CDB7DEB70F900F900F900F900F90DF9162
:103AC000CF910895CF93DF9300D000D000D0CDB731
:103AD000DEB726960FB6F894DEBF0FBECDBFDF91DE
:103AE000CF9108951F93CF93DF93C091990116E072
:103AF00080919A01C81799F0D0E01C9FF0011D9F9A
:103B0000F00D1124E556FE4F408151816281738191
:103B1000848195810E94621D2196C770E9CFDF9153
:103B2000CF911F9108954091CB015091CC016091AC
:103B3000CD017091CE018091CF019091D0010C9474
:103B4000621D8091D00182958F7009F054C08091E0
:103B5000CD01882309F44FC080919901A0919A0169
:103B60006091CB017091CC014091CE015091CF0179
:103B7000B6E08A1709F43FC090E041155105C1F144
:103B80007F3F11F46F3FA1F1B89FF001B99FF00D95
:103B90001124E556FE4F218172132AC02081621341
:103BA00027C02281211124C02381348124173507A5
:103BB00010F421503109241B350B283C3105C0F489
:103BC0002091D0012F7020612093D00126E0289F02
:103BD000F001299FF00D1124E056FE4F80818F7077
:103BE000806180838BEC91E00E94EB1C0C94721D31
:103BF00001968770BECF0895CF92DF92EF92FF9229
:103C00000F931F93CF93DF93CDB7DEB762970FB6B5
:103C1000F894DEBF0FBECDBF8C0185E0F801DE0158
:103C20001D9601900D928A95E1F7D8014C9111965D
:103C30005C91119712966C9112971396CD90DC902F
:103C400014973091CB017091CC018091CE0190916D
:103C5000CF01009709F46BC17F3F19F43F3F09F48E
:103C600066C1E090CD01EE2009F4C0C02091D001E2
:103C7000C816D90628F0F601E81BF90BCF0104C0DD
:103C8000809590958C0D9D1DFF24F394883C9105A3
:103C900078F0F12C207F09F0C6C07C2DD98AC88A23
:103CA00089890E94531D8BEC91E00E94EB1CB1C0EE
:103CB000822F807F09F046C0751314C0341312C0E0
:103CC000611110C02F7020612093D0010E94931DBC
:103CD0008BEC91E00E94EB1C8091D001D8011596ED
:103CE0008C932EC0CD2819F15F3F11F44F3FF9F0AE
:103CF000F62E61111CC08091990120919A0136E045
:103D0000821709F45AC090E0389FF001399FF00DF6
:103D10001124E556FE4F7181571306C07081471379
:103D200003C07281711103C001968770E9CFF62E2E
:103D3000662309F427C18091D00181608093D0016E
:103D4000F12C20C1751308C0341306C0611104C0E2
:103D50008091D001D801C3C04D875E878D859E8537
:103D60006A8B0E944E1D6A898823E1F16623D1F196
:103D70002091D001822F82958F7090E0029774F08D
:103D80008091CB019091CC0198878F831986DB8637
:103D9000CA862C87CE0107960E94EB1C86E0F801AC
:103DA000ABECB1E001900D928A95E1F70E94A11D64
:103DB0000E94931DFF24F394E5C04D875E878D8597
:103DC0009E850E949E22292F22952F7030E022305E
:103DD00031050CF0CBC09F7009F0C5C0805E883003
:103DE00008F4D0C0C8010E94EB1CE4CFC816D90665
:103DF00008F453C0F601E81BF90BCF01883C91058C
:103E000008F450C0F12C7C2DD98AC88A89890E9477
:103E1000531DEBECF1E086E0DF011D928A95E9F796
:103E20000E94931DAFC0751314C0341312C06111EA
:103E300010C08091D001F8018583C8010E94EB1C5D
:103E400086E0EBECF1E0DF011D928A95E9F7FE2CAC
:103E500099C04D875E878D859E856A8B0E944E1D19
:103E60006A89882309F4BECF662309F4BBCF209169
:103E7000D001822F82958F7090E002970CF48ECF44
:103E80008091CB019091CC019A8389831B82DD8242
:103E9000CC822E83CE0101967FCF809590958C0D9C
:103EA0009D1DACCFF62E662309F49CCF75132EC052
:103EB00034132CC02091D00120FD1FC0822F829589
:103EC0008F70D9F0D80115962C9315978F3049F043
:103ED0008F5F982F9295907F822F8F70892B1596E8
:103EE0008C93C8010E94EB1C86E0F801ABECB1E0BA
:103EF00001900D928A95E1F793CF86E0F801ABEC43
:103F0000B1E001900D928A95E1F73CC04D875E8744
:103F10008D859E850E944E1D811140CF8091D001DC
:103F200081608093D001C8010E94EB1C2BC06623E6
:103F300009F458CF4D875E878D859E850E944E1D62
:103F4000F82E882309F44ECF86E0F801ABECB1E0FF
:103F500001900D928A95E1F78BEC91E00E94D918BF
:103F60000E94A11D5DCF811139CF0CC024303105D5
:103F70000CF038CF9F7009F431CFF8019581907F14
:103F800009F02CCF8F2D62960FB6F894DEBF0FBECE
:103F9000CDBFDF91CF911F910F91FF90EF90DF90F8
:103FA000CF9008951F93CF93DF93CDB7DEB72C97B3
:103FB0000FB6F894DEBF0FBECDBF4F835887698719
:103FC0007A878B879C87CE0107960E94FC1D8823E9
:103FD00069F08F8198852A853B85232BF1F19F3FDE
:103FE00009F063C08F3F09F060C037C086E0FE0172
:103FF0003796DE01119601900D928A95E1F76F8157
:104000007885EA85FB85309741F17F3F11F46F3F5A
:1040100021F120919A0130E0C9010196877099271A
:104020004091990150E08417950709F447C06983CE
:104030007A83FD83EC8396E0929FD001939FB00D2D
:104040001124A556BE4FFE01319601900D929A950E
:10405000E1F780939A010E94721D16E08091990108
:1040600090919A018917C1F1189FC00111248556BA
:104070009E4F0E94FC1D882379F1E09199011E9FBB
:10408000F0011124E556FE4F408151816281738118
:10409000848195810E94621D8091990190E0019632
:1040A0008770992780939901D9CF4F815885698569
:1040B0007A858B859C850E94621DCFCF0E94281D2A
:1040C00010929A0110929901EBECF1E086E0DF0189
:1040D0001D928A95E9F7C1CF2C960FB6F894DEBFF2
:1040E0000FBECDBFDF91CF911F910895EF92FF9248
:1040F0000F931F93CF93DF938C01892B09F46CC02E
:10410000F12CEE24E394E8012196F80184918437A0
:1041100040F4843008F051C0813081F0823019F1D0
:104120005BC0853709F444C0A8F19CE7980F90372D
:1041300008F052C08F770E94F61941C00E5F1F4FE2
:10414000FE01C49180E28C0F883048F4C7708E2D38
:1041500001C0880FCA95EAF70E94512314C08C2F22
:104160000E94DF182DC00E5F1F4FFE01C49180E238
:104170008C0F883058F4C7708E2D01C0880FCA95F7
:10418000EAF70E9457230E949F231AC08C2F0E9497
:10419000F61916C00E5F1F4FFE01C491CC2381F0AB
:1041A0008FE99FE00197F1F700C00000C150F6CF02
:1041B0000E5F1F4FFE01F49003C00E94DF188E01B6
:1041C0008F2D882309F49FCFEFE9FFE03197F1F7B6
:1041D00000C000008150F5CFDF91CF911F910F916A
:1041E000FF90EF90089508950C94F3200E94F4201E
:1041F0006093F3017093F4018093F5019093F601BD
:104200000C94121D08950C94F6200F931F930091A7
:10421000F3011091F4012091F5013091F601602B2A
:10422000712B822B932B1F910F910C94F6200F93DF
:104230001F930091F3011091F4012091F501309149
:10424000F60160237123822393231F910F910C9415
:10425000F6200F931F930091F3011091F401209128
:10426000F5013091F60160277127822793271F916E
:104270000F910C94F62008950C943B210E943C2150
:104280006093EF017093F0018093F1019093F2013C
:104290000C94121D60E070E0CB010C943E210F9352
:1042A0001F9341E050E060E070E08A019B0104C090
:1042B000000F111F221F331F8A95D2F7C901B801C1
:1042C0001F910F910C943E210F931F9341E050E0FA
:1042D00060E070E004C0440F551F661F771F8A9589
:1042E000D2F78091EF019091F001A091F101B0918E
:1042F000F2018A019B01082B192B2A2B3B2BC901A8
:10430000B8011F910F910C943E210F931F9341E030
:1043100050E060E070E004C0440F551F661F771F37
:104320008A95D2F740955095609570958091EF01F0
:104330009091F001A091F101B091F2018A019B01ED
:10434000082319232A233B23C901B8011F910F9188
:104350000C943E210F931F9341E050E060E070E029
:1043600004C0440F551F661F771F8A95D2F78091AE
:10437000EF019091F001A091F101B091F2018A0159
:104380009B01082719272A273B27C901B8011F913C
:104390000F910C943E210F931F930091EF01109108
:1043A000F0012091F1013091F201602B712B822BF1
:1043B000932B1F910F910C943E210F931F9300910B
:1043C000EF011091F0012091F1013091F201602391
:1043D0007123822393231F910F910C943E210F93FD
:1043E0001F930091EF011091F0012091F1013091A4
:1043F000F20160277127822793271F910F910C9458
:104400003E2108952CE0929F800D1124A82FA6959F
:10441000A695A695877051E001C0550F8A95EAF7D9
:1044200085E0A89FD001112420E030E070E0F90180
:10443000EA0FFB1FEF52FE4F4081CB01022E02C05C
:10444000969587950A94E2F781709927819584273C
:104450008523842780832F5F3F4F2530310539F72F
:1044600008952CE0929F800D1124682F6695669523
:104470006695982F977085E0689FB001112440E001
:1044800050E080E0FA01E60FF71FEF52FE4F208167
:1044900030E0092E02C0369527950A94E2F7217084
:1044A0003327042E01C0220F0A94EAF7822B4F5FB4
:1044B0005F4F4530510531F70895BF92CF92DF929B
:1044C000EF92FF920F931F93CF93DF938C01C090D5
:1044D000F301D090F401E090F501F090F6018091A5
:1044E000EF019091F001A091F101B091F201C82A81
:1044F000D92AEA2AFB2ACFE1D0E0D701C6010C2E47
:1045000004C0B695A795979587950A94D2F780FF32
:1045100007C0BC2EB8018C2F0E94F30A019719F432
:10452000219758F7B12C8B2DDF91CF911F910F91CF
:10453000FF90EF90DF90CF90BF900895CF93DF93DF
:10454000EC010E945D22BE010E94F30ADF91CF912F
:1045500008951F93CF93DF93EB01909198019923D6
:1045600021F0CB010E949E2213C0882349F0CB0189
:104570000E945D22182F682FCE010E94022204C0E3
:10458000CB010E943122182FBE01812F0E94F30A15
:10459000DF91CF911F9108958091FC0108950E94B1
:1045A000B5252091FA013091FB018217930750F055
:1045B0000E94B5252091FA013091FB01821B930BDB
:1045C0009C010AC00E94B5252091FA013091FB019F
:1045D00020953095280F391F81E0203D374008F4A1
:1045E00080E008958091F9018595859585950895D8
:1045F0008091F901877008950E94B5252091F701F7
:104600003091F80182179307A8F00E94B5252091F8
:10461000F7013091F801821B930B803D974010F415
:1046200080E013C08091F90182FB882780F991E036
:1046300089270BC00E94B5252091F7013091F80120
:1046400020953095820F931FE8CF81700895909147
:10465000F901977081E009F480E0089580910802E3
:10466000089590910802892B8093080208958095FF
:1046700090910802892380930802089510920802FD
:10468000089590910702892B8093070208958095E1
:1046900090910702892380930702089510920702E0
:1046A000089590910602892B8093060208958095C3
:1046B00090910602892380930602089510920602C3
:1046C00008958091FD01089508950C9464239091BC
:1046D000FC01891721F08093FC010C946523089557
:1046E0008091FC01882329F01092FC0180E00C9459
:1046F0006523089508950C947A23CF939091FD013A
:10470000981769F0C82F0E94B5259093FB018093FC
:10471000FA01C093FD018C2FCF910C947B23CF9194
:1047200008958091FD01882349F01092FD011092B7
:10473000FB011092FA0180E00C947B230895E09134
:104740001001F0911101809108028083E091100125
:10475000F0911101908180910702892B8083E09173
:104760001001F0911101908180910602892B8083C4
:104770008091FD01882321F10E94CF22882371F0CE
:104780008091090280FF08C081E09AE09F938F9397
:104790000E94E6060F900F900E949123E091100175
:1047A000F091110190818091FD01892B808380918E
:1047B0001001909111010E94EC2481110E9491231B
:1047C00080911001909111010C94241708950C947C
:1047D000E62398E0899F90011124262B2093F9016C
:1047E0000E9464210E94B5259093F8018093F701FF
:1047F0008091F9018595859585950C94E723109214
:10480000F9011092F8011092F70180E00C94E7236F
:104810002091F901809582238093F901982F977058
:1048200079F430E0482F082E000C550B241735077B
:1048300039F08595859585950E9485210C94FF23F7
:104840000895909363018093620108958295982F53
:104850009C7C392F36953695282F237344E0249F6E
:10486000C0011124932F982B292F2A7A2695892F5E
:104870008575880F822B08951F93CF93DF931F9226
:10488000CDB7DEB799830E942624182F9981892FEE
:104890000E942624212F30E0322F2227A901482B05
:1048A000CA010F90DF91CF911F91089580E090E0B1
:1048B0000E94E62F21E08D3E9E4F09F020E0822FDE
:1048C000089582E090E00C94D82F83E090E00C945F
:1048D000D82F682F83E090E00C94EC2F84E090E0D8
:1048E0000C94D82F682F84E090E00C94EC2F86E095
:1048F00090E00C94D82F682F86E090E00C94EC2F79
:10490000AB01BC018FE090E00C94FE2FAB01BC0129
:1049100083E190E00C94FE2F60E070E0CB010C94FA
:10492000862460E070E0CB010E9480240C948C24EB
:104930006DEE7EEF80E090E00E940A3060E082E061
:1049400090E00E94EC2F60E083E090E00E94EC2F6A
:104950001092F3011092F4011092F5011092F601F9
:1049600060E084E090E00E94EC2F60E085E090E061
:104970000E94EC2F60E086E090E00E94EC2F6FEF49
:1049800087E090E00E94EC2F40E050E0BA0188E020
:1049900090E00E94FE2F60E08DE090E00E94EC2FFE
:1049A00040E050E0BA0188E190E00E94FE2F60E014
:1049B00087E190E00E94EC2F40E050E0BA018CE1EA
:1049C00090E00E94FE2F60E080E290E00E94EC2FD9
:1049D0000C9491240C949824FC01329697E080E08A
:1049E000915029F021912223D9F38F5FF9CF0895B7
:1049F0009C01FC0132969FEF80E04191461789F0BF
:104A00009F3F19F4411101C0982F8F5F8630A9F79D
:104A10009F3F39F0F901E90FF11D97FDFA95628387
:104A200008950895FC01329608962081261301C04E
:104A300010823196E817F907C1F708950C94F8240D
:104A40000C941225029626E0FC0111922A95E9F7B2
:104A5000089508950C9429250E942A2580915302D7
:104A6000843061F110920A0220E488E190E00FB6F0
:104A7000F894A895809360000FBE2093600080E0BA
:104A80000E944F0880E00E94C9080E942A2583B72F
:104A9000817F846083BF83B7816083BF789488956A
:104AA00083B78E7F83BF0FB6F894A895809160007E
:104AB000886180936000109260000FBE0895089591
:104AC0000895CF930E945F250E94350E0E946025B5
:104AD000C0E08C2F0E94860D892B29F4CF5FC43053
:104AE000C1F780E001C081E0CF91089508950C9452
:104AF00076250E94281D0E944E260E9418170E94AB
:104B0000C9080C9477251F920F920FB60F921124AB
:104B10008F939F93AF93BF9380910A02811113C02B
:104B20008091480290914902A0914A02B0914B02B3
:104B30004196A11DB11D8093480290934902A09314
:104B40004A02B0934B02BF91AF919F918F910F900A
:104B50000FBE0F901F90189582E084BD93E095BD25
:104B60009AEF97BD80936E0008952FB7F8948091C7
:104B7000480290914902A0914A02B0914B022FBF86
:104B80000895CF92DF92EF92FF920F931F932FB76A
:104B9000F894409148025091490260914A02709104
:104BA0004B022FBF6A017B01EE24FF248C0120E021
:104BB00030E0C016D106E206F30610F44150510968
:104BC0009A01281B390BC9011F910F91FF90EF909B
:104BD000DF90CF90089578941F920F920FB60F92A6
:104BE00011248F939F93AF93BF938091480290912C
:104BF0004902A0914A02B0914B020196A11DB11D3C
:104C00008093480290934902A0934A02B0934B02CA
:104C1000BF91AF919F918F910F900FBE0F901F90FA
:104C2000189581E08093E00080E28093D800109294
:104C3000C9008FE19EE40197F1F700C0000087E012
:104C400090EBDC0180935C0290935D02A0935E0286
:104C5000B0935F029CE088E10FB6F894A89580932A
:104C600060000FBE90936000FFCF0E945624811118
:104C700002C00E94EA240E946124809309020E94DB
:104C80006E2490E090934D0280934C020E94652424
:104C9000682F70E080E090E00C9403210E9456247D
:104CA000811102C00E94EA240E94772480934E0260
:104CB000282F26952695269530E02530310524F0BD
:104CC0008770806280934E0280914E0280FF04C004
:104CD00086958695869501C080E00C944F082091BA
:104CE0004E02822F869586958695482F50E0443057
:104CF000510554F48F5F982F990F990F990F822FB8
:104D00008770892B80934E0280914E028160809340
:104D10004E020E947B248091090280FF11C0809185
:104D20004E028695869586951F928F938AE79AE024
:104D30009F938F930E94E6060F900F900F900F9015
:104D400080914E028695869586950C944F088091A9
:104D50004E02982F969596959695A1F0915E990F93
:104D6000990F990F8770892B80934E02887F91E06D
:104D700009F490E080914E0290FB80F980934E02FE
:104D80000E947B248091090280FF11C080914E0215
:104D90008695869586951F928F9382E69AE09F93DB
:104DA0008F930E94E6060F900F900F900F908091C6
:104DB0004E028695869586950C944F0880914E02FA
:104DC00080FD1FC0816080934E02813019F489E01C
:104DD00080934E0280914E020E947B2480910902B2
:104DE00080FF08C08AE39AE09F938F930E94E606B3
:104DF0000F900F9080914E028695869586950C9423
:104E00004F08089580914E0280FF14C08E7F8093DA
:104E10004E020E947B248091090280FF08C087E235
:104E20009AE09F938F930E94E6060F900F9080E088
:104E30000C944F080895CF93C0914E02C170809199
:104E4000090280FF0CC01F92CF938CE49AE09F93DD
:104E50008F930E94E6060F900F900F900F90CC2337
:104E600019F0CF910C940227CF910C94DE269091EB
:104E70004E02892F8695869586958F5F8F719770E4
:104E8000853038F4880F880F880F892B80934E0265
:104E900002C090934E0280914E02887F91E009F407
:104EA00090E080914E0290FB80F980934E020E9428
:104EB0007B248091090280FF11C080914E0286956B
:104EC000869586951F928F9383E19AE09F938F93A7
:104ED0000E94E6060F900F900F900F9080914E0267
:104EE0008695869586950C944F08853008F084E069
:104EF000880F880F880F90914E029770892B8093AE
:104F00004E02887F91E009F490E080914E0290FB80
:104F100080F980934E020E947B2480914E028695F8
:104F2000869586950C944F088091160208950895F1
:104F30009FB7F89410920D029FBF90915302943046
:104F400009F057C09091E9009F703091EC00232F39
:104F5000217030FD20E8922B23E02093E90020917E
:104F6000EB0020FF43C02091EE0027FF3FC02091BF
:104F70000B02222321F02091E80025FF37C0109278
:104F80000B0226E03091E80035FD15C03091530248
:104F9000343061F53091EB0035FD28C0215021F40B
:104FA00081E080930B0222C0EFE9FFE03197F1F737
:104FB00000C00000E7CF8093F1008091E80085FDFC
:104FC0000AC08091E80080FFFCCF8091E8008E77D6
:104FD0008093E80006C08FB7F89421E020930D027B
:104FE0008FBF9F709093E90080E008959F70909329
:104FF000E9008FEF08950F931F93CF93DF9300D0B5
:105000001F92CDB7DEB78C010E948D2A823011F03D
:10501000843021F584E089831B830A8382E08093B6
:10502000E9008FEF9091E800815095FD06C095ED65
:105030009A95F1F700008111F5CF8091E80085FF86
:105040000DC040E050E063E070E0CE0101960E94A8
:10505000AA2A8091E8008E778093E8000F900F9045
:105060000F90DF91CF911F910F910895CF93DF9310
:1050700000D01F92CDB7DEB720915302243031F516
:1050800023E02983805891099B838A8382E080935F
:10509000E9008FEF9091E800815095FD06C095EDF5
:1050A0009A95F1F700008111F5CF8091E80085FF16
:1050B0000DC040E050E063E070E0CE0101960E9438
:1050C000AA2A8091E8008E778093E8000F900F90D5
:1050D0000F90DF91CF910895CF93DF93EC010E9461
:1050E0008D2A823011F0843039F581E08093E90017
:1050F0008FEF9091E800815095FD06C095ED9A954F
:10510000F1F700008111F5CF8091E80085FF14C010
:1051100040E050E068E070E0CE010E94AA2A809151
:10512000E8008E778093E80088E0FE01AEE0B2E010
:1051300001900D928A95E1F7DF91CF91089587EB69
:105140009AE00E944D0680915202811109C00E948E
:105150003F2C0E949C2C8091E20084608093E200AE
:10516000089583EB9AE00E944D0610925202089532
:105170008FEA9AE00C944D068BEA9AE00C944D0667
:1051800087EA9AE00E944D060C94792520910C0242
:105190002F5F822F62E30E94552F992319F02093ED
:1051A0000C02089510920C0280910D02882371F177
:1051B00080915302843041F58091E9008F702091F5
:1051C000EC00922F917020FD90E8892B93E0909352
:1051D000E9009091EB0090FF14C09091EE0097FFD2
:1051E00010C09091E80095FF03C01092F100F9CF34
:1051F0009091E80090FF05C09091E8009E77909311
:10520000E8008F708093E90010920D02089542E04B
:1052100061EC81E00E94B92B42E261EC82E00E94E5
:10522000B92B42E261EC83E00C94B92B80915502DA
:10523000833009F460C030F4813071F0823009F4B9
:1052400099C008958A3009F485C08B3009F46BC089
:10525000893009F0A7C020C080915402813A09F03A
:10526000A1C08091E800877F8093E8008091580278
:1052700090915902892B21F468E08EE092E003C0FE
:1052800060E080E090E070E00E94F52A8091E80004
:105290008B778093E800089580915402813209F061
:1052A00081C08091580290915902029708F07AC00B
:1052B0008091E800877F8093E8008091E80082FD7C
:1052C00005C0809153028111F8CF6CC02091F3008A
:1052D0008091F20090E0922B029729F48091F100E6
:1052E0008B7F813021F48091F100809316028091B0
:1052F000E8008B7753C080915402813A09F052C084
:105300008091580290915902892B09F04BC08091ED
:10531000E800877F8093E8008091E80080FFFCCF61
:1053200080911C0136C0809154028132D9F5809160
:10533000580290915902892BA9F58091E800877F46
:105340008093E8000E94EE2B8091560280931C010E
:105350000C94281D80915402813221F58091E8003F
:10536000877F8093E8000E94EE2B80915702809304
:105370001702089580915402813AA1F48091E800C7
:10538000877F8093E8008091E80080FFFCCF8091C8
:1053900017028093F1008091E8008E778093E800F7
:1053A0000C94EE2B089584B7877F84BF0FB6F894D2
:1053B000A8958091600088618093600010926000E1
:1053C0000FBE80E880936100109261000E94A717D1
:1053D0000E943F2C0E949C2C8091E200846080936C
:1053E000E20088E997E20E94212478940E942A2F03
:1053F0000E94AF1782E191E00E94131786E99AE0BC
:105400000E944D0680915302853089F482E99AE02A
:105410000E944D060E942C2580915102882391F311
:105420000E946125882371F30E94942AEBCF0E9489
:10543000E3170E949615E6CF0C941E2A292F3327D6
:1054400023303105C9F064F42130310581F0223078
:10545000310509F049C08BE590E02BEE3AE048C0F9
:105460002132310521F12232310571F13DC082E155
:1054700090E026E43BE03CC099278130910571F033
:105480002CF4892B89F5E7EEFAE00DC08230910506
:1054900041F0039749F5EBEBFAE005C0E5EDFAE0E2
:1054A00002C0E1ECFAE0849190E09F0121C06330FA
:1054B0007105D0F4660F771FFB01E55AFE4F20817E
:1054C000318189E090E014C06330710568F4FB011C
:1054D000EE0FFF1FEB5AFE4F20813181FB01EE5A88
:1054E000FE4F808190E004C080E090E020E030E05A
:1054F000FA013183208308950895CF93C82F0E9425
:105500007C2AC0931802CF91089580915302843071
:1055100011F081E0089582E00895809118028111D0
:1055200002C00C94852A089580E189BD82E189BD7D
:1055300009B400FEFDCF8091D8008F7D8093D80004
:105540008091E00082608093E0008091E00081FD26
:10555000FCCF0895CF92DF92EF92FF920F931F93AB
:10556000CF93DF93EC018B016A010E940D2C811116
:1055700033C0C114D10439F0F60180819181081B38
:10558000190BC80FD91FE12CF12C0115110519F1C8
:105590008091E80085FD16C08091E8008E778093A9
:1055A000E800C114D10449F0F60180819181E80E30
:1055B000F91EF182E08285E00FC00E940D2C882345
:1055C00021F30AC089918093F10001501109FFEF86
:1055D000EF1AFF0ADACF80E0DF91CF911F910F9190
:1055E000FF90EF90DF90CF90089520915A02309174
:1055F0005B022617370748F06115710539F42091D1
:10560000E8002E772093E80001C0B90140E0611561
:105610007105A9F120915302222309F443C02530DA
:1056200009F442C02091E80023FD40C02091E80029
:1056300022FD32C02091E80020FFE9CF4091F30025
:105640002091F20030E0342BFC01CF01611571058F
:1056500059F02830310540F481918093F100615078
:1056600071092F5F3F4FF1CF41E02830310509F03C
:1056700040E02091E8002E772093E800C8CF411148
:10568000C9CF0AC080915302882361F0853061F050
:105690008091E80083FD0AC08091E80082FFF2CF8C
:1056A00080E0089582E0089583E0089581E0089500
:1056B00020915A0230915B022617370748F0611596
:1056C000710539F42091E8002E772093E80001C09D
:1056D000B901FC0120E06115710591F1809153023F
:1056E000882309F440C0853009F43FC08091E80068
:1056F00083FD3DC08091E80082FD2FC08091E800CD
:1057000080FFE9CF2091F3008091F20090E0922B8E
:105710006115710559F08830910540F4249120936A
:10572000F1003196615071090196F2CF21E008979E
:1057300009F020E08091E8008E778093E800CBCFDD
:105740002111CCCF0AC080915302882361F08530AB
:1057500061F08091E80083FD0AC08091E80082FF3B
:10576000F2CF80E0089582E0089583E0089581E01B
:105770000895982F973058F59093E900981739F0CD
:105780007091EC002091ED005091F00003C0242FA7
:10579000762F50E021FF19C03091EB003E7F30930F
:1057A000EB003091ED003D7F3093ED003091EB0048
:1057B00031603093EB007093EC002093ED00509338
:1057C000F0002091EE0027FF07C09F5FD3CF8F70BE
:1057D0008093E90081E0089580E00895809154026B
:1057E00087FF11C08091E80082FD05C080915302BF
:1057F0008111F8CF11C08091E8008B770BC08091A8
:105800005302882349F08091E80080FFF8CF80910F
:10581000E8008E778093E80008952091E4003091AD
:10582000E50095E64091EC00842F817040FF22C096
:105830008091E80080FD1CC080915302882391F084
:10584000853091F08091EB0085FD10C04091E4001F
:105850005091E5004217530729F39A01915011F72F
:1058600084E0089582E0089583E0089581E008953A
:1058700080E008954091E80042FFDECF08950E9445
:10588000AD2C0E94B52CE0EEF0E080818160808339
:10589000E8EDF0E080818F77808319BCA7EDB0E060
:1058A0008C918E7F8C9380818F7E808310925202A8
:1058B00008950F931F93CF93DF930E94AD2C0E9406
:1058C000B52CC8EDD0E088818F7788838881806887
:1058D000888388818F7D888319BC1092530210922F
:1058E0004F02109251021092500200EE10E0F801A7
:1058F00080818B7F808388818160888342E060E043
:1059000080E00E94B92BE1EEF0E080818E7F808301
:10591000E2EEF0E080818160808380818860808316
:10592000F80180818E7F8083888180618883DF9108
:10593000CF911F910F910895E8EDF0E080818F7E67
:105940008083E7EDF0E080818160808384E082BF26
:1059500081E0809352020C94592CE8EDF0E08081B4
:105960008E7F80831092E20008951092DA001092E8
:10597000E10008951F920F920FB60F9211242F93FA
:105980003F934F935F936F937F938F939F93AF93C7
:10599000BF93EF93FF938091E10082FF0BC0809152
:1059A000E20082FF07C08091E1008B7F8093E100DD
:1059B0000E94C6288091DA0080FF1FC08091D80025
:1059C00080FF1BC08091DA008E7F8093DA00809187
:1059D000D90080FF0DC080E189BD82E189BD09B495
:1059E00000FEFDCF81E0809353020E949F2805C0F6
:1059F00019BC109253020E94B1288091E10080FFEF
:105A000019C08091E20080FF15C08091E2008E7F76
:105A10008093E2008091E20080618093E2008091B7
:105A2000D80080628093D80019BC85E0809353022F
:105A30000E94BC288091E10084FF30C08091E20088
:105A400084FF2CC080E189BD82E189BD09B400FEDC
:105A5000FDCF8091D8008F7D8093D8008091E100A8
:105A60008F7E8093E1008091E2008F7E8093E20040
:105A70008091E20081608093E20080914F02882350
:105A800011F084E007C08091E30087FD02C081E04F
:105A900001C083E0809353020E94C0288091E100FE
:105AA00083FF29C08091E20083FF25C08091E1003F
:105AB000877F8093E10082E08093530210924F022F
:105AC0008091E1008E7F8093E1008091E2008E7FE3
:105AD0008093E2008091E20080618093E20042E0E6
