:100000000C94F7040C943E050C943E050C943E05AC
:100010000C943E050C943E050C943E050C943E0554
:100020000C943E050C943E050C94832C0C94562D98
:100030000C9462250C943E050C943E050C943E05F0
:100040000C943E050C943E050C943E050C943E0524
:100050000C943E050C94C3250C943E050C943E056F
:100060000C943E050C943E050C943E050C943E0504
:100070000C943E050C943E050C943E050C943E05F4
:100080000C943E050C943E050C943E050C943E05E4
:100090000C943E050C943E050C943E050C943E05D4
:1000A0000C943E050C943E050C943E052B00F75C29
:1000B000F85CF95C13001C0009000A00060015003A
:1000C0000F002A00296104001200080018000C002B
:1000D00007000B001700110016002800E100FA5C71
:1000E00014000D000E001B00050010001A0019007E
:1000F0001D00E500E000E300E200035101512C0087
:10010000000004510251E600E700E40001001E0275
:100110001F1420022114220230022302250226028B
:100120003102010001002D002702251426142D02A2
:100130002D142402241427143800010001007B0030
:100140007C007D00010030142E0264142F00340066
:100150003300010001000100010001000100010065
:1001600000000100010001000100010001003A004F
:100170003B003C003D003E003F004000410042008B
:10018000430001000100440045000100010001009E
:100190004B004D0052004A004C00010001000100DC
:1001A00001000100010001004E00500051004F000D
:1001B00049000100010001000100010001000100EF
:1001C00000000100010001000100010001004C05D8
:1001D0000100010001000100010001000100010017
:1001E00001000100010049040100010001000100BB
:1001F00001000100010001000100010001002903CC
:1002000001000100010001000100E15CE25CE35C2F
:10021000E55C010001000100010001000100010096
:1002200000000100010001000100010001000100C7
:1002300001000100010001000100010001000100B6
:100240000100010001001E001F002000210022000B
:1002500023002400250026002700010001000100E2
:100260000100010001000100010001000100010086
:100270000100010001000100010001000100010076
:100280000000010001000100010001004445425549
:10029000473A2064697361626C65642E0A004445C4
:1002A0004255473A20656E61626C65642E0A000A09
:1002B000002530313662003A200025303258000ADD
:1002C000722F63203031323334353637383941427A
:1002D000434445460A007267626C6967687420741B
:1002E000696D65722064697361626C652E0A0072C3
:1002F00067626C696768742074696D657220656EE9
:1003000061626C65642E0A007267626C696768746A
:100310002073657420687376205B4E4F45455052BC
:100320004F4D5D3A2025752C25752C25750A0072D8
:1003300067626C69676874207365742068737620DF
:100340005B454550524F4D5D3A2025752C25752C47
:1003500025750A007267626C69676874207261694A
:100360006E626F7720736574206873763A20256417
:100370002C25642C25642C25750A007267626C6933
:100380006768742064697361626C65205B454550E1
:10039000524F4D5D3A207267626C696768745F63A3
:1003A0006F6E6669672E656E61626C65203D202503
:1003B000750A007267626C6967687420656E6162B5
:1003C0006C65205B454550524F4D5D3A2072676227
:1003D0006C696768745F636F6E6669672E656E61CE
:1003E000626C65203D2025750A007267626C696742
:1003F000687420746F67676C65205B454550524F89
:100400004D5D3A207267626C696768745F636F6EF6
:100410006669672E656E61626C65203D2025750AF0
:10042000007267626C69676874206D6F6465205B39
:100430004E4F454550524F4D5D3A2025750A00728A
:1004400067626C69676874206D6F6465205B454501
:1004500050524F4D5D3A2025750A007267626C69F3
:100460006768745F696E6974207267626C69676837
:10047000745F636F6E6669672E6D6F6465203D20E3
:10048000302E2057726974652064656661756C74DE
:100490002076616C75657320746F20454550524F0E
:1004A0004D2E0A007267626C696768745F696E69D5
:1004B00074206565636F6E666967206973206E6F6F
:1004C0007420656E61626C65642E0A007267626CEE
:1004D000696768745F696E697420737461727421EE
:1004E0000A007267626C696768745F696E6974207C
:1004F00063616C6C65642E0A007267626C69676880
:10050000745F636F6E6669672E7370656564203D06
:100510002025640A007267626C696768745F636FA4
:100520006E6669672E76616C203D2025640A007234
:1005300067626C696768745F636F6E6669672E7364
:100540006174203D2025640A007267626C696768E7
:10055000745F636F6E6669672E687565203D202540
:10056000640A007267686C696768745F636F6E66BF
:1005700069672E6D6F6465203D2025640A007267EF
:10058000626C696768745F636F6E6669672E656E1B
:1005900061626C65203D2025640A007267626C69A7
:1005A0006768745F636F6E66696720454550524F98
:1005B0004D3A0A0000047F3F1F64321464321478FD
:1005C0003C1E1E140A052223252628292A2C2D2FFD
:1005D0003032333536383A3B3D3E40424345474959
:1005E0004A4C4E5051535557595A5C5E606264668E
:1005F00068696B6D6F71737577797B7D7F8183859A
:1006000087898A8C8E90929496989A9C9E9FA1A39B
:10061000A5A7A8AAACAEAFB1B3B4B6B8B9BBBCBEBF
:10062000BFC1C2C3C5C6C7C9CACBCCCDCED0D1D23B
:10063000D2D3D4D5D6D7D7D8D9D9DADADBDBDBDC3D
:10064000DCDCDCDCDDDDDDDDDCDCDCDCDCDBDBDBE9
:10065000DADAD9D9D8D7D7D6D5D4D3D2D2D1D0CE49
:10066000CDCCCBCAC9C7C6C5C3C2C1BFBEBCBBB94E
:10067000B8B6B4B3B1AFAEACAAA8A7A5A3A19F9ECC
:100680009C9A98969492908E8C8A89878583817F94
:100690007D7B79777573716F6D6B69686664626075
:1006A0005E5C5A5957555351504E4C4A4947454341
:1006B00042403E3D3B3A3836353332302F2D2C2ADE
:1006C000292826252322FFAA7F554000000000008C
:1006D000000000000001010101010101010102020D
:1006E00002020202020203030303030303040404DD
:1006F000040405050505050606060606070707079F
:10070000080808080909090A0A0A0B0B0B0C0C0C4B
:100710000D0D0D0E0E0E0F0F1010101111121213E1
:10072000131414151516161717181819191A1A1B59
:100730001C1C1D1D1E1F1F202121222323242525B3
:1007400026272828292A2B2C2C2D2E2F30313132E8
:10075000333435363738393A3B3C3D3E3F404142F1
:10076000434445464748494B4C4D4E4F50525354D5
:10077000555758595A5C5D5E606163646567686A85
:100780006B6C6E6F7172747677797A7C7D7F818203
:10079000848687898B8D8E9092949597999B9D9F47
:1007A000A1A2A4A6A8AAACAEB0B2B4B6B9BBBDBF54
:1007B000C1C3C5C8CACCCED0D3D5D7DADCDEE1E31D
:1007C000E6E8EAEDEFF2F4F7F9FCFF0A0025303233
:1007D0005820006B6579626F6172645F7265706F3B
:1007E00072743A20000A0025303258006B65796235
:1007F0006F6172645F7365745F6C65643A20004F6B
:100800006E6573686F743A2074696D656F75740AEC
:10081000006261636B6C6967687420737465703A19
:100820002025750A006261636B6C696768742064D7
:10083000697361626C650A006261636B6C69676809
:100840007420656E61626C650A006261636B6C693D
:1008500067687420746F67676C653A2025750A00B5
:100860006261636B6C69676874206465637265615B
:1008700073653A2025750A006261636B6C6967686D
:100880007420696E6372656173653A2025750A008C
:100890005B735D004B6579626F6172642073746194
:1008A00072742E0A005B575D005B535D005B525D06
:1008B000005B445D005B435D0004033000000012F8
:1008C000034E004900550020004D0069006E00698C
:1008D00000000010034B0042004400460061006E1F
:1008E00000730000000403090409025B0003010017
:1008F000A0FA09040000010301010009211101000F
:10090000012240000705810308000A0904010001D3
:1009100003000000092111010001223600070582B1
:100920000320000A0904020002030000000921114B
:1009300001000122220007058303200001070503AF
:10094000032000011201100100000008EDFE6060AC
:100950000100010203010631FF0974A101097515A7
:100960000026FF009520750881020976150026FFF4
:1009700000952075089102C005010980A101850339
:100980001601002603001A81002A830075109501C4
:100990008100C0050C0901A1018504160100269CF7
:1009A000021A01002A9C02751095018100C0050100
:1009B0000906A101050719E029E715002501950899
:1009C0007501810295017508810105081901290544
:1009D00095057501910295017503910105071900AF
:1009E00029FF150026FF00950675088100C0112417
:1009F0001FBECFEFDAE0DEBFCDBF04B603FE27C0D7
:100A000080915C0290915D02A0915E02B0915F02C4
:100A10008730904BA740B04BD1F410925C021092FB
:100A20005D0210925E0210925F0214BE84B7877F4F
:100A300084BF0FB6F894A895809160008861809378
:100A40006000109260000FBEE0E0F8E3099511E04D
:100A5000A0E0B1E0EAE5F0E602C005900D92A23612
:100A6000B107D9F722E0A2E6B1E001C01D92AC3592
:100A7000B207E1F70E94A7290C94E22F0C94000022
:100A8000FF93EF93E0916201F0916301309709F0D9
:100A90000995EF91FF910895FC018591803011F047
:100AA000EFDFFBCF0895FF27E0E230E247FF0CC005
:100AB000419597FF09C0EDE26095709580959095FE
:100AC000611D711D811D911D27FF02C0219530E31D
:100AD00050E2AA27660F771F881F991FAA1FA41725
:100AE00010F0A41B63955A95A9F7AA3008F0A95FE6
:100AF000A05DAF93F395611571058105910541F7EF
:100B0000ED3211F4EF93F395F21718F43F93F39548
:100B1000FBCF8F91B5DFFA95E1F70895E991F9914F
:100B20008591803021F0853219F0AADFF9CF089540
:100B300020E0E89455915532C1F3503311F4689494
:100B400055915A3348F4505390F3220F022E220F3E
:100B5000220F200D250FF4CF0EF421958991999144
:100B6000533619F3533729F1533559F1BC0188270E
:100B70009927E8945C3621F489919991689455916C
:100B8000543639F446EF7EF077FF0DC08FEF9FEFBC
:100B90000AC055374AE039F0583540E121F0523665
:100BA00042E009F00895FF93EF937DDFEF91FF910D
:100BB000B7CFFF93EF93FC0181918030B9F360DFF1
:100BC000FBCFFF93EF9368DFF1CFDF93CF93CDB7E8
:100BD000DEB72596A3DFCF91DF9108956E9A769ABE
:100BE0000C94F205089508959C01FB01293F8CE5C2
:100BF000380709F442C048F4273F8CE53807B9F0BC
:100C0000283F3C4521F181E008952A3F3C45D9F732
:100C100082818823C1F3E0911001F091110180815C
:100C20008272B9F586E392E00E94C606ECCF82811B
:100C3000882349F3E0911001F091110180818272C3
:100C400021F08FE10E944919DECF81E3FBCF828141
:100C50008823C9F2E0911001F0911101808188236D
:100C600051F081EE0E94FA1884E60E94491981EE43
:100C70000E94F717C8CF86E3E5CF8281882319F257
:100C8000E0911001F09111018081827211F084E6EF
:100C9000D9CF87E3D7CF08950F931F93CF93DF93D7
:100CA0008C01EB019A9581159F4138F510FF03C027
:100CB00080EEFB01099511FF03C081EEFE0109954D
:100CC00012FF03C082EEFE01099513FF03C083EEFD
:100CD000FE0109950115104180F084EEFE01099591
:100CE00085EEFE01099586EEFE01099587EEFE016F
:100CF000DF91CF911F910F910994DF91CF911F91B7
:100D00000F910895982F977081E001C0880F9A95F0
:100D1000EAF70E9429230C9489230C948206982FC9
:100D2000977081E001C0880F9A95EAF70E942F23FF
:100D30000C9489230C948F06CF93DF93EC01805E93
:100D40009109089720F062E876E0209711F46DE8A9
:100D500076E0CE010E944C068C2FDF91CF910C944F
:100D6000F717CF93DF93EC010E94FA18CE01805E53
:100D70009109089720F06FE876E0209711F46AE96E
:100D800076E0CE01DF91CF910C944C06CF93DF93A8
:100D9000D82FC92F0E949C068D2F9C2FDF91CF91B9
:100DA0000C94B10681E008950C94F4051F93CF9341
:100DB000DF9300D000D00F92CDB7DEB749835A83BE
:100DC0006B832091980189819A8121111BC0662330
:100DD000A9F00E942122182F682F89819A810E94F0
:100DE000CA2169817A81812F0F900F900F900F9007
:100DF0000F90DF91CF911F910C9484090E94F821EC
:100E0000182FEFCF0E94212269817A81EDCFFC015A
:100E1000408151816281738184810C94D6060C9447
:100E20002C0CE82FE295EF70F0E032A1282F2F7004
:100E300081E090E001C0880F2A95EAF7809583232E
:100E400082A30895CF93DF93CDB7DEB728970FB66F
:100E5000F894DEBF0FBECDBF853060F581112BC089
:100E6000909180009F7D90938000282F30E0AFEF1D
:100E7000BFEF0E94732FAB01BC0132E076956795FE
:100E8000579547953A95D1F7CA014C3724E1520757
:100E9000B0F469E070E00E94232F70938B006093A0
:100EA0008A0028960FB6F894DEBF0FBECDBFDF9143
:100EB000CF91089584E0909180009062D4CF4A5001
:100EC000574D6F4F7F4FB62FA52F942F8827BC010A
:100ED000CD0125EF38E241E050E00E944B2F2983FD
:100EE0003A834B835C83CA01B9010E94072F9B019F
:100EF000AC0169817A818B819C810E94072FBB277D
:100F0000A92F982F872FBC010097A140B10529F682
:100F10006FEF7FEFC2CF269A86E30E94110782E22D
:100F20008093800089E1809381008FEF9FEF909301
:100F30008700809386000C9436260E94302481110D
:100F400002C00E94BF240E948B070C94EE050C94F3
:100F50004B060C94A70708950E94471C0E94AB07FC
:100F60002FEF84E39CE0215080409040E1F700C0E7
:100F700000000C94E7250F931F93CF93DF93EC01B0
:100F80000E9407078C01BE010E94D406882309F441
:100F90004BC0BE01C8010E94EE15882309F444C06D
:100FA0000F3D8CE51807A0F4023C8CE51807B8F457
:100FB00005318CE51807E8F402308CE5180708F0D5
:100FC00022C101158CE5180759F101301C4591F13A
:100FD000CE01DF91CF911F910F910C94D206F801B1
:100FE000E25CFC45ED31F10598F7EC51F04D0C94C5
:100FF0006D2F06311C4561F70E9415239A819923B4
:1010000009F474C18A7A91E009F490E09093640144
:1010100081116AC189E20E9499220E94892304C039
:101020008A8181110E94AC0780E0DF91CF911F91EE
:101030000F9108958A818823B9F390910902892F2D
:101040008E7F90FF81608093090280FF05C08EE94A
:1010500092E00E944C05E8CF8CE892E0FACF8A81BA
:10106000882311F30E94BF24DFCF8A818823E1F215
:101070000E949114D9CF8A818823B1F20E9415234E
:10108000827251F00E94C413CFCF8A81882361F20B
:101090000E9415238272B1F30E94B613C5CF8A81D4
:1010A000882309F4C1CF0E942411BECF8A818823EE
:1010B00009F4BACF0E943011B7CF8A81882309F48E
:1010C000B3CF0E943F11B0CF8A81882309F4ACCFFF
:1010D0000E944E11A9CF8A81882309F4A5CF0E94CE
:1010E0005D11A2CF8A81882309F49ECF0E946C11E2
:1010F0009BCF8A81882309F497CF0E942D0F94CF2C
:101100008A81882309F490CF0E94500F8DCF8A8165
:10111000882309F489CF81E00E94C71385CF8A8193
:10112000882309F481CF0E94250F823028F00E9485
:10113000250F853008F4B0CF82E0EECF8A81882376
:1011400009F472CF0E94250F863028F00E94250FE7
:10115000883008F4A1CF86E0DFCF8A81882309F4A4
:1011600063CF0E94250F893028F00E94250F8E3012
:1011700008F492CF89E0D0CF8A81882309F454CF34
:101180000E94250F8F3028F00E94250F843108F42B
:1011900083CF8FE0C1CF8A81882309F445CF0E9495
:1011A000250F853128F00E94250F873108F474CF70
:1011B00085E1B2CF8A81882309F436CF88E1ACCFAC
:1011C0008A81882309F430CF0E94250F893128F0C5
:1011D0000E94250F823208F45FCF89E19DCF8A817A
:1011E000882309F421CF83E297CF8A81882309F4E9
:1011F0001BCF80E00E94532A17CF8A81882309F4ED
:1012000013CF82E0F7CF8A81882309F4E1CE0E94D0
:101210003024811102C00E94BF240E94432490E028
:1012200090934D0280934C02F801E350FC4580916D
:101230004C028160E231F10538F4EF5FFF4C0C9411
:101240006D2F80914C02826080934C0280914C0201
:101250000E9447240E94471CE7CE80914C02846084
:10126000F3CF80914C028860EFCF80914C02806177
:10127000EBCF80914C028062E7CF80914C0280647A
:10128000E3CF80914C028068DFCF80914C028C606C
:10129000DBCF80914C028E7FD7CF80914C028D7F27
:1012A000D3CF80914C028B7FCFCF80914C02877F30
:1012B000CBCF80914C028F7EC7CF80914C028F7D27
:1012C000C3CF80914C028F7BBFCF80914C028F7730
:1012D000BBCF80914C02837FB7CF90914C02892F76
:1012E00097FB87F98058B0CF85E395CE8091640154
:1012F000811104C089E20E94A0228FCE85E3FBCF3A
:1013000090E080E008950895972F70E02CE0929F80
:10131000600D711D1124FB0190E3899FE00DF11D0B
:101320001124EE0FFF1FE455FF4F8591949108950E
:10133000FC01EE0FFF1FE155FD4F8591949108953B
:10134000CF93DF930E9484090E948E0BEC018115DC
:1013500023E5920708F063C0811532E5930708F092
:101360005FC18F3F910509F090F5803F910508F02E
:1013700033C18F3B9105D8F4883A910508F0CDC070
:10138000853A910568F4049738F491E080E021975C
:1013900009F090E0C92FD82FCE01DF91CF910895A9
:1013A000853A910509F0B2C0C1E8D0E4F5CF803E9E
:1013B000910540F4805C9109CF3BD105D9F4D0E090
:1013C000C0E0EACF805E9109089730F3F8CF81152D
:1013D00040E59407D0F4C11580E4D80708F001C1B6
:1013E000C11590E3D90750F4C11520E2D207A0F24D
:1013F000CE019F700E949809EC01CECFCE019927B3
:10140000D3FDECC0EC01D06CC7CF811531E593075B
:1014100008F4EAC0D82FCC27C16FD06ABDCF8C3B6F
:101420009C4509F427C1CD3B8CE5D80708F043C0A3
:10143000C11599E5D90798F5C11528E5D20708F037
:1014400004C1C11535E5D307C8F4C11544E5D40777
:1014500008F0F6C0CE018370992721E030E002C089
:10146000220F331F8A95E2F7C695C69580E2C89F82
:10147000E0011124C22BD32BDA688ECFCE01955513
:101480008F3F910511F008F09ACF8C2F0E94090C24
:10149000C82FD0E0DC2FCC27CC27DF7135C0C11599
:1014A0009AE5D90708F4D6C0CB3BDC4509F087CFD5
:1014B000C0E0D4ED71CFCF3B3CE5D30709F4DDC0EC
:1014C00060F4CD3B8CE5D80709F4DAC0CE3BDC45AF
:1014D00009F075CFC0E0D0ED5FCFC03C2CE5D2075E
:1014E00009F4D1C0CE0190568115904208F067CF23
:1014F0008D2F8F710E94090C90E0982F88278827E4
:101500009F719C012C2BE901D06246CF863A910550
:1015100009F0BCC0C2E8D0E43FCF883A910509F495
:10152000B8C0893A910509F4B7C08A3A910509F41F
:10153000B6C08B3A910509F4B5C08C3A910509F40F
:10154000B4C08B3B910509F4B3C08C3B910509F401
:10155000B2C08D3A910509F4B1C0803B910509F400
:10156000B0C08E3A910509F4AFC08F3A910509F4E5
:10157000AEC0813B910509F4ADC0823B910509F4F1
:10158000ACC0833B910509F4ABC0843B910509F4E1
:10159000AAC0853B910509F4A9C0863B910509F4D1
:1015A000A8C0873B910509F4A7C0883B910509F4C1
:1015B000A6C0893B910509F4A5C08D3B910509F4AE
:1015C000A4C08E3B910509F4A3C08A3B910509F4A0
:1015D000A2C0C0E0D4E4E0CED065DECEEC01D86C91
:1015E000DBCEDF70D06AD8CE54E0969587955A95B9
:1015F000E1F783702C2F26952695237090E2299F82
:1016000090011124382B8C2F8370C1E0D0E002C0F0
:10161000CC0FDD1F8A95E2F7C22BD32BDC68BCCE42
:101620008370992721E030E002C0220F331F8A9592
:10163000E2F7C695C69540E2C49FE0011124ECCFC5
:10164000DC2FCC27C46FD06AA7CEDC2FCC27C06F8D
:10165000D06AA2CE8C2F8F700E94090C94E0D69590
:10166000C7959A95E1F79C2F9F70C82FCF70C06ED9
:10167000D92FB8CFC0E0D5ED8FCEC0E0D2ED8CCE63
:10168000C0E0D1ED89CEC0E0D3ED86CEC3E8D0E492
:1016900083CEC2EED4E480CEC9EED4E47DCECAEED1
:1016A000D4E47ACEC5EBD4E477CEC6EBD4E474CEE2
:1016B000C3EBD4E471CEC4EBD4E46ECEC7EBD4E478
:1016C0006BCECCECD4E468CECDECD4E465CEC3E8EC
:1016D000D5E462CECAE8D5E45FCEC2E9D5E45CCEFB
:1016E000C4E9D5E459CEC1E2D6E456CEC3E2D6E48D
:1016F00053CEC4E2D6E450CEC5E2D6E44DCEC6E227
:10170000D6E44ACEC7E2D6E447CECFE6D4E444CE10
:10171000C0E7D4E441CECAE2D6E43ECE803E910595
:1017200081F1C8F48133910509F462C048F489322B
:10173000910509F456C08A32910509F460C00895F4
:1017400089339105B9F082389105A1F0853391056F
:1017500009F440C00895863E910561F138F4823E57
:101760009105B1F0833E9105E1F00895873E910522
:1017700051F1089520914C022370D9F080EE90E051
:10178000089520914C0220FF14C089E390E0089551
:1017900020914C0222FF0DC024FD09C083EE90E091
:1017A000089520914C0222FD31C024FF02C090E038
:1017B00080E0089520914C0223FFFBCF24FDF7CF5A
:1017C00087EE90E0089520914C0223FFEECF86EE45
:1017D00090E0089520914C0225FFEBCF89E290E044
:1017E000089520914C0225FFE4CF85E390E0089511
:1017F00020914C0226FFDDCF8AE290E008952091EF
:101800004C0226FFD6CF81E390E0089582EE90E06F
:10181000089590914C0292FF06C0282F287128301D
:1018200069F4877F846093FF06C0282F28712831D0
:1018300061F4877E846194FD877E0895282F24714A
:10184000243089F78B7F8860EECF282F24712431D4
:1018500091F78B7E8861EFCF0C94F305E82FF0E0D1
:10186000EE0FFF1FEB59FE4F808191810895CF92BB
:10187000DF92EF92FF920F931F93CF93DF938FEB43
:1018800092E00E944C0585E6E82E81E0F82ED0E03B
:10189000C0E09AEBC92E92E0D92E01EB12E0DF9363
:1018A000CF93DF92CF920E94E50587EB92E00E94F2
:1018B0004C05F701819191917F010E9423249F9310
:1018C0008F931F930F930E94E5058FEA92E00E9489
:1018D0004C0521968DB79EB708960FB6F8949EBF1B
:1018E0000FBE8DBFC430D105D1F6DF91CF911F91CE
:1018F0000F91FF90EF90DF90CF900895CF93DF93FB
:10190000A9E2B1E04DE251E0C1E0D0E08D91E82FD5
:10191000E295EF70F0E061A18F709E0101C0220F8F
:101920008A95EAF7922F9095962391A382A1822B14
:1019300082A34A175B0751F7ADE1B1E049E251E0FC
:10194000C1E0D0E08D91E82FE295EF70F0E061A169
:101950008F709E0101C0220F8A95EAF7922F909511
:10196000962391A382A1822B82A34A175B0751F78A
:1019700010926E0110926D01109266011092650135
:101980001092700110926F0110926801109267011D
:10199000109272011092710110926A011092690105
:1019A000109274011092730110926C0110926B01ED
:1019B00084E00E94750DDF91CF910C949D075F929A
:1019C0006F927F928F929F92AF92BF92CF92DF924F
:1019D000EF92FF920F931F93CF93DF932DE631E0A9
:1019E00009E211E0612CEE24E394F12CE9018990E5
:1019F00099909E01DE011E921E92F80181918F0145
:101A0000E82FE295EF70F0E091A18F70B70101C06F
:101A1000660F8A95EAF7892F862B81A382A1562E1D
:101A20005094852182A380EA8A95F1F78DE1C82E32
:101A300081E0D82E50E040E0E60179906E01872DDC
:101A400082958F7090E0EC0188A1AD90BC901197C9
:101A500090E0D72DDF7002C095958795DA95E2F773
:101A600080FD40C0C701042E02C0880F991F0A9450
:101A7000E2F78A299B2911969C938E934F5F5F4FC3
:101A80004C305105C9F681A1D52DD823D1A382A10F
:101A9000682B62A381E04D915C914815590509F4CA
:101AA00080E0682AE1E025373E0709F09FCF262D28
:101AB00044E065E671E08DE691E00E94760D0E94BB
:101AC0000F07862DDF91CF911F910F91FF90EF901F
:101AD000DF90CF90BF90AF909F908F907F906F904E
:101AE0005F90089590E080E0C4CF0895FF920F9337
:101AF0001F93CF93DF93F82E092F162FD72FC42FC4
:101B0000222349F081E0809377010E9492259093EF
:101B1000760180937501809177018823A1F08091EF
:101B20007501909176010E949E25069760F0EF2D39
:101B3000F02FA12FBD2F90E080E0D0E08C179D0703
:101B400044F010927701DF91CF911F910F91FF9098
:101B50000895219131912D933D930196EFCFAF924E
:101B6000BF92CF92DF92EF92FF920F931F93CF938A
:101B7000DF93362FD72E282FE82FF0E0711110C0F9
:101B8000E553F94F6491762F862FDF91CF911F9106
:101B90000F91FF90EF90DF90CF90BF90AF9008959E
:101BA000E72EF12C86E0689F80011124CFEFD0E072
:101BB000C801BE010E94232F832F90E0880F991F38
:101BC00035E5369FA001379F500D1124841B950BDE
:101BD000382F330F380FCE018E199F098E9FA00129
:101BE0008F9F500D9E9F500D1124952F3D9DD0012C
:101BF0001124AB2FBB276E01CA1ADB0ACE9ED0017F
:101C0000CF9EB00DDE9EB00D11248B2F5E01A31A66
:101C1000B108AE9C6001AF9CD00CBE9CD00C1124CE
:101C2000CD2CDD24CC19DD09CE9F7001CF9FF00CA7
:101C3000DE9FF00C11246330710531F10C3F33E06D
:101C4000130760F46130710519F16230710521F1FB
:101C50000F3F110548F4852F9F2D06C06430710594
:101C6000F1F066307105B9F3E22FF0E0E553F94F7A
:101C70007491E92FF0E0E553F94F6491E82FF0E01B
:101C8000E553F94F849181CF9B2F822F252FECCFE5
:101C9000922F2B2F852FE8CF8F2D922FF7CF822FCA
:101CA0002F2DE2CF0895CF93DF93982F762F842F97
:101CB000E901692F0E94AF0D798368838A83DF91E0
:101CC000CF91089580911902982F9E7F29F48170F9
:101CD00082608093190208958A34E8F381708864E1
:101CE000F8CF88E090E00C94A22F0F931F93CF932E
:101CF000DF938B01D82FC92F0E94620EA8016D2F90
:101D00007C2F88E090E0DF91CF911F910F910C9490
:101D1000C02FCF93DF9300D000D0CDB7DEB7E9E17D
:101D2000F2E083E0808311828FEF828383831482C9
:101D300080819181A281B38189839A83AB83BC83A3
:101D4000BC01CD010F900F900F900F90DF91CF91BC
:101D50000C94750E8091090280FF76C08BE995E0A6
:101D60009F938F930E94E505809109020F900F9039
:101D700080FF6AC08091190281701F928F938EE755
:101D800095E09F938F930E94E505809109020F9043
:101D90000F900F900F9080FF57C080911902869589
:101DA0001F928F9383E695E09F938F930E94E505A2
:101DB000809109020F900F900F900F9080FF44C008
:101DC00080911A021F928F9389E495E09F938F93DD
:101DD0000E94E505809109020F900F900F900F90DF
:101DE00080FF32C080911B021F928F938FE295E09B
:101DF0009F938F930E94E505809109020F900F90A9
:101E00000F900F9080FF20C080911C021F928F9333
:101E100085E195E09F938F930E94E50580910902EB
:101E20000F900F900F900F9080FF0EC080911D02B9
:101E30001F928F9389EF94E09F938F930E94E50503
:101E40000F900F900F900F9008958091190280FFCE
:101E500002C08695089580E00895CF93DF9300D067
:101E600000D0CDB7DEB780911D02833018F48F5FAC
:101E700080931D028091190290911A02A0911B0279
:101E8000B0911C0289839A83AB83BC83BC01CD01D2
:101E90000F900F900F900F90DF91CF910C94750ED3
:101EA000CF93DF9300D000D0CDB7DEB780911D0275
:101EB000882319F0815080931D028091190290911E
:101EC0001A02A0911B02B0911C0289839A83AB83F2
:101ED000BC83BC01CD010F900F900F900F90DF914C
:101EE000CF910C94750E6091040170E080911902FD
:101EF00080FF0AC080917C0123E0829FC0011124F1
:101F0000825E9D4F0C947E1580917B019091030120
:101F100023E0829FF0011124E25EFD4F891750F704
:101F20001182108212828F5F3396F8CF909119023E
:101F300090FF14C090917B012091030133E0939FA7
:101F4000F0011124E25EFD4F921710F00C94730F14
:101F50008183608342839F5F3396F6CF0895CF934A
:101F6000DF9300D00F92CDB7DEB79091190290FFAA
:101F70000AC09E012F5F3F4F0E94530E4B81698123
:101F80008A810E94960F0F900F900F90DF91CF9152
:101F90000895CF93DF93EC01EC81F0E0EA53FA4F20
:101FA0004491E9E1F2E0628181810E94AF0F8C816E
:101FB0008F5F8C83DF91CF910895CF93DF93EC01F6
:101FC000E9E1F2E0438162818C810E94AF0F8C8154
:101FD0008F5F8C83DF91CF9108950F931F93CF93E1
:101FE000DF9300D00F92CDB7DEB78C0180917801DE
:101FF00081110AC09E012F5F3F4F4FEF6FEF0E948C
:10200000530E8A8180937801F8016481613049F030
:102010006230F1F08091780140E0662331F040E0D9
:1020200019C06091780140E080E00E94960FF801AD
:10203000848190E0019663E070E00E94372F8483F2
:102040000F900F900F90DF91CF911F910F910895F6
:102050004091780180E060E0E8CF4F925F926F920C
:102060007F928F929F92AF92BF92CF92DF92EF9228
:10207000FF920F931F93CF93DF9300D000D000D037
:102080000F92CDB7DEB7182FF62E042FE22E9091C7
:10209000190290FF4CC0E92FE695AE2FB0E0A35D8A
:1020A000BE4F8C91809384019E7F923009F056C080
:1020B0009E012F5F3F4F812F0E94530E4B816981FC
:1020C0008A810E94960F10931A02F0921B020093CD
:1020D0001C02EE2009F4A2C08091190290911A020C
:1020E000A0911B02B0911C028C839D83AE83BF83A1
:1020F000BC01CD010E94750E8091090280FF17C0BE
:1021000080911C021F928F9380911B021F928F93CC
:1021100080911A021F928F938FE293E09F938F9387
:102120000E94E5050FB6F894DEBF0FBECDBF27961F
:102130000FB6F894DEBF0FBECDBFDF91CF911F91D8
:102140000F91FF90EF90DF90CF90BF90AF909F9056
:102150008F907F906F905F904F900895823019F428
:1021600000911C02B0CF863019F410911A02ABCF47
:102170008930D9F3893109F0A6CFE9518E2F8170CA
:10218000682E81E0762C7826E695F0E0EA53F94F48
:10219000C590D490512CDD2494E5892E93E0992E9E
:1021A00060910201561618F00E94730F8CCFA52C77
:1021B000B12C5C9CC0015D9C900D112470E00E94CC
:1021C000232F412E611028C0460E8091090280FF06
:1021D00011C0DF92CF921F927F921F924F921F9257
:1021E0005F929F928F920E94E5050FB6F894DEBF32
:1021F0000FBECDBF20917B01A20EB11C9501220F15
:10220000331F2A0D3B1D225E3D4F402F6F2D842D25
:102210000E94530E5394C4CF461AD7CF809109021F
:1022200080FF85CF1F920F931F92FF921F921F93E3
:1022300088E093E073CF282FE9E1F2E081814381C8
:102240006281885F0C942D1081E00C941B11282F63
:10225000E9E1F2E081814381628188500C942D1084
:1022600081E00C942711282FE9E1F2E0628138E047
:10227000630F08F46FEF438181810C942D1081E08E
:102280000C943311282FE9E1F2E0628138E0631BFE
:1022900008F460E0438181810C942D1081E00C945E
:1022A0004211282FE9E1F2E0438138E0430F08F4BE
:1022B0004FEF628181810C942D1081E00C945111BB
:1022C000282FE9E1F2E0438138E0431B08F440E0C5
:1022D000628181810C942D1081E00C94601120E0CA
:1022E0000C942D10EF92FF921F93CF93DF93EC018C
:1022F00010E0EE24EA94F12C60910201161770F0C0
:102300000E94730F9A818C8190FF27C08F5F8C830E
:10231000DF91CF911F91FF90EF90089520917B0165
:10232000422F410F5527551FCA019A01220F331F13
:10233000280F391F225E3D4F70E0C7010E94372FE2
:10234000962F8C8140911C0260911B02199F800D79
:1023500011240E94530E1F5FCFCF8150D8CFBF9260
:10236000CF92DF92EF92FF920F931F93CF93DF9361
:10237000FC0182810FEF80FF01E010E080910201FB
:102380001817C0F00E94730F80917A01013009F094
:102390004DC0811102C080910201815080937A0169
:1023A000DF91CF911F910F91FF90EF90DF90CF9031
:1023B000BF900895C0917B01C12ED12CCC0DDD2D95
:1023C000D11DCE01880F991FC80FD91FC25EDD4FE6
:1023D000198218821A8234E0E32EF12CB12C8091FC
:1023E0007A018B0D87FF03C090910201890F082E9F
:1023F000000C990BC816D90691F480911C028E9D91
:10240000A0018F9D500D11245595479555954795E1
:102410009E0160911B0280911A020E94530EB00E21
:10242000F1E0EF1AF108D9F61F5FA8CF90E001960E
:102430006091020170E00E94372FB0CF0F931F937D
:10244000CF93DF9380917B019091030123E0829FE2
:10245000F0011124E25EFD4F891740F1C0E0D3E0A6
:1024600060910201C61740F10E94730F2091000194
:1024700080917901820F8093790190910101920FEF
:1024800090930101191654F4082E000C990B4091F9
:1024900002014150550B841795071CF0219520939C
:1024A0000001DF91CF911F910F9108951182108249
:1024B00012828F5F3396D0CF0C2F10E070E0C801EE
:1024C0000E94372F20917B01820F482F50E02091EE
:1024D0007901022E000C330B02171307BCF0209178
:1024E0000101022E000C330B201731077CF08D9F69
:1024F00090011124225E3D4F40911C0260911B020D
:1025000080911A020E94530ECF5FAACFFA01EE0FFC
:10251000FF1FE40FF51FE25EFD4F11821082128251
:10252000F3CF0F931F93CF93DF938C01FC01848132
:10253000958101968170992795838483C0E0D5E5C4
:1025400080910201C81730F0DF91CF911F910F9158
:102550000C94730F20917B01422F4C0F5527551F70
:10256000CA019A01220F331F280F391F225E3D4FE7
:102570008C2F8695F80144815581840F952F911DEC
:10258000817040911C0260911B028D9F802D11244F
:102590000E94530ECF5FD4CF0F931F93CF93DF933F
:1025A000EC0110E000E0909102019017110609F093
:1025B0006CF40E94730F8C8190E0019681709927D2
:1025C0008C83DF91CF911F910F91089520917B0112
:1025D000A801420F511D9A01220F331F240F351FEE
:1025E000225E3D4F4C8160911B0280911A029695AC
:1025F0009017110651F04CF0442349F040911C0211
:102600000E94530E0F5F1F4FCECF4423B9F340E01B
:10261000F7CF60911902669570E04BE050E085E0DD
:1026200091E00E948D2F892B19F481E08093850120
:102630000E94922590937E0180937D0180910902F2
:1026400080FF08C08FEE92E09F938F930E94E50574
:102650000F900F900895109285018091090280FFDC
:1026600008C086ED92E09F938F930E94E5050F903E
:102670000F900895CF93DF9300D000D0CDB7DEB791
:102680009091190290FF61C09170811148C09260D1
:1026900090931902662309F449C080911902909120
:1026A0001A02A0911B02B0911C0289839A83AB830A
:1026B000BC83BC01CD010E94750E8091090280FF90
:1026C0000FC08091190286951F928F938FE394E03B
:1026D0009F938F930E94E5050F900F900F900F909E
:1026E00060911902669570E04BE050E085E091E062
:1026F0000E948D2F892B31F10E942B1381E0809352
:10270000800140911C0260911B0280911A020F907F
:102710000F900F900F90DF91CF910C946F11853235
:1027200010F09864B5CF880F982BB2CF8091090232
:1027300080FFD6CF8091190286951F928F9381E2F8
:1027400094E0C6CF0E940913D9CF0F900F900F903D
:102750000F90DF91CF910895682F8091190286958F
:102760008F5F853208F081E00C943A1381E00C947D
:10277000AC13682F9091190296958FEF890F9130C5
:1027800009F484E20C943A1381E00C94B91361E0EB
:102790000C943A1380911902816080931902809100
:1027A000090280FF0DC01F9281E08F9383EB93E0BD
:1027B0009F938F930E94E5050F900F900F900F90BD
:1027C0008091190286950C94C71360E00C943A131B
:1027D00080918301811163C080910902816080939F
:1027E000090280FF14C082EE94E09F938F930E94B1
:1027F000E505809109020F900F9080FF08C08CECD6
:1028000094E09F938F930E94E5050F900F900E9494
:102810003024811110C08091090280FF08C084EA31
:1028200094E09F938F930E94E5050F900F900E9474
:10283000BF240E94890E0E94710E6093190270934A
:102840001A0280931B0290931C026E7FC1F4809148
:10285000090280FF08C08BE594E09F938F930E944C
:10286000E5050F900F900E94890E0E94710E6093F3
:10287000190270931A0280931B0290931C020E940B
:10288000620E0E94AA0E109285018091190280FFAB
:1028900003C086950E94E51381E08093830108952B
:1028A000CF93DF9300D000D0CDB7DEB7809119026F
:1028B0008E7F809319028091190290911A02A09143
:1028C0001B02B0911C0289839A83AB83BC83BC0139
:1028D000CD010E94750E8091090280FF0FC080918A
:1028E000190281701F928F938BE793E09F938F93D0
:1028F0000E94E5050F900F900F900F900E942B13F0
:102900009FEFA0E7B2E09150A040B040E1F700C0D7
:1029100000000F900F900F900F90DF91CF910C94CB
:10292000730F8091090280FF10C080911902809579
:1029300081701F928F938AEE93E09F938F930E94F2
:10294000E5050F900F900F900F908091190280FD78
:102950000C9450140C94CA130F931F93CF93DF93CE
:1029600080918501882309F48DC080918401E091D4
:102970001902E695E81BE0937F018230C9F5F0E08B
:10298000EE53FA4FE491CE2FD0E009EC1FE0809196
:102990008001882389F0109280010E9492259E0177
:1029A00020953095280F391F30937E0120937D01AB
:1029B000109282011092810180917D0190917E019F
:1029C0000E949E258C179D0708F45CC0E0917D0154
:1029D000F0917E01CE0FDF1FD0937E01C0937D0169
:1029E0008DE791E0F801DF91CF911F910F9109944C
:1029F000863049F4F0E0E154FA4FE491CE2FD0E074
:102A00000DED1FE0C4CF893051F4E695F0E0E454B9
:102A1000FA4FE491CE2FD0E002E711E1B8CF8F302A
:102A200051F4E695F0E0E754FA4FE491CE2FD0E070
:102A30000FEA11E1ACCF853149F4F0E0EA54FA4FE6
:102A4000E491CE2FD0E00EE112E1A1CFC8EED3E0A9
:102A500001E912E1883109F49ACF833239F4E4EBC9
:102A6000F5E0C591D4910DEE1FE091CFC4EFD1E018
:102A70000CEC12E1843209F48ACFC0EDD7E002E514
:102A80001EE085CFDF91CF911F910F9108959C019A
:102A9000CB016EB1542F509556236EB1462B6FB7B4
:102AA000F894820F931F2817390711F46FBF089508
:102AB000F90171919F01E8E04EB9000000C077FF75
:102AC0005EB9770F000000C000C000C05EB900C052
:102AD000EA9591F7E8CFFC019DB1942B9DB99B013C
:102AE000220F331F620F731FCF010E94471587EC1F
:102AF00090E00197F1F700C00000089544E00C94C5
:102B00006B150F931F93CF93DF93C62FD42F022FF4
:102B1000FC0182818823C9F0609388010E9492257C
:102B2000909387018093860180E28C0F883008F0B3
:102B300050C0C77081E001C0880FCA95EAF7DF91E5
:102B4000CF911F910F910C945C191091880116136D
:102B500035C080918601909187010E949E25883C16
:102B6000910560F5C0E2CD0F1D17B9F080E2810F2D
:102B7000883040F4177081E001C0880F1A95EAF799
:102B80000E946319C83048F481E09D2F977001C0FE
:102B9000880F9A95EAF70E945C19802F0E944919C4
:102BA000C830B8F4D77081E001C0880FDA95EAF731
:102BB000DF91CF911F910F910C94631980E28C0FDC
:102BC000883038F4C77081E001C0880FCA95EAF7F1
:102BD000EFCFDF91CF911F910F9108959C01CB0111
:102BE000203F4CE5340769F190F4283DFCE53F07B0
:102BF00021F1293D4CE5340781F1273D3C45B1F0F9
:102C0000FC018281882361F1109288010895223F9E
:102C1000FCE53F07D1F0233F4CE53407D1F0213FDD
:102C20003C4571F727E245EE64EE03C026E241EE33
:102C300061EE0E94811580E0089527E245EE65EE81
:102C4000F8CF26E241EE60EEF4CF26E241EE62EEEE
:102C5000F0CF27E245EE66EEECCF28E241E0EFCF81
:102C600081E0089590938E0180938D010895E09105
:102C70008D01F0918E01309721F00190F081E02DCF
:102C8000099480E00895EF92FF920F931F93CF93E2
:102C9000DF938C01E0918D01F0918E013097C1F1AD
:102CA0000280F381E02D09958091090282FF30C0F6
:102CB00080FF04C083ED97E00E944C05D0E0C0E0A7
:102CC0008DECE82E87E0F82E8091090280FF0EC07F
:102CD000F801EC0FFD1F80811F928F93FF92EF92FE
:102CE0000E94E5050F900F900F900F902196C8302D
:102CF000D10551F78091090280FF0AC08BEC97E063
:102D0000DF91CF911F910F91FF90EF900C944C05A4
:102D1000DF91CF911F910F91FF90EF900895209137
:102D20008B0130918C012817390771F090938C0139
:102D300080938B01E0918D01F0918E01309721F00D
:102D40000680F781E02D0994089520918901309142
:102D50008A012817390771F090938A0180938901BD
:102D6000E0918D01F0918E01309721F00084F18582
:102D7000E02D0994089585B7806885BF85B7806880
:102D800085BF0895089508950C94C21608950C9473
:102D9000C6160E94BB160E94C3160C94C41681E08E
:102DA00008950E9489250E947E0C0E940B260E9495
:102DB00036260E94E8130C94C716CF93C82F809133
:102DC000090282FF1EC080FF1CC08CEE97E00E94AB
:102DD0004C058091090280FF14C01F92CF9387EEAB
:102DE00097E09F938F930E94E505809109020F90D1
:102DF0000F900F900F9080FF04C085EE97E00E9427
:102E00004C058C2FCF910C94A9075F926F927F9203
:102E10008F929F92AF92BF92CF92DF92EF92FF92EA
:102E20000F931F93CF93DF9300D000D00F92CDB7B5
:102E3000DEB70E94DF0C0E94CF16882309F477C00A
:102E400090E9A92E91E0B92E10E000E08824839447
:102E5000912C502E802F0E942E0C7C01F501C190E8
:102E6000D1905F01C816D90609F45BC080910902B0
:102E700081FD0E94370C90E080E0CE24DF243401F5
:102E8000082E02C0660C771C0A94E2F796012621F0
:102E90003721232B09F440C089835A82E620F7208A
:102EA00081E0EF2809F480E08B830E949225816005
:102EB000782F9D838C8349815A816B818D810E94FB
:102EC000BD17000F111FF801E057FE4F808191815F
:102ED00068267926718260820E94371690918F0150
:102EE0008917B1F10E94371680938F010F900F90D0
:102EF0000F900F900F90DF91CF911F910F91FF9046
:102F0000EF90DF90CF90BF90AF909F908F907F9089
:102F10006F905F900C94DD1601968C30910509F04E
:102F2000AECF0F5F1F4F0430110509F092CF8FEF26
:102F300089838A831B820E9492258160782F9D83DA
:102F40008C8349815A816B818D810E94BD17C4CFCA
:102F50000F900F900F900F900F90DF91CF911F91D6
:102F60000F91FF90EF90DF90CF90BF90AF909F9028
:102F70008F907F906F905F900895CF93DF93CDB740
:102F8000DEB72B970FB6F894DEBF0FBECDBF4F83D1
:102F9000588769877A878B871E8285E0FE0137967E
:102FA000DE01119601900D928A95E1F70E94E222CE
:102FB000882319F082E00E94F2230E94B02281113E
:102FC0000E947B2349815A816B817C818D819E8106
:102FD0002B960FB6F894DEBF0FBECDBFDF91CF9119
:102FE0000C94E01EFC01808191810C946322882363
:102FF00009F4FFC08238B9F40E94371681FDF9C088
:1030000089E30E9499220E9489232FEF81EE94E0A8
:10301000215080409040E1F700C0000089E30E9409
:10302000A0220C9489238338A1F40E94371680FDD6
:10303000E0C083E50E9499220E9489232FEF81EE50
:1030400094E0215080409040E1F700C0000083E50B
:10305000E6CF8438A1F40E94371682FDCAC087E407
:103060000E9499220E9489232FEF81EE94E0215043
:1030700080409040E1F700C0000087E4D0CF9CEF93
:10308000980F913A18F40E949922CBCF90E2980FB2
:10309000983050F4877091E001C0990F8A95EAF753
:1030A000892F0E941823BDCF9BE5980F933070F4B1
:1030B000853A31F0863A39F083E890E00C948F1627
:1030C00081E890E0FBCF82E890E0F8CF98E5980F98
:1030D000973108F08EC0883A09F446C0893A09F45D
:1030E00046C08A3A09F446C08B3A09F446C08C3A85
:1030F00009F446C08B3B09F446C08C3B09F446C03A
:103100008D3A09F446C0803B09F446C08E3A09F472
:1031100046C08F3A09F446C0813B09F446C0823B61
:1031200009F446C0833B09F446C0843B09F446C019
:10313000853B09F446C0863B09F446C0873B09F449
:1031400046C0883B09F446C0893B09F446C08D3B24
:1031500009F446C08E3B09F446C08A3B09F446C0D8
:1031600090E080E00C94A51682EE90E0FBCF89EE13
:1031700090E0F8CF8AEE90E0F5CF85EB90E0F2CFCB
:1031800086EB90E0EFCF83EB90E0ECCF84EB90E028
:10319000E9CF87EB90E0E6CF8CEC90E0E3CF8DECCD
:1031A00090E0E0CF83E891E0DDCF8AE891E0DACFEC
:1031B00082E991E0D7CF84E991E0D4CF81E292E037
:1031C000D1CF83E292E0CECF84E292E0CBCF85E212
:1031D00092E0C8CF86E292E0C5CF87E292E0C2CF0C
:1031E0008FE690E0BFCF80E790E0BCCF8AE292E02C
:1031F000B9CF0895882309F44BC0823871F40E9436
:10320000371681FF45C089E30E9499220E948923D5
:1032100089E30E94A0220C948923833859F40E94E8
:10322000371680FF35C083E50E9499220E948923CA
:1032300083E5EFCF843859F40E94371682FF28C007
:1032400087E40E9499220E94892387E4E2CF9CEFC1
:10325000980F913AF0F290E2980F983050F48770FE
:1032600091E001C0990F8A95EAF7892F0E941E23E9
:10327000D2CF9BE5980F933020F490E080E00C943F
:103280008F16885A873120F490E080E00C94A516C0
:103290000895CF93C82F0E94F717C93349F42FEF31
:1032A00087EE93E0215080409040E1F700C000009D
:1032B0008C2FCF910C94FA18882321F00E941823A8
:1032C0000C9489230895882321F00E941E230C94D6
:1032D00089230895BF92CF92DF92EF92FF920F93CE
:1032E0001F93CF93DF9300D000D00F92CDB7DEB7FE
:1032F0006C016D837983FC01058102950F70128149
:1033000011110E9437230E940E23E82E882371F0AA
:103310001123B1F08D81805E883090F082E00E94B0
:10332000F2230E940E2391E0E82EE926B980B294A0
:103330009FE0B922EB2DF0E0ED5EFF4C0C946D2F79
:10334000E12CF4CF09810F70F981F07F11F0029523
:10335000007F1123B1F0002361F08D81805E883001
:1033600018F02D81211109C0802F0E9418230E947E
:1033700089238D810E94F71715C0802F0E94292371
:10338000F6CF8D810E94FA18002361F08D81805E56
:10339000883018F04D81411133C0802F0E941E23C8
:1033A0000E94892378E0B71629F096E09B0D9F7064
:1033B000923020F40E9437160E94A907EE2009F4EB
:1033C0001BC20E94DE2280FD17C2F60112820E94FB
:1033D000D8220E94BA20C6010E940B1C0E94D8224B
:1033E0000F900F900F900F900F90DF91CF911F9142
:1033F0000F91FF90EF90DF90CF90BF900C94EB2057
:10340000802F0E942F23CCCF59815F70F52E6981C8
:10341000607F603219F0F29480EFF8227D8177238B
:1034200071F07130E9F1112309F444C0002301F176
:10343000F601858180FF9DCF8F70858319C0112390
:10344000C9F0011106C00E944B238F290E945C190C
:10345000A9CF013031F40E944B238F290E946723AA
:10346000A1CF053081F70E947B238F2D0E9451232D
:103470008F2DECCF011106C00E947B238F2D0E945F
:10348000631990CF013041F40E9415238F2109F474
:1034900089CF0E945A23F0CF053009F483CFECCFB7
:1034A000112321F0063008F07DCFE2CF053008F07F
:1034B00079CFE4CF002311F3FD81F93349F42FEFE5
:1034C00047EE53E0215040405040E1F700C000007B
:1034D0008D810E94FA1866CF8981869586958370C2
:1034E00069F0813009F05ECF8D819981937011115F
:1034F00002C090E080E00E94A51654CF8D81998192
:103500009370111102C090E080E00E948F164ACFA4
:103510008981837009F050C0111144CF4D814295CB
:1035200046954770440F440F8D818F7090E0B0E056
:10353000A0E0042E04C0880F991FAA1FBB1F0A9485
:10354000D2F76D8100E010E0980164FF0FC00FE03A
:1035500010E020E030E004C0000F111F221F331FD5
:103560004A95D2F7009510952095309579817695FA
:10357000769573707D83B901A801482B592B6A2B6E
:103580007B2B49835A836B837C835D8169817A813C
:103590008B819C81523051F0533059F0513019F0E9
:1035A0000E943020FFCE0E940820FCCE0E945820AE
:1035B000F9CE0E940620F6CE8695112311F089815E
:1035C0008170882309F4EECE4D814295469547706F
:1035D000440F440F8D818F7090E0B0E0A0E0042E86
:1035E00004C0880F991FAA1FBB1F0A94D2F76D81D0
:1035F00000E010E0980164FF0FC00FE010E020E051
:1036000030E004C0000F111F221F331F4A95D2F76C
:103610000095109520953095798176957695737003
:103620007D83B901A801482B592B6A2B7B2B498339
:103630005A836B837C835D8169817A818B819C81D4
:10364000523051F0533059F0513019F00E94792125
:10365000A9CE0E945121A6CE0E94A121A3CE0E94F4
:103660008420A0CE6D81623F09F44FC088F4603F92
:10367000B9F1613F09F442C0862F805E803108F1C4
:10368000112309F472C0011174CE89818F713AC07F
:103690007D81733F09F440C0743F91F7112309F411
:1036A00052C00E94AD220E941E230E94DE2284305E
:1036B000E9F50E94E92389818F710E94EB20E12CBA
:1036C00071CE8D818F708D8389818F71112321F04F
:1036D0000E94BA208D81BACE0E94EB208D81CFCE80
:1036E000112341F0053008F05DCE89818F710E9471
:1036F000202158CE063008F055CEF7CF89818F7142
:10370000112339F00E94BA204DCE89818F71112387
:10371000C9F30E94EB2046CE112329F089818F71D5
:103720000E9495203FCE0E9490203CCE053038F676
:1037300099819F719983892F0E94BA2063E08981C2
:103740000E94D323BCCF0E94AD220E9418230530D3
:1037500040F00E94E9230E945A2364E089818F711E
:10376000EFCF81E00E94F223AACF002361F0ED8128
:10377000E93309F0ADCEFFEF27EE43E0F1502040F2
:103780004040E1F7A3CE89818F71C3CF49814F704B
:103790006D81C6010E9480090E947A1F03CE11111B
:1037A00001CE59815F7059835330D1F048F45130C4
:1037B00089F0523091F05111F5CD0E945226F2CD90
:1037C0006981643081F080E0653009F0EBCD0E94C2
:1037D0004C27E8CD0E948526E5CD0E94F226E2CD59
:1037E0000E940E27DFCD84E0F2CF49814F706D81BA
:1037F000C6010E948309D6CD0F900F900F900F90B5
:103800000F90DF91CF911F910F91FF90EF90DF907C
:10381000CF90BF9008950F931F93CF93DF93EC0148
:103820008B819C81892B29F08881998189238F3F05
:1038300029F4DF91CF911F910F910895CE010E943D
:10384000BB078823B1F3688179818A810E946F2246
:103850008C010E94C9210E940520B801CE01DF9190
:10386000CF911F910F910C946A190E9437230E94E7
:1038700048230E94892390E080E00E948F1690E008
:1038800080E00C94A5160E94A7220C94351C0E947F
:1038900026230C94431C282F892F82958F70903CEF
:1038A00080F48A30B0F4843020F4823090F480E0E8
:1038B00008958630E1F781E0203E88F0213FB9F796
:1038C0000EC08C3011F08F3091F793FB882780F970
:1038D000089581E0203F39F018F4203E40F7089524
:1038E000243F29F7FCCF08950E9463220C944B1CBF
:1038F000CF93DF9300D000D00F92CDB7DEB70F90FB
:103900000F900F900F900F90DF91CF910895CF936C
:10391000DF9300D000D000D0CDB7DEB726960FB62B
:10392000F894DEBF0FBECDBFDF91CF9108951F93F6
:10393000CF93DF93E091990116E080919A018E1365
:1039400004C0DF91CF911F910895CE2FD0E01E9F2C
:10395000F0011124E556FE4F40815181628173814F
:10396000848195810E94871CFE013196E770E5CF26
:103970004091CB015091CC016091CD017091CE016D
:103980008091CF019091D0010C94871C1F93CF930D
:10399000DF938091D001807FC1F48091CD01882395
:1039A000A1F080919901C0919A016091CB01709131
:1039B000CC014091CE015091CF01D62FD723DA010F
:1039C000A095B09516E0C81304C0DF91CF911F9168
:1039D000089590E04115510511F0DF3F31F4019653
:1039E0008770F1CF2A0F3B1F17C0189FF001199F56
:1039F000F00D1124E556FE4F21812713F0CF2081D1
:103A00002613EDCF22812111EACF2381348124179F
:103A1000350740F3241B350B283C310500F7209176
:103A2000D0012F7020612093D00126E0289FF00163
:103A3000299FF00D1124E056FE4F80818F70806128
:103A400080838BEC91E00E940B1CDF91CF911F9142
:103A50000C94971C9F92AF92BF92CF92DF92EF92FD
:103A6000FF920F931F93CF93DF93CDB7DEB72B97C2
:103A70000FB6F894DEBF0FBECDBF8C0185E0F80114
:103A8000DE01179601900D928A95E1F7D8014C91CD
:103A900011965C9111971296EC9012978091CE013D
:103AA0009091CF01009709F46CC12091CB01309126
:103AB000CC01632F62236F3F09F463C11396CD904D
:103AC000DC909090CD01992009F4FAC0C816D9066F
:103AD00008F43FC0F601E81BF90BCF01FF24F39473
:103AE000883C910508F0F12C8BECA82E81E0B82ED3
:103AF0008091D001982F907FFF2009F4B9C09111D7
:103B000080C0FE2C35132AC0241328C0E11026C023
:103B10008F7080618093D0010E94B81CC5010E9403
:103B20000B1C8091D001D80115968C938F2D2B966C
:103B30000FB6F894DEBF0FBECDBFDF91CF911F91BE
:103B40000F91FF90EF90DF90CF90BF90AF909F903C
:103B50000895809590958C0D9D1DC0CFCD2829F09E
:103B6000842F85238F3F09F028C180E0B82FB170E2
:103B7000DB2EE091990120919A0136E080FD1CC076
:103B8000EE20A1F28091D00181608093D001F12CD0
:103B9000CDCF8E2F90E03E9FF0011124E556FE4FD1
:103BA0006181651306C06081641303C062816E1178
:103BB000E7CFFC013196E770E213EBCF4F835887D4
:103BC0008F8198850E946322292F22952F70903231
:103BD00060F0225F2F70223078F49F7051F0F8016E
:103BE0009581907F31F4D12C0AC09F7011F0882309
:103BF000D1F3805E8830B8F3C8010E940B1CFD2C05
:103C000095CF351306C0241304C0D801EE2009F463
:103C10007CC04F8358878F8198850E94741C8823AD
:103C200019F1EE2009F18091D001803270F02091DD
:103C3000CB013091CC013A8329831B82DD82CC8277
:103C40008E83CE0101960E940B1C86E0F801ABEC3E
:103C5000B1E001900D928A95E1F70E94C61C0E9486
:103C6000B81CFF24F39462CFC8010E940B1CF9CF4B
:103C7000911113C07C2DDB86CA866E2D8B850E9428
:103C8000781C8BEC91E00E940B1C86E0F5011192F0
:103C90008A95E9F70E94B81C49CF3513BACF24138F
:103CA000B8CFE110B6CFD80115968C93C8010E9409
:103CB0000B1C86E0F50111928A95E9F7F92C36CFB5
:103CC000C816D90680F1B601681B790BCB01F12C1F
:103CD000883C910508F046C0FE2CEE2029F23513F1
:103CE00030C024132EC08091D00180FD21C0982FB8
:103CF000907FF1F0D80115968C931597903F39F08D
:103D0000982F907F905F8F70892B15968C93C801A8
:103D10000E940B1C86E0F801ABECB1E001900D9223
:103D20008A95E1F7B7CF809590958C0D9D1DCFCFEB
:103D300086E0F801ABECB1E001900D928A95E1F7D5
:103D4000F5CE4F8358878F8198850E94741C81110E
:103D50007CCF8091D00181608093D001C8010E9406
:103D60000B1CE4CE7C2DDB86CA866E2D8B850E94D3
:103D7000781C86E0EBECF1E0DF011D928A95E9F713
:103D800089CFEE2009F470CF4F8358878F819885B3
:103D90000E94741CF82E882309F466CF86E0F8018F
:103DA000ABECB1E001900D928A95E1F78BEC91E0DC
:103DB0000E94F2170E94C61C6DCF81E08E25D6CEE0
:103DC0001F93CF93DF93CDB7DEB72C970FB6F89440
:103DD000DEBF0FBECDBF4F83588769877A878B8739
:103DE0009C87CE0107960E942A1D882369F08A8548
:103DF0009B85892B39F04F815885842F85238F3FF0
:103E000009F071C016E05FC086E0FE013796DE0162
:103E1000119601900D928A95E1F78A859B85892BF1
:103E200089F388859F8189238F3F61F320919A01CF
:103E300030E0C90101968770992740919901481790
:103E4000190671F40E94471C10929A011092990170
:103E500086E0EBECF1E0DF011D928A95E9F7D2CF25
:103E600096E0929FD001939FB00D1124A556BE4FAE
:103E7000FE01319601900D929A95E1F780939A0197
:103E80000E94971CBFCF819FC001112485569E4F71
:103E90000E942A1D8823E9F0E09199011E9FF001FC
:103EA0001124E556FE4F40815181628173818481E6
:103EB00095810E94871C8091990190E001968770FE
:103EC0009927809399018091990190919A01891382
:103ED000DACF2C960FB6F894DEBF0FBECDBFDF91C0
:103EE000CF911F91089569857A858B859C850E9465
:103EF000871C88CFEF92FF920F931F93CF93DF938E
:103F00008C01892B89F0F12CEE24E394E8012196B1
:103F1000F8018491843709F457C0A0F4823009F481
:103F20003EC048F48130D1F0DF91CF911F910F91C5
:103F3000FF90EF9008959CEF980F9037A8F70E949C
:103F4000F7170AC0853709F44CC09CE7980F9037E3
:103F500058F78F770E94FA188E0116C00E5F1F4F18
:103F6000FE01849190E2980F983060F48770FE2DE6
:103F700001C0FF0F8A95EAF78F2F0E943A230E9413
:103F8000892302C00E94F7178F2D815008F4BECFFD
:103F9000EFE9FFE03197F1F700C00000F6CF0E5FC8
:103FA0001F4FFE01849190E2980F983050F4877073
:103FB000FE2D01C0FF0F8A95EAF78F2F0E94402344
:103FC000DECF0E94FA18E0CF0E5F1F4FFE01C491B2
:103FD000C150D0F28FE99FE00197F1F700C00000D7
:103FE000F7CF0E5F1F4FFE01F490CECF08950C94D3
:103FF000F61F0E94F71F6093F3017093F401809302
:10400000F5019093F6010C94351C08950C94F91F5A
:10401000CF93DF9300D000D0CDB7DEB769837A832A
:104020008B839C838091F3019091F401A091F50121
:10403000B091F60129813A814B815C81282B392B83
:104040004A2B5B2B29833A834B835C83CA01B901DA
:104050000F900F900F900F90DF91CF910C94F91F5C
:10406000CF93DF9300D000D0CDB7DEB769837A83DA
:104070008B839C838091F3019091F401A091F501D1
:10408000B091F60129813A814B815C812823392343
:104090004A235B2329833A834B835C83CA01B9019A
:1040A0000F900F900F900F90DF91CF910C94F91F0C
:1040B000CF93DF9300D000D0CDB7DEB769837A838A
:1040C0008B839C838091F3019091F401A091F50181
:1040D000B091F60129813A814B815C8128273927EB
:1040E0004A275B2729833A834B835C83CA01B90142
:1040F0000F900F900F900F90DF91CF910C94F91FBC
:104100000C94F61F0C9480200E9482206093EF0193
:104110007093F0018093F1019093F2010C94351C9F
:1041200060E070E0CB010C9484200F931F93CF9339
:10413000DF9300D000D0CDB7DEB741E050E060E0C3
:1041400070E08A019B0104C0000F111F221F331F62
:104150008A95D2F709831A832B833C83C901B8015E
:104160000F900F900F900F90DF91CF911F910F91B3
:104170000C9484200F931F93CF93DF9300D000D033
:10418000CDB7DEB741E050E060E070E004C0440F1E
:10419000551F661F771F8A95D2F78091EF01909186
:1041A000F001A091F101B091F2018A019B01082B6D
:1041B000192B2A2B3B2B09831A832B833C83C901A0
:1041C000B8010F900F900F900F90DF91CF911F913A
:1041D0000F910C9484200F931F93CF93DF9300D003
:1041E00000D0CDB7DEB741E050E060E070E004C041
:1041F000440F551F661F771F8A95D2F7409550953B
:10420000609570958091EF019091F001A091F1017E
:10421000B091F2018A019B01082319232A233B2331
:1042200009831A832B833C83C901B8010F900F9037
:104230000F900F90DF91CF911F910F910C948420DC
:104240000F931F93CF93DF9300D000D0CDB7DEB78D
:1042500041E050E060E070E004C0440F551F661F6D
:10426000771F8A95D2F78091EF019091F001A0918C
:10427000F101B091F2018A019B01082719272A2731
:104280003B2709831A832B833C83C901B8010F9014
:104290000F900F900F90DF91CF911F910F910C9481
:1042A0008420CF93DF9300D000D0CDB7DEB76983F1
:1042B0007A838B839C838091EF019091F001A09190
:1042C000F101B091F20129813A814B815C81282B67
:1042D000392B4A2B5B2B29833A834B835C83CA019E
:1042E000B9010F900F900F900F90DF91CF910C9428
:1042F0008420CF93DF9300D000D0CDB7DEB76983A1
:104300007A838B839C838091EF019091F001A0913F
:10431000F101B091F20129813A814B815C8128231E
:1043200039234A235B2329833A834B835C83CA0165
:10433000B9010F900F900F900F90DF91CF910C94D7
:104340008420CF93DF9300D000D0CDB7DEB7698350
:104350007A838B839C838091EF019091F001A091EF
:10436000F101B091F20129813A814B815C812827CA
:1043700039274A275B2729833A834B835C83CA0109
:10438000B9010F900F900F900F90DF91CF910C9487
:1043900084200895E82F2CE0929FE00D11248E2FA9
:1043A000877041E001C0440F8A95EAF7E695E695EB
:1043B000E69585E0E89FF0011124EF52FE4F30E0D2
:1043C00020E070E05191DF011197CB01022E02C075
:1043D000969587950A94E2F78170819585278423C5
:1043E00085278C932F5F3F4F2530310559F708956E
:1043F000E82F2CE0929FE00D11249E2F9770E695F8
:10440000E695E69585E0E89FF0011124EF52FE4F16
:1044100050E040E080E0219130E0092E02C0369566
:1044200027950A94E2F721703327042E01C0220F4A
:104430000A94EAF7822B4F5F5F4F4530510559F7D9
:104440000895BF92CF92DF92EF92FF920F931F9346
:10445000CF93DF938C01C090EF01D090F001E090FA
:10446000F101F090F2018091F3019091F401A0919B
:10447000F501B091F601C82AD92AEA2AFB2ACFE130
:10448000D0E0BC2ED701C6010C2E04C0B695A7956E
:10449000979587950A94D2F780FD0EC0219788F7EB
:1044A000B12C8B2DDF91CF911F910F91FF90EF9049
:1044B000DF90CF90BF900895B8018C2F0E94A00983
:1044C000019761F3EECFCF93DF93D82FC92F0E94CE
:1044D00021226D2F7C2FDF91CF910C94A0091F9387
:1044E000CF93DF93162FD72F90919801992339F00E
:1044F000862F972FDF91CF911F910C9463228823F1
:1045000091F0862F972F0E942122C82F682F812F8C
:104510009D2F0E94CA21612F7D2F8C2FDF91CF917B
:104520001F910C94A009862F972F0E94F821C82F65
:10453000F2CF682F80911001909111010C94FC240E
:10454000682F80911001909111010C94FE248091AC
:104550001001909111010C9400258091FC010895A7
:104560000E9492252091FA013091FB018217930756
:1045700080F00E9492252091FA013091FB01AC015C
:10458000421B530B9A0181E0203D374080F480E0CC
:104590000EC00E9492252091FA013091FB012095D6
:1045A0003095280F391F81E0203D374080F3089572
:1045B0008091F90185958595859508958091F901FA
:1045C000877008950E9492252091F7013091F8019B
:1045D0008217930770F00E9492252091F701309185
:1045E000F801821B930B803D974080F480E081703E
:1045F00008950E9492252091F7013091F8012095AD
:104600003095280F391F203D374080F38091F90104
:1046100082FB882780F991E08927E9CF9091F90101
:10462000977081E009F480E0089580910802089570
:1046300090910802982B909308020895982F9095D6
:10464000809108028923809308020895109208023D
:10465000089590910702982B909307020895982F40
:104660009095809107028923809307020895109204
:104670000702089590910602982B909306020895E0
:10468000982F9095809106028923809306020895C1
:104690001092060208958091FD01089508950C94EA
:1046A0004E239091FC01981721F08093FC010C940B
:1046B0004F2308958091FC01882329F01092FC017A
:1046C00080E00C944F23089508950C946423CF93B5
:1046D000C82F8091FD018C1761F00E949225909364
:1046E000FB018093FA01C093FD018C2FCF910C94B4
:1046F0006523CF9108958091FD01882349F01092A0
:10470000FD011092FB011092FA0180E00C946523E8
:104710000895E0911001F0911101809108028083C9
:10472000E0911001F0911101808190910702892B95
:104730008083E0911001F091110180819091060237
:10474000892B80838091FD01882321F10E94B02272
:10475000882371F08091090280FF08C08FEF97E0F5
:104760009F938F930E94E5050F900F900E947B23EB
:10477000E0911001F091110180819091FD01892B50
:10478000808380911001909111010E94C1248111B8
:104790000E947B2380911001909111010C9443168B
:1047A00008950C94D02398E0899F90011124622BE6
:1047B0006093F9010E94BA200E9492259093F8011B
:1047C0008093F7018091F9018595859585950C94E5
:1047D000D1231092F9011092F8011092F70180E0B4
:1047E0000C94D1239091F901809589238093F9014C
:1047F000282F277071F4282F082E000C330B9217E6
:10480000130639F08595859585950E94EB200C94CB
:10481000E92308959093630180936201089582953E
:1048200094E0899F900111242C7C86958695837352
:10483000282B30E0C901880F991F8A7A3595279572
:104840002575822B0895CF93DF93D92F0E940F24D3
:10485000C82F8D2F0E940F249C2FDF91CF91089598
:1048600090E080E00E94A82F9C0181E02D3E3E4F09
:1048700009F080E0089582E090E00C949A2F83E0A4
:1048800090E00C949A2F84E090E00C949A2F682F7B
:1048900084E090E00C94AE2F86E090E00C949A2F88
:1048A000682F86E090E00C94AE2FAB01BC018FE046
:1048B00090E00C94C02FAB01BC0183E190E00C941C
:1048C000C02F60E070E0CB010C945B2460E070E0EE
:1048D000CB010E9455240C9461246DEE7EEF90E094
:1048E00080E00E94CC2F60E082E090E00E94AE2F3A
:1048F00060E083E090E00E94AE2F1092F3011092EE
:10490000F4011092F5011092F60160E084E090E06D
:104910000E94AE2F60E085E090E00E94AE2F60E044
:1049200086E090E00E94AE2F6FEF87E090E00E945B
:10493000AE2F40E050E0BA0188E090E00E94C02F26
:1049400060E08DE090E00E94AE2F40E050E0BA01C0
:1049500088E190E00E94C02F60E087E190E00E9433
:10496000AE2F40E050E0BA018CE190E00E94C02FF1
:1049700060E080E290E00E94AE2F0C9466240C94DC
:104980006D24AC019C012E5F3F4F485F5F4F80E07C
:104990002417350709F40895F90191919F0199238E
:1049A000B9F38F5FF5CF9C01FC0132968FEF90E059
:1049B0004191461751F08F3F19F4411101C0892FE1
:1049C0009F5F9630A9F78F3F09F40895280F311D96
:1049D00087FD3A95F901628308959C01FC013296A6
:1049E000285F3F4F8191861303C0DF0111971C920E
:1049F000E217F307B9F708950C94D3240C94ED242F
:104A0000FC01329686E0DF011D928A95E9F7089550
:104A1000089508950C9409250E940A258091530257
:104A2000843061F110920A0288E190E020E40FB630
:104A3000F894A895809360000FBE2093600080E0FA
:104A40000E94220780E00E94A9070E940A2583B7DE
:104A5000817F846083BF83B7816083BF78948895AA
:104A600083B78E7F83BF0FB6F894A89580916000BE
:104A7000886180936000109260000FBE08950895D1
:104A8000CF930E9408250E94DF0C0E943F25C0E0C2
:104A90008C2F0E942E0C892B31F4CF5FC430C1F7CC
:104AA00080E0CF91089581E0FCCF08950C945525C6
:104AB0000E94471C0E9436260E9437160E94A907B2
:104AC0000C9456251F921FB61F9211248F939F930B
:104AD000AF93BF9380910A02811113C08091480265
:104AE00090914902A0914A02B0914B024196A11DBA
:104AF000B11D8093480290934902A0934A02B0935B
:104B00004B02BF91AF919F918F911F901FBE1F903D
:104B1000189582E084BD93E095BD9AEF97BD809390
:104B20006E0008952FB7F894809148029091490241
:104B3000A0914A02B0914B022FBF0895CF92DF920D
:104B4000EF92FF929C014FB7F894809148029091A8
:104B50004902A0914A02B0914B024FBF6C017D0106
:104B6000EE24FF24A90170E060E0C416D506E60635
:104B7000F70638F0821B930BFF90EF90DF90CF90F9
:104B800008950197F7CF78941F921FB61F921124B2
:104B90008F939F93AF93BF93809148029091490266
:104BA000A0914A02B0914B020196A11DB11D8093C4
:104BB000480290934902A0934A02B0934B02BF91DE
:104BC000AF919F918F911F901FBE1F90189581E00C
:104BD0008093E00080E28093D8001092C9008FE1BA
:104BE0009EE40197F1F700C0000087E090EBDC0144
:104BF00080935C0290935D02A0935E02B0935F028B
:104C000088E19CE00FB6F894A895809360000FBEF1
:104C100090936000FFCFCF93DF9300D000D0CDB74B
:104C2000DEB70E943024811102C00E94BF240E947E
:104C30003B24809309020E94432490E090934D020C
:104C400080934C020E943F24282F30E050E040E047
:104C500029833A834B835C83CA01B9010F900F907B
:104C60000F900F90DF91CF910C9406200E9430247A
:104C7000811102C00E94BF240E944C2480934E02E6
:104C8000883220F08770806280934E0290914E02AD
:104C9000892F817090FF04C0892F8695869586950F
:104CA0000C94220780914E02982F96959695969592
:104CB000803240F49F5F990F990F990F8770892B6D
:104CC00080934E0280914E02816080934E020E943A
:104CD00050248091090280FF11C080914E02869578
:104CE000869586951F928F9388E798E09F938F9380
:104CF0000E94E5050F900F900F900F9080914E024B
:104D00008695869586950C94220780914E02982F61
:104D1000987F79F0885080934E02887F91E009F463
:104D200090E080914E0290FB80F980934E020E94A9
:104D300050248091090280FF11C080914E02869517
:104D4000869586951F928F9380E698E09F938F9328
:104D50000E94E5050F900F900F900F9080914E02EA
:104D60008695869586950C94220780914E0280FD4B
:104D70001FC0816080934E02813019F489E08093D6
:104D80004E0280914E020E9450248091090280FFC1
:104D900008C088E398E09F938F930E94E5050F90E9
:104DA0000F9080914E028695869586950C942207E9
:104DB000089580914E0280FF14C08E7F80934E0232
:104DC0000E9450248091090280FF08C085E298E08B
:104DD0009F938F930E94E5050F900F9080E00C94B5
:104DE00022070895CF93C0914E02C17080910902AD
:104DF00080FF0CC01F92CF938AE498E09F938F931B
:104E00000E94E5050F900F900F900F90CC2319F0A2
:104E1000CF910C94D926CF910C94B52690914E0247
:104E2000892F8695869586958F5F8F7197708530CF
:104E300080F5880F880F880F892B80934E02809110
:104E40004E02887F91E009F490E080914E0290FB41
:104E500080F980934E020E9450248091090280FFC5
:104E600011C080914E028695869586951F928F93EC
:104E700081E198E09F938F930E94E5050F900F903A
:104E80000F900F9080914E028695869586950C9492
:104E9000220790934E02D3CF853008F084E0982FFC
:104EA000990F990F990F80914E028770892B8093EB
:104EB0004E02887F91E009F490E080914E0290FBD1
:104EC00080F980934E020E94502480914E02869574
:104ED000869586950C942207809116020895089570
:104EE0009FB7F89410920D029FBF90915302943097
:104EF00009F048C02091E9002F703091EC00932F09
:104F0000917030FD90E8922B23E02093E9002091EE
:104F1000EB0020FF34C02091EE0027FF30C020912D
:104F20000B02222321F02091E80025FF28C01092D7
:104F30000B0226E03091E80035FF14C08093F100A9
:104F40008091E80085FD27C08091E80080FFFCCFBC
:104F50008091E8008E778093E8009F709093E9003D
:104F600080E0089530915302343049F43091EB00E1
:104F700035FD05C0215041F481E080930B029F7004
:104F80009093E9008FEF0895EFE9FFE03197F1F793
:104F900000C00000CFCF8FB7F89421E020930D021E
:104FA0008FBFDBCF0F931F93CF93DF9300D00F9270
:104FB000CDB7DEB78C010E94632A823011F08430B5
:104FC00021F584E089830A831B8382E08093E900D2
:104FD0008FEF9091E800815095FD06C095ED9A9570
:104FE000F1F700008111F5CF8091E80085FF0DC039
:104FF00050E040E063E070E0CE0101960E94802A1C
:105000008091E8008E778093E8000F900F900F90CA
:10501000DF91CF911F910F910895CF93DF9300D02F
:105020000F92CDB7DEB79C0180915302843031F5E9
:1050300083E08983205831093B832A8382E080936F
:10504000E9008FEF9091E800815095FD06C095ED45
:105050009A95F1F700008111F5CF8091E80085FF66
:105060000DC050E040E063E070E0CE0101960E9488
:10507000802A8091E8008E778093E8000F900F904F
:105080000F90DF91CF910895CF93DF93D82FC92F41
:105090000E94632A823011F0843049F581E08093C8
:1050A000E9008FEF9091E800815095FD06C095EDE5
:1050B0009A95F1F700008111F5CF8091E80085FF06
:1050C00016C050E040E068E070E08D2F9C2F0E94F9
:1050D000802A8091E8008E778093E80088E0ED2FA9
:1050E000FC2FAEE0B2E001900D928A95E1F7DF91DE
:1050F000CF91089585EB98E00E944C058091520273
:10510000811109C00E94082C0E94652C8091E20048
:1051100084608093E200089581EB98E00E944C0542
:105120001092520208958DEA98E00C944C0589EA99
:1051300098E00C944C0585EA98E00E944C050C948C
:10514000582520910C022F5F822F62E30E94172FB7
:10515000992319F020930C02089510920C0280916B
:105160000D028823F1F0809153028430C1F49091B4
:10517000E9009F702091EC00822F817020FD80E873
:10518000892B93E09093E9009091EB0090FF04C08D
:105190009091EE0097FD08C08F708093E900109207
:1051A0000D0208951092F1009091E80095FDFACF5C
:1051B0009091E80090FFF0CF9091E8009E77909357
:1051C000E800EACF42E061EC81E00E94842B42E2F9
:1051D00061EC82E00E94842B42E261EC83E00C945B
:1051E000842B80915502893089F148F4823009F48A
:1051F0009DC0833009F458C0813041F008958A3051
:1052000009F484C08B3009F46AC008958091540277
:10521000813A09F048C08091E800877F8093E800D8
:105220008091580290915902892B61F468E08EE0D8
:1052300092E070E00E94CF2A8091E8008B77809303
:10524000E800089560E090E080E0F3CF80915402A0
:10525000813249F58091580290915902029718F5D0
:105260008091E800877F8093E8008091E80082FFCA
:1052700016C09091F3008091F200029729F480917A
:10528000F1008B7F813021F48091F1008093160230
:105290008091E8008B778093E8000C94B82B809184
:1052A00053028111E2CF089580915402813AD9F7D7
:1052B0008091580290915902892BA9F78091E800BA
:1052C000877F8093E8008091E80080FFFCCF809189
:1052D0001C018093F1008091E8008E77DCCF8091F3
:1052E0005402813201F78091580290915902892B22
:1052F000D1F68091E800877F8093E8000E94B82B68
:105300008091560280931C010C94471C809154029A
:10531000813249F68091E800877F8093E8000E94FF
:10532000B82B809157028093170208958091540200
:10533000813A09F0B8CF8091E800877F8093E80038
:105340008091E80080FFFCCF80911702C2CF84B724
:10535000877F84BF0FB6F894A8958091600088611C
:1053600080936000109260000FBE80E8809361001F
:10537000109261000E94C9160E94082C0E94652CA0
:105380008091E20084608093E20080E797E20E94CF
:105390000A2478940E94EC2E0E94D11682E191E0BA
:1053A0000E94321684E998E00E944C0580915302D5
:1053B000853029F00E9405170E94AC14F7CF80E9D0
:1053C00098E00E944C050E940C2580915102882390
:1053D00069F30E944025882349F30E946A2AE6CF98
:1053E0000C94F229FC01CB01DA012F2F3327233053
:1053F0003105D1F070F42130310509F44EC022306E
:10540000310569F48BE590E029EE38E02D933C936B
:1054100008952132310521F12232310571F190E0F8
:1054200080E030E020E0F2CFCF019927E230A9F010
:105430008330910550F4009769F0E3EDF8E00197AF
:1054400071F7849190E09F01E1CFE9EBF8E00397D9
:10545000C1F3E5CFE5EEF8E0F4CFEFEBF8E0F1CF04
:1054600063307105E0F6880F991FFC01E55AFE4F85
:105470002081318189E090E0C9CF6330710578F6F1
:10548000FB01EE0FFF1FEB5AFE4F208131818E5A38
:105490009E4FFC01808190E0B9CF82E190E024E44E
:1054A00039E0B4CF0895CF93C82F0E94522AC093F9
:1054B0001802CF91089580915302843011F482E054
:1054C000089581E0089580911802811102C00C9422
:1054D0005B2A089580E189BD82E189BD09B400FE9F
:1054E000FDCF8091D8008F7D8093D8008091E0001F
:1054F00082608093E0008091E00081FDFCCF089500
:10550000AF92BF92CF92DF92FF920F931F93CF93F0
:10551000DF936C01EB018A010E94D72BF82E8111D9
:1055200023C00115110539F0F80180819181C81B54
:10553000D90BC80ED91EB12CA12C2097A9F08091AF
:10554000E80085FD22C08091E8008E778093E80016
:1055500001151105A1F0F80180819181A80EB91EF5
:10556000B182A08285E0F82E8F2DDF91CF911F911F
:105570000F91FF90DF90CF90BF90AF9008950E9461
:10558000D72B8823D1F2F82EEFCFF60181916F014E
:105590008093F1002197FFEFAF1ABF0ACECFFC0135
:1055A000CB0120915A0230915B022617370790F009
:1055B000009729F42091E8002E772093E80040E03E
:1055C000009751F4411108C08091E80082FF31C07A
:1055D00080E00895C901F3CF209153022223A9F15D
:1055E0002530A9F12091E80023FD2DC02091E8008D
:1055F00022FDEACF2091E80020FFE2CF3091F300B6
:105600002091F200009719F02830310558F041E060
:105610002830310509F040E02091E8002E772093F2
:10562000E800CECF41914093F10001972F5F3F4FAB
:10563000E9CF80915302882341F0853041F0809179
:10564000E80083FFC1CF81E0089582E0089583E000
:105650000895FC01CB0120915A0230915B0226177C
:10566000370790F0009729F42091E8002E772093D7
:10567000E80040E0009751F4411108C08091E80033
:1056800082FF32C080E00895C901F3CF2091530218
:105690002223B1F12530B1F12091E80023FD2EC085
:1056A0002091E80022FDEACF2091E80020FFE2CF20
:1056B0003091F3002091F200009719F02830310565
:1056C00058F041E02830310509F040E02091E80031
:1056D0002E772093E800CECF44914093F10031968D
:1056E00001972F5F3F4FE8CF80915302882341F00D
:1056F000853041F08091E80083FFC0CF81E00895BC
:1057000082E0089583E00895982F973028F08F70F5
:105710008093E90081E008959093E900242F762F8B
:1057200050E0981731F07091EC002091ED0050910D
:10573000F00021FD02C09F5FE8CF3091EB003E7F7B
:105740003093EB003091ED003D7F3093ED003091D0
:10575000EB0031603093EB007093EC002093ED0090
:105760005093F0002091EE0027FDE5CF80E00895F2
:105770008091540287FF13C08091E80082FF06C029
:105780008091E8008B778093E80004C080915302F9
:105790008111F2CF0895809153028823D9F380912B
:1057A000E80080FFF8CF8091E8008E77ECCF209161
:1057B000E4003091E50095E6A9012091EC00822FEC
:1057C000817020FF06C08091E80080FF06C080E065
:1057D00008952091E80022FD1AC080915302882389
:1057E00089F0853089F08091EB0085FD0FC0209114
:1057F000E4003091E50042175307F9F29150E1F6C9
:1058000084E0089582E0089583E0089581E008959A
:105810000E94762C0E947E2CE0EEF0E08081816078
:105820008083E8EDF0E080818F77808319BCA7ED5D
:10583000B0E08C918E7F8C9380818F7E80831092DC
:10584000520208950F931F93CF93DF930E94762CFB
:105850000E947E2CC8EDD0E088818F778883888174
:105860008068888388818F7D888319BC1092530259
:1058700010924F02109251021092500200EE10E06E
:10588000F80180818B7F808388818160888342E0FA
:1058900060E080E00E94842BE1EEF0E080818E7F6A
:1058A0008083E2EEF0E08081816080838081886087
:1058B0008083F80180818E7F8083888180618883E6
:1058C000DF91CF911F910F910895E8EDF0E0808175
:1058D0008F7E8083E7EDF0E080818160808384E0CB
:1058E00082BF81E0809352020C94222CE8EDF0E01C
:1058F00080818E7F80831092E20008951092DA00FA
:105900001092E10008951F920F920FB60F9211248A
:105910002F933F934F935F936F937F938F939F93B7
:10592000AF93BF93EF93FF938091E10082FF0BC091
:105930008091E20082FF07C08091E1008B7F80931D
:10594000E1000E94A1288091DA0080FF19C08091B7
:10595000D80080FF15C08091DA008E7F8093DA0036
:105960008091D90080FF94C080E189BD82E189BD2A
:1059700009B400FEFDCF81E0809353020E947A2893
:105980008091E10080FF19C08091E20080FF15C086
:105990008091E2008E7F8093E2008091E20080613E
:1059A0008093E2008091D80080628093D80019BC77
:1059B00085E0809353020E9497288091E10084FF44
:1059C00029C08091E20084FF25C080E189BD82E189
:1059D00089BD09B400FEFDCF8091D8008F7D8093F2
:1059E000D8008091E1008F7E8093E1008091E200F9
:1059F0008F7E8093E2008091E20081608093E200DC
:105A000080914F02882309F449C084E080935302B7
:105A10000E949B288091E10083FF29C08091E200D1
:105A200083FF25C08091E100877F8093E10082E0C1
:105A30008093530210924F028091E1008E7F8093F9
:105A4000E1008091E2008E7F8093E2008091E2008D
:105A500080618093E20042E060E080E00E94842B5D
:105A60008091F00088608093F0000E949328FF915D
:105A7000EF91BF91AF919F918F917F916F915F91C6
:105A80004F913F912F910F900FBE0F901F9018953F
:105A900019BC109253020E948C2872CF8091E300AF
:105AA00087FD02C081E0B2CF83E0B0CF1F920F929A
:105AB0000FB60F9211242F933F934F935F936F93E1
:105AC0007F938F939F93AF93BF93CF93DF93EF9386
:105AD000FF93D091E900DF708091EC00C82FC17076
