:100000000C94F1050C9438060C9438060C943806C0
:100010000C9438060C9438060C9438060C94380668
:100020000C9438060C9438060C94102D0C94E22D88
:100030000C94D9250C9438060C9438060C94380688
:100040000C9438060C9438060C9438060C94380638
:100050000C9438060C9441260C9438060C943806FF
:100060000C9438060C9438060C9438060C94380618
:100070000C9438060C9438060C9438060C94380608
:100080000C9438060C9438060C9438060C943806F8
:100090000C9438060C9438060C9438060C943806E8
:1000A0000C9438060C9438060C943806AF09B10944
:1000B000BC09B309B509B709B909BB09BE09C0092B
:1000C000C209CD09C409C609C809CA09CC09CF09A2
:1000D000FE1AFE1A301B301B8F1B0E1D0E1D0E1D2F
:1000E000AF1B4C1C5D1C5D1CDA1CE31C0E1D071DA8
:1000F0008E1D8E1DA01DA01D971DA01DA01DA01D45
:100100008E1D8E1D9C1DA01DA01D9C1D4F2E762E8C
:10011000682F762E682FC22EE52E682F3B2F4A2F90
:100120002B00F75CF85CF95C13001C0009000A0066
:10013000060015000F002A002961040012000800C3
:1001400018000C0007000B00170011001600280013
:10015000E100FA5C14000D000E001B000500100009
:100160001A0019001D00E100E000E300E200065162
:1001700003512C00000007510551E6000851E4002E
:100180002B0034003600370013001C0009000A0061
:10019000060015000F002A00296104001200080063
:1001A00018000C0007000B001700110016002800B3
:1001B000E100330014000D000E001B0005001000CC
:1001C0001A0019001D00E100E000E300E200065102
:1001D00004512C00000007510551E6000851E400CD
:1001E0002B0014001A000800150017001C0018004E
:1001F0000C00120013002A002961040016000700F9
:1002000009000A000B000D000E000F00330028004B
:10021000E1001D001B000600190005001100100080
:10022000360037003400E100E000E300E200065150
:1002300004512C00000007510551E6000851E4006C
:1002400001001E021F142002211422023002230288
:10025000250226023102010001002D00270225148B
:1002600026142D022D142402241427143800010012
:100270000100010006011B01190130142E02641453
:100280002F003400330001000100010001000100D3
:100290000100010000000100010001000100010057
:1002A00001001E021F022002210222022302240258
:1002B000260227022502010001002E022E002F0037
:1002C00030003802310038002F0230022D000100CA
:1002D0000100010006011B01190135023500310240
:1002E0000100010001000100010001000100010006
:1002F00001000100000001000100010001000100F7
:1003000001003A003B003C003D003E003F00400041
:100310004100420043000100010050004F00520024
:1003200051004400450046004B004A004C000100CB
:1003300001000100010001000100010001000100B5
:100340004E004D00490001000100010001000100C4
:100350000100010000000100010001000100010096
:1003600001004C0501000100010001000100010035
:100370000100010001000100010049040100AE007C
:100380000100010001000100010001000100010065
:10039000010029030100010001000100010001002A
:1003A0000100010001000100010001000100010045
:1003B0000100010000000100010001000100010036
:1003C0000100010001000100010001000100010025
:1003D000010001000100010001001E001F002000BB
:1003E0002100220023002400250026002700010010
:1003F00001000100010001000100010001000100F5
:1004000001000100010001000100010001000100E4
:1004100001000100000001000100010001000100D5
:1004200001000100010001000100010001000100C4
:1004300001000100010001000100010001000100B4
:1004400001000100010001000100010001000100A4
:100450000100010001000100010001000100010094
:10046000FB5CFC5CFD5C010001000100010001007F
:100470000100010000000100010001000100010075
:1004800044454255473A2064697361626C65642E45
:100490000A0044454255473A20656E61626C6564C6
:1004A0002E0A000A002530313662003A200025303D
:1004B0003258000A722F63203031323334353637E8
:1004C00038394142434445460A007267626C6967A5
:1004D00068742074696D65722064697361626C650B
:1004E0002E0A007267626C696768742074696D65B2
:1004F0007220656E61626C65642E0A007267626CC0
:10050000696768742073657420687376205B4E4F4A
:10051000454550524F4D5D3A2025752C25752C25AB
:10052000750A007267626C6967687420736574206D
:10053000687376205B454550524F4D5D3A202575D6
:100540002C25752C25750A007267626C69676874C2
:10055000207261696E626F772073657420687376AC
:100560003A2025642C25642C25642C25750A0072FC
:1005700067626C696768742064697361626C652086
:100580005B454550524F4D5D3A207267626C69671A
:1005900068745F636F6E6669672E656E61626C6515
:1005A000203D2025750A007267626C6967687420B7
:1005B000656E61626C65205B454550524F4D5D3AFA
:1005C000207267626C696768745F636F6E666967E3
:1005D0002E656E61626C65203D2025750A0072678C
:1005E000626C6967687420746F67676C65205B452F
:1005F0004550524F4D5D3A207267626C696768746E
:100600005F636F6E6669672E656E61626C65203D23
:100610002025750A007267626C69676874206D6FC7
:100620006465205B4E4F454550524F4D5D3A202545
:10063000750A007267626C69676874206D6F646523
:10064000205B454550524F4D5D3A2025750A00729A
:1006500067626C696768745F696E6974207267624B
:100660006C696768745F636F6E6669672E6D6F642F
:1006700065203D20302E20577269746520646566C0
:1006800061756C742076616C75657320746F20459C
:100690004550524F4D2E0A007267626C696768744C
:1006A0005F696E6974206565636F6E66696720694E
:1006B00073206E6F7420656E61626C65642E0A0033
:1006C0007267626C696768745F696E6974207374BD
:1006D000617274210A007267626C696768745F698D
:1006E0006E69742063616C6C65642E0A00726762C7
:1006F0006C696768745F636F6E6669672E73706597
:100700006564203D2025640A007267626C69676831
:10071000745F636F6E6669672E76616C203D20257D
:10072000640A007267626C696768745F636F6E6603
:1007300069672E736174203D2025640A0072676228
:100740006C696768745F636F6E6669672E6875654C
:10075000203D2025640A007267686C696768745FD1
:10076000636F6E6669672E6D6F6465203D2025643A
:100770000A007267626C696768745F636F6E6669AE
:10078000672E656E61626C65203D2025640A0072EB
:1007900067626C696768745F636F6E66696720453E
:1007A0004550524F4D3A0A0000047F3F1F643214F7
:1007B000643214783C1E1E140A052223252628299B
:1007C0002A2C2D2F3032333536383A3B3D3E4042CD
:1007D000434547494A4C4E5051535557595A5C5E10
:1007E0006062646668696B6D6F71737577797B7D24
:1007F0007F81838587898A8C8E90929496989A9C23
:100800009E9FA1A3A5A7A8AAACAEAFB1B3B4B6B83A
:10081000B9BBBCBEBFC1C2C3C5C6C7C9CACBCCCD9C
:10082000CED0D1D2D2D3D4D5D6D7D7D8D9D9DADA77
:10083000DBDBDBDCDCDCDCDCDDDDDDDDDCDCDCDCF7
:10084000DCDBDBDBDADAD9D9D8D7D7D6D5D4D3D22B
:10085000D2D1D0CECDCCCBCAC9C7C6C5C3C2C1BF09
:10086000BEBCBBB9B8B6B4B3B1AFAEACAAA8A7A56D
:10087000A3A19F9E9C9A98969492908E8C8A898729
:100880008583817F7D7B79777573716F6D6B696807
:10089000666462605E5C5A5957555351504E4C4ADB
:1008A0004947454342403E3D3B3A38363533323086
:1008B0002F2D2C2A292826252322FFAA7F554000E8
:1008C0000000000000000000000101010101010121
:1008D00001010202020202020202030303030303F4
:1008E00003040404040405050505050606060606BA
:1008F00007070707080808080909090A0A0A0B0B6D
:100900000B0C0C0C0D0D0D0E0E0E0F0F1010101108
:100910001112121313141415151616171718181987
:10092000191A1A1B1C1C1D1D1E1F1F2021212223EA
:100930002324252526272828292A2B2C2C2D2E2F29
:1009400030313132333435363738393A3B3C3D3E3D
:100950003F404142434445464748494B4C4D4E4F2A
:1009600050525354555758595A5C5D5E60616364E8
:100970006567686A6B6C6E6F7172747677797A7C72
:100980007D7F8182848687898B8D8E9092949597C6
:10099000999B9D9FA1A2A4A6A8AAACAEB0B2B4B6E2
:1009A000B9BBBDBFC1C3C5C8CACCCED0D3D5D7DAB9
:1009B000DCDEE1E3E6E8EAEDEFF2F4F7F9FCFF0A4A
:1009C000002530325820006B6579626F6172645F78
:1009D0007265706F72743A20000A00253032580038
:1009E0006B6579626F6172645F7365745F6C656477
:1009F0003A20004F6E6573686F743A2074696D65B4
:100A00006F75740A006261636B6C69676874207348
:100A10007465703A2025750A006261636B6C6967C2
:100A200068742064697361626C650A006261636B5B
:100A30006C6967687420656E61626C650A0062614A
:100A4000636B6C6967687420746F67676C653A20C4
:100A500025750A006261636B6C6967687420646560
:100A60006372656173653A2025750A006261636B84
:100A70006C6967687420696E6372656173653A209A
:100A800025750A005B735D004B6579626F61726466
:100A90002073746172742E0A005B575D005B535DB6
:100AA000005B525D005B445D005B435D000403300E
:100AB00000000012034E004900550020004D00695F
:100AC000006E006900000010034B00420044004625
:100AD0000061006E00730000000403090409025B5A
:100AE00000030100A0FA090400000103010100094C
:100AF00021110100012240000705810308000A09B5
:100B00000401000103000000092111010001223647
:100B1000000705820320000A090402000203000006
:100B20000009211101000122220007058303200092
:100B30000107050303200001120110010000000855
:100B4000EDFE60600100010203010631FF0974A19E
:100B5000010975150026FF009520750881020976A8
:100B6000150026FF00952075089102C00501098037
:100B7000A10185031601002603001A81002A8300C3
:100B8000751095018100C0050C0901A101850416AD
:100B90000100269C021A01002A9C02751095018111
:100BA00000C005010906A101050719E029E71500A4
:100BB00025019508750181029501750881010508D7
:100BC000190129059505750191029501750391019A
:100BD0000507190029FF150026FF009506750881F5
:100BE00000C011241FBECFEFDAE0DEBFCDBF04B6D8
:100BF00003FE27C080915E0290915F02A091600287
:100C0000B09161028730904BA740B04BD1F4109265
:100C10005E0210925F02109260021092610214BE96
:100C200084B7877F84BF0FB6F894A8958091600041
:100C3000886180936000109260000FBEE0E0F8E3EE
:100C4000099511E0A0E0B1E0E0EFF0E602C0059008
:100C50000D92A236B107D9F722E0A2E6B1E001C0B9
:100C60001D92AE35B207E1F70E94292A0C94763026
:100C70000C940000FF93EF93E0916201F091630107
:100C8000309709F00995EF91FF910895FC01859146
:100C9000803011F0EFDFFBCF0895FF27E0E230E274
:100CA00047FF0CC0419597FF09C0EDE26095709534
:100CB00080959095611D711D811D911D27FF02C0BA
:100CC000219530E350E2AA27660F771F881F991FEE
:100CD000AA1FA41710F0A41B63955A95A9F7AA3070
:100CE00008F0A95FA05DAF93F395611571058105CB
:100CF000910541F7ED3211F4EF93F395F21718F4E3
:100D00003F93F395FBCF8F91B5DFFA95E1F7089507
:100D1000E991F9918591803021F0853219F0AADFAF
:100D2000F9CF089520E0E89455915532C1F350333E
:100D300011F4689455915A3348F4505390F3220FAC
:100D4000022E220F220F200D250FF4CF0EF4219535
:100D500089919991533619F3533729F1533559F144
:100D6000BC0188279927E8945C3621F489919991F0
:100D700068945591543639F446EF7EF077FF0DC0F4
:100D80008FEF9FEF0AC055374AE039F0583540E100
:100D900021F0523642E009F00895FF93EF937DDF92
:100DA000EF91FF91B7CFFF93EF93FC0181918030DA
:100DB000B9F360DFFBCFFF93EF9368DFF1CFDF93F1
:100DC000CF93CDB7DEB72596A3DFCF91DF910895FE
:100DD0006E9A769A0C94EC06089508950F931F93DB
:100DE000CF93DF93EC018B018091650186FF18C0E2
:100DF000C83F8CE5D80709F465C080916401882359
:100E000021F081EE0E94351903C081EE0E944C1A38
:100E100084E60E944C1A809165018F7B8093650166
:100E2000C93FECE5DE0709F480C058F4C73F8CE504
:100E3000D807C1F008F046C0C13ED10509F4EBC0A7
:100E40001AC1CB3FFCE5DF0709F4D0C008F49DC010
:100E5000CC3FECE5DE0709F4D0C0CD3FDC4509F41A
:100E6000D2C009C1F80182818823A9F0E091100164
:100E7000F0911101808181FF07C08FE10E94351937
:100E8000809165018160F5C081E30E9435198091F0
:100E900065018260EEC08091650180FF08C08FE12E
:100EA0000E944C1A809165018E7F8093650180912C
:100EB000650181FFE0C081E30E944C1A80916501C9
:100EC0008D7FD7C0F80182818823C1F0E0911001A5
:100ED000F0911101808181FF0AC081EE0E944C1ABD
:100EE00084E60E943519809165018064C2C086E362
:100EF0000E943519809165018068BBC080916501B1
:100F000086FF08C084E60E944C1A809165018F7BA1
:100F1000809365018091650187FFADC086E30E94E3
:100F20004C1A809165018F77A4C0F80182818823D3
:100F3000A9F0E0911001F0911101808181FF07C0BB
:100F400084E60E94351980916501846092C087E330
:100F50000E9435198091650188608BC08091650180
:100F600082FF08C084E60E944C1A809165018B7F45
:100F7000809365018091650183FF7DC087E30E94B6
:100F80004C1A80916501877F74C0F80182818823A3
:100F9000C1F0E0911001F0911101808181FF07C043
:100FA00087E30E94351980916501806162C081EEFE
:100FB0000E94351986E30E9435198091650180628F
:100FC00058C08091650184FF08C087E30E944C1AD5
:100FD000809165018F7E809365018091650185FF19
:100FE0004AC086E30E944C1A81EE3EC0F80182811D
:100FF000882309F440C080E00BC0F8018281882377
:10100000D1F181E005C0F80182818823A1F182E05D
:101010000E947E0830C0F8018281882339F081EE79
:101020000E94351981E0809364011DC081EE0E9409
:101030004C1A109264018FE10E944C1A8091650154
:101040008E7F8093650184E60E944C1A8091650131
:101050008B7F8093650187E30E944C1A8091650124
:101060008F7E8093650186E30E944C1A8091650112
:101070008F7D8093650181E0DF91CF911F910F916A
:101080000895089581E008950C94EE061F93CF9380
:10109000DF9300D000D01F92CDB7DEB749835A83CB
:1010A00020919A0189819A81211112C0662349F009
:1010B0000E94B322182F682F89819A810E9458229A
:1010C00003C00E948722182F69817A81812F04C072
:1010D0000E94B32269817A810F900F900F900F9038
:1010E0000F90DF91CF911F910C942F0BFC01408149
:1010F00051816281738184810C944608CF93DF9380
:1011000061E070E0EB0102C0CC0FDD1F8A95E2F7D1
:101110008C2F0E94BF24BE0180E090E0DF91CF9130
:101120000C9459210C94DA0DE82FE295EF70F0E061
:1011300032A1282F2F7081E090E001C0880F2A95FE
:10114000EAF78095832382A30895CF92DF92EF92EE
:10115000FF92853030F4811105C0909180009F7D11
:1011600004C084E090918000906290938000282FCA
:1011700030E0AFEFBFEF0E940730DC01CB0142E06F
:10118000B695A795979587954A95D1F78C3724E121
:101190009207A105B10528F469E070E00E94B72F1D
:1011A00027C08A50974DAF4FBF4F6627782F892FA2
:1011B0009A2F25EF38E241E050E00E94DF2F6901CD
:1011C0007A01CA01B9010E949B2F9B01AC01C701A2
:1011D000B6010E949B2FBB27A92F982F872F00971E
:1011E00021E0A207B10511F0BC0102C06FEF7FEF53
:1011F00070938B0060938A00FF90EF90DF90CF9008
:101200000895269A86E30E94940882E280938000E3
:1012100089E1809381008FEF9FEF90938700809307
:1012200086000C94A4260E94AC24811102C00E9466
:1012300040250E9401090C94E8060C9441080C9486
:101240001D0908950E947E1D0E9421092FEF84E34D
:101250009CE0215080409040E1F700C000000C94D9
:1012600067260F931F93CF93DF93EC010E947608BC
:101270008C01BE010E944408882329F1BE01C801E7
:101280000E9428178823F9F00A3C8CE51807E9F03A
:1012900008F019C1033C8CE51807F1F040F5053161
:1012A0008CE5180708F0AEC002308CE51807B0F5E1
:1012B00001158CE5180709F082C0CA81CC2309F416
:1012C000C4C10E942209C0E0C0C1CA81CC2309F474
:1012D000BCC10E94DD12F7CFCA81CC2309F4B5C18D
:1012E0000E9484238272B9F00E941815ECCF063C4C
:1012F0008CE5180709F4BBC008F0CBC0043C8CE5B2
:10130000180709F0BBC0CA81CC2309F49EC10E9412
:101310008423827249F30E940B15D5CF8A818823DA
:1013200009F450C00E94AC24811102C00E944025E3
:101330000E94C42490E090934F0280934E02F801E3
:10134000E350FC45E231F10530F4EA5AFF4F809159
:101350004E020C94013080914E02816027C0826061
:1013600025C0846023C0806121C080621FC080646A
:101370001DC080681BC08460886018C08E7F16C046
:101380008D7F14C08B7F12C08F7E10C08F7D0EC0EA
:101390008F7B0CC08F770AC08B7F877F07C087FB4E
:1013A000222720F991E0922790FB87F980934E0243
:1013B00080914E020E94C8240E947E1D84CF01307D
:1013C0001C4539F0CE01DF91CF911F910F910C9404
:1013D0004208CA81CC2309F438C180910B02C82F7E
:1013E000C095C170C0FB80F980930B02CC2329F01B
:1013F00082E994E00E94460666CF80E894E00E946D
:10140000460623C106318CE5180731F50E94842376
:10141000282F8A814091100150911101882379F081
:101420002A7A91E009F490E090936601911102C04C
:1014300069E201C065E3CA010E9474250AC0809177
:101440006601811102C069E201C065E3CA010E9420
:1014500076250E94F52337CF023C1C4509F0B2CF18
:10146000CA81CC2309F4F1C00E94D1152CCFCA81C6
:10147000CC2309F4EAC00E94A11225CF053C1C45EB
:1014800009F0A0CFCA81CC2309F4DFC00E949412D6
:101490001ACFCA81083C8CE5180731F4CC2309F433
:1014A000D4C00E94BF120FCF093C1C4530F4CC239E
:1014B00009F4CBC00E94B01206CFCC2309F4C5C0FA
:1014C0000E94CE1200CF013D8CE5180779F4CA8145
:1014D000CC2309F4BAC00E94C2108F3028F00E94B9
:1014E000C210843108F417CF8FE00EC0023D8CE5A6
:1014F000180708F058C00D3C8CE5180741F4CA8164
:10150000CC2309F4A2C081E00E941B15DCCE0E3C66
:101510008CE51807B0F40B3C8CE5180739F4CA8148
:10152000CC2309F492C00E94CA10CDCE0C3C1C45BD
:1015300009F048CFCA81CC2309F487C00E94DB1090
:10154000C2CECA810F3C8CE5180771F4CC2309F494
:101550007CC00E94C210863028F00E94C2108830E1
:1015600008F4D9CE86E0D0CF003D1C4570F4CC23E2
:1015700009F46BC00E94C210823028F00E94C21091
:10158000853008F4C8CE82E0BFCFCC2309F45DC01B
:101590000E94C210893028F00E94C2108E3008F4D8
:1015A000BACE89E0B1CF053D8CE5180731F4CA8188
:1015B000CC2309F44AC083E2A7CF063D8CE5180787
:1015C00030F5CA81033D8CE5180721F4CC23E9F1FD
:1015D00088E19ACF043D1C4568F4CC23B1F10E9408
:1015E000C210853128F00E94C210873108F493CED2
:1015F00085E18ACFCC2349F10E94C210893128F0BD
:101600000E94C210823208F486CE89E17DCF0D3D62
:101610008CE5180739F4CA81CC23B9F082E00E9426
:10162000D32A51CE0E3D8CE5180731F4CA81CC2364
:1016300061F00E94402547CE0C3D1C4509F0C2CE0A
:10164000CA81CC2311F080E0EACF8C2FDF91CF91BB
:101650001F910F91089580E090E0089508959CE017
:10166000799FF001112490E3899FE00DF11D112471
:10167000E60FF11DEE0FFF1FE05EFE4F8591949186
:101680000895880F991FFC01ED55FB4F85919491AA
:101690000895CF93DF930E942F0B0E943A0DEC0127
:1016A000811521E5920708F042C0811560E5960793
:1016B00008F02FC1883E910500F5803E910508F0A5
:1016C000D5C1883A910570F4853A910508F0A4C017
:1016D0008130910509F4CAC108F47BC1049708F070
:1016E000C5C177C18F3B910508F4A1C0803C91052D
:1016F00008F46FC1805C9109FBC0C11580E3D80775
:1017000080F4C11590E2D90708F0F0C0C03FD105C0
:1017100008F45FC1CF3FD10511F008F0A7C1D06533
:10172000A5C1C11520E4D20708F0F0C0E5C08115BD
:1017300069E5960760F5C11588E5D80708F035C159
:10174000C11594E5D90778F4C11523E5D20708F04F
:1017500011C1C11562E5D60708F0F6C0DC2FCC2711
:10176000C16FD06A83C1C11585E5D80708F418C1D7
:10177000C11596E5D90708F02CC18C2F0E94B70D32
:101780008F71C82FD0E0DC2FCC27D0626FC18D3B8A
:101790002CE5920709F414C1E0F4CB3B8CE5D807A3
:1017A00009F408C108F009C1C1152AE5D20708F0FB
:1017B00010C18C2F8F700E94B70D94E0D695C795FD
:1017C0009A95E1F7CF70D0E0DC2FCC27D069C82BF9
:1017D0004DC1803C9C4509F4F9C0C13C8CE5D8075B
:1017E00060F4CE3B9CE5D90709F4EDC0CF3BDC4566
:1017F00009F0EFC0C0E0D2ED39C1CE01905681159D
:10180000904208F0E6C08D2F8F710E94B70DDD2742
:10181000D0628F71D82B2AC1853A910509F4DCC0BA
:10182000863A910509F0DBC0C2E8D0E41FC1883ACE
:10183000910509F4D7C0893A910509F4D6C08A3ACE
:10184000910509F4D5C08B3A910509F4D4C08C3ABE
:10185000910509F4D3C08B3B910509F4D2C08C3BB0
:10186000910509F4D1C08D3A910509F4D0C0803BAF
:10187000910509F4CFC08E3A910509F4CEC08F3A94
:10188000910509F4CDC0813B910509F4CCC0823BA0
:10189000910509F4CBC0833B910509F4CAC0843B90
:1018A000910509F4C9C0853B910509F4C8C0863B80
:1018B000910509F4C7C0873B910509F4C6C0883B70
:1018C000910509F4C5C0893B910509F4C4C08D3B5D
:1018D000910509F4C3C08E3B910509F4C2C08A3B4F
:1018E000910509F4C1C0C0E0D4E4C0C0CE019F702E
:1018F0000E94410BEC01BAC0CE019927D3FF03C06F
:10190000EC01D86CB3C0EC01D06CB0C0DF70D06A11
:10191000ADC0837021E030E002C0220F331F8A95F2
:10192000E2F73C68CE0174E0969587957A95E1F7E9
:101930008370382BCF70C695C69580E2C89FE001B2
:101940001124C22BD32B92C04C2F4695469590E282
:10195000499FA0011124C370DD2721E030E0C901B7
:1019600002C0880F991FCA95E2F7EC01C42BD52B52
:10197000DC687CC04C2F4695469580E2489FA001CC
:101980001124C370DD2721E030E0C90102C0880FB7
:10199000991FCA95E2F7EC01C42BD52BDA6866C013
:1019A000DC2FCC27C46FD06A61C0DC2FCC27C06F7E
:1019B000D06A5CC0C0E0D4ED59C0C0E0D5ED56C0DF
:1019C000C0E0D1ED53C0C0E0D0ED50C0C0E0D3EDD9
:1019D0004DC0C0E0D0E04AC0C1E8D0E447C0C3E891
:1019E000D0E444C0C2EED4E441C0C9EED4E43EC069
:1019F000CAEED4E43BC0C5EBD4E438C0C6EBD4E4B3
:101A000035C0C3EBD4E432C0C4EBD4E42FC0C7EB81
:101A1000D4E42CC0CCECD4E429C0CDECD4E426C072
:101A2000C3E8D5E423C0CAE8D5E420C0C2E9D5E4C0
:101A30001DC0C4E9D5E41AC0C1E2D6E417C0C3E2B0
:101A4000D6E414C0C4E2D6E411C0C5E2D6E40EC0A8
:101A5000C6E2D6E40BC0C7E2D6E408C0CFE6D4E4C1
:101A600005C0C0E7D4E402C0CAE2D6E4CE01DF91EB
:101A7000CF9108958238910549F1B0F481339105F1
:101A800009F458C048F48932910509F44EC08A32ED
:101A9000910509F454C008958533910509F440C0B7
:101AA0008933910599F00895833E910529F138F421
:101AB000803E910591F0823E9105A1F00895863E09
:101AC0009105F9F0873E910531F1089520914E027C
:101AD00020FD3AC021FD38C0089580914E0280FD5E
:101AE00035C032C080914E0282FF32C080914E02DA
:101AF00084FD30C083EE39C080914E0282FD28C043
:101B0000F5CF80914E0283FF27C080914E0284FD65
:101B100021C087EE2AC080914E0283FD1DC0F5CF03
:101B200080914E0285FD1AC01BC080914E0285FD3A
:101B300017C014C080914E0286FD14C015C080915C
:101B40004E0286FD11C00EC080EE0FC089E30DC0AD
:101B500082EE0BC080E009C086EE07C089E205C0B6
:101B600085E303C08AE201C081E390E0089590918B
:101B70004E0292FF0DC0282F2871283019F4877F5C
:101B8000846006C0282F2471243011F48B7F886074
:101B900093FF0DC0282F2871283119F4877E8461A6
:101BA00006C0282F2471243111F48B7E886194FDA6
:101BB000877E08950C94ED06E82FF0E0EE0FFF1FEE
:101BC000E959FE4F808191810895CF92DF92EF9283
:101BD000FF920F931F93CF93DF9383EB94E00E94C8
:101BE000460687E6E82E81E0F82EC0E0D0E09EEAC7
:101BF000C92E94E0D92E05EA14E0DF93CF93DF924B
:101C0000CF920E94DF068BEA94E00E944606F7011D
:101C1000819191917F010E9492249F938F931F93B2
:101C20000F930E94DF0683EA94E00E944606219605
:101C30008DB79EB708960FB6F8949EBF0FBE8DBFA6
:101C4000C430D105D1F6DF91CF911F910F91FF9054
:101C5000EF90DF90CF900895A9E2B1E041E050E02D
:101C600024E02A0F8D91E82FE295EF70F0E031A18A
:101C70008F70BA0102C0660F771F8A95E2F7CB0119
:101C8000962F9095932391A392A1892B82A32A1337
:101C9000E9CFADE1B1E041E050E02CE02A0F8D91B9
:101CA000E82FE295EF70F0E031A18F70BA0102C029
:101CB000660F771F8A95E2F7CB01962F90959323B5
:101CC00091A392A1892B82A32A13E9CF10927001CC
:101CD00010926F01109268011092670110927201C8
:101CE0001092710110926A011092690110927401B0
:101CF0001092730110926C0110926B011092760198
:101D00001092750110926E0110926D0184E00E9494
:101D1000220F0C9413095F926F927F928F929F9281
:101D2000AF92BF92CF92DF92EF92FF920F931F93E9
:101D3000CF93DF9309E211E0AFE6B1E0612CEE242E
:101D4000E394F12C5D018D909C90119711961C925B
:101D50001E92E80189918E01E82FE295EF70F0E084
:101D600091A18F70A70101C0440F8A95EAF7892FCE
:101D7000842B81A382A1542E5094852182A3D0EA82
:101D8000DA95F1F78DE1C82E81E0D82E80E090E061
:101D9000E60179906E01272D22952F7030E0E90140
:101DA00068A12D913C91119770E0D72DDF7002C092
:101DB00075956795DA95E2F760FD08C0B701082EC2
:101DC00002C0660F771F0A94E2F702C060E070E07D
:101DD000262B372B11963C932E9301968C30910530
:101DE000B9F681A1D52DD823D1A382A1482B42A336
:101DF000129681E0F501208131818216930609F463
:101E000080E0682AF1E0A737BF0709F09BCF262DB5
:101E100044E067E671E08FE691E00E94230F0E94A4
:101E20009208862DDF91CF911F910F91FF90EF9037
:101E3000DF90CF90BF90AF909F908F907F906F90EA
:101E40005F9008950895FF920F931F93CF93DF93B0
:101E5000F82E092F162FD72FC42F222349F081E007
:101E6000809379010E940B269093780180937701EB
:101E7000809179018823D9F0809177019091780140
:101E80000E941726069798F0EF2DF02FA12FBD2F57
:101E900080E090E04C2F50E08417950734F42191B6
:101EA00031912D933D930196F7CF10927901DF91F7
:101EB000CF911F910F91FF900895CF92DF92EF92F3
:101EC000FF920F931F93CF93DF937B01282F382F1F
:101ED000E82FF0E0F11006C0E154F74F6491762F3F
:101EE000862F7BC00F2D10E046E0649FC0011124B7
:101EF000CFEFD0E0BE010E94B72FAB016BEA6403C5
:101F0000C001659F900D11248E0D911D8E0D911DA8
:101F1000982F990F890FBE01601B710B6E9FD00126
:101F20006F9FB00D7E9FB00D11249B2F8F9DB00130
:101F30001124672F77277E01E61AF70AEE9EB0017B
:101F4000EF9E700DFE9E700D11246E01C81AD1080F
:101F5000C09E7001C19EF00CD09EF00C11240F2D7C
:101F60001127C01BD10BCE9F8001CF9F100DDE9F8C
:101F7000100D1124812F4230510591F04CF4411580
:101F80005105E1F041305105B9F4822F272F16C0D9
:101F90004430510569F044F04630510579F00CC0E9
:101FA000822F2B2F912F0AC02B2F932F872F06C004
:101FB0008B2F922F212F02C08B2F972FE22FF0E033
:101FC000E154F74F7491E82FF0E0E154F74F64913A
:101FD000E92FF0E0E154F74F8491DF91CF911F9109
:101FE0000F91FF90EF90DF90CF9008950895CF93D9
:101FF000DF93762FE901682F842F0E945D0F79838C
:1020000068838A83DF91CF91089580911B02282FE6
:10201000269530E02115310519F48170826005C0E4
:102020002532310524F08170886480931B02089565
:1020300088E090E00C943630CF93DF9300D000D04E
:10204000CDB7DEB7AB01BC0149835A836B837C8378
:102050000E94051049815A816B817C8188E090E063
:102060000F900F900F900F90DF91CF910C94543000
:10207000EBE1F2E083E0808311828FEF8283838340
:10208000148260817181828193810C941C108091F3
:102090000B0280FF08C08FE897E09F938F930E9408
:1020A000DF060F900F9080910B0280FF0FC0809190
:1020B0001B0281701F928F9382E797E09F938F930B
:1020C0000E94DF060F900F900F900F9080910B02EF
:1020D00080FF0FC080911B0286951F928F9387E52A
:1020E00097E09F938F930E94DF060F900F900F90C1
:1020F0000F9080910B0280FF0EC080911C021F92F6
:102100008F938DE397E09F938F930E94DF060F904C
:102110000F900F900F9080910B0280FF0EC0809166
:102120001D021F928F9383E297E09F938F930E94EB
:10213000DF060F900F900F900F9080910B0280FFA1
:102140000EC080911E021F928F9389E097E09F93AB
:102150008F930E94DF060F900F900F900F90809149
:102160000B0280FF0EC080911F021F928F938DEE95
:1021700096E09F938F930E94DF060F900F900F9031
:102180000F90089580911B0280FF02C086950895EC
:1021900080E0089580911F02833018F48F5F809350
:1021A0001F0260911B0270911C0280911D02909190
:1021B0001E020C941C1080911F02882319F081507C
:1021C00080931F0260911B0270911C0280911D027E
:1021D00090911E020C941C106091040170E080919B
:1021E0001B0280FF0AC080917E0123E0829FC00114
:1021F0001124805E9D4F0C94B81680917D019091C2
:102200000301891780F7E82FF0E09F01220F331FA9
:10221000E20FF31FE05EFD4F1182108212828F5F8A
:10222000F0CF90911B0290FF16C090917D012091FC
:102230000301921770F4E92FF0E0DF01AA0FBB1F32
:10224000EA0FFB1FE05EFD4F8183608342839F5F47
:10225000F0CF0C94EC100895CF93DF9300D01F9231
:10226000CDB7DEB790911B0290FF0AC09E012F5F91
:102270003F4F0E94F70F4B8169818A810E941111A3
:102280000F900F900F90DF91CF910895CF93DF9330
:10229000EC01EC81F0E0E654F84F4491EBE1F2E020
:1022A000628181810E942C118C818F5F8C83DF91F0
:1022B000CF910895CF93DF93EC01EBE1F2E04381FE
:1022C00062818C810E942C118C818F5F8C83DF91C5
:1022D000CF9108950F931F93CF93DF9300D01F9258
:1022E000CDB7DEB78C0180917A0181110AC09E01C1
:1022F0002F5F3F4F4FEF6FEF0E94F70F8A81809360
:102300007A01F8018481813051F028F0823061F443
:1023100040917A010AC080917A0140E007C0609143
:102320007A0140E080E003C040E080E060E00E948D
:102330001111F801248130E0C901019663E070E0D9
:102340000E94CB2F84830F900F900F90DF91CF913D
:102350001F910F9108956F927F928F929F92AF92EB
:10236000BF92CF92DF92EF92FF920F931F93CF9382
:10237000DF9300D000D0CDB7DEB7182FD62E042FB4
:10238000B22E90911B0290FFB2C0E92FE695AE2FBE
:10239000B0E0A35DBE4F8C91809386019E7F92300A
:1023A00061F49E012F5F3F4F812F0E94F70F4B81F9
:1023B00069818A810E94111160C0823019F40091F4
:1023C0001E025BC0863019F410911C0256C0893081
:1023D000D9F3893109F051C0E9518E2F8095817070
:1023E000C82EE695F0E0E654F74FE590F490A12C66
:1023F000FF2428E4822E25E0922E60910201A61689
:10240000D0F56A2C712C6E9CC0016F9C900D7E9C47
:10241000900D112470E00E94B72F812FCC2011F075
:10242000860F01C0861B90910B0290FF13C0FF9294
:10243000EF921F92CF921F928F931F92AF929F9213
:102440008F928C830E94DF060FB6F894DEBF0FBE1A
:10245000CDBF8C8190917D01690E711C9301220F7B
:10246000331F260D371D205E3D4F402F6D2D0E94DE
:10247000F70FA394C2CF0E94EC1010931C02D092CD
:102480001D0200931E02BB20E9F060911B027091B7
:102490001C0280911D0290911E020E941C108091CE
:1024A0000B0280FF24C080911E021F928F938091A7
:1024B0001D021F928F9380911C021F928F9383E2C3
:1024C00095E00CC080910B0280FF11C01F920F930A
:1024D0001F92DF921F921F938CEF94E09F938F9334
:1024E0000E94DF060FB6F894DEBF0FBECDBF0F907F
:1024F0000F900F900F90DF91CF911F910F91FF9050
:10250000EF90DF90CF90BF90AF909F908F907F9093
:102510006F900895EBE1F2E09181282F4381628171
:1025200088E0890F0C94AB1181E00C948A12EBE1E6
:10253000F2E09181282F4381628188EF890F0C940A
:10254000AB1181E00C949712EBE1F2E0628128E09C
:10255000620F08F46FEF282F438181810C94AB1137
:1025600081E00C94A412EBE1F2E0628128E0621BAE
:1025700008F460E0282F438181810C94AB1181E045
:102580000C94B312EBE1F2E0438128E0420F08F42F
:102590004FEF282F628181810C94AB1181E00C9464
:1025A000C212EBE1F2E0438128E0421B08F440E074
:1025B000282F628181810C94AB1181E00C94D1129F
:1025C00020E00C94AB11FF920F931F93CF93DF93F6
:1025D000EC01F12C0FEF10E060910201F616E8F427
:1025E00020917D0130E02F0D311DC901880F991F09
:1025F000280F391F205E3D4F70E0C8010E94CB2F8D
:10260000962F8C8140911E0260911D02F99E800DD3
:1026100011240E94F70FF394DFCF0E94EC109A81EF
:102620008C8190FF02C08F5F01C081508C83DF914D
:10263000CF911F910F91FF900895BF92CF92DF929B
:10264000EF92FF920F931F93CF93DF93FC01828150
:1026500080FF02C00FEF01C001E010E08091020195
:102660001817E0F5C12ED12C80917D01E601C80F2D
:10267000D11DCE01880F991FC80FD91FC05EDD4F35
:10268000198218821A8234E0E32EF12CB12C809149
:102690007C018B0D87FF03C090910201890F082EEA
:1026A000000C990BC816D90691F480911E028E9DDC
:1026B000A0018F9D500D112455954795559547952F
:1026C0009E0160911D0280911C020E94F70FB00EC6
:1026D000F1E0EF1AF108D9F61F5FC0CF0E94EC10AD
:1026E00080917C01013031F4811102C0809102019E
:1026F000815007C090E001966091020170E00E9455
:10270000CB2F80937C01DF91CF911F910F91FF9090
:10271000EF90DF90CF90BF900895CF9380917D018F
:1027200090910301891770F4E82FF0E09F01220FC8
:10273000331FE20FF31FE05EFD4F11821082128201
:102740008F5FF0CFC0E060910201C617B8F5EC2FA3
:10275000F0E070E0CF010E94CB2F40917D01480F47
:1027600080917B01082E000C990B50E0E817F907C7
:10277000C4F020910101022E000C330B2E173F07ED
:1027800084F09A01220F331F240F351F205E3D4F26
:1027900040911E0260911D0280911C020E94F70F61
:1027A0000BC0FA01EE0FFF1F4E0F5F1FFA01E05E34
:1027B000FD4F118210821282CF5FC5CF0E94EC10B4
:1027C0002091000180917B01820F80937B01909189
:1027D0000101920F9093010119165CF4082E000C70
:1027E000990B4091020150E041505109841795071F
:1027F0001CF0219520930001CF9108950F931F9312
:10280000CF93DF938C01FC018481958101968170C7
:10281000992795838483C0E0D5E580910201C8178C
:10282000F8F420917D0130E02C0F311DC901880F93
:10283000991F280F391F205E3D4F4C2F4695F801F8
:1028400084819581840F911D817040911E02609159
:102850001D028D9F802D11240E94F70FCF5FDDCFC9
:10286000DF91CF911F910F910C94EC100F931F9358
:10287000CF93DF93EC0100E010E080910201282F5C
:1028800030E00217130724F590917D019801290F7C
:10289000311DA901440F551F240F351F205E3D4FE8
:1028A000869590E04C81081719071CF4442331F0F9
:1028B00002C0411103C040911E0201C040E060917E
:1028C0001D0280911C020E94F70F0F5F1F4FD5CF92
:1028D0000E94EC102C8130E02F5F3F4F2170332796
:1028E0002C83DF91CF911F910F91089560911B026E
:1028F000669570E04BE050E085E091E00E94213069
:10290000892B19F481E0809387010E940B26909314
:10291000800180937F0180910B0280FF08C083EECD
:1029200094E09F938F930E94DF060F900F9008957D
:102930001092870180910B0280FF08C08AEC94E01E
:102940009F938F930E94DF060F900F9008959091B0
:102950001B0290FF54C09170811102C0926006C0AA
:10296000853210F0986402C0880F982B90931B0258
:102970006623B1F060911B0270911C0280911D02D0
:1029800090911E020E941C1080910B0280FF1BC0C0
:1029900080911B0286951F928F9383E396E00BC074
:1029A00080910B0280FF0FC080911B0286951F92C1
:1029B0008F9385E196E09F938F930E94DF060F909F
:1029C0000F900F900F9060911B02669570E04BE0A6
:1029D00050E085E091E00E942130892B19F00E949F
:1029E000981402C00E94761481E080938201409185
:1029F0001E0260911D0280911C020C94E012089549
:102A0000682F90911B02969581E0890F853208F01E
:102A100081E00C94A71481E00C940015682F90912C
:102A20001B0296958FEF890F09F484E20C94A7148A
:102A300081E00C940E1561E00C94A71480911B02A8
:102A4000816080931B0280910B0280FF0DC01F925A
:102A500081E08F9387EA95E09F938F930E94DF0632
:102A60000F900F900F900F9080911B0286950C9401
:102A70001B1560E00C94A71480918501811161C041
:102A800080910B02816080930B0286ED96E09F930C
:102A90008F930E94DF0680910B020F900F9080FFB2
:102AA00008C080EC96E09F938F930E94DF060F9002
:102AB0000F900E94AC24811110C080910B0280FF06
:102AC00008C088E996E09F938F930E94DF060F90DD
:102AD0000F900E9440250E9438100E9418106093A9
:102AE0001B0270931C0280931D0290931E026E7F46
:102AF000C1F480910B0280FF08C08FE496E09F93A1
:102B00008F930E94DF060F900F900E9438100E9452
:102B1000181060931B0270931C0280931D02909307
:102B20001E020E9405100E9447101092870180919A
:102B30001B0280FF03C086950E94391581E08093B7
:102B40008501089580911B028E7F80931B02609106
:102B50001B0270911C0280911D0290911E020E9426
:102B60001C1080910B0280FF0FC080911B028170AE
:102B70001F928F938FE695E09F938F930E94DF06BD
:102B80000F900F900F900F900E9498142FEF80E7F6
:102B900092E0215080409040E1F700C000000C948A
:102BA000EC1080910B0280FF10C080911B02809579
:102BB00081701F928F938EED95E09F938F930E946B
:102BC000DF060F900F900F900F9080911B0280FDF9
:102BD0000C94A2150C941E150F931F93CF93DF93A3
:102BE00080918701882309F48CC080918601E0914F
:102BF0001B02E695E81BE0938101823049F4F0E086
:102C0000EA54F84FE491CE2FD0E006E411E149C038
:102C1000863049F4F0E0ED54F84FE491CE2FD0E047
:102C20000AE511E13EC0893051F4E695F0E0E05547
:102C3000F84FE491CE2FD0E003EE12E132C08F3096
:102C400051F4E695F0E0E355F84FE491CE2FD0E053
:102C50000DE113E126C0853149F4F0E0E655F84F67
:102C6000E491CE2FD0E00DE813E11BC0883181F054
:102C7000833239F4E8EAF7E0C591D4910AE611E12C
:102C800010C0843251F4C4EFD1E006E314E109C06E
:102C9000C8EED3E00EEF13E104C0C0EDD7E006EFBD
:102CA0001FE080918201882389F0109282010E94A6
:102CB0000B269E0120953095820F931F90938001E3
:102CC00080937F01109284011092830180917F0193
:102CD000909180010E9417268C179D0790F0E0913B
:102CE0007F01F0918001CE0FDF1FD0938001C09350
:102CF0007F018FE791E0F801DF91CF911F910F9154
:102D00000994DF91CF911F910F9108952EB1342F27
:102D1000309523233EB1432B3FB7F894FC01680F55
:102D2000791FE617F70789F0819198E04EB9000006
:102D300000C087FF2EB9880F000000C000C000C08F
:102D40002EB900C09A9591F7ECCF3FBF08952DB1F1
:102D5000242B2DB99B01220F331F620F731F0E947A
:102D6000861687EC90E00197F1F700C00000089507
:102D700044E00C94A7160F931F93CF93DF93C62FB5
:102D8000D42F022FFC0182818823C9F060938A012D
:102D90000E940B26909389018093880180E28C0F1A
:102DA000883008F050C0C77081E001C0880FCA9514
:102DB000EAF7DF91CF911F910F910C94BE1A1091F9
:102DC0008A01161330C080918801909189010E9478
:102DD0001726883C910538F5C0E2CD0F1D17B9F0D4
:102DE00080E2810F883040F4177081E001C0880FC5
:102DF0001A95EAF70E94C51AC83048F481E09D2F61
:102E0000977001C0880F9A95EAF70E94BE1A802F2A
:102E10000E94AB1AC830B8F4D77081E001C0880FA7
:102E2000DA95EAF70AC080E28C0F883060F4C77048
:102E300081E001C0880FCA95EAF7DF91CF911F9119
:102E40000F910C94C51ADF91CF911F910F910895A6
:102E50009C01CB01203F4CE53407F9F078F4283D84
:102E6000FCE53F07B9F0293D4CE5340711F1273D5A
:102E70003C4531F526E241EE61EE1EC0223FFCE505
:102E80003F0799F070F0233F3C45D1F427E245EE2F
:102E900066EE12C027E245EE0EC026E241EE60EE7D
:102EA0000BC027E245EE64EE07C026E241EE62EE7B
:102EB00003C028E241E065EE0E94BB1680E0089561
:102EC000FC018281882319F010928A01089581E023
:102ED00008959093900180938F010895E0918F0160
:102EE000F0919001309721F00190F081E02D09944C
:102EF00080E00895EF92FF920F931F93CF93DF939B
:102F0000E0918F01F09190013097B1F18C01028036
:102F1000F381E02D099580910B0282FF2DC080FF87
:102F200004C087EC99E00E944606E80118E081ECB5
:102F3000E82E89E0F82E80910B0280FF0BC088817B
:102F40001F928F93FF92EF920E94DF060F900F90D7
:102F50000F900F90115021961111EDCF80910B021F
:102F600080FF0AC08FEB99E0DF91CF911F910F9105
:102F7000FF90EF900C944606DF91CF911F910F9137
:102F8000FF90EF90089520918D0130918E0182176E
:102F9000930771F090938E0180938D01E0918F01E2
:102FA000F0919001309721F00680F781E02D09948F
:102FB000089520918B0130918C018217930771F055
:102FC00090938C0180938B01E0918F01F09190019F
:102FD000309721F00084F185E02D0994089585B79C
:102FE000806885BF85B7806885BF08950895089576
:102FF0000C94F71708950C94FA170E94EF170E948B
:10300000F6170C94F81781E008950E9402260E949A
:103010002C0E0E948B260E94A4260E943C150C9424
:10302000FB17CF93C82F80910B0282FF1EC080FF39
:1030300004C080EE99E00E94460680910B0280FF5A
:103040000CC01F92CF938BED99E09F938F930E94BA
:10305000DF060F900F900F900F9080910B0280FF72
:1030600004C089ED99E00E9446068C2FCF910C9404
:103070001F094F925F927F928F929F92AF92BF9261
:10308000CF92DF92EF92FF920F931F93CF93DF9334
:10309000CDB7DEB72A970FB6F894DEBF0FBECDBF0F
:1030A0000E948B0E0E940318811111C08FEF89833B
:1030B0008A831B820E940B268160782F9D838C83DC
:1030C00049815A816B818D810E94F51857C092E920
:1030D000C92E91E0D92E00E010E0AA24A394B12CCF
:1030E000702E802F0E94DC0D4C01F6014190519012
:1030F0006F01482659264114510431F40F5F1F4FC8
:103100000430110569F7D2CF80910B0281FD0E9436
:10311000E50D20E030E07501022E02C0EE0CFF1C30
:103120000A94E2F7C70184219521892B09F12E83A6
:103130007F828E209F2091E0892809F490E0988773
:103140000E940B268160782F9A8789874E815F8144
:1031500068858A850E94F518000F111FF801EE5648
:10316000FE4F80819181E826F926F182E08206C037
:103170002F5F3F4F2C30310571F6C0CF1091910178
:103180000E946E171817D9F00E946E178093910154
:103190002A960FB6F894DEBF0FBECDBFDF91CF9158
:1031A0001F910F91FF90EF90DF90CF90BF90AF9065
:1031B0009F908F907F905F904F900C9411182A965B
:1031C0000FB6F894DEBF0FBECDBFDF91CF911F9138
:1031D0000F91FF90EF90DF90CF90BF90AF909F90B6
:1031E0008F907F905F904F900895CF93DF93CDB7EE
:1031F000DEB72B970FB6F894DEBF0FBECDBF4F835F
:10320000588769877A878B87DE01119686E0FD01F2
:1032100011928A95E9F785E0FE01379601900D92AB
:103220008A95E1F70E945223882319F082E00E94D8
:103230005E240E94252381110E94E72349815A813F
:103240006B817C818D819E810E9428202B960FB6F8
:10325000F894DEBF0FBECDBFDF91CF910895FC0182
:10326000808191810E94F4220895882309F413C17A
:10327000682F8238C1F40E946E1781FD0CC169E38A
:1032800080911001909111010E9474250E94F523F4
:103290002FEF81EE94E0215080409040E1F700C094
:1032A000000069E319C08338F9F40E946E1780FDAD
:1032B000F2C063E580911001909111010E94742584
:1032C0000E94F5232FEF81EE94E021508040904042
:1032D000E1F700C0000063E58091100190911101B9
:1032E0000E9476250C94F5238438C1F40E946E1751
:1032F00082FDD1C067E480911001909111010E947C
:1033000074250E94F5232FEF81EE94E02150804038
:103310009040E1F700C0000067E4DECF8CEF860F3D
:10332000813A38F480911001909111010E94742526
:10333000D9CF80E2860F883048F4677081E001C001
:10334000880F6A95EAF70E948723CCCF8BE5860F1A
:10335000833070F4653A29F0663A31F083E890E002
:1033600005C081E890E002C082E890E00C94C317A9
:1033700088E5860F873108F08EC0683A09F445C0A9
:10338000693A09F445C06A3A09F445C06B3A09F450
:1033900045C06C3A09F445C06B3B09F445C06C3B31
:1033A00009F445C06D3A09F445C0603B09F445C0D5
:1033B0006E3A09F445C06F3A09F445C0613B09F41F
:1033C00045C0623B09F445C0633B09F445C0643B1A
:1033D00009F445C0653B09F445C0663B09F445C0A6
:1033E000673B09F445C0683B09F445C0693B09F4F3
:1033F00045C06D3B09F445C06E3B09F445C06A3BCE
:1034000009F445C080E090E044C082EE90E041C005
:1034100089EE90E03EC08AEE90E03BC085EB90E004
:1034200038C086EB90E035C083EB90E032C084EB8F
:1034300090E02FC087EB90E02CC08CEC90E029C08E
:103440008DEC90E026C083E891E023C08AE891E00B
:1034500020C082E991E01DC084E991E01AC081E2B8
:1034600092E017C083E292E014C084E292E011C0BF
:1034700085E292E00EC086E292E00BC087E292E025
:1034800008C08FE690E005C080E790E002C08AE2C5
:1034900092E00C94D9170895882309F45BC0682F33
:1034A000823879F40E946E1781FF54C069E38091DD
:1034B0001001909111010E9474250E94F52369E387
:1034C00010C08338B1F40E946E1780FF43C063E5DB
:1034D00080911001909111010E9474250E94F523A2
:1034E00063E580911001909111010E9476250C9462
:1034F000F523843879F40E946E1782FF2BC067E4AD
:1035000080911001909111010E9474250E94F52371
:1035100067E4E7CF8CEF860F813A18F380E2860FDD
:10352000883048F4677081E001C0880F6A95EAF737
:103530000E948D23DCCF8BE5860F833020F480E062
:1035400090E00C94C317685A673120F480E090E053
:103550000C94D9170895CF93C82F0E943519C933F9
:1035600049F42FEF87EE93E0215080409040E1F73F
:1035700000C000008C2FCF910C944C1A882321F0AE
:103580000E9487230C94F5230895882321F00E943C
:103590008D230C94F5230895BF92CF92DF92EF9282
:1035A000FF920F931F93CF93DF937C01062FC72FBA
:1035B000FC01158112951F70D281D1110E94A423A4
:1035C0000E947D23882379F0DD2369F080E2800F5B
:1035D000883048F082E00E945E240E947D2391E0C2
:1035E000B82EB92601C0B12CCC2EC2948FE0C822CF
:1035F000D12CF601E859FF4F0C9401308C2F807FBD
:10360000CF70882311F0C295C07FDD2399F0CC23C1
:1036100009F4BAC180E2800F883010F0011104C0B3
:103620008C2F0E94872303C08C2F0E9497230E9417
:10363000F523AAC1802F0E944C1ACC2309F4EEC1B5
:1036400080E2800F883010F0011104C08C2F0E949E
:103650008D2303C08C2F0E949D230E94F523DEC181
:103660008C2F807FCF70803211F0C295C07F0023F5
:1036700019F0013059F134C0DD23B1F0112381F08C
:10368000113031F40E94B7238C2B0E94D323C6C182
:10369000153031F40E94E7238C2F0E94BD232AC0ED
:1036A0000E94B7238C2B27C0112369F0113041F4FD
:1036B0000E9484238C2309F4B1C10E94C62303C055
:1036C000153009F4ABC10E94E72325C0DD2321F0AA
:1036D000163008F0A3C10EC0153008F09FC11BC002
:1036E000DD2361F0112331F0F701858180FF4CC1AA
:1036F0008F7085838C2F0E94BE1A90C1112359F0C0
:10370000093309F053C1FFEF27EE83E0F150204069
:103710008040E1F749C18C2F0E94C51A7FC18C2FD0
:1037200086958695837090E0009719F0019761F077
:1037300075C1DD2321F0802F9C2F937002C080E0A3
:1037400090E00E94C31775C1DD2321F0802F9C2FCC
:10375000937002C080E090E00E94D9176AC18C2F5C
:10376000837009F049C0D11160C1402F4295469540
:103770004770440F440F602F6F70862F90E0A0E0D9
:10378000B0E0042E04C0880F991FAA1FBB1F0A9423
:10379000D2F704FF10C00FE010E020E030E004C0DA
:1037A000000F111F221F331F4A95D2F70095109565
:1037B0002095309503C000E010E09801C695C695AD
:1037C000C370D0E0BC01CD01602B712B822B932BF9
:1037D000C230D10559F0C330D10559F0219719F005
:1037E0000E946D2122C10E945B211FC10E947F2186
:1037F0001CC10E94592119C1DD2319F08C2F817041
:1038000001C08695882309F410C1402F4295469542
:103810004770440F440F602F6F70862F90E0A0E038
:10382000B0E0042E04C0880F991FAA1FBB1F0A9482
:10383000D2F704FF10C00FE010E020E030E004C039
:10384000000F111F221F331F4A95D2F700951095C4
:103850002095309503C000E010E09801C695C6950C
:10386000C370D0E0BC01CD01602B712B822B932B58
:10387000C230D10559F0C330D10559F0219719F064
:103880000E943322D2C00E942122CFC00E94452232
:10389000CCC00E949421C9C0CF70DD2339F08C2F99
:1038A0000E94BA21802F0E94BE1ABFC0802F0E94A2
:1038B000C51A8C2F0E94DB21B8C0023F01F128F409
:1038C000003F41F0013FA1F05AC0033FF9F0043F2F
:1038D00039F155C0DD2341F0153008F09FC08C2F21
:1038E0008F710E9400229AC0163008F097C0F7CF5F
:1038F000DD2339F08C2F8F710E94BA218FC0DD2318
:10390000C9F38C2F8F710E94DB2188C0DD2329F041
:103910008C2F8F710E94A52181C00E94A0217EC0A2
:10392000DD23C9F00E9422230E948D230E944E2392
:10393000843039F40E9455248C2F8F710E94DB2132
:1039400094C0153008F091C0CF718C2F0E94BA211D
:1039500063E08C2F0DC00E9422230E948723153024
:1039600050F00E9455240E94C62364E08C2F8F7172
:103970000E943F247AC081E00E945E2476C0DD234D
:1039800039F0112309F4B6CF802F0E94351946C0B3
:10399000112309F4B6CF093349F49FEFE7EEF3E0C2
:1039A0009150E040F040E1F700C00000802F0E94FD
:1039B0004C1A34C04C2F4F70602FC7010E942B0B44
:1039C0000E94CC2036C0D11134C0CF70D0E0C230BC
:1039D000D10599F03CF4209769F02197F9F40E9401
:1039E000FD2627C0C430D10571F054F02597B1F4FD
:1039F00080E00AC00E94C5261CC00E94712719C021
:103A00000E948D2716C084E00E94CB2712C04C2F45
:103A10004F70602FC7010E942E0B0BC028E0C21A06
:103A2000D10884E0C816D10420F40E946E170E94C9
:103A30001F09BB20E1F00E944E2380FD18C0F70152
:103A400012820E9448230E94BA21C7010E94411D90
:103A50000E944823DF91CF911F910F91FF90EF902B
:103A6000DF90CF90BF900C94DB21B12CDECFDF91A3
:103A7000CF911F910F91FF90EF90DF90CF90BF906B
:103A800008950F931F93CF93DF93EC018881998161
:103A90002B813C81232BB9F09F3F11F48F3F99F08C
:103AA000CE010E943109882371F0688179818A8171
:103AB0000E94FF228C010E9457220E945821B801C7
:103AC000CE010E94CC1ADF91CF911F910F910895E2
:103AD0000E94A4230E94B4230E94F52380E090E07A
:103AE0000E94C31780E090E00C94D91780911001D8
:103AF000909111010E9478250C94681D0E949423D6
:103B00000C94761DE92FE295EF70F0E03297EE30DD
:103B1000F105B0F4E858FF4F0C940130803F91F06C
:103B200018F4883E68F40EC0843F51F40BC0883E00
:103B300048F0813F29F406C093FB882780F9089557
:103B400080E0089581E008950E94F4220E94821D81
:103B50000895CF93DF9300D000D01F92CDB7DEB78A
:103B60000F900F900F900F900F90DF91CF910895CD
:103B7000CF93DF9300D000D000D0CDB7DEB726962C
:103B80000FB6F894DEBF0FBECDBFDF91CF91089581
:103B90001F93CF93DF93C0919B0116E080919C010E
:103BA000C81799F0D0E01C9FF0011D9FF00D112463
:103BB000E356FE4F408151816281738184819581FA
:103BC0000E94B81D2196C770E9CFDF91CF911F9158
:103BD00008954091CD015091CE016091CF01709137
:103BE000D0018091D1019091D2010C94B81D8091A7
:103BF000D20182958F7009F054C08091CF01882343
:103C000009F44FC080919B01A0919C016091CD016E
:103C10007091CE014091D0015091D101B6E08A1748
:103C200009F43FC090E041155105C1F17F3F11F407
:103C30006F3FA1F1B89FF001B99FF00D1124E35639
:103C4000FE4F218172132AC02081621327C0228176
:103C5000211124C0238134812417350710F4215009
:103C60003109241B350B283C3105C0F42091D201C9
:103C70002F7020612093D20126E0289FF001299F18
:103C8000F00D1124EE55FE4F80818F70806180838E
:103C90008DEC91E00E94411D0C94C81D0196877027
:103CA000BECF0895CF92DF92EF92FF920F931F93B2
:103CB000CF93DF93CDB7DEB762970FB6F894DEBF30
:103CC0000FBECDBF8C0185E0F801DE011D9601908D
:103CD0000D928A95E1F7D8014C9111965C9111975C
:103CE00012966C9112971396CD90DC9014973091A8
:103CF000CD017091CE018091D0019091D1010097BA
:103D000009F46BC17F3F19F43F3F09F466C1E090AD
:103D1000CF01EE2009F4C0C02091D201C816D90607
:103D200028F0F601E81BF90BCF0104C080959095AF
:103D30008C0D9D1DFF24F394883C910578F0F12CA7
:103D4000207F09F0C6C07C2DD98AC88A89890E9443
:103D5000A91D8DEC91E00E94411DB1C0822F807F92
:103D600009F046C0751314C0341312C0611110C09D
:103D70002F7020612093D2010E94E91D8DEC91E00B
:103D80000E94411D8091D201D80115968C932EC0BE
:103D9000CD2819F15F3F11F44F3FF9F0F62E611174
:103DA0001CC080919B0120919C0136E0821709F490
:103DB0005AC090E0389FF001399FF00D1124E3566E
:103DC000FE4F7181571306C07081471303C0728183
:103DD000711103C001968770E9CFF62E662309F4AE
:103DE00027C18091D20181608093D201F12C20C142
:103DF000751308C0341306C0611104C08091D2014C
:103E0000D801C3C04D875E878D859E856A8B0E94D1
:103E1000A41D6A898823E1F16623D1F12091D201A2
:103E2000822F82958F7090E0029774F08091CD017F
:103E30009091CE0198878F831986DB86CA862C875E
:103E4000CE0107960E94411D86E0F801ADECB1E07D
:103E500001900D928A95E1F70E94F71D0E94E91DDD
:103E6000FF24F394E5C04D875E878D859E850E9473
:103E7000F422292F22952F7030E0223031050CF0EA
:103E8000CBC09F7009F0C5C0805E883008F4D0C0F8
:103E9000C8010E94411DE4CFC816D90608F453C0DA
:103EA000F601E81BF90BCF01883C910508F450C0DE
:103EB000F12C7C2DD98AC88A89890E94A91DEDEC34
:103EC000F1E086E0DF011D928A95E9F70E94E91D85
:103ED000AFC0751314C0341312C0611110C08091AB
:103EE000D201F8018583C8010E94411D86E0EDECF6
:103EF000F1E0DF011D928A95E9F7FE2C99C04D870C
:103F00005E878D859E856A8B0E94A41D6A898823A1
:103F100009F4BECF662309F4BBCF2091D201822FD2
:103F200082958F7090E002970CF48ECF8091CD0136
:103F30009091CE019A8389831B82DD82CC822E836D
:103F4000CE0101967FCF809590958C0D9D1DACCFB5
:103F5000F62E662309F49CCF75132EC034132CC0A3
:103F60002091D20120FD1FC0822F82958F70D9F041
:103F7000D80115962C9315978F3049F08F5F982FA5
:103F80009295907F822F8F70892B15968C93C80104
:103F90000E94411D86E0F801ADECB1E001900D9268
:103FA0008A95E1F793CF86E0F801ADECB1E001909E
:103FB0000D928A95E1F73CC04D875E878D859E8581
:103FC0000E94A41D811140CF8091D2018160809315
:103FD000D201C8010E94411D2BC0662309F458CFAD
:103FE0004D875E878D859E850E94A41DF82E8823AF
:103FF00009F44ECF86E0F801ADECB1E001900D92EE
:104000008A95E1F78DEC91E00E942F190E94F71D2F
:104010005DCF811139CF0CC0243031050CF038CF81
:104020009F7009F431CFF8019581907F09F02CCF72
:104030008F2D62960FB6F894DEBF0FBECDBFDF9115
:10404000CF911F910F91FF90EF90DF90CF90089547
:104050001F93CF93DF93CDB7DEB72C970FB6F894AD
:10406000DEBF0FBECDBF4F83588769877A878B87A6
:104070009C87CE0107960E94521E882369F08F818B
:1040800098852A853B85232BF1F19F3F09F063C07A
:104090008F3F09F060C037C086E0FE013796DE0131
:1040A000119601900D928A95E1F76F817885EA85E6
:1040B000FB85309741F17F3F11F46F3F21F1209153
:1040C0009C0130E0C90101968770992740919B01BE
:1040D00050E08417950709F447C069837A83FD830C
:1040E000EC8396E0929FD001939FB00D1124A356CC
:1040F000BE4FFE01319601900D929A95E1F78093A3
:104100009C010E94C81D16E080919B0190919C012A
:104110008917C1F1189FC001112483569E4F0E9438
:10412000521E882379F1E0919B011E9FF00111241A
:10413000E356FE4F40815181628173818481958174
:104140000E94B81D80919B0190E00196877099278D
:1041500080939B01D9CF4F81588569857A858B855E
:104160009C850E94B81DCFCF0E947E1D10929C019D
:1041700010929B01EDECF1E086E0DF011D928A9543
:10418000E9F7C1CF2C960FB6F894DEBF0FBECDBFB6
:10419000DF91CF911F910895EF92FF920F931F939C
:1041A000CF93DF938C01892B09F46CC0F12CEE24A2
:1041B000E394E8012196F8018491843740F4843037
:1041C00008F051C0813081F0823019F15BC0853731
:1041D00009F444C0A8F19CE7980F903708F052C04A
:1041E0008F770E944C1A41C00E5F1F4FFE01C49191
:1041F00080E28C0F883048F4C7708E2D01C0880F84
:10420000CA95EAF70E94A72314C08C2F0E94351983
:104210002DC00E5F1F4FFE01C49180E28C0F8830CD
:1042200058F4C7708E2D01C0880FCA95EAF70E9416
:10423000AD230E94F5231AC08C2F0E944C1A16C081
:104240000E5F1F4FFE01C491CC2381F08FE99FE0E8
:104250000197F1F700C00000C150F6CF0E5F1F4F6D
:10426000FE01F49003C00E9435198E018F2D882322
:1042700009F49FCFEFE9FFE03197F1F700C00000AC
:104280008150F5CFDF91CF911F910F91FF90EF906B
:10429000089508950C9449210E944A216093F501E4
:1042A0007093F6018093F7019093F8010C94681DC8
:1042B00008950C944C210F931F930091F5011091D8
:1042C000F6012091F7013091F801602B712B822BC0
:1042D000932B1F910F910C944C210F931F930091DE
:1042E000F5011091F6012091F7013091F80160235A
:1042F0007123822393231F910F910C944C210F93D0
:104300001F930091F5011091F6012091F701309172
:10431000F80160277127822793271F910F910C9432
:104320004C2108950C9491210E9492216093F101F7
:104330007093F2018093F3019093F4010C94681D43
:1043400060E070E0CB010C9494210F931F9341E047
:1043500050E060E070E08A019B0104C0000F111F73
:10436000221F331F8A95D2F7C901B8011F910F91FF
:104370000C9494210F931F9341E050E060E070E0B3
:1043800004C0440F551F661F771F8A95D2F780918E
:10439000F1019091F201A091F301B091F4018A0131
:1043A0009B01082B192B2A2B3B2BC901B8011F910C
:1043B0000F910C9494210F931F9341E050E060E023
:1043C00070E004C0440F551F661F771F8A95D2F70F
:1043D00040955095609570958091F1019091F20112
:1043E000A091F301B091F4018A019B0108231923E4
:1043F0002A233B23C901B8011F910F910C949421EA
:104400000F931F9341E050E060E070E004C0440F60
:10441000551F661F771F8A95D2F78091F101909101
:10442000F201A091F301B091F4018A019B010827E8
:1044300019272A273B27C901B8011F910F910C9416
:1044400094210F931F930091F1011091F20120919B
:10445000F3013091F401602B712B822B932B1F9170
:104460000F910C9494210F931F930091F1011091DF
:10447000F2012091F3013091F40160237123822332
:1044800093231F910F910C9494210F931F930091EC
:10449000F1011091F2012091F3013091F4016027B4
:1044A0007127822793271F910F910C9494210895CF
:1044B0002CE0929F800D1124A82FA695A695A69575
:1044C000877051E001C0550F8A95EAF785E0A89FF3
:1044D000D001112420E030E070E0F901EA0FFB1F69
:1044E000ED52FE4F4081CB01022E02C0969587957A
:1044F0000A94E2F781709927819584278523842780
:1045000080832F5F3F4F2530310539F708952CE028
:10451000929F800D1124682F669566956695982F59
:10452000977085E0689FB001112440E050E080E082
:10453000FA01E60FF71FED52FE4F208130E0092E01
:1045400002C0369527950A94E2F721703327042E8E
:1045500001C0220F0A94EAF7822B4F5F5F4F45306C
:10456000510531F70895BF92CF92DF92EF92FF92FB
:104570000F931F93CF93DF938C01C090F501D090E0
:10458000F601E090F701F090F8018091F10190912F
:10459000F201A091F301B091F401C82AD92AEA2AC4
:1045A000FB2ACFE1D0E0D701C6010C2E04C0B6959E
:1045B000A795979587950A94D2F780FF07C0BC2EE0
:1045C000B8018C2F0E94490B019719F4219758F7D5
:1045D000B12C8B2DDF91CF911F910F91FF90EF9018
:1045E000DF90CF90BF900895CF93DF93EC010E94AE
:1045F000B322BE010E94490BDF91CF9108951F9312
:10460000CF93DF93EB0190919A01992321F0CB0195
:104610000E94F42213C0882349F0CB010E94B322E8
:10462000182F682FCE010E94582204C0CB010E948F
:104630008722182FBE01812F0E94490BDF91CF9155
:104640001F9108958091FE0108950E940B262091EC
:10465000FC013091FD018217930750F00E940B2658
:104660002091FC013091FD01821B930B9C010AC03B
:104670000E940B262091FC013091FD012095309580
:10468000280F391F81E0203D374008F480E008956D
:104690008091FB0185958595859508958091FB0115
:1046A000877008950E940B262091F9013091FA013C
:1046B00082179307A8F00E940B262091F9013091F0
:1046C000FA01821B930B803D974010F480E013C0E9
:1046D0008091FB0182FB882780F991E089270BC03C
:1046E0000E940B262091F9013091FA012095309516
:1046F000820F931FE8CF817008959091FB0197700E
:1047000081E009F480E0089580910A020895909173
:104710000A02892B80930A020895809590910A02DB
:10472000892380930A02089510920A0208959091B5
:104730000902892B809309020895809590910902BE
:104740008923809309020895109209020895909197
:104750000802892B809308020895809590910802A1
:104760008923809308020895109208020895809189
:10477000FF01089508950C94BA239091FE018917C2
:1047800021F08093FE010C94BB2308958091FE01DB
:10479000882329F01092FE0180E00C94BB23089539
:1047A00008950C94D023CF939091FF01981769F04E
:1047B000C82F0E940B269093FD018093FC01C093AB
:1047C000FF018C2FCF910C94D123CF91089580912C
:1047D000FF01882349F01092FF011092FD01109211
:1047E000FC0180E00C94D1230895E0911001F09138
:1047F000110180910A028083E0911001F091110172
:10480000908180910902892B8083E0911001F091C1
:104810001101908180910802892B80838091FF0192
:10482000882321F10E942523882371F080910B02B7
:1048300080FF08C083EF99E09F938F930E94DF066B
:104840000F900F900E94E723E0911001F091110169
:1048500090818091FF01892B80838091100190913C
:1048600011010E94422581110E94E72380911001CD
:10487000909111010C947A1708950C943C2498E0BF
:10488000899F90011124262B2093FB010E94BA21BD
:104890000E940B269093FA018093F9018091FB010D
:1048A0008595859585950C943D241092FB01109279
:1048B000FA011092F90180E00C943D242091FB0153
:1048C000809582238093FB01982F977079F430E0D4
:1048D000482F082E000C550B2417350739F0859505
:1048E000859585950E94DB210C945524089590931D
:1048F00063018093620108958295982F9C7C392FE3
:1049000036953695282F237344E0249FC001112447
:10491000932F982B292F2A7A2695892F8575880F12
:10492000822B08951F93CF93DF931F92CDB7DEB7ED
:1049300099830E947C24182F9981892F0E947C24BE
:10494000212F30E0322F2227A901482BCA010F90D6
:10495000DF91CF911F91089580E090E00E943C305C
:1049600021E08D3E9E4F09F020E0822F089582E0E5
:1049700090E00C942E3083E090E00C942E30682F61
:1049800083E090E00C94423084E090E00C942E3070
:10499000682F84E090E00C94423086E090E00C9424
:1049A0002E30682F86E090E00C944230AB01BC01C1
:1049B0008FE090E00C945430AB01BC0183E190E0B7
:1049C0000C94543060E070E0CB010C94DC2460E087
:1049D00070E0CB010E94D6240C94E2246DEE7EEFB1
:1049E00080E090E00E94603060E082E090E00E9411
:1049F000423060E083E090E00E9442301092F50186
:104A00001092F6011092F7011092F80160E084E034
:104A100090E00E94423060E085E090E00E944230E9
:104A200060E086E090E00E9442306FEF87E090E027
:104A30000E94423040E050E0BA0188E090E00E94DD
:104A4000543060E08DE090E00E94423040E050E061
:104A5000BA0188E190E00E94543060E087E190E084
:104A60000E94423040E050E0BA018CE190E00E94A8
:104A7000543060E080E290E00E9442300C94E724E1
:104A80000C94EE24FC01329697E080E0915029F0DE
:104A900021912223D9F38F5FF9CF08959C01FC0166
:104AA00032969FEF80E04191461789F09F3F19F4BD
:104AB000411101C0982F8F5F8630A9F79F3F39F0D1
:104AC000F901E90FF11D97FDFA95628308950895A4
:104AD000FC01329608962081261301C0108231967F
:104AE000E817F907C1F708950C944E250C94682532
:104AF000029626E0FC0111922A95E9F7089508959F
:104B00000C947F250E94802580915502843061F1AC
:104B100010920C0220E488E190E00FB6F894A8957A
:104B2000809360000FBE2093600080E00E94A50883
:104B300080E00E941F090E94802583B7817F8460E6
:104B400083BF83B7816083BF7894889583B78E7F56
:104B500083BF0FB6F894A895809160008861809318
:104B60006000109260000FBE089508950895CF93DD
:104B70000E94B5250E948B0E0E94B625C0E08C2FA6
:104B80000E94DC0D892B29F4CF5FC430C1F780E08F
:104B900001C081E0CF91089508950C94CC250E9426
:104BA0007E1D0E94A4260E946E170E941F090C946D
:104BB000CD251F920F920FB60F9211248F939F93C2
:104BC000AF93BF9380910C02811113C080914A0270
:104BD00090914B02A0914C02B0914D024196A11DC3
:104BE000B11D80934A0290934B02A0934C02B09364
:104BF0004D02BF91AF919F918F910F900FBE0F907B
:104C00001F90189582E084BD93E095BD9AEF97BD03
:104C100080936E0008952FB7F89480914A02909186
:104C20004B02A0914C02B0914D022FBF0895CF923C
:104C3000DF92EF92FF920F931F932FB7F89440915A
:104C40004A0250914B0260914C0270914D022FBF6D
:104C50006A017B01EE24FF248C0120E030E0C016C5
:104C6000D106E206F30610F4415051099A01281BBF
:104C7000390BC9011F910F91FF90EF90DF90CF90FA
:104C8000089578941F920F920FB60F9211248F936C
:104C90009F93AF93BF9380914A0290914B02A09152
:104CA0004C02B0914D020196A11DB11D80934A02A4
:104CB00090934B02A0934C02B0934D02BF91AF91E1
:104CC0009F918F910F900FBE0F901F90189581E0CC
:104CD0008093E00080E28093D8001092C9008FE1B9
:104CE0009EE40197F1F700C0000087E090EBDC0143
:104CF00080935E0290935F02A0936002B093610282
:104D00009CE088E10FB6F894A895809360000FBEF0
:104D100090936000FFCF0E94AC24811102C00E94DA
:104D200040250E94B72480930B020E94C42490E087
:104D300090934F0280934E020E94BB24682F70E034
:104D400080E090E00C9459210E94AC24811102C0B3
:104D50000E9440250E94CD2480935002282F269542
:104D60002695269530E02530310524F08770806245
:104D7000809350028091500280FF04C086958695F2
:104D8000869501C080E00C94A50820915002822FE6
:104D9000869586958695482F50E04430510554F409
:104DA0008F5F982F990F990F990F822F8770892BFA
:104DB00080935002809150028160809350020E9443
:104DC000D12480910B0280FF11C080915002869502
:104DD000869586951F928F938CE69AE09F938F938A
:104DE0000E94DF060F900F900F900F90809150025D
:104DF0008695869586950C94A50880915002982FEB
:104E0000969596959695A1F0915E990F990F990FA9
:104E10008770892B80935002887F91E009F490E09D
:104E20008091500290FB80F9809350020E94D1241F
:104E300080910B0280FF11C080915002869586956B
:104E400086951F928F9384E59AE09F938F930E949B
:104E5000DF060F900F900F900F9080915002869573
:104E6000869586950C94A5088091500280FD1FC000
:104E7000816080935002813019F489E08093500260
:104E8000809150020E94D12480910B0280FF08C0C3
:104E90008CE29AE09F938F930E94DF060F900F9011
:104EA000809150028695869586950C94A508089564
:104EB0008091500280FF14C08E7F809350020E9428
:104EC000D12480910B0280FF08C089E19AE09F9372
:104ED0008F930E94DF060F900F9080E00C94A5083E
:104EE0000895CF93C0915002C17080910B0280FF52
:104EF0000CC01F92CF938EE39AE09F938F930E94F2
:104F0000DF060F900F900F900F90CC2319F0CF91E8
:104F10000C945827CF910C94342790915002892FEC
:104F20008695869586958F5F8F719770853038F45A
:104F3000880F880F880F892B8093500202C09093AE
:104F4000500280915002887F91E009F490E08091B6
:104F5000500290FB80F9809350020E94D1248091EE
:104F60000B0280FF11C08091500286958695869530
:104F70001F928F9385E09AE09F938F930E94DF06A4
:104F80000F900F900F900F9080915002869586950C
:104F900086950C94A508853008F084E0880F880F6A
:104FA000880F909150029770892B80935002887FD0
:104FB00091E009F490E08091500290FB80F9809399
:104FC00050020E94D1248091500286958695869544
:104FD0000C94A50880911802089508959FB7F8943D
:104FE00010920F029FBF90915502943009F057C064
:104FF0009091E9009F703091EC00232F217030FDDB
:1050000020E8922B23E02093E9002091EB0020FF81
:1050100043C02091EE0027FF3FC020910D022223C4
:1050200021F02091E80025FF37C010920D0226E004
:105030003091E80035FD15C030915502343061F5EE
:105040003091EB0035FD28C0215021F481E08093A0
:105050000D0222C0EFE9FFE03197F1F700C0000038
:10506000E7CF8093F1008091E80085FD0AC0809130
:10507000E80080FFFCCF8091E8008E778093E80005
:1050800006C08FB7F89421E020930F028FBF9F7066
:105090009093E90080E008959F709093E9008FEF6E
:1050A00008950F931F93CF93DF9300D01F92CDB736
:1050B000DEB78C010E94E32A823011F0843021F5A2
:1050C00084E089831B830A8382E08093E9008FEF69
:1050D0009091E800815095FD06C095ED9A95F1F705
:1050E00000008111F5CF8091E80085FF0DC040E000
:1050F00050E063E070E0CE0101960E94002B8091A9
:10510000E8008E778093E8000F900F900F90DF916A
:10511000CF911F910F910895CF93DF9300D01F92ED
:10512000CDB7DEB720915502243031F523E0298335
:10513000805891099B838A8382E08093E9008FEFF6
:105140009091E800815095FD06C095ED9A95F1F794
:1051500000008111F5CF8091E80085FF0DC040E08F
:1051600050E063E070E0CE0101960E94002B809138
:10517000E8008E778093E8000F900F900F90DF91FA
:10518000CF910895CF93DF93EC010E94E32A823000
:1051900011F0843039F581E08093E9008FEF909130
:1051A000E800815095FD06C095ED9A95F1F7000055
:1051B0008111F5CF8091E80085FF14C040E050E0F8
:1051C00068E070E0CE010E94002B8091E8008E77AD
:1051D0008093E80088E0FE01A0E1B2E001900D922A
:1051E0008A95E1F7DF91CF91089589EA9AE00E94CC
:1051F000460680915402811109C00E94952C0E949C
:10520000F22C8091E20084608093E200089585EAA8
:105210009AE00E94460610925402089581EA9AE0AC
:105220000C9446068DE99AE00C94460689E99AE0CA
:105230000E9446060C94CF2520910E022F5F822FEC
:1052400062E30E94AB2F992319F020930E02089578
:1052500010920E0280910F02882371F18091550205
:10526000843041F58091E9008F702091EC00922FFD
:10527000917020FD90E8892B93E09093E900909144
:10528000EB0090FF14C09091EE0097FF10C090913A
:10529000E80095FF03C01092F100F9CF9091E8006B
:1052A00090FF05C09091E8009E779093E8008F7082
:1052B0008093E90010920F02089542E061EC81E0D2
:1052C0000E940F2C42E261EC82E00E940F2C42E22D
:1052D00061EC83E00C940F2C80915702833009F429
:1052E00060C030F4813071F0823009F499C00895C3
:1052F0008A3009F485C08B3009F46BC0893009F01D
:10530000A7C020C080915602813A09F0A1C08091C7
:10531000E800877F8093E80080915A0290915B02B9
:10532000892B21F468E080E192E003C060E080E036
:1053300090E070E00E944B2B8091E8008B77809387
:10534000E800089580915602813209F081C0809171
:105350005A0290915B02029708F07AC08091E800AF
:10536000877F8093E8008091E80082FD05C08091EE
:1053700055028111F8CF6CC02091F3008091F200AA
:1053800090E0922B029729F48091F1008B7F81307D
:1053900021F48091F100809318028091E8008B77CE
:1053A00053C080915602813A09F052C080915A024E
:1053B00090915B02892B09F04BC08091E800877FB8
:1053C0008093E8008091E80080FFFCCF80911C0171
:1053D00036C0809156028132D9F580915A0290915F
:1053E0005B02892BA9F58091E800877F8093E80014
:1053F0000E94442C8091580280931C010C947E1DC5
:1054000080915602813221F58091E800877F809358
:10541000E8000E94442C809159028093190208955B
:1054200080915602813AA1F48091E800877F8093B1
:10543000E8008091E80080FFFCCF80911902809302
:10544000F1008091E8008E778093E8000C94442C62
:10545000089584B7877F84BF0FB6F894A89580918C
:105460006000886180936000109260000FBE80E849
:1054700080936100109261000E94FD170E94952C9C
:105480000E94F22C8091E20084608093E2008EEE14
:1054900097E20E94772478940E94802F0E9405183A
:1054A00082E191E00E94691788E89AE00E9446062E
:1054B00080915502853089F484E89AE00E9446067E
:1054C0000E94822580915302882391F30E94B72580
:1054D000882371F30E94EA2AEBCF0E9439180E94B8
:1054E000EC15E6CF0C94742A292F3327233031058D
:1054F000C9F064F42130310581F02230310509F022
:1055000049C08BE590E02DED3AE048C021323105ED
:1055100021F12232310571F13DC082E190E028E3B2
:105520003BE03CC099278130910571F02CF4892B28
:1055300089F5E9EDFAE00DC08230910541F003975D
:1055400049F5EDEAFAE005C0E7ECFAE002C0E3EB6A
:10555000FAE0849190E09F0121C063307105D0F49E
:10556000660F771FFB01E55AFE4F2081318189E0EC
:1055700090E014C06330710568F4FB01EE0FFF1F6B
:10558000EB5AFE4F20813181FB01EE5AFE4F8081A4
:1055900090E004C080E090E020E030E0FA01318348
:1055A000208308950895CF93C82F0E94D22AC093D4
:1055B0001A02CF91089580915502843011F081E054
:1055C000089582E0089580911A02811102C00C941E
:1055D000DB2A089580E189BD82E189BD09B400FE1E
:1055E000FDCF8091D8008F7D8093D8008091E0001E
:1055F00082608093E0008091E00081FDFCCF0895FF
:10560000CF92DF92EF92FF920F931F93CF93DF938E
:10561000EC018B016A010E94632C811133C0C1141B
:10562000D10439F0F60180819181081B190BC80F54
:10563000D91FE12CF12C0115110519F18091E80019
:1056400085FD16C08091E8008E778093E800C11434
:10565000D10449F0F60180819181E80EF91EF182B2
:10566000E08285E00FC00E94632C882321F30AC0EA
:1056700089918093F10001501109FFEFEF1AFF0AA1
:10568000DACF80E0DF91CF911F910F91FF90EF90E3
:10569000DF90CF90089520915C0230915D02261733
:1056A000370748F06115710539F42091E8002E772D
:1056B0002093E80001C0B90140E061157105A9F12E
:1056C00020915502222309F443C0253009F442C039
:1056D0002091E80023FD40C02091E80022FD32C067
:1056E0002091E80020FFE9CF4091F3002091F200E3
:1056F00030E0342BFC01CF016115710559F02830E1
:10570000310540F481918093F100615071092F5F60
:105710003F4FF1CF41E02830310509F040E02091C2
:10572000E8002E772093E800C8CF4111C9CF0AC006
:1057300080915502882361F0853061F08091E80006
:1057400083FD0AC08091E80082FFF2CF80E00895D7
:1057500082E0089583E0089581E0089520915C023D
:1057600030915D022617370748F06115710539F44D
:105770002091E8002E772093E80001C0B901FC01D8
:1057800020E06115710591F180915502882309F49B
:1057900040C0853009F43FC08091E80083FD3DC0E2
:1057A0008091E80082FD2FC08091E80080FFE9CF62
:1057B0002091F3008091F20090E0922B6115710529
:1057C00059F08830910540F424912093F1003196EE
:1057D000615071090196F2CF21E0089709F020E0AD
:1057E0008091E8008E778093E800CBCF2111CCCF59
:1057F0000AC080915502882361F0853061F0809164
:10580000E80083FD0AC08091E80082FFF2CF80E0CB
:10581000089582E0089583E0089581E00895982F27
:10582000973058F59093E900981739F07091EC0093
:105830002091ED005091F00003C0242F762F50E00E
:1058400021FF19C03091EB003E7F3093EB00309187
:10585000ED003D7F3093ED003091EB0031603093EF
:10586000EB007093EC002093ED005093F00020913A
:10587000EE0027FF07C09F5FD3CF8F708093E900B2
:1058800081E0089580E008958091560287FF11C05D
:105890008091E80082FD05C0809155028111F8CF0A
:1058A00011C08091E8008B770BC08091550288234E
:1058B00049F08091E80080FFF8CF8091E8008E7772
:1058C0008093E80008952091E4003091E50095E68A
:1058D0004091EC00842F817040FF22C08091E8004D
:1058E00080FD1CC080915502882391F0853091F095
:1058F0008091EB0085FD10C04091E4005091E500DF
:105900004217530729F39A01915011F784E0089543
:1059100082E0089583E0089581E0089580E008958D
:105920004091E80042FFDECF08950E94032D0E94BF
:105930000B2DE0EEF0E0808181608083E8EDF0E007
:1059400080818F77808319BCA7EDB0E08C918E7F2A
:105950008C9380818F7E80831092540208950F93E0
:105960001F93CF93DF930E94032D0E940B2DC8ED50
:10597000D0E088818F778883888180688883888158
:105980008F7D888319BC109255021092510210929B
:1059900053021092520200EE10E0F80180818B7FDA
:1059A000808388818160888342E060E080E00E949B
:1059B0000F2CE1EEF0E080818E7F8083E2EEF0E05C
:1059C000808181608083808188608083F80180810C
:1059D0008E7F8083888180618883DF91CF911F9142
:1059E0000F910895E8EDF0E080818F7E8083E7EDF0
:1059F000F0E080818160808384E082BF81E08093D9
:105A000054020C94AF2CE8EDF0E080818E7F80830F
:105A10001092E20008951092DA001092E1000895C9
:105A20001F920F920FB60F9211242F933F934F9313
:105A30005F936F937F938F939F93AF93BF93EF93F6
:105A4000FF938091E10082FF0BC08091E20082FF12
:105A500007C08091E1008B7F8093E1000E941C29A8
:105A60008091DA0080FF1FC08091D80080FF1BC0AA
:105A70008091DA008E7F8093DA008091D90080FFD8
:105A80000DC080E189BD82E189BD09B400FEFDCF72
:105A900081E0809355020E94F52805C019BC109240
:105AA00055020E9407298091E10080FF19C0809172
:105AB000E20080FF15C08091E2008E7F8093E200BB
:105AC0008091E20080618093E2008091D800806242
:105AD0008093D80019BC85E0809355020E9412295A
